:100000000C9450010C9481010C9481010C94810199
:100010000C9481010C9481010C9481010C94810158
:100020000C9481010C9481010C9481010C94810148
:100030000C9481010C9481010C9481010C94810138
:100040000C9481010C9481010C9481010C94810128
:100050000C9481010C9481010C9481010C940F0D7E
:100060000C9481010C94830D0C94590D0C94810116
:100070000C9481010C9481010C9481010C948101F8
:100080000C9481010C9481010C9481010C948101E8
:100090000C9481010C9481010C9481010C94B90D94
:1000A0000C9481010C9481010C9481010C948101C8
:1000B0000C9481010C9481010C9481010C948101B8
:1000C0000C9481010C9481010C9481010C948101A8
:1000D0000C9481010C9481010C9481010C94810198
:1000E0000C9481010C949C020C94FB020C94DC0196
:1000F0000C94CB0A0C9412020C94C10A0C941602B4
:100100000C9428020C949B020C940C020C94310564
:100110000C94FF010C9408020C94DF0A0C94020268
:100120000C9420020C94F30A0C949D020C94DD0EA6
:100130000C94D9020C94FD0A0C94E1010C94240255
:100140000C9430050C94FB010C9453050C94F301B2
:100150000C941A020C94450B0C94F7010C94800338
:100160000C94B70A0C94D50A0C94ED020C940E076B
:100170000C94AD0A0C942E020C94E90A0C94A20A79
:100180000C9440050C9433030C9487050C94CA021C
:100190000C9432020C945A0500000A0B02090C0D53
:1001A0000E0807030401000000000000000000002A
:1001B000000000000000000000000000000000003F
:1001C00000000000121110000000000000000000FC
:1001D000000000000000000000000000000000001F
:1001E0002200250028002B002E00310034000201DF
:1001F0000000050108010B01000021002400270078
:100200002A002D0030003300010100000401070125
:100210000A0105050505070508080808020202028B
:100220000A0A080804040404010101010101010192
:100230000303030303030303040707070C0C0C0C5D
:100240000C0C0C0C02020202060606060606060646
:100250000B0B0B0B0B0B0B0B0102102020080810D3
:100260002040102040800201020108040201010226
:1002700004081020408080402010080402018004FF
:10028000020180402010080402010804020101025A
:100290000408102040800102040810204080DD0E78
:1002A00011241FBECFEFD1E2DEBFCDBF00E00CBFF7
:1002B0002AE0A6ECB7E001C01D92A433B207E1F733
:1002C00017E0A0E0B2E0EAE2F2E300E00BBF02C018
:1002D00007900D92A63CB107D9F711E0C0E5D1E037
:1002E00000E006C021970109802FFE010E94A3189B
:1002F000CF34D10780E00807A9F70E94490F0C947A
:1003000013190C94000091E09093EA088093E90897
:100310001092E8081092E708089590E0FC01E85A6E
:10032000FD4F24918E5E9D4FFC018491882399F0AE
:1003300090E0880F991FFC01E850FE4FA591B49101
:10034000FC01E252FE4F859194918FB7F894EC91A5
:10035000E22BEC938FBF0895282F30E0F901E85687
:10036000FE4F9491F901E85AFD4F44912E5E3D4FA6
:10037000F9012491222309F435C0992311F19150F8
:100380009231F8F4E92FF0E08827E653FE4F8F4FC3
:100390000C94A318FB01FF01DC01F301F701E1015B
:1003A000020208020C02120216021A0220022402A1
:1003B000E10128022E023202809180008F77809323
:1003C0008000E22FF0E0EE0FFF1FE252FE4FA591FA
:1003D000B4918FB7F894EC91611148C040954E23C9
:1003E0004C938FBF0895809180008F7DE8CF8091DE
:1003F0008000877FE4CF84B58F7784BDE2CF84B55A
:100400008F7DFBCF8091B0008F778093B000D9CFE4
:100410008091B0008F7DF9CF809190008F7780938D
:100420009000CFCF809190008F7DF9CF8091900088
:10043000877FF5CF8091A0008F778093A000C1CFF8
:100440008091A0008F7DF9CF8091A000877FF5CFAC
:10045000809120018F7780932001B3CF809120017C
:100460008F7DF9CF80912001877FF5CF4E2BB8CFBC
:100470003FB7F8948091950890919608A0919708BD
:10048000B091980826B5A89B05C02F3F19F001969A
:10049000A11DB11D3FBFBA2FA92F982F8827BC01DE
:1004A000CD01620F711D811D911D42E0660F771F06
:1004B000881F991F4A95D1F708958F929F92AF9206
:1004C000BF92CF92DF92EF92FF924B015C010E94AC
:1004D00038026B017C010E9438026C197D098E097B
:1004E0009F09683E734081059105A8F321E0821AB7
:1004F0009108A108B10888EEC80E83E0D81EE11C5F
:10050000F11C81149104A104B10429F7FF90EF902C
:10051000DF90CF90BF90AF909F908F9008952FB7AE
:10052000F89460919108709192088091930890914D
:1005300094082FBF089508950895AF92BF92CF9267
:10054000DF92EF92FF920F931F93CF93DF936C0193
:100550007B018B01040F151FEB015E01AE18BF0874
:10056000C017D10759F06991D601ED91FC91019026
:10057000F081E02DC6011995892B79F7C501DF912E
:10058000CF911F910F91FF90EF90DF90CF90BF9090
:10059000AF900895FC01538D448D252F30E0842FBA
:1005A00090E0821B930B541710F0CF96089501979B
:1005B0000895FC01918D828D981761F0A28DAE0F88
:1005C000BF2FB11D5D968C91928D9F5F9F73928F0F
:1005D00090E008958FEF9FEF0895FC01918D828D3B
:1005E000981731F0828DE80FF11D858D90E0089508
:1005F0008FEF9FEF0895FC01918D228D892F90E060
:10060000805C9F4F821B91098F73992708958BEE11
:1006100098E00E94FB0221E0892B09F420E0822F60
:100620000895FC01A48DA80FB92FB11DA35ABF4F87
:100630002C91848D90E001968F739927848FA689E1
:10064000B7892C93A089B1898C91837080648C9335
:10065000938D848D981306C00288F389E02D8081E4
:100660008F7D80830895EF92FF920F931F93CF9316
:10067000DF93EC0181E0888F9B8D8C8D98131AC0DD
:10068000E889F989808185FF15C09FB7F894EE89C4
:10069000FF896083E889F989808183708064808321
:1006A0009FBF81E090E0DF91CF911F910F91FF906C
:1006B000EF900895F62E0B8D10E00F5F1F4F0F7314
:1006C0001127E02E8C8D8E110CC00FB607FCFACFCF
:1006D000E889F989808185FFF5CFCE010E94110359
:1006E000F1CFEB8DEC0FFD2FF11DE35AFF4FF082A0
:1006F0009FB7F8940B8FEA89FB8980818062CFCF06
:10070000CF93DF93EC01888D8823B9F0AA89BB8948
:10071000E889F9898C9185FD03C0808186FD0DC033
:100720000FB607FCF7CF8C9185FFF2CF808185FF54
:10073000EDCFCE010E941103E9CFDF91CF91089553
:1007400080E090E0892B29F00E94070381110E942C
:10075000000080E090E0892B49F080E090E0892B58
:1007600029F00E94000081110E94000080E090E0CA
:10077000892B49F080E090E0892B29F00E9400004D
:1007800081110E94000080E090E0892B49F080E018
:1007900090E0892B29F00E94000081110C94000048
:1007A0000895CF92DF92EF92FF9261157105810556
:1007B0009105F1F0DC01CB010197A109B10930E00D
:1007C00020E06C017D01CC24CD28CE28CF2839F043
:1007D000B695A795979587952F5F3F4FF2CF322F0C
:1007E0002227822B932BFF90EF90DF90CF900895DC
:1007F00090E080E0F8CF20910608260F3327331FC2
:1008000021323105ECF42091E108FC0190E080E018
:10081000243069F082E00895A09106082191AC018E
:100820004A51584FA40FB52FB11D2C93019686172E
:1008300098F380910608680F6093060880E0089599
:1008400081E008951092E10881E08093C008109241
:10085000BB0861E084E10E94AC0161E085E10E9497
:10086000AC01E9EBF0E080818E7F808380818D7F19
:10087000808388E48093B80085E48093BC00089569
:10088000CF93DF9391E090932D088823B9F0C09126
:10089000B800D091BA008091BC008A7B8093BC00E4
:1008A00060E084E10E94AC0160E085E10E94AC015F
:1008B0000E942204D093BA00C093B800DF91CF9178
:1008C0000895CF92DF92EF92FF920F931F93CF93F1
:1008D000DF93D82FC62F613208F098C00E943802EB
:1008E0006B017C018091E10881116BC081E08093F4
:1008F000E1088093C0089FEF9093BF081092BE0854
:100900009C0F9093BD088093BC088091BC08DD0FBC
:10091000D82BD093BC088091BB08813009F078C0F7
:100920001092BB080E9438026B017C018091BC08C8
:100930008093BB008091E3089091E408A091E508C2
:10094000B091E608892B8A2B8B2BA1F00E943802EC
:100950000091E3081091E4082091E5083091E60841
:100960006C197D098E099F09061717072807390793
:1009700008F448C08091BC0083FDD8CF85EC8093FB
:10098000BC000E9438026B017C018091E10881303B
:1009900009F440C08091BE088C1710F4C091BE08C5
:1009A000EBE9F8E0A1ECB8E080E08C1355C08C2FA7
:1009B000DF91CF911F910F91FF90EF90DF90CF903B
:1009C00008958091E3089091E408A091E508B09122
:1009D000E608892B8A2B8B2B09F484CF0E943802DE
:1009E0000091E3081091E4082091E5083091E608B1
:1009F0006C197D098E099F09061717072807390703
:100A000008F070CF8091E2080E944004C0E0CFCF90
:100A100085EEB5CF8091E3089091E408A091E508B8
:100A2000B091E608892B8A2B8B2B09F4AECF0E945C
:100A300038020091E3081091E4082091E508309114
:100A4000E6086C197D098E099F0906171707280704
:100A5000390708F09ACFD6CF91919D938F5FA5CF9C
:100A60000895E0919A0880919908E81730F4F0E031
:100A7000EF53F74F808190E008958FEF9FEF089537
:100A800090919A08809199082FEF3FEF981748F4BA
:100A9000E92FF0E0EF53F74F208130E09F5F909314
:100AA0009A08C90108958091990890919A08891B24
:100AB000990B0895CF92DF92EF92FF920F931F93BD
:100AC000CF93DF937C01CB018A012091EA08222396
:100AD00089F0EB016B01C40ED51ECC15DD0569F064
:100AE0006991D701ED91FC910190F081E02DC70152
:100AF0001995F3CF642F0E94FB03C801DF91CF91BA
:100B00001F910F91FF90EF90DF90CF900895CF93BA
:100B1000DF931F92CDB7DEB769832091EA082223C5
:100B2000F9F02091E708203258F021E030E0FC0194
:100B30003383228390E080E00F90DF91CF9108957E
:100B40008091E808E82FF0E0EA53F84F998190830C
:100B50008F5F8093E8088093E70881E090E0ECCF16
:100B600061E0CE0101960E94FB03F7CFCF92DF92A6
:100B7000EF92FF920F931F93CF93DF93D091E708EB
:100B800081E0D13208F09CC0C091E9080E9438028F
:100B90006B017C018091E10881116CC082E080933F
:100BA000E10881E08093C0088FEF8093BF08109226
:100BB000BE08D093BD08A6ECB7E0EBE9F8E080E012
:100BC000D8138DC01092BC088091BC08CC0FC82BE4
:100BD000C093BC088091BB08813009F084C010929A
:100BE000BB080E9438026B017C018091BC08809395
:100BF000BB008091E3089091E408A091E508B091D2
:100C0000E608892B8A2B8B2BA1F00E9438020091D9
:100C1000E3081091E4082091E5083091E6086C198A
:100C20007D098E099F09061717072807390708F459
:100C300042C08091BC0083FDD8CF85EC8093BC007E
:100C40000E9438026B017C018091E108823009F436
:100C50004CC08091BF088F3F09F469C08091BF08E4
:100C6000803209F466C08091BF08803309F463C004
:100C700084E026C08091E3089091E408A091E50803
:100C8000B091E608892B8A2B8B2B09F483CF0E9425
:100C900038020091E3081091E4082091E5083091B2
:100CA000E6086C197D098E099F09061717072807A2
:100CB000390708F06FCF8091E2080E94400485E078
:100CC0001092E8081092E7081092EA08DF91CF919D
:100CD0001F910F91FF90EF90DF90CF9008959D911D
:100CE00091938F5F6DCF85EEA9CF8091E3089091AE
:100CF000E408A091E508B091E608892B8A2B8B2B9C
:100D000009F4A2CF0E9438020091E3081091E40890
:100D10002091E5083091E6086C197D098E099F093C
:100D2000061717072807390708F08ECFC4CF80E0D1
:100D3000C7CF82E0C5CF83E0C3CFFF920F931F934D
:100D4000CF93DF93EC01F62E142F052F888D0E9490
:100D500083018E899F89DC01ED91FC910190F081E6
:100D6000E02D60E019958E899F89DC01ED91FC9161
:100D70000190F081E02D6F2D19958E899F89DC01FE
:100D8000ED91FC910190F081E02D602F19958E89F5
:100D90009F89DC01ED91FC910190F081E02D612FA4
:100DA00019958E899F890E94B6058B87DF91CF9117
:100DB0001F910F91FF9008950F931F93CF93DF938F
:100DC000EC01062F142F888D0E9483018E899F8944
:100DD000DC01ED91FC910190F081E02D60E019952E
:100DE0008E899F89DC01ED91FC910190F081E02DCD
:100DF000602F19958E899F89DC01ED91FC910190FE
:100E0000F081E02D612F19958E899F890E94B6058A
:100E10008B87DF91CF911F910F91089590E080E033
:100E20000895CF93C82F80E70E94830161E070E0AE
:100E300001C0660FCA95EAF788E899E00E94870525
:100E400088E899E00E94B605811107C08BEA94E01A
:100E50000197F1F781E0CF91089580E0FCCFCF9327
:100E6000DF93C82FD0E0FE01E85FFD4F60E0808196
:100E70000E94AC01CC5FDD4F60E08881DF91CF91B3
:100E80000C94AC0180E00E942F0781E00E942F07A4
:100E900082E00E942F0783E00C942F07FC01019051
:100EA0000020E9F73197AF01481B590BBC018BEECD
:100EB00098E00C949D028F929F92AF92BF920F93F5
:100EC0001F93CF93DF93CDB7DEB7A1970FB6F894FA
:100ED000DEBF0FBECDBF19A2423008F44AE08E013A
:100EE0000F5D1F4F842E912CB12CA12CA5019401D4
:100EF0000E946C17E62FB901CA01EA30F4F4E05DF4
:100F0000D801EE938D01232B242B252B79F790E02C
:100F100080E0109719F0CD010E944E07A1960FB600
:100F2000F894DEBF0FBECDBFDF91CF911F910F911F
:100F3000BF90AF909F908F900895E95CE1CF0C94A3
:100F40004E0784E392E00C944E07CF93DF930E9408
:100F50004E07EC010E94A1078C0F9D1FDF91CF91DE
:100F60000895EC010E9442070E94A10787E392E0E6
:100F70000E94A507CE010E94A50786E492E00E9488
:100F8000A5070E94420768EE73E080E090E00E94AF
:100F90005D02F7CFCF92DF92EF92FF92CF93DF9374
:100FA0006C01990FEE08FF08F7FE19C06DE28BEE99
:100FB00098E00E943303EC0166277727CB016C1978
:100FC0007D098E099F094AE00E945B078C0F9D1FD7
:100FD000DF91CF91FF90EF90DF90CF9008954AE09E
:100FE000C701B601DF91CF91FF90EF90DF90CF90D6
:100FF0000C945B07CF93DF930E94CA07EC010E9419
:10100000A1078C0F9D1FDF91CF910895BC0190E047
:1010100080E04AE00C945B070F931F93CF93DF931C
:10102000EC01162F072F888D0E9483018E899F89DE
:10103000DC01ED91FC910190F081E02D602F19957C
:101040008E899F89DC01ED91FC910190F081E02D6A
:10105000612F19958E899F890E94B6058B8762E062
:10106000888D0E94610410929A08809399088E8955
:101070009F89DC01ED91FC910284F385E02D1995A7
:1010800000E0182F8E899F89DC01ED91FC9102848C
:10109000F385E02D1995802B912BDF91CF911F9136
:1010A0000F9108951F93CF93DF93EC01162F888D36
:1010B0000E9483018E899F89DC01ED91FC91019052
:1010C000F081E02D60E019958E899F89DC01ED911A
:1010D000FC910190F081E02D612F19958E899F89F7
:1010E0000E94B6058B8761E0888D0E946104109292
:1010F0009A08809399088E899F89DC01ED91FC9173
:101100000284F385E02D1995DF91CF911F91089509
:101110004F925F927F928F929F92AF92BF92CF92A7
:10112000DF92EF92FF920F931F93CF93DF93082FDD
:101130004B01482E512CF201E45FFD4F8081883035
:10114000B0F08DE592E00E94A507C0E08C2FDF9102
:10115000CF911F910F91FF90EF90DF90CF90BF90B4
:10116000AF909F908F907F905F904F9008950E94D6
:101170001107782E882329F357E2F52E0F9D800161
:1011800011240C56164F0E948F02D8015D967C9355
:101190006E935C97F49CE001F59CD00D1124CC5625
:1011A000D64F6E01B9E1CB0ED11C5E01ECE1AE0E63
:1011B000B11C61E370E0C8010E94520880FF2AC0A0
:1011C000D6018D919C91892BA1F30E948F02F5018C
:1011D00020813181621B730BD6018D919C91861702
:1011E000970738F781E08B8F90E080E0D40111966B
:1011F0009C938E9387E2849DF001859DF00D1124D0
:10120000EC56F64FC38D138ECC2309F448C28BE7FE
:1012100092E099CF27E2249DE001259DD00D112475
:10122000CC56D64F888D0E9483018E899F89DC0120
:10123000ED91FC910190F081E02D60E019958E898F
:101240009F89DC01ED91FC910190F081E02D69E82E
:1012500019958E899F890E94B6058B8761E1888DDB
:101260000E94610410929A08809399088E899F8940
:10127000DC01ED91FC910284F385E02D19958C87BA
:101280008E899F89DC01ED91FC910284F385E02D2C
:1012900019958E899F89DC01ED91FC910284F3857B
:1012A000E02D19958D878E899F89DC01ED91FC9148
:1012B0000284F385E02D19951E868F878E899F897C
:1012C000DC01ED91FC910284F385E02D19952E85CA
:1012D0003F85822B932B9F878E878E899F89DC0188
:1012E000ED91FC910284F385E02D19958E899F89FB
:1012F000DC01ED91FC910284F385E02D19958E8936
:101300009F89DC01ED91FC910284F385E02D199514
:10131000188A898B8E899F89DC01ED91FC9102846A
:10132000F385E02D199528893989822B932B998B88
:10133000888B8E899F89DC01ED91FC910284F38575
:10134000E02D19958E899F89DC01ED91FC91028435
:10135000F385E02D19958E899F89DC01ED91FC9133
:101360000284F385E02D19958E899F89DC01ED912A
:10137000FC910284F385E02D19958E899F89DC010B
:10138000ED91FC910284F385E02D19951A8A8B8BDF
:101390008E899F89DC01ED91FC910284F385E02D1B
:1013A00019952A893B89822B932B9B8B8A8B8E895B
:1013B0009F89DC01ED91FC910284F385E02D199564
:1013C0001C8A8D8B8E899F89DC01ED91FC910284B2
:1013D000F385E02D19952C893D89822B932B9D8BCC
:1013E0008C8B8AA181112EC06BE070E0C8010E9435
:1013F00052088BA368E070E0C8010E9452088CA3D9
:101400004BA14F776BE070E0C8010E94DC064CA155
:101410004370445F68E070E0C8010E94DC0641E070
:101420006DE470E0C8010E94DC0668ED70E0C80160
:101430000E945208482F67E470E0C8010E94DC0651
:1014400081E08AA387E2849DF001859DF00D11243F
:10145000EC56F64F268537852115310509F46FC006
:10146000448955896089718990E080E0640F751F17
:10147000811D911D61157105B1E08B07910520F06B
:101480006FEF7FEF80E090E0CB017727662750E099
:1014900040E00E946C17211531054105510509F402
:1014A0004EC060E070E080E09AE00E946C17211569
:1014B0003105E1E04E07510520F02FEF3FEF40E00E
:1014C00050E0A90164E570E0C8010E949D0687E232
:1014D000849DF001859DF00D1124EC56F64F228974
:1014E0003389ABEDB7E00E9499177C5F8F4F9F4F18
:1014F0002BE096958795779567952A95D1F7718317
:101500006083E485E150E23108F0BFC0F0E0882755
:10151000E357F54F8F4F0C94A318A20AA20AA20A10
:10152000CB0AC10AD50ADF0AF30AFD0A450B450BAF
:10153000E90AAD0A450B450B450BA20AB70A40E084
:1015400050E8C0CF87E2849DF001859DF00D112405
:10155000EC56F64F85E082835EC087E2849DF00101
:10156000859DF00D1124EC56F64F8DE0F4CF87E207
:10157000849DF001859DF00D1124EC56F64F8AE014
:10158000EACF87E2849DF001859DF00D1124EC5691
:10159000F64F84E0E0CF87E2849DF001859DF00D59
:1015A0001124EC56F64F82E0D6CF87E2849DF001FD
:1015B000859DF00D1124EC56F64F81E0CCCF87E2EB
:1015C000849DF001859DF00D1124EC56F64F87E0C7
:1015D000C2CF87E2849DF001859DF00D1124EC5669
:1015E000F64F89E0B8CF87E2849DF001859DF00D2C
:1015F0001124EC56F64F83E0AECF87E2849DF001D4
:10160000859DF00D1124EC56F64F8585811102C0A1
:1016100086E0A1CF128227E2249DC001259D900D76
:1016200011249C012C56364F7901D90154966D91A5
:101630007C9190E080E00E94A81720E030E040E03C
:101640005CE30E94E517F7016383748385839683C7
:101650006089718990E080E00E94A81720E030E066
:1016600040E05CE30E94E517D70117966D937D93E8
:101670008D939C931A9741E066E870E0C8010E9440
:10168000DC06F70180819181B1CD87E2849DF00174
:10169000859DF00D1124EC56F64F8FEF5CCFD28173
:1016A000DD23C9F080E992E00E949F076D2F70E072
:1016B00090E080E04AE00E945B0787EA92E00E94A7
:1016C0009F07F401808191810E94060888EB92E0D7
:1016D0000E94A5073BCD8D919C910197803A9F4038
:1016E00018F08CEB92E0EBCFC72D30CDAF92BF92CC
:1016F000CF92DF92EF92FF920F931F93CF93DF93DE
:10170000082F5B01C12CD12C7601C394C02FD0E0EF
:101710002196B501802F0E948808182F81112EC0B4
:101720008AE094E00E949F07CE010E94CA078FECD6
:1017300092E00E949F074AE0C701B6010E945B0742
:1017400087ED92E00E949F074AE064E170E080E04C
:1017500090E00E945B070E94A1076CE370E080E0CC
:1017600090E00E945D028FEFC81AD80AE80AF80AD2
:1017700085E1C816D104E104F10459F6812FDF9107
:10178000CF911F910F91FF90EF90DF90CF90BF907E
:10179000AF9008954F925F926F927F928F929F9237
:1017A000AF92BF92CF92DF92EF92FF92CF93DF93EF
:1017B0006A017B0120EBC21A21E1D20AE108F1089B
:1017C00021EEC21628ECD20620E1E206F10408F070
:1017D000ECC0EC0160E670E00E945208B82E2E8D3D
:1017E0003F8D50E040E060E070E080E090E40E94D7
:1017F0006C17A0E0B9E00E948E179B01AC01A6E037
:101800005695479537952795AA95D1F7B394BB0C74
:10181000AB2DB0E00E948E172B013C01B6E0769410
:10182000679457944794BA95D1F74B015C0187E0D0
:10183000B694A794979487948A95D1F7C501B4017B
:101840007058814C9F4FA30192010E946C172F3F4B
:1018500031054105510529F020F02FEF30E040E03F
:1018600050E0422F6BE470E0CE010E94DC06C5011F
:10187000B401705F8F4F9F4FA30192010E946C17BC
:10188000CA01B9010E94D103AC016AE570E0CE0142
:101890000E949D06F694E794D794C7949CE0CC0CE4
:1018A000DD1CEE1CFF1C9A95D1F7C501B4016C0D2F
:1018B0007D1D8E1D9F1DA30192010E946C17CA0100
:1018C000B9010E94D103AC016EE570E0CE010E9427
:1018D0009D0663E670E0CE010E945208B82E2E8D60
:1018E0003F8D50E040E060E070E080E090E40E94D6
:1018F0006C17A0E0B9E00E948E179B01AC0166E076
:1019000056954795379527956A95D1F7B394BB0CB3
:10191000AB2DB0E00E948E172B013C01E6E07694DF
:10192000679457944794EA95D1F74B015C01F7E02F
:10193000B694A79497948794FA95D1F7C501B4010A
:10194000705F8F4F9F4FA30192010E946C17CA01D5
:10195000B9010E94D103AC016CE570E0CE010E9498
:101960009D06C701B601680D791D8A1D9B1DA30147
:1019700092010E946C17CA01B9010E94D103AC0107
:1019800061E670E0CE010E949D0681E0DF91CF917B
:10199000FF90EF90DF90CF90BF90AF909F908F908F
:1019A0007F906F905F904F90089580E0EFCF85ED2E
:1019B0008093BC008091E3089091E408A091E50831
:1019C000B091E6080796A11DB11D23E0B695A79535
:1019D000979587952A95D1F72091BC0024FD03C0E7
:1019E0001092E10808954091E3085091E408609155
:1019F000E5087091E608452B462B472B69F30097C5
:101A0000A105B10541F02AE22A95F1F700C001973E
:101A1000A109B109E1CF8091E2080C9440041F9222
:101A20000F920FB60F9211242F933F938F939F9392
:101A3000AF93BF938091910890919208A0919308E1
:101A4000B09194083091900823E0230F2D3758F57A
:101A50000196A11DB11D2093900880939108909349
:101A60009208A0939308B093940880919508909160
:101A70009608A0919708B09198080196A11DB11DF4
:101A80008093950890939608A0939708B093980830
:101A9000BF91AF919F918F913F912F910F900FBE6A
:101AA0000F901F90189526E8230F0296A11DB11DD7
:101AB000D2CF1F920F920FB60F9211240BB60F9236
:101AC0002F933F934F935F936F937F938F939F9346
:101AD000AF93BF93EF93FF938BEE98E00E941103B7
:101AE000FF91EF91BF91AF919F918F917F916F91F6
:101AF0005F914F913F912F910F900BBE0F900FBEB2
:101B00000F901F9018951F920F920FB60F921124ED
:101B10000BB60F922F938F939F93EF93FF93E091C8
:101B2000FB08F091FC088081E0910109F091020925
:101B300082FD1DC09081809104098F5F8F73209179
:101B40000509821741F0E0910409F0E0E551F74FF3
:101B5000958F80930409FF91EF919F918F912F9121
:101B60000F900BBE0F900FBE0F901F9018958081A5
:101B7000F2CF1F920F920FB60F9211240BB60F9255
:101B80002F933F934F935F936F937F938F939F9385
:101B9000AF93BF93EF93FF938091B900887F803616
:101BA00009F44DC008F040C0883209F4A9C028F5F6
:101BB000803109F49DC0C8F4882309F4FBC0883043
:101BC00009F496C0FF91EF91BF91AF919F918F91D2
:101BD0007F916F915F914F913F912F910F900BBE2D
:101BE0000F900FBE0F901F901895883109F488C090
:101BF000803241F78093BF0814C0803409F49DC03F
:101C000040F48033B9F38833E9F68093BF0885EC5C
:101C1000B0C0803509F485C0883509F496C0883491
:101C200089F60E94D70CCECF883909F48CC038F5DC
:101C3000883729F050F4883611F0803719F683E0A0
:101C40008093E1081092280857C0883809F47BC0B7
:101C5000803919F0803809F0B5CF8091280880329A
:101C600008F071C0E091280881E08E0F8093280869
:101C70008091BB00F0E0E85FF74F80833DC0803B80
:101C800039F0E0F4803A09F479C0883A09F09ACF43
:101C900084E08093E1081092070810920608E09112
:101CA0002B08F0912C0819958091060881110FC01E
:101CB00081E0809306081092E60709C0803C09F491
:101CC000A6CF883C09F4A3CF883B09F07BCFE091F5
:101CD000070881E08E0F80930708F0E0EA51F84F83
:101CE00080818093BB00909107088091060829C0ED
:101CF0008091BC088093BB0085EC8093BC0062CFD0
:101D00009091BE088091BD08981758F5E091BE08E3
:101D100081E08E0F8093BE08F0E0E556F74F80819A
:101D2000E9CFE091BE0881E08E0F8093BE088091DC
:101D3000BB00F0E0E556F74F80839091BE0880919C
:101D4000BD089817C8F285E8D8CFE091BE0881E0B9
:101D50008E0F8093BE088091BB00F0E0E556F74FF0
:101D600080838091C00881115CCF81E08093BB08A3
:101D700084EA8093BC001092E10824CF85EC809324
:101D8000BC001092E10880912808803230F4E09184
:101D90002808F0E0E85FF74F10826091280870E0B3
:101DA000E0912908F0912A0888E098E019951092AE
:101DB000280808CF1092BF0834CF1092EE08109276
:101DC000ED0888EE93E0A0E0B0E08093EF089093F8
:101DD000F008A093F108B093F20824E132E03093C8
:101DE000EC082093EB0825EC30E03093F8082093C2
:101DF000F70824EC30E03093FA082093F90820EC3F
:101E000030E03093FC082093FB0821EC30E0309365
:101E1000FE082093FD0822EC30E030930009209367
:101E2000FF0826EC30E0309302092093010910925C
:101E300004091092050910920609109207091092E0
:101E40008B0910928A0980938C0990938D09A09335
:101E50008E09B0938F0986E292E09093890980936E
:101E60008809E4E9F9E048E859E029E283E090E0F4
:101E7000578B468B208F128E118E138E12A213A2B7
:101E800014A296A385A3B7963AE0E033F30781F74F
:101E90000895CF93DF93CDB7DEB766970FB6F8946A
:101EA000DEBF0FBECDBF789484B5826084BD84B59B
:101EB000816084BD85B5826085BD85B5816085BD45
:101EC00080916E00816080936E00109281008091FD
:101ED0008100826080938100809181008160809385
:101EE0008100809180008160809380008091B100AA
:101EF00084608093B1008091B00081608093B000D5
:101F00008091910082608093910080919100816026
:101F100080939100809190008160809390008091E7
:101F2000A10082608093A1008091A10081608093D4
:101F3000A1008091A00081608093A0008091210188
:101F40008260809321018091210181608093210131
:101F50008091200181608093200180917A008460CB
:101F600080937A0080917A00826080937A008091D9
:101F70007A00816080937A0080917A0080688093F3
:101F80007A001092C100E091FB08F091FC0882E019
:101F90008083E091F708F091F8081082E091F90849
:101FA000F091FA0880E1808310920309E091FF0824
:101FB000F091000986E08083E091FD08F091FE0831
:101FC000808180618083E091FD08F091FE0880812E
:101FD00088608083E091FD08F091FE088081806830
:101FE0008083E091FD08F091FE0880818F7D8083E1
:101FF0006CED75E080E090E00E945D020E94A10718
:1020000089ED92E00E94A50708E012E024E0A22EEC
:1020100022E0B22E30E0C32E32E0D32ED8018D91D3
:102020008D010E948D01F50181915F010E948D015A
:10203000D601FD906D018F2D0E948D0161E08F2DE5
:102040000E94AC01B2E00C301B0741F70E9442072E
:1020500010929A08109299081092E8081092E708D6
:102060000E9422048BE992E090932C0880932B0825
:102070008CE992E090932A088093290888E4809361
:10208000B80010922D0888EA91E6A0E0B0E08093B5
:10209000E3089093E408A093E508B093E60881E094
:1020A0008093E2088CEE92E00E94A50780E70E94F0
:1020B000830160E088E899E00E94870588E899E05C
:1020C0000E94B605882321F089EF92E00E94B107B3
:1020D00064E670E080E090E00E945D02ECE0F2E0F7
:1020E000FE8BED8B04E9E02E09E0F02ED12CC12C03
:1020F000412C512C612C80E4782E92E0292E312C39
:102100005601AD89BE891D91BE8BAD8B80E193E0F8
:102110000E949F07BFEFCB1ADB0AC6010E94CA07C5
:1021200085E293E00E949F07612F70E090E080E0DD
:102130004AE00E945B0788EE92E00E94A5071830F3
:1021400038F086E393E00E94A50782E693E0BECFD5
:10215000812F0E9411078823A1F362E370E080E0E1
:1021600090E00E945D0284EF91E0F701928F818FF1
:102170006FE071E0C7010E940C088C3C9A4E09F098
:1021800045C040E070E060E0C7010E94DC068BE8DB
:1021900091E00197F1F741E070E060E0C7010E9433
:1021A000DC0661E070E080E090E00E945D020E9449
:1021B0008F02F701758F648F65EE70E0C7010E9492
:1021C000520880FF05C0D7011B968C91882309F126
:1021D000F701818D928D892B79F30E948F02D701AF
:1021E0005C962D913C915D97621B730B59968D9176
:1021F0009C918617970700F787E28A9DF0018B9DD7
:10220000F00D1124EC56F64F81E0838F8BE593E0BF
:102210009ACF6EE270E0C7010E945208482F4160D9
:102220006EE270E0C7010E94DC0666E070E0C70164
:102230000E940C08F701978F868F6EED70E0C70142
:102240000E940C08D70191969C938E93909740E042
:102250005AE064E270E0C7010E949D0642E061E33B
:1022600070E0C7010E94DC0648E066E370E0C70149
:102270000E94DC0640E167E370E0C7010E94DC06D3
:1022800041E069E370E0C7010E94DC064FEF6EE3B6
:1022900070E0C7010E94DC0640E06FE370E0C70118
:1022A0000E94DC0642E060E470E0C7010E94DC06A8
:1022B00050E040E060E570E0C7010E949D0650E0FC
:1022C00040E062E570E0C7010E949D0648E367E5D3
:1022D00070E0C7010E94DC0648E651E064E670E069
:1022E000C7010E949D0640EC50E066E670E0C70121
:1022F0000E949D0641E061E770E0C7010E94DC0694
:1023000041E06CE770E0C7010E94DC0642E06EE746
:1023100070E0C7010E94DC0640E062E870E0C7019F
:102320000E94DC0641E067E770E0C7010E94DC061E
:102330004BE861E870E0C7010E94DC0640E058EC21
:1023400064E570E0C7010E949D0642E06FE470E022
:10235000C7010E94DC0660E670E0C7010E945208D7
:10236000182FF701268D378D50E040E0C301B201F0
:102370000E946C17A0E0B9E00E948E179B01AC018F
:10238000A6E05695479537952795AA95D1F71F5FF3
:10239000110FA12FB0E00E948E174B015C016EE57A
:1023A00070E0C7010E940C089C01BC01772790E0F7
:1023B00080E004C0660F771F881F991F3A95D2F7F7
:1023C0006F5F7F4F8F4F9F4FA5019401B6E05695E9
:1023D000479537952795BA95D1F70E94AB18385F86
:1023E0004F4F5F4F6F4F7F4F8F4F9F4F0CE00E94BB
:1023F000D8182D873E874F87588B698B7A8B8B8BAC
:102400009C8B8D849E84AF84B888F8ED8F0EF8E0A5
:102410009F1EA11CB11C880C991CAA1CBB1C4FE060
:1024200060E670E0C7010E94DC064DE063E670E004
:10243000C7010E94DC0648EB69E670E0C7010E9414
:10244000DC064FE068E770E0C7010E94DC064DE063
:1024500069E770E0C7010E94DC064EE06AE770E0C1
:10246000C7010E94DC064EE06BE770E0C7010E94E6
:10247000DC0621EB821621E19206A104B10428F0CA
:10248000B501A401C7010E94CA0BD70196963C92E0
:102490002E92959740E553EC60E070E0C7010E94F2
:1024A000CA0B62E270E0C7010E940C08AC01440F45
:1024B000551F440F551F6EE170E0C7010E949D0635
:1024C00060E670E0C7010E945208182FF701268DC0
:1024D000378D50E040E0C301B2010E946C17A0E0CC
:1024E000B9E00E948E179B01AC0166E056954795B6
:1024F000379527956A95D1F71F5F110FA12FB0E08F
:102500000E948E174B015C016EE570E0C7010E94CE
:102510000C089C01BC01772790E080E004C0660FA6
:10252000771F881F991F3A95D2F76F5F7F4F8F4FA4
:102530009F4FA5019401E6E056954795379527955D
:10254000EA95D1F70E94AB18385F4F4F5F4F6F4F3E
:102550007F4F8F4F9F4F0CE00E94D8182D873E87EA
:102560004F87588B698B7A8B8B8B9C8B8D849E8449
:10257000AF84B888F8ED8F0EF8E09F1EA11CB11C47
:10258000880C991CAA1CBB1C47E060E670E0C701E0
:102590000E94DC0645E063E670E0C7010E94DC06AD
:1025A00048E369E670E0C7010E94DC0647E068E79F
:1025B00070E0C7010E94DC0645E069E770E0C701F2
:1025C0000E94DC0646E06AE770E0C7010E94DC0674
:1025D00046E06BE770E0C7010E94DC0621EB821643
:1025E00021E19206A104B10488F4D70196961C92C9
:1025F0001E92959740E553EC60E070E0C7010E94A1
:10260000CA0B811109C081E893E09DCDB501A401F9
:10261000C7010E94CA0BE9CFF70120A131A1ACE3A9
:10262000B0E00E9499174B015C01808D0E948301EC
:10263000D70156968D919C91DC01ED91FC91019012
:10264000F081E02D60E01995F70186899789DC011A
:10265000ED91FC910190F081E02D6CE61995F70168
:1026600086899789DC01ED91FC910190F081E02D44
:1026700060E01995F701A689B789B50188279927E0
:10268000ED91FC9111970190F081E02DCD0119950C
:10269000F701A689B78999278B2D7A2D692DED91A0
:1026A000FC9111970190F081E02DCD011995D70192
:1026B00056968D919C91DC01ED91FC910190F081F9
:1026C000E02D682D1995F701868997890E94B60536
:1026D000D7011B968C9341E066E870E0C7010E9429
:1026E000DC0640E467E870E0C7010E94DC0685EA8A
:1026F00093E00E94A507B7E2EB0EF11CE4E0CE16D2
:10270000D10409F0FDCC6CE271E080E090E00E9421
:102710005D020E94A10786EC93E00E94A50701E0FC
:1027200010E01A8219828CED93E00E949F07C80185
:102730000E94FA07BE016F5F7F4F8FEF800F0E94EC
:10274000760B81110EC083E094E00E949F07C801C0
:102750000E94CA0782E194E00E94A50784E394E006
:10276000B5CC8AE094E00E949F07C8010E94CA0786
:102770008BE494E00E949F0789819A810E94060859
:1027800088EB92E00E94A5070F5F1F4F05301105EF
:1027900041F60E94A10786E694E00E94A5078CE915
:1027A00094E00E94A50785EF94E00E94A5078BEEB8
:1027B00098E00E94FB02181619060CF015C28BEE69
:1027C00098E00E94D9028D3091F320918E083091CB
:1027D0008F088A3009F0F2C1F901E25DF74F1082EB
:1027E000232B61F060E375E08EE298E00E94FC1814
:1027F000892B49F485E395E00E94A50710928F0884
:1028000010928E08D4CF4BE050E06AE375E08EE280
:1028100098E00E940519892B09F0C4C1CE010196E8
:102820005C016C0110E062E377E089E398E011233A
:1028300011F090E080E00E942E177C011A86198624
:10284000009719F486E495E0D7CF4AE050E0BE0146
:10285000675F7F4F0E94F715F7012081222341F126
:10286000E985FA852081211123C02B013C01FAEF73
:102870004F1A5108610871082DE84216510461048D
:102880007104B0F46E5B710981099109D6016D93F1
:102890007D936D011F5F143031F662E377E090E0C5
:1028A00080E00E942E17892B31F083E995E0A4CFB8
:1028B0008AE695E0A1CF8FEB95E00E949F07898182
:1028C0009A810E9406088AED95E00E949F078B81FD
:1028D0009C810E9406088AED95E00E949F078D81E9
:1028E0009E810E9406088AED95E00E949F078F81D5
:1028F00098850E9406080E94A10701E010E0FF24CD
:10290000FA94F00EF501C190D1905F011C861B86F0
:10291000BE01655F7F4F8F2D0E94760B81110AC02B
:102920008CED95E00E949F07C8010E94FA0786E59A
:1029300097E0CCCB8B849C840E94420768EC70E0CB
:1029400080E090E00E945D021A861986BE01675FF2
:102950007F4F8F2D0E94760B811103C089E096E096
:10296000E1CF0E94A10785ED96E00E949F07C80174
:102970000E94CA0783E496E00E949F0789859A8592
:102980000E94060888EB92E00E94A50789859A8537
:102990008C149D0408F060C08C159D0578F087E5C7
:1029A00096E00E94A5070F5F1F4F0530110509F043
:1029B000A6CF0E94420785E797E01ECF89E796E001
:1029C0000E949F07C8010E94CA078DE896E00E94F6
:1029D0009F07C6010E94060888EB92E00E94A507A7
:1029E0008F2D0E942F0764E670E080E090E00E9447
:1029F0005D023801F1E06F1A7108F301E85FFD4FE5
:102A000061E080810E94AC01F301EC5FFD4F60E06A
:102A100080810E94AC010E948F022B013C01E12CBD
:102A2000312C0E948F026419750986099709603359
:102A300075478105910508F440C08F2D0E942F072E
:102A40008EEC96E00E949F07C8010E94CA078FED96
:102A500096E00E94A5076BCFC816D90618F086E944
:102A600096E09FCF89EB96E00E949F07C8010E94E5
:102A7000CA078DE896E00E949F07C6010E940608DB
:102A800088EB92E00E94A5078F2D0E942F0764E635
:102A900070E080E090E00E945D02380121E0621A5F
:102AA0007108F301E85FFD4F60E080810E94AC0196
:102AB000F301EC5FFD4F61E0ABCFBE01675F7F4F7D
:102AC0008F2D0E948808811125C0E39484EF96E041
:102AD0000E949F076E2D70E090E080E04AE00E9427
:102AE0005B070E94A107B9E0BE1568F48F2D0E9414
:102AF0002F0783E094E00E949F07C8010E94CA0745
:102B000082E197E0A6CF6CE370E080E090E00E9465
:102B10005D0287CF85ED96E00E949F07C8010E9465
:102B2000CA0786E297E00E949F0789859A850E94DE
:102B3000060888EB92E00E94A50789859A858C1487
:102B40009D0460F48C159D0560F4312C6CE370E0FD
:102B500080E090E00E945D02E12C63CFC816D906A8
:102B6000A0F33394E2E0E31588F78F2D0E942F073E
:102B700085ED96E00E949F07C8010E94CA0784E382
:102B800097E00E949F0789859A850E94060888EB36
:102B900092E00E94A5076CE271E080E090E00E9464
:102BA0005D0201CF6FE877E08EE298E00E94FC18AA
:102BB000892B09F423CE8CE997E01ECE2F35310501
:102BC00060F4A9014F5F5F4F50938F0840938E08C8
:102BD000225D374FD9018C93EACD10928F08109265
:102BE0008E0880EB97E0E1CD0E94A003E0CD3F92FC
:102BF0004F925F926F927F928F929F92AF92BF920D
:102C0000CF92DF92EF92FF920F931F93CF93DF93B8
:102C10005C016B017A016115710519F0FB0191836B
:102C20008083E114F10451F0C7010297839730F0DB
:102C300040E030E020E090E06BC05E01E5012196CD
:102C4000F5011081812F90E00E942517892BA9F7AB
:102C50001D3201F52196F501118101E0E114F10425
:102C600009F4E6C0F0E1EF16F10409F088C0103372
:102C700059F488818F7D883509F07CC019812296AE
:102C80000260F0E1EF2EF12C812C912CA12C88E038
:102C9000B82E92C01B3221F4E5012296F501118174
:102CA00000E0DCCFEAE0EE16F10409F4C7C0F0E181
:102CB000EF16F10409F073C0E7CF78E0E72EF12CAE
:102CC000812C912CA12C60E1B62E76C021E0ADC004
:102CD000302F3170C114D10431F0222371F12197CA
:102CE000F601D183C08327FF2EC060E070E080E052
:102CF00090E8311104C06FEF7FEF8FEF9FE722E282
:102D000030E03093330A2093320A462F372F282F92
:102D1000642F732F822FDF91CF911F910F91FF901E
:102D2000EF90DF90CF90BF90AF909F908F907F906B
:102D30006F905F904F903F90089501FF04C02297DD
:102D4000F601D183C083332341F09095809570952F
:102D500061957F4F8F4F9F4FD8CF97FFD6CF82E29D
:102D600090E09093330A8093320A6FEF7FEF8FEFFA
:102D70009FE7CBCF10E3E114F10409F49ECF28E0E4
:102D8000E216F10409F49CCF0CF08CCF812C912C2D
:102D9000A12CE0E4BE2E82E0E816F10469F060E0C8
:102DA00070E080E090E897010F2C000C440B550B6D
:102DB0000E946C1749015A0120E060E070E0CB01ED
:102DC00027010F2C000C66087708FE0150ED352E08
:102DD000310E39E0331570F43FEB310F49EC342EEE
:102DE0003A3138F03FE9310F3A3108F071CF39EA22
:102DF000332E310E3E141F040CF06ACF27FD15C090
:102E000086169706A806B90678F0A30192010E94DB
:102E10005C17630D711D811D911D61307105810568
:102E200020E8920708F452CF2FEF21961081CDCFE2
:102E3000103309F41ECF2AE0E22EF12C9CEC892EEF
:102E4000982CA82C9CE0B92EB7CF91110C9459174F
:102E5000803219F089508550C8F7089540E35AE050
:102E60000C943217FA01A191B081009719F41097D0
:102E7000E1F0CD01DC01CD010D90002011F4C00185
:102E800013C0FB012191222319F02015D9F7F3CFAC
:102E9000FB012191201519F41E92119606C02223E0
:102EA000C1F70D900020A1F7D001FA01A193B083E2
:102EB0000895992788270895DB018F939F930E9497
:102EC0008E17BF91AF91A29F800D911DA39F900D72
:102ED000B29F900D11240895A1E21A2EAA1BBB1BCC
:102EE000FD010DC0AA1FBB1FEE1FFF1FA217B307D6
:102EF000E407F50720F0A21BB30BE40BF50B661FEC
:102F0000771F881F991F1A9469F7609570958095AF
:102F100090959B01AC01BD01CF0108950E949917C6
:102F2000A59F900DB49F900DA49F800D911D11241D
:102F30000895A29FB001B39FC001A39F700D811D92
:102F40001124911DB29F700D811D1124911D0895B2
:102F5000E89409C097FB3EF4909580957095619533
:102F60007F4F8F4F9F4F9923A9F0F92F96E9BB27E9
:102F70009395F695879577956795B795F111F8CF65
:102F8000FAF4BB0F11F460FF1BC06F5F7F4F8F4FD0
:102F90009F4F16C0882311F096E911C0772321F0C6
:102FA0009EE8872F762F05C0662371F096E8862F5E
:102FB00070E060E02AF09A95660F771F881FDAF7B5
:102FC000880F9695879597F908950E94F8170C94A5
:102FD00069180E945B1838F00E94621820F095234F
:102FE00011F00C9452180C94581811240C949D183C
:102FF0000E947A1870F3959FC1F3950F50E0551F0A
:10300000629FF001729FBB27F00DB11D639FAA273D
:10301000F00DB11DAA1F649F6627B00DA11D661F8C
:10302000829F2227B00DA11D621F739FB00DA11DAD
:10303000621F839FA00D611D221F749F3327A00D67
:10304000611D231F849F600D211D822F762F6A2F03
:1030500011249F5750409AF0F1F088234AF0EE0F68
:10306000FF1FBB1F661F771F881F91505040A9F795
:103070009E3F510580F00C9452180C949D185F3FB0
:10308000E4F3983ED4F3869577956795B795F795D1
:10309000E7959F5FC1F7FE2B880F911D9695879549
:1030A00097F9089597F99F6780E870E060E00895C8
:1030B0009FEF80EC089500240A9416161706180650
:1030C0000906089500240A9412161306140605062C
:1030D0000895092E0394000C11F4882352F0BB0FBD
:1030E00040F4BF2B11F460FF04C06F5F7F4F8F4F20
:1030F0009F4F089557FD9058440F551F59F05F3F5B
:1031000071F04795880F97FB991F61F09F3F79F009
:1031100087950895121613061406551FF2CF46958B
:10312000F1DF08C0161617061806991FF1CF86950D
:103130007105610508940895E894BB2766277727F1
:10314000CB0197F90895EE0FFF1F881F8BBF0790E3
:10315000F691E02D1994E894DF93CF93FC01DB0105
:103160000E9499177F936F93E9019A01AC01BF9375
:10317000AF933F932F93DF010E94991726F46C1BA6
:103180007D0B820B930B9E01EB01FC010E94F31857
:10319000AF91BF912F913F910E94F318BE01CF01D3
:1031A000F9012F913F91CF91DF91089597FD1094F0
:1031B000002E083098F00850232F342F452F562F1B
:1031C000672F782F892F912DF4CF15949795879598
:1031D0007795679557954795379527950A95AAF757
:1031E0001124002D08950E949917460F571FC81FDC
:1031F000D91F08F431960895FB01DC018D910190EF
:1032000080190110D9F3990B0895FB01DC0141509D
:10321000504030F08D910190801919F40020B9F7D9
:0A322000881B990B0895F894FFCF66
:10322A001E1F202117191B1D16181A1C0001020344
:10323A000000000033039D02CA028003FB02D90288
:10324A00ED020000000087055A050E0730055305F8
:10325A00400531050D0A00454D455247454E435933
:10326A002053544F5000416C6C2061637475617433
:10327A006F72732073746F707065642E00544341CB
:10328A00206368616E6E656C2073656C6563746932
:10329A006F6E206661696C65642E0053656E736F8C
:1032AA007220726561642074696D656F75742E0091
:1032BA00496E76616C69642072616E676520737409
:1032CA00617475733A20002C2072617720646973E7
:1032DA0074616E63653A2000206D6D00496E7661F7
:1032EA006C69642064697374616E63653A200020B6
:1032FA00726574727920002F0053797374656D209A
:10330A007374617274696E672E2E2E0049324320DF
:10331A00737461727465642E0054434139353438CC
:10332A0041206E6F742064657465637465642E0051
:10333A00496E697469616C697A696E672073656E32
:10334A00736F722000206F6E2054434120636861BE
:10335A006E6E656C20004552524F523A20466169A2
:10336A006C656420746F2073656C656374205443C4
:10337A0041206368616E6E656C2E004552524F5251
:10338A003A20564C35334C315820696E697469615C
:10339A006C697A6174696F6E206661696C65642E06
:1033AA00004552524F523A204661696C6564207456
:1033BA006F207365742074696D696E672062756425
:1033CA006765742E0053656E736F7220696E697437
:1033DA0069616C697A656420737563636573736682
:1033EA00756C6C792E005761726D696E6720757005
:1033FA002073656E736F72732E2E2E005761697477
:10340A00696E6720666F722076616C6964207265E6
:10341A006164696E672066726F6D2073656E736F83
:10342A007220004552524F523A2053656E736F72A2
:10343A00200020646964206E6F742070726F647556
:10344A00636520612076616C6964207265616469D4
:10345A006E672E0053656E736F72207761726D2DE1
:10346A007570206661696C65642E002072656164FE
:10347A00792E20496E697469616C2064697374617C
:10348A006E63653A2000416C6C2073656E736F72CF
:10349A007320696E697469616C697A656420616E0A
:1034AA00642070726F647563696E672076616C69F7
:1034BA00642072656164696E67732E004D454741E9
:1034CA005F4C414E4445525F524541445920736F07
:1034DA006C7665725F72616E67655F6D6D3D3235E0
:1034EA00302E2E3339302073656E736F725F7261BE
:1034FA006E67655F6D6D3D36302E2E323030206D31
:10350A0061703D73656E736F723D736F6C76657231
:10351A002D3139300057616974696E6720666F72A0
:10352A00205345545F54415247455420464C204647
:10353A005220524C2052523B206E6F206175746F9C
:10354A006D61746963206D6F76656D656E742E00AA
:10355A0050494E4700504F4E47005345545F54411F
:10356A00524745542000455252207365745F746176
:10357A00726765745F72657175697265735F464CCF
:10358A005F46525F524C5F52520045525220736F4F
:10359A006C7665725F746172676574735F6D75735B
:1035AA00745F62655F3235305F746F5F3339305FE5
:1035BA006D6D00455252207365745F746172676560
:1035CA00745F72657175697265735F65786163743A
:1035DA006C795F666F75725F76616C75657300549E
:1035EA0041524745545F4143434550544544207333
:1035FA00656E736F725F6D6D3D002C004552524FC0
:10360A00523A2043616E6E6F742073656C65637401
:10361A0020646972656374696F6E20666F722061D7
:10362A0063747561746F7220004552524F523A208A
:10363A0043616E6E6F74206F627461696E206120DF
:10364A0076616C696420696E697469616C2072655F
:10365A006164696E672066726F6D2073656E736F41
:10366A0072200020696E697469616C2064697374E0
:10367A00616E63653A2000457874656E73696F6E92
:10368A002074617267657420616C72656164792067
:10369A00726561636865642E00457874656E646955
:1036AA006E67206163747561746F72200020746F95
:1036BA0077617264200052657472616374696F6E17
:1036CA002074617267657420616C72656164792027
:1036DA00726561636865642E005265747261637411
:1036EA00696E67206163747561746F722000455258
:1036FA00524F523A204163747561746F72200020F0
:10370A006D6F76656D656E742074696D6564206F82
:10371A0075742E00436F6E736563757469766520E0
:10372A0073656E736F72206661696C757265733A40
:10373A002000206661696C65642072657065617439
:10374A0065646C792E00207C2044697374616E6311
:10375A00653A20002072656163686564207461724D
:10376A006765742E2046696E616C206469737461A2
:10377A006E63653A2000536F6C76657220746172CD
:10378A006765742073657175656E63652066616926
:10379A006C65642E005441524745545F5345515558
:1037AA00454E43455F434F4D504C455445440047B1
:1037BA0045545F44495354414E43450045525220B3
:1037CA00756E6B6E6F776E5F636F6D6D616E6400A1
:1037DA0045525220636F6D6D616E645F746F6F5FE7
:0637EA006C6F6E67000029
:00000001FF
