:020000040000FA
:100000000C9450010C9481010C9481010C94810199
:100010000C9481010C9481010C9481010C94810158
:100020000C9481010C9484100C9481010C94810136
:100030000C9481010C9481010C9481010C94810138
:100040000C9481010C9481010C9481010C94810128
:100050000C9481010C9481010C9481010C94B60ED6
:100060000C9481010C942A0F0C94000F0C948101C4
:100070000C9481010C9481010C9481010C948101F8
:100080000C9481010C9481010C9481010C948101E8
:100090000C9481010C9481010C9481010C94600FEB
:1000A0000C9481010C9481010C9481010C948101C8
:1000B0000C9481010C9481010C9481010C948101B8
:1000C0000C9481010C9481010C9481010C948101A8
:1000D0000C9481010C9481010C9481010C94810198
:1000E0000C9481010C94F3010C94B70C0C94D40182
:1000F0000C94D8010C9499050C94FB010C94CB0C36
:100100000C94EB020C94DC010C9465050C94FF023A
:100110000C9401020C9452050C94E0010C94AD0275
:100120000C940F020C9445030C94DF0C0C94AD0C52
:100130000C94AF020C94BD010C941E0D0C94C10CD8
:100140000C94C2010C94DC020C9405020C946C0516
:100150000C94990C0C940D030C9409020C94AE02AF
:100160000C94A30C0C94E3010C94DC100C94200769
:100170000C94D50C0C94840C0C9442050C94E9015D
:100180000C9492030C9443050C948F0C0C94F7017F
:100190000C94ED010C9413020000210024002700B0
:1001A0002A002D0030003300010100000401070186
:1001B0000A0100002200250028002B002E0031003B
:1001C000340002010000050108010B0105050505C9
:1001D000070508080808020202020A0A08080404BF
:1001E00004040101010101010101030303030303ED
:1001F0000303040707070C0C0C0C0C0C0C0C02027C
:10020000020206060606060606060B0B0B0B0B0B78
:100210000B0B010210202008081020401020408005
:1002200002010201080402010102040810204080BA
:100230008040201008040201800402018040201048
:100240000804020108040201010204081020408091
:10025000010204081020408000000A0B02090C0D66
:100260000E08070304010000000000000000000069
:10027000000000000000000000000000000000007E
:10028000000000001211100000000000000000003B
:100290000000000000000000000000000000DC1072
:1002A00011241FBECFEFD1E2DEBFCDBF00E00CBFF7
:1002B00028E0ACEDB5E001C01D92A93FB207E1F71F
:1002C00015E0A0E0B2E0E6EBFCE300E00BBF02C00B
:1002D00007900D92AC3DB107D9F711E0C0E5D1E030
:1002E00000E006C021970109802FFE010E94E11D58
:1002F000CF34D10780E00807A9F70E9448110C9479
:10030000591E0C94000091E09093B1078093B007C0
:100310001092AF071092AE070895282F30E0F90130
:10032000E85AFD4F9491F901EE5EFD4F449124533C
:100330003E4FF9012491222309F435C0992311F18C
:1003400091509231F8F4E92FF0E08827E555FE4FFF
:100350008F4F0C94E11DDC01E001BD01D401D801F7
:10036000C201E301E901ED01F301F701FB01010223
:100370000502C20109020F021302809180008F77EB
:1003800080938000E22FF0E0EE0FFF1FEE54FE4F4F
:10039000A591B4918FB7F894EC91611148C0409544
:1003A0004E234C938FBF0895809180008F7DE8CFBE
:1003B00080918000877FE4CF84B58F7784BDE2CFC2
:1003C00084B58F7DFBCF8091B0008F778093B00094
:1003D000D9CF8091B0008F7DF9CF809190008F7739
:1003E00080939000CFCF809190008F7DF9CF809146
:1003F0009000877FF5CF8091A0008F778093A00039
:10040000C1CF8091A0008F7DF9CF8091A000877F20
:10041000F5CF809120018F7780932001B3CF809119
:1004200020018F7DF9CF80912001877FF5CF4E2B62
:10043000B8CFCF93DF9390E0FC01EE5EFD4F2491A7
:1004400084539E4FFC0184918823D1F090E0880F63
:10045000991FFC01E856FE4FA591B491FC01EE54A2
:10046000FE4FC591D49161110EC09FB7F8948C9145
:10047000E22FE0958E238C932881E223E8839FBFAF
:10048000DF91CF9108958FB7F894EC91E22BEC9324
:100490008FBFF6CF3FB7F89480915E0790915F07CA
:1004A000A0916007B091610726B5A89B05C02F3FBA
:1004B00019F00196A11DB11D3FBFBA2FA92F982F8A
:1004C0008827BC01CD01620F711D811D911D42E085
:1004D000660F771F881F991F4A95D1F708958F924D
:1004E0009F92AF92BF92CF92DF92EF92FF924B0119
:1004F0005C010E944A026B017C010E944A026C1955
:100500007D098E099F09683E734081059105A8F316
:1005100021E0821A9108A108B10888EEC80E83E094
:10052000D81EE11CF11C81149104A104B10429F727
:10053000FF90EF90DF90CF90BF90AF909F908F9003
:1005400008952FB7F89460915A0770915B078091D6
:100550005C0790915D072FBF089508950895AF92AD
:10056000BF92CF92DF92EF92FF920F931F93CF93A0
:10057000DF936C017B018B01040F151FEB015E0102
:10058000AE18BF08C017D10759F06991D601ED9197
:10059000FC910190F081E02DC6011995892B79F726
:1005A000C501DF91CF911F910F91FF90EF90DF90E8
:1005B000CF90BF90AF900895FC01538D448D252FAF
:1005C00030E0842F90E0821B930B541710F0CF96ED
:1005D000089501970895FC01918D828D981761F01F
:1005E000A28DAE0FBF2FB11D5D968C91928D9F5F36
:1005F0009F73928F90E008958FEF9FEF0895FC0115
:10060000918D828D981731F0828DE80FF11D858DC7
:1006100090E008958FEF9FEF0895FC01918D228D5A
:10062000892F90E0805C9F4F821B91098F739927DF
:10063000089582EB97E00E940D0321E0892B09F4D5
:1006400020E0822F0895FC01A48DA80FB92FB11DC1
:10065000A35ABF4F2C91848D90E001968F739927F8
:10066000848FA689B7892C93A089B1898C918370D6
:1006700080648C93938D848D981306C00288F389CF
:10068000E02D80818F7D80830895EF92FF920F93FC
:100690001F93CF93DF93EC0181E0888F9B8D8C8D2E
:1006A00098131AC0E889F989808185FF15C09FB722
:1006B000F894EE89FF896083E889F98980818370E5
:1006C000806480839FBF81E090E0DF91CF911F9194
:1006D0000F91FF90EF900895F62E0B8D10E00F5FB5
:1006E0001F4F0F731127E02E8C8D8E110CC00FB68B
:1006F00007FCFACFE889F989808185FFF5CFCE0123
:100700000E942303F1CFEB8DEC0FFD2FF11DE35A77
:10071000FF4FF0829FB7F8940B8FEA89FB898081A5
:100720008062CFCFCF93DF93EC01888D8823B9F01F
:10073000AA89BB89E889F9898C9185FD03C08081EC
:1007400086FD0DC00FB607FCF7CF8C9185FFF2CF69
:10075000808185FFEDCFCE010E942303E9CFDF9199
:10076000CF91089580E090E0892B29F00E94190331
:1007700081110E94000080E090E0892B49F080E028
:1007800090E0892B29F00E94000081110E94000056
:1007900080E090E0892B49F080E090E0892B29F0FF
:1007A0000E94000081110E94000080E090E0892BEF
:1007B00049F080E090E0892B29F00E94000081112F
:1007C0000C9400000895CF92DF92EF92FF92611592
:1007D000710581059105F1F0DC01CB010197A109BB
:1007E000B10930E020E06C017D01CC24CD28CE2879
:1007F000CF2839F0B695A795979587952F5F3F4FEE
:10080000F2CF322F2227822B932BFF90EF90DF9095
:10081000CF90089590E080E0F8CF20915406260F05
:100820003327331F21323105ECF42091A807FC0156
:1008300090E080E0243069F082E00895A0915406B1
:100840002191AC014C5C594FA40FB52FB11D2C93D5
:100850000196861798F380915406680F60935406AA
:1008600080E0089581E008951092A80781E08093C8
:1008700087071092820761E084E10E948D0161E0A8
:1008800085E10E948D01E9EBF0E080818E7F80831D
:1008900080818D7F808388E48093B80085E4809395
:1008A000BC000895CF93DF9391E090937D06882359
:1008B000B9F0C091B800D091BA008091BC008A7B99
:1008C0008093BC0060E084E10E948D0160E085E1DE
:1008D0000E948D010E943404D093BA00C093B800E6
:1008E000DF91CF910895CF92DF92EF92FF920F9315
:1008F0001F93CF93DF93D82FC62F613208F098C093
:100900000E944A026B017C018091A80781116BC093
:1009100081E08093A807809387079FEF90938607D5
:10092000109285079C0F9093840780938307809192
:100930008307DD0FD82BD093830780918207813006
:1009400009F078C0109282070E944A026B017C0174
:10095000809183078093BB008091AA079091AB0799
:10096000A091AC07B091AD07892B8A2B8B2BA1F0FE
:100970000E944A020091AA071091AB072091AC0790
:100980003091AD076C197D098E099F09061717076D
:100990002807390708F448C08091BC0083FDD8CFF0
:1009A00085EC8093BC000E944A026B017C0180911F
:1009B000A807813009F440C0809185078C1710F496
:1009C000C0918507E2E6F7E0A8E8B7E080E08C1385
:1009D00055C08C2FDF91CF911F910F91FF90EF9019
:1009E000DF90CF9008958091AA079091AB07A091D6
:1009F000AC07B091AD07892B8A2B8B2B09F484CFE0
:100A00000E944A020091AA071091AB072091AC07FF
:100A10003091AD076C197D098E099F0906171707DC
:100A20002807390708F070CF8091A9070E94520467
:100A3000C0E0CFCF85EEB5CF8091AA079091AB07EC
:100A4000A091AC07B091AD07892B8A2B8B2B09F4B1
:100A5000AECF0E944A020091AA071091AB072091E5
:100A6000AC073091AD076C197D098E099F090617F7
:100A700017072807390708F09ACFD6CF91919D9391
:100A80008F5FA5CF0895E0917C0680917B06E817E3
:100A900030F4F0E0E857F84F808190E008958FEF50
:100AA0009FEF089590917C0680917B062FEF3FEF9A
:100AB000981748F4E92FF0E0E857F84F208130E02C
:100AC0009F5F90937C06C901089580917B06909169
:100AD0007C06891B990B0895CF92DF92EF92FF92CB
:100AE0000F931F93CF93DF937C01CB018A01209159
:100AF000B107222389F0EB016B01C40ED51ECC1582
:100B0000DD0569F06991D701ED91FC910190F081CB
:100B1000E02DC7011995F3CF642F0E940D04C80181
:100B2000DF91CF911F910F91FF90EF90DF90CF90C9
:100B30000895CF93DF931F92CDB7DEB769832091DD
:100B4000B1072223F9F02091AE07203258F021E0BE
:100B500030E0FC013383228390E080E00F90DF914E
:100B6000CF9108958091AF07E82FF0E0EC5EF94F48
:100B7000998190838F5F8093AF078093AE0781E068
:100B800090E0ECCF61E0CE0101960E940D04F7CF1A
:100B9000CF92DF92EF92FF920F931F93CF93DF9349
:100BA000D091AE0781E0D13208F09CC0C091B0076F
:100BB0000E944A026B017C018091A80781116CC0E0
:100BC00082E08093A80781E0809387078FEF80936E
:100BD000860710928507D0938407A4E1B6E0E2E689
:100BE000F7E080E0D8138DC01092830780918307CF
:100BF000CC0FC82BC093830780918207813009F006
:100C000084C0109282070E944A026B017C0180918D
:100C100083078093BB008091AA079091AB07A091B6
:100C2000AC07B091AD07892B8A2B8B2BA1F00E94CA
:100C30004A020091AA071091AB072091AC073091AE
:100C4000AD076C197D098E099F090617170728073C
:100C5000390708F442C08091BC0083FDD8CF85ECF1
:100C60008093BC000E944A026B017C018091A8071E
:100C7000823009F44CC0809186078F3F09F469C027
:100C800080918607803209F466C0809186078033A0
:100C900009F463C084E026C08091AA079091AB0755
:100CA000A091AC07B091AD07892B8A2B8B2B09F44F
:100CB00083CF0E944A020091AA071091AB072091AE
:100CC000AC073091AD076C197D098E099F09061795
:100CD00017072807390708F06FCF8091A9070E94EE
:100CE000520485E01092AF071092AE071092B10740
:100CF000DF91CF911F910F91FF90EF90DF90CF90F8
:100D000008959D9191938F5F6DCF85EEA9CF8091CE
:100D1000AA079091AB07A091AC07B091AD07892BC2
:100D20008A2B8B2B09F4A2CF0E944A020091AA07BA
:100D30001091AB072091AC073091AD076C197D097C
:100D40008E099F09061717072807390708F08ECF65
:100D5000C4CF80E0C7CF82E0C5CF83E0C3CFFF928E
:100D60000F931F93CF93DF93EC01F62E142F052FD3
:100D7000888D0E9483018E899F89DC01ED91FC9111
:100D80000190F081E02D60E019958E899F89DC014A
:100D9000ED91FC910190F081E02D6F2D19958E89D8
:100DA0009F89DC01ED91FC910190F081E02D602F95
:100DB00019958E899F89DC01ED91FC910190F0815C
:100DC000E02D612F19958E899F890E94C8058B8718
:100DD000DF91CF911F910F91FF9008950F931F9373
:100DE000CF93DF93EC01062F142F888D0E9483018F
:100DF0008E899F89DC01ED91FC910190F081E02DBD
:100E000060E019958E899F89DC01ED91FC9101903C
:100E1000F081E02D602F19958E899F89DC01ED917D
:100E2000FC910190F081E02D612F19958E899F89A9
:100E30000E94C8058B87DF91CF911F910F91089574
:100E400090E080E00895CF93C82F80E70E9483014F
:100E500061E070E001C0660FCA95EAF78FE498E0A0
:100E60000E9499058FE498E00E94C805811107C08F
:100E70008BEA94E00197F1F781E0CF91089580E04B
:100E8000FCCF809158078B7F823088F41092B20695
:100E90001092B1061092B4061092B3061092B606E4
:100EA0001092B5061092B8061092B7060895809178
:100EB000CF069091D0062091C7063091C806821BBC
:100EC000930B9093B2068093B1068091CD069091DA
:100ED000CE062091C5063091C606821B930B9093D7
:100EE000B4068093B3068091C9069091CA062091FA
:100EF000C1063091C206821B930B9093B606809375
:100F0000B5068091CB069091CC062091C306309116
:100F1000C406821B930B9093B8068093B70608957E
:100F2000CF92DF92EF92FF920F931F93CF93DF93B5
:100F30000E94A102ECE0F6E0A9ECB6E0CCEED5E030
:100F400041914423E1F009911991299139916B0163
:100F50007C01C01AD10AE20AF30A97018601013B1B
:100F6000144021053105A8F42D913D9122533109FA
:100F70002F35314070F426E0E031F20709F7842F75
:100F8000DF91CF911F910F91FF90EF90DF90CF9065
:100F9000089540E0F4CFCF93DF93C82FD0E0FE0157
:100FA000EC5AFD4F60E080810E948D01FE01E05B04
:100FB000FD4F60E080810E948D01FE01E45BFD4FEA
:100FC00060E080810E948D01FE01E356F94F10829E
:100FD0000E94A102CC0FDD1FCC0FDD1FC357D94FDC
:100FE000688379838A839B83DF91CF91089580E022
:100FF0000E94CB0781E00E94CB0782E00E94CB07D2
:1010000083E00C94CB070E94F70781E08093580798
:101010001092A9061092AA061092AB061092AC0686
:10102000A9EBB6E011961C921E92E1EBF6E011825C
:10103000108213961C921E9212971382128215969A
:101040001C921E9214971582148217961C921E925F
:101050001697178216820895FC0101900020E9F787
:101060003197AF01481B590BBC0182EB97E00C9400
:10107000AF028F929F92AF92BF920F931F93CF9325
:10108000DF93CDB7DEB7A1970FB6F894DEBF0FBEE2
:10109000CDBF19A2423008F44AE08E010F5D1F4F08
:1010A000842E912CB12CA12CA50194010E948B1CA3
:1010B000E62FB901CA01EA30F4F4E05DD801EE93FD
:1010C0008D01232B242B252B79F790E080E01097BE
:1010D00019F0CD010E942C08A1960FB6F894DEBF3E
:1010E0000FBECDBFDF91CF911F910F91BF90AF90F9
:1010F0009F908F900895E95CE1CFCF92DF92EF92BD
:10110000FF92CF93DF936B017C016DE282EB97E05E
:101110000E944503EC0166277727CB016C197D09F6
:101120008E099F094AE00E9439088C0F9D1FDF91AC
:10113000CF91FF90EF90DF90CF900895CF93DF9302
:101140000E942C08EC0180E892E00E942C088C0F91
:101150009D1FDF91CF910895009711F00C942C08FA
:1011600090E080E00895BC01990F880B990B97FDE2
:101170000C947D084AE00C9439080F931F93CF9389
:10118000DF93EC01162F072F888D0E9483018E8933
:101190009F89DC01ED91FC910190F081E02D602FA1
:1011A00019958E899F89DC01ED91FC910190F08168
:1011B000E02D612F19958E899F890E94C8058B8724
:1011C00062E0888D0E94730410927C0680937B06F7
:1011D0008E899F89DC01ED91FC910284F385E02DDD
:1011E000199500E0182F8E899F89DC01ED91FC9103
:1011F0000284F385E02D1995802B912BDF91CF91FF
:101200001F910F9108951F93CF93DF93EC01162F39
:10121000888D0E9483018E899F89DC01ED91FC916C
:101220000190F081E02D60E019958E899F89DC01A5
:10123000ED91FC910190F081E02D612F19958E893F
:101240009F890E94C8058B8761E0888D0E94730486
:1012500010927C0680937B068E899F89DC01ED913C
:10126000FC910284F385E02D1995DF91CF911F91B8
:1012700008954F925F926F927F928F929F92AF925A
:10128000BF92CF92DF92EF92FF92CF93DF936A01EA
:101290007B0120EBC21A21E1D20AE108F10821EE1C
:1012A000C21628ECD20620E1E206F10408F0ECC0F8
:1012B000EC0160E670E00E940309B82E2E8D3F8D90
:1012C00050E040E060E070E080E090E40E948B1C21
:1012D000A0E0B9E00E94AD1C9B01AC01A6E05695D0
:1012E000479537952795AA95D1F7B394BB0CAB2DAD
:1012F000B0E00E94AD1C2B013C01B6E076946794EF
:1013000057944794BA95D1F74B015C0187E0B694A6
:10131000A794979487948A95D1F7C501B401705822
:10132000814C9F4FA30192010E948B1C2F3F3105DE
:101330004105510529F020F02FEF30E040E050E06A
:10134000422F6BE470E0CE010E94EE06C501B401AD
:10135000705F8F4F9F4FA30192010E948B1CCA01A7
:10136000B9010E94E303AC016AE570E0CE010E947E
:10137000AF06F694E794D794C7949CE0CC0CDD1CA0
:10138000EE1CFF1C9A95D1F7C501B4016C0D7D1DB3
:101390008E1D9F1DA30192010E948B1CCA01B901E1
:1013A0000E94E303AC016EE570E0CE010E94AF063F
:1013B00063E670E0CE010E940309B82E2E8D3F8DAA
:1013C00050E040E060E070E080E090E40E948B1C20
:1013D000A0E0B9E00E94AD1C9B01AC0166E056950F
:1013E0004795379527956A95D1F7B394BB0CAB2DEC
:1013F000B0E00E94AD1C2B013C01E6E076946794BE
:1014000057944794EA95D1F74B015C01F7E0B69405
:10141000A79497948794FA95D1F7C501B401705FAA
:101420008F4F9F4FA30192010E948B1CCA01B901EB
:101430000E94E303AC016CE570E0CE010E94AF06B0
:10144000C701B601680D791D8A1D9B1DA30192017C
:101450000E948B1CCA01B9010E94E303AC0161E642
:1014600070E0CE010E94AF0681E0DF91CF91FF9046
:10147000EF90DF90CF90BF90AF909F908F907F9034
:101480006F905F904F90089580E0EFCF8F929F9282
:10149000AF92BF92DF92EF92FF920F931F93CF9381
:1014A000DF93E82E082F10E0F801E85BFD4F808104
:1014B000883008F0E4C20E942307D82E882309F45C
:1014C000DEC2D7E2ED9E70011124C701855A974F05
:1014D0007C010E94A102D7015D967C936E935C977C
:1014E000E7015701B9E1AB0EB11C4701ECE18E0EEB
:1014F000911C61E370E0C7010E94030980FF6CC08A
:10150000D5018D919C91892BA1F30E94A102F40138
:1015100020813181621B730BD5018D919C918617BF
:10152000970738F781E08B8F50E040E087E2809F9B
:10153000F001819FF00D1124E55AF74F838D138E32
:1015400081119DC2828181119AC2CA010197803A9C
:101550009F4008F094C2E801CC0FDD1FFE01E75365
:10156000F94F51834083F801E851FA4F8081C0520E
:10157000DA4F81116DC25983488381E08083F8017D
:10158000E45FF94F81E080830E94A102000F111FE8
:10159000000F111FF801E451FA4F608371838283B9
:1015A0009383F801E450FA4F80819181A281B38145
:1015B0000196A11DB11D80839183A283B3838D2DDC
:1015C000DF91CF911F910F91FF90EF90DF90BF902F
:1015D000AF909F908F90089587E2809FE001819F58
:1015E000D00D1124C55AD74F888D0E9483018E8952
:1015F0009F89DC01ED91FC910190F081E02D60E08C
:1016000019958E899F89DC01ED91FC910190F08103
:10161000E02D69E819958E899F890E94C8058B87FE
:1016200061E1888D0E94730410927C0680937B0692
:101630008E899F89DC01ED91FC910284F385E02D78
:1016400019958C878E899F89DC01ED91FC9102842C
:10165000F385E02D19958E899F89DC01ED91FC9130
:101660000284F385E02D19958D878E899F89DC0191
:10167000ED91FC910284F385E02D19951E868F87EC
:101680008E899F89DC01ED91FC910284F385E02D28
:1016900019952E853F85822B932B9F878E878E8968
:1016A0009F89DC01ED91FC910284F385E02D199571
:1016B0008E899F89DC01ED91FC910284F385E02DF8
:1016C00019958E899F89DC01ED91FC910284F38547
:1016D000E02D1995188A898B8E899F89DC01ED91FF
:1016E000FC910284F385E02D199528893989822B94
:1016F000932B998B888B8E899F89DC01ED91FC91CE
:101700000284F385E02D19958E899F89DC01ED9186
:10171000FC910284F385E02D19958E899F89DC0167
:10172000ED91FC910284F385E02D19958E899F89B6
:10173000DC01ED91FC910284F385E02D19958E89F1
:101740009F89DC01ED91FC910284F385E02D1995D0
:101750001A8A8B8B8E899F89DC01ED91FC91028422
:10176000F385E02D19952A893B89822B932B9B8B3E
:101770008A8B8E899F89DC01ED91FC910284F3852F
:10178000E02D19951C8A8D8B8E899F89DC01ED9146
:10179000FC910284F385E02D19952C893D89822BDB
:1017A000932B9D8B8C8B8AA181112EC06BE070E0F6
:1017B000C7010E9403098BA368E070E0C7010E9483
:1017C00003098CA34BA14F776BE070E0C7010E9427
:1017D000EE064CA14370445F68E070E0C7010E94D0
:1017E000EE0641E06DE470E0C7010E94EE0668ED90
:1017F00070E0C7010E940309482F67E470E0C70149
:101800000E94EE0681E08AA387E2809FF001819F1B
:10181000F00D1124E55AF74F26853785211531053E
:1018200009F46FC0448955896089718990E080E02E
:10183000640F751F811D911D61157105B1E08B0746
:10184000910520F06FEF7FEF80E090E0CB017727EC
:10185000662750E040E00E948B1C211531054105B0
:10186000510509F44EC060E070E080E09AE00E940B
:101870008B1C21153105E1E04E07510520F02FEFBB
:101880003FEF40E050E0A90164E570E0C7010E942D
:10189000AF0687E2809FF001819FF00D1124E55A89
:1018A000F74F22893389ABEDB7E00E94B81C7C5F0B
:1018B0008F4F9F4F4BE096958795779567954A9503
:1018C000D1F771836083E485E150E23108F0B6C05E
:1018D000F0E08827E159F34F8F4F0C94E11D840C01
:1018E000840C840CAD0CA30CB70CC10CD50CDF0C14
:1018F0001E0D1E0DCB0C8F0C1E0D1E0D1E0D840C0F
:10190000990C40E050E8C0CF87E2809FF001819FB2
:10191000F00D1124E55AF74F85E082835EC087E21F
:10192000809FF001819FF00D1124E55AF74F8DE063
:10193000F4CF87E2809FF001819FF00D1124E55ADA
:10194000F74F8AE0EACF87E2809FF001819FF00D98
:101950001124E55AF74F84E0E0CF87E2809FF00141
:10196000819FF00D1124E55AF74F82E0D6CF87E230
:10197000809FF001819FF00D1124E55AF74F81E01F
:10198000CCCF87E2809FF001819FF00D1124E55AB2
:10199000F74F87E0C2CF87E2809FF001819FF00D73
:1019A0001124E55AF74F89E0B8CF87E2809FF00114
:1019B000819FF00D1124E55AF74F83E0AECF87E207
:1019C000809FF001819FF00D1124E55AF74F858526
:1019D000811102C086E0A1CF128287E2809FE001E0
:1019E000819FD00D1124C55AD74F6C897D8990E015
:1019F00080E00E94C71C20E030E040E05CE30E94F1
:101A0000041D6B837C838D839E836889798990E034
:101A100080E00E94C71C20E030E040E05CE30E94D0
:101A2000041D6F83788789879A8741E066E870E0B4
:101A3000C7010E94EE064881598178CD87E2809FD8
:101A4000F001819FF00D1124E55AF74F8FEF65CF1C
:101A5000A881B98123E030E00E94E91D640F751F61
:101A6000811D911D6E5F7F4F8F4F9F4F24E030E0AF
:101A700040E050E00E94C21D3983288380CDF801E8
:101A8000EE0FFF1FEE0FFF1FE451FA4F8080918091
:101A9000A280B38081149104A104B10431F4F8014F
:101AA000E45FF94F1082D12C8ACD0E94A1026819FF
:101AB00079098A099B09613B74408105910578F792
:101AC000F2CF8F929F92AF92BF92CF92DF92EF921E
:101AD000FF920F931F93CF93DF930E9441078FE9EB
:101AE00092E00E94AC08E091580783E892E0E6306B
:101AF00038F4F0E0EE0FFF1FE85CFD4F808191812C
:101B00000E94AC0880EB92E00E94AC088091D10664
:101B100090E00E94B30888EB92E00E94AC086091CC
:101B200010067091110680911206909113064AE0FA
:101B30000E94390881EC92E00E94AC0888E192E0B2
:101B40000E94AC088EE194E00E94AC086091A90666
:101B50007091AA068091AB069091AC064AE00E9473
:101B6000390889ECC82E86E0D82E0CE016E09CEFF0
:101B7000E92E95E0F92E2DE9A22E26E0B22E34E4CE
:101B8000832E32E0932EC1E0D0E089EC92E00E94F7
:101B9000AC08CE010E94B3088FED92E00E94AC0821
:101BA000F601619171916F0190E080E04AE00E943E
:101BB00039088CEC92E00E94AC08F80181918F0109
:101BC00090E00E94B3088CEC92E00E94AC08F70110
:101BD00061917191819191917F014AE00E94390850
:101BE0008CEC92E00E94AC08F50181915F0181309C
:101BF00009F446C08F3F09F446C08AE992E00E948A
:101C0000AC088CEC92E00E94AC08F40181914F0189
:101C100090E00E94B3082196C530D10509F0B5CFF8
:101C20008EEC92E00E94AC0809EB16E0C0E0F801EF
:101C3000819191918F010E94B308CF5FC43031F53B
:101C400087ED92E00E94AC0801EB16E0C0E0F801DD
:101C5000819191918F010E94B308CF5FC430D9F474
:101C600080E892E0DF91CF911F910F91FF90EF906C
:101C7000DF90CF90BF90AF909F908F900C942C08E6
:101C80008BE892E0BCCF82E992E0B9CF8CEC92E095
:101C90000E94AC08CCCF8CEC92E00E94AC08D7CF6D
:101CA000CF93DF93EC010E94F70784E080935807FD
:101CB0008091100690911106A0911206B091130622
:101CC0000196A11DB11D8093100690931106A0935B
:101CD0001206B09313064FE150E0BE0188E192E096
:101CE0000E944A1E1092370281EE92E00E94AC08D8
:101CF00088E192E0DF91CF910C949E0885ED80936E
:101D0000BC008091AA079091AB07A091AC07B0915D
:101D1000AD070796A11DB11D23E0B695A795979530
:101D200087952A95D1F72091BC0024FD03C010921D
:101D3000A80708954091AA075091AB076091AC079E
:101D40007091AD07452B462B472B69F30097A105F2
:101D5000B10541F02AE22A95F1F700C00197A109E7
:101D6000B109E1CF8091A9070C9452041F920F9200
:101D70000FB60F9211242F933F938F939F93AF939E
:101D8000BF9380915A0790915B07A0915C07B09137
:101D90005D073091590723E0230F2D3758F5019641
:101DA000A11DB11D2093590780935A0790935B079B
:101DB000A0935C07B0935D0780915E0790915F07E9
:101DC000A0916007B09161070196A11DB11D80939C
:101DD0005E0790935F07A0936007B0936107BF9180
:101DE000AF919F918F913F912F910F900FBE0F90C8
:101DF0001F90189526E8230F0296A11DB11DD2CF82
:101E00001F920F920FB60F9211240BB60F922F93C1
:101E10003F934F935F936F937F938F939F93AF9372
:101E2000BF93EF93FF9382EB97E00E942303FF9110
:101E3000EF91BF91AF919F918F917F916F915F9142
:101E40004F913F912F910F900BBE0F900FBE0F90AF
:101E50001F9018951F920F920FB60F9211240BB678
:101E60000F922F938F939F93EF93FF93E091C2076D
:101E7000F091C3078081E091C807F091C90782FD06
:101E80001DC090818091CB078F5F8F732091CC070D
:101E9000821741F0E091CB07F0E0EE54F84F958FB8
:101EA0008093CB07FF91EF919F918F912F910F908E
:101EB0000BBE0F900FBE0F901F9018958081F2CF30
:101EC0001F920F920FB60F9211240BB60F922F9301
:101ED0003F934F935F936F937F938F939F93AF93B2
:101EE000BF93EF93FF938091B900887F803609F408
:101EF0004DC008F040C0883209F4A9C028F58031EF
:101F000009F49DC0C8F4882309F4FBC0883009F4A3
:101F100096C0FF91EF91BF91AF919F918F917F916B
:101F20006F915F914F913F912F910F900BBE0F904A
:101F30000FBE0F901F901895883109F488C0803229
:101F400041F78093860714C0803409F49DC040F4A3
:101F50008033B9F38833E9F68093860785ECB0C007
:101F6000803509F485C0883509F496C0883489F62F
:101F70000E947E0ECECF883909F48CC038F58837A0
:101F800029F050F4883611F0803719F683E08093F9
:101F9000A8071092760657C0883809F47BC08039AC
:101FA00019F0803809F0B5CF80917606803208F0BC
:101FB00071C0E091760681E08E0F80937606809165
:101FC000BB00F0E0EA5AF94F80833DC0803B39F016
:101FD000E0F4803A09F479C0883A09F09ACF84E0B5
:101FE0008093A8071092550610925406E091790646
:101FF000F0917A0619958091540681110FC081E005
:10200000809354061092340609C0803C09F4A6CF90
:10201000883C09F4A3CF883B09F07BCFE0915506BB
:1020200081E08E0F80935506F0E0EC5CF94F8081E3
:102030008093BB00909155068091540629C08091F1
:1020400083078093BB0085EC8093BC0062CF9091A6
:10205000850780918407981758F5E091850781E0FE
:102060008E0F80938507F0E0EE59F84F8081E9CF1D
:10207000E091850781E08E0F809385078091BB00FA
:10208000F0E0EE59F84F80839091850780918407A6
:102090009817C8F285E8D8CFE091850781E08E0FC8
:1020A000809385078091BB00F0E0EE59F84F808364
:1020B0008091870781115CCF81E08093820784EA59
:1020C0008093BC001092A80724CF85EC8093BC00BD
:1020D0001092A80780917606803230F4E09176065F
:1020E000F0E0EA5AF94F10826091760670E0E091D4
:1020F0007706F091780686E596E0199510927606B7
:1021000008CF1092860734CF1F920F920FB60F920E
:1021100011240BB60F920F931F932F933F934F935E
:102120005F936F937F938F939F93AF93BF93EF933F
:10213000FF9313B10E944A0211FF20C06093DC0597
:102140007093DD058093DE059093DF0581E0809339
:102150008206FF91EF91BF91AF919F918F917F91F7
:102160006F915F914F913F912F911F910F910F9020
:102170000BBE0F900FBE0F901F90189520918206F6
:10218000222339F30091DC051091DD052091DE0555
:102190003091DF05601B710B820B930B6093A506DA
:1021A0007093A6068093A7069093A80610928206C5
:1021B00081E080938706CDCF1092B5071092B407C7
:1021C00088EE93E0A0E0B0E08093B6079093B70765
:1021D000A093B807B093B90720E632E03093B30775
:1021E0002093B20725EC30E03093BF072093BE0761
:1021F00024EC30E03093C1072093C00720EC30E09E
:102200003093C3072093C20721EC30E03093C50719
:102210002093C40722EC30E03093C7072093C60711
:1022200026EC30E03093C9072093C8071092CB0703
:102230001092CC071092CD071092CE071092520840
:10224000109251088093530890935408A093550816
:10225000B093560882E792E09093500880934F081D
:10226000EBE5F8E04FE458E029E283E090E0578B9B
:10227000468B208F128E118E138E12A213A214A2DF
:1022800096A385A3B79638E0E73FF30781F7089553
:10229000CF93DF93CDB7DEB76A970FB6F894DEBF62
:1022A0000FBECDBF789484B5826084BD84B5816053
:1022B00084BD85B5826085BD85B5816085BD809111
:1022C0006E00816080936E00109281008091810089
:1022D0008260809381008091810081608093810081
:1022E000809180008160809380008091B100846043
:1022F0008093B1008091B00081608093B0008091A4
:102300009100826080939100809191008160809320
:102310009100809190008160809390008091A10055
:1023200082608093A1008091A10081608093A100D0
:102330008091A00081608093A00080912101826043
:1023400080932101809121018160809321018091FE
:10235000200181608093200180917A0084608093C5
:102360007A0080917A00826080937A0080917A006E
:10237000816080937A0080917A00806880937A00EF
:102380001092C100E091C207F091C30782E0808300
:10239000E091BE07F091BF071082E091C007F09175
:1023A000C10780E180831092CA07E091C607F091CF
:1023B000C70786E08083E091C407F091C50780815C
:1023C00080618083E091C407F091C50780818860B7
:1023D0008083E091C407F091C50780818068808385
:1023E000E091C407F091C50780818F7D808361E013
:1023F00085E30E94190260E085E30E948D0160E0A0
:1024000084E30E94190204E512E040E5C42E42E094
:10241000D42E5CE4E52E52E0F52E68E5A62E62E0AF
:10242000B62E61E0D8018D918D010E94190261E004
:10243000F60181916F010E94190261E0D7018D912F
:102440007D010E941902A016B10659F70E94F707F4
:102450006CED75E080E090E00E946F0287EF92E003
:102460000E949E0810927C0610927B061092AF0785
:102470001092AE070E9434048DEA92E090937A069F
:10248000809379068EEA92E090937806809377069F
:1024900088E48093B80010927D0688EA91E6A0E077
:1024A000B0E08093AA079093AB07A093AC07B093DA
:1024B000AD0781E08093A90780E70E94830160E077
:1024C0008FE498E00E9499058FE498E00E94C80587
:1024D000882309F437C180E293E00E94500E8824DB
:1024E0008A94982C54019E01275F3F4F3E872D8789
:1024F000F894809187062091A5063091A606409118
:10250000A7065091A8068111109287067894882317
:1025100009F44FC410928306109284061092850627
:1025200010928606A7E5B1E00E94AD1C68517C4F71
:102530008F4F9F4F20ED37E040E050E00E948B1C12
:102540008091A1069091A206A091A306B091A40645
:102550000196A11DB11D8093A1069093A206A093A0
:10256000A306B093A406DA01C9014497A109B109F1
:102570008D389F40A105B10508F00EC420931402C8
:1025800030931502409316025093170244E150E035
:102590006AE873E080E092E00E944A1E0E94A10275
:1025A00000917E0610917F06209180063091810671
:1025B0006B017C01C01AD10AE20AF30A9701860175
:1025C0000436110521053105B0F120918206211153
:1025D00032C060937E0670937F068093800690934E
:1025E0008106F894109287061092A5061092A6060E
:1025F0001092A7061092A806789460E085E30E94E6
:102600008D0183E090E00197F1F761E085E30E949E
:102610008D0183E290E00197F1F760E085E30E948D
:102620008D010E944A026093830670938406809312
:102630008506909386060E94A1020091890610915A
:102640008A0620918B0630918C06601B710B820BE1
:10265000930B6A30710581059105B0F00E94A102CB
:102660006093890670938A0680938B0690938C06FC
:10267000809188060E94460A8091880690E0019623
:102680008370992780938806809158078250823002
:10269000F0F40E94A1022B013C018091AD069091C3
:1026A000AE06A091AF06B091B006A3019201281B1F
:1026B000390B4A0B5B0BDA01C901813D9740A1053B
:1026C000B10508F4BAC383EA93E00E94500EDD24FA
:1026D000D39455E0C52E82EB97E00E940D03892B21
:1026E00009F47AC682EB97E00E94EB028D3099F3F1
:1026F00020915207309153078A3009F055C6F901ED
:10270000EE52F94F1082232B09F437C46DEC73E0BD
:1027100082ED96E00E94411E892B09F024C40E949C
:10272000F707D092D106C092580740E250E063ED1F
:1027300073E088E192E00E944A1E89ED93E00E94D6
:102740009E081BC488E4C82E82E0D82E9BE5E92EA3
:1027500098E0F92E11E0412C512C612C20E4722ECE
:1027600032E0232E312CF60181916F01883090F1F7
:1027700010E0B7E2EB0EF11CECE4F2E0EC15FD0525
:1027800091F70E94A1026B017C010E94A1026C19C9
:102790007D098E099F09603A7F408105910508F007
:1027A000DDC20E9490078111D9C20E94F70780E024
:1027B0000E94460A81E00E94460A82E00E94460A80
:1027C00083E00E94460A64E170E080E090E00E94AD
:1027D0006F02DBCF0E942307882351F262E370E08F
:1027E00080E090E00E946F02E4EFF1E0D7015A969A
:1027F000FC93EE9359976FE071E0C7010E94BD080A
:102800008C3C9A4E09F0B4CF40E070E060E0C70124
:102810000E94EE068BE891E00197F1F741E070E04D
:1028200060E0C7010E94EE0661E070E080E090E0A9
:102830000E946F020E94A102D7015D967C936E9365
:102840005C9765EE70E0C7010E94030980FF04C039
:10285000F70183858823A9F0D70159968D919C9122
:10286000892B79F30E94A102F701248D358D621B1B
:10287000730B818D928D8617970718F781E0838FF0
:1028800077CF6EE270E0C7010E940309482F4160D4
:102890006EE270E0C7010E94EE0666E070E0C701DC
:1028A0000E94BD08D7015F969C938E935E976EED54
:1028B00070E0C7010E94BD08F70191A380A340E02A
:1028C0005AE064E270E0C7010E94AF0642E061E3B3
:1028D00070E0C7010E94EE0648E066E370E0C701C1
:1028E0000E94EE0640E167E370E0C7010E94EE0639
:1028F00041E069E370E0C7010E94EE064FEF6EE32E
:1029000070E0C7010E94EE0640E06FE370E0C7018F
:102910000E94EE0642E060E470E0C7010E94EE060D
:1029200050E040E060E570E0C7010E94AF0650E073
:1029300040E062E570E0C7010E94AF0648E367E54A
:1029400070E0C7010E94EE0648E651E064E670E0E0
:10295000C7010E94AF0640EC50E066E670E0C70198
:102960000E94AF0641E061E770E0C7010E94EE06F9
:1029700041E06CE770E0C7010E94EE0642E06EE7BE
:1029800070E0C7010E94EE0640E062E870E0C70117
:102990000E94EE0641E067E770E0C7010E94EE0684
:1029A0004BE861E870E0C7010E94EE0640E058EC99
:1029B00064E570E0C7010E94AF0642E06FE470E09A
:1029C000C7010E94EE0660E670E0C7010E9403099D
:1029D000082FD7015E962D913C9150E040E0C30155
:1029E000B2010E948B1CA0E0B9E00E94AD1C9B01CB
:1029F000AC01A6E05695479537952795AA95D1F74E
:102A00000F5F000FA02FB0E00E94AD1C4B015C01D6
:102A10006EE570E0C7010E94BD089C01BC017727EC
:102A200090E080E004C0660F771F881F991F3A95D9
:102A3000D2F76F5F7F4F8F4F9F4FA5019401B6E094
:102A40005695479537952795BA95D1F70E94F01D71
:102A5000385F4F4F5F4F6F4F7F4F8F4F9F4F0CE04F
:102A60000E941D1E2F87388B498B5A8B6B8B7C8B5A
:102A70008D8B9E8B8F849888A988BA88B8ED8B0E31
:102A8000B8E09B1EA11CB11C880C991CAA1CBB1C85
:102A90004FE060E670E0C7010E94EE064DE063E69D
:102AA00070E0C7010E94EE0648EB69E670E0C701DE
:102AB0000E94EE064FE068E770E0C7010E94EE0654
:102AC0004DE069E770E0C7010E94EE064EE06AE75C
:102AD00070E0C7010E94EE064EE06BE770E0C701B0
:102AE0000E94EE06E1EB8E16E1E19E06A104B10420
:102AF00028F0B501A401C7010E943909D7019696B3
:102B00003C922E92959740E553EC60E070E0C7014F
:102B10000E94390962E270E0C7010E94BD08AC0161
:102B2000440F551F440F551F6EE170E0C7010E940E
:102B3000AF0660E670E0C7010E940309082FF701A5
:102B4000268D378D50E040E0C301B2010E948B1CFE
:102B5000A0E0B9E00E94AD1C9B01AC0166E0569577
:102B60004795379527956A95D1F70F5F000FA02FEE
:102B7000B0E00E94AD1C4B015C016EE570E0C70146
:102B80000E94BD089C01BC01772790E080E004C052
:102B9000660F771F881F991F3A95D2F76F5F7F4F97
:102BA0008F4F9F4FA5019401E6E0569547953795C5
:102BB0002795EA95D1F70E94F01D385F4F4F5F4F80
:102BC0006F4F7F4F8F4F9F4F0CE00E941D1E2F872E
:102BD000388B498B5A8B6B8B7C8B8D8B9E8B8F8428
:102BE0009888A988BA88F8ED8F0EF8E09F1EA11C7E
:102BF000B11C880C991CAA1CBB1C47E060E670E065
:102C0000C7010E94EE0645E063E670E0C7010E943E
:102C1000EE0648E369E670E0C7010E94EE0647E071
:102C200068E770E0C7010E94EE0645E069E770E0E2
:102C3000C7010E94EE0646E06AE770E0C7010E9405
:102C4000EE0646E06BE770E0C7010E94EE0621EB5E
:102C5000821621E19206A104B10428F0B501A40175
:102C6000C7010E943909D70196961C921E9295972A
:102C700040E553EC60E070E0C7010E943909882309
:102C800009F476CDF70120A131A1ACE3B0E00E94B8
:102C9000B81C4B015C01808D0E948301D7015696C0
:102CA0008D919C91DC01ED91FC910190F081E02DE2
:102CB00060E01995F70186899789DC01ED91FC9117
:102CC0000190F081E02D6CE61995F70186899789CE
:102CD000DC01ED91FC910190F081E02D60E019950F
:102CE000F701A689B789B50188279927ED91FC914D
:102CF00011970190F081E02DCD011995F701A6897A
:102D0000B78999278B2D7A2D692DED91FC9111971B
:102D10000190F081E02DCD011995D70156968D9146
:102D20009C91DC01ED91FC910190F081E02D682DEA
:102D30001995F701868997890E94C805D7011B96C6
:102D40008C9341E066E870E0C7010E94EE0640E423
:102D500067E870E0C7010E94EE060BCD111104C0B8
:102D600081E393E00E949E080E949007811103C0B6
:102D700088E693E0B2CB8091680081608093680020
:102D800080916B00826080936B000E94030884E74F
:102D900093E00E949E08A3CB8092140290921502A9
:102DA000A0921602B092170244E150E06DE873E081
:102DB000F1CBC0908306D0908406E0908506F09019
:102DC0008606C114D104E104F10409F4E7CB0E94A2
:102DD0004A026C197D098E099F0961337547810587
:102DE000910508F4DBCB10928306109284061092B2
:102DF000850610928606109282068091A106909117
:102E0000A206A091A306B091A4060196A11DB11D32
:102E10008093A1069093A206A093A306B093A40664
:102E20008092140290921502A0921602B09217029C
:102E300044E150E06BE973E0ADCB0E949007F82EBF
:102E4000811103C085EB93E040CC0E94410778E5F7
:102E5000C72E72E0D72E49EB56E0588F4F8BE1EB2F
:102E60002E2EE6E03E2EE12CD6018D916D01EF89EC
:102E7000F88D21913191F88FEF8B082F10E02115FB
:102E8000310559F0D1014D915C91241B350BA901FD
:102E90004F5F5F4F43305105B0F4F801E356F94FEF
:102EA000908191110E94CB0722E0220E311C4CE54B
:102EB00052E04C155D05C1F683E0E11001C082E0EF
:102EC0008093580704CC121613060CF049C0B1E0E9
:102ED000BF8798012356394F3A8F298FD9019C918A
:102EE000BF859B17D9F19111DDCFF801EE0FFF1FC0
:102EF000EE0FFF1FE357F94F80819181A281B381CB
:102F0000A3019201281B390B4A0B5B0BDA01C901A3
:102F100088379105A105B10538F261E03F85313070
:102F200009F060E0F801EC5AFD4F80810E948D01AC
:102F300061E04F854F3F09F060E0F801E05BFD4F35
:102F400080810E948D01F801E45BFD4F61E080818A
:102F50000E948D01EF84A98DBA8DEC92EF2CA4CF45
:102F6000EFEFEF87B6CF66E074E082ED96E00E9467
:102F7000411E892B39F40E94610D10925307109263
:102F80005207A9CB6DE074E082ED96E00E94411EED
:102F9000892B09F046C0F8944090A5065090A606EB
:102FA0006090A7067090A80678948AE194E00E9449
:102FB000AC086091A1067091A2068091A306909141
:102FC000A4064AE00E94390884E294E00E94AC081A
:102FD0000E94A1024AE00E9439088BE294E00E941C
:102FE000AC086091140270911502809116029091C4
:102FF000170297FF12C00E947D0889E394E00E94A7
:10300000AC084AE0C301B2010E94390884E494E0AC
:103010000E94AC0880E092E092CB4AE00E9439081E
:10302000ECCF6DE474E082ED96E00E94411E892BA6
:1030300019F482E594E083CB8091D106811104C01C
:1030400010915807153019F48AE694E078CB6EECAD
:1030500073E082ED96E00E94411E892BD1F463EA71
:1030600073E088E192E00E94411E143029F4892B1C
:1030700019F08CE794E063CB40E250E06DE974E036
:1030800088E192E00E944A1E0E94030882EA94E0CE
:1030900056CB143071F36EEB74E082ED96E00E9433
:1030A000411E892B09F061C00E949007811103C065
:1030B00086EC94E044CB0E94F7078091C90690917A
:1030C000CA069093C2068093C1068091CB06909168
:1030D000CC069093C4068093C3068091CD06909150
:1030E000CE069093C6068093C5068091CF06909138
:1030F000D0069093C8068093C7061092BA06109225
:10310000B9061092B2061092B1061092BC06109247
:10311000BB061092B4061092B3061092BE0610922F
:10312000BD061092B6061092B5061092C006109217
:10313000BF061092B8061092B70652E05093580797
:103140000E94A1026093AD067093AE068093AF0615
:103150009093B0061092A9061092AA061092AB06A0
:103160001092AC068AED94E0EACA1C861B86AE017A
:10317000455F5F4F69EF74E082ED96E00E94511C5D
:103180008C01AE01455F5F4F69EF74E090E080E035
:103190000E94511C009781F1DC012C91222361F1E6
:1031A0002D3251F11A8219824AE050E0BE016F5F60
:1031B0007F4F0E94451B2B013C01E981FA818081F0
:1031C00081111AC04114510461047104A9F0809165
:1031D000A9069091AA06A091AB06B091AC06841501
:1031E0009505A605B70540F48091580782508230B6
:1031F00030F089E195E0A3CA8BEF94E0A0CA6FE3B9
:1032000075E0C8010E94411E892B19F5AE01455F8A
:103210005F4F69EF74E090E080E00E94511C892BC1
:1032200019F087E295E08BCA4092A9065092AA064F
:103230006092AB067092AC060E94A1026093AD064C
:103240007093AE068093AF069093B0068CE395E042
:1032500076CA6EE775E0C8010E94411E892B09F00D
:10326000A0C0FE0131967F018F01AE01455F5F4F27
:1032700069EF74E090E080E00E94511C0097A1F19A
:10328000DC012C91222381F11A8619864AE050E054
:10329000BE01675F7F4F0E94171AE985FA8520817A
:1032A000211122C09B01AC01225A3E4F4F4F5F4F6C
:1032B0002D3B324041055105B8F4F80161937193FB
:1032C0008F012D853E85E217F30779F6AE01455F44
:1032D0005F4F69EF74E090E080E00E94511C892B01
:1032E00031F087E695E02BCA89E495E028CA28E505
:1032F00032E0D901ED919D01D7018D919D917D0124
:10330000F0E0EE0FFF1FEF53F94F40815181052E82
:10331000000C660B770B092E000CAA0BBB0B480F99
:10332000591F6A1F7B1F42535109610971094F35AB
:1033300051406105710518F088E895E000CAECE598
:10334000F2E0E217F307A9F689819A819093BA0611
:103350008093B9068B819C819093BC068093BB06B9
:103360008D819E819093BE068093BD068F81988546
:103370009093C0068093BF064092A9065092AA0679
:103380006092AB067092AC060E94A1026093AD06FB
:103390007093AE068093AF069093B0068BE795E0EE
:1033A000CEC985EA95E0CBC92F37310560F4A90174
:1033B0004F5F5F4F50935307409352072E52394F40
:1033C000D9018C9388C9109253071092520789EB48
:1033D00095E00E94500E7FC980915807813019F006
:1033E0008450823010F40E94F7070E94A1020091DD
:1033F0005407109155072091560730915707601BCD
:10340000710B820B930B683C71058105910560F08F
:103410000E94A1026093540770935507809356074A
:10342000909357070E94610D0E94B20361C83F92BA
:103430004F925F926F927F928F929F92AF92BF92C4
:10344000CF92DF92EF92FF920F931F93CF93DF9370
:103450005C016B017A016115710519F0FB01918323
:103460008083E114F10451F0C7010297839730F093
:1034700040E030E020E090E06BC05E01E501219685
:10348000F5011081812F90E00E94481C892BA9F73B
:103490001D3201F52196F501118101E0E114F104DD
:1034A00009F4E6C0F0E1EF16F10409F088C010332A
:1034B00059F488818F7D883509F07CC01981229666
:1034C0000260F0E1EF2EF12C812C912CA12C88E0F0
:1034D000B82E92C01B3221F4E5012296F50111812C
:1034E00000E0DCCFEAE0EE16F10409F4C7C0F0E139
:1034F000EF16F10409F073C0E7CF78E0E72EF12C66
:10350000812C912CA12C60E1B62E76C021E0ADC0BB
:10351000302F3170C114D10431F0222371F1219781
:10352000F601D183C08327FF2EC060E070E080E009
:1035300090E8311104C06FEF7FEF8FEF9FE722E239
:1035400030E03093F8082093F708462F372F282FC4
:10355000642F732F822FDF91CF911F910F91FF90D6
:10356000EF90DF90CF90BF90AF909F908F907F9023
:103570006F905F904F903F90089501FF04C0229795
:10358000F601D183C083332341F0909580957095E7
:1035900061957F4F8F4F9F4FD8CF97FFD6CF82E255
:1035A00090E09093F8088093F7086FEF7FEF8FEF2C
:1035B0009FE7CBCF10E3E114F10409F49ECF28E09C
:1035C000E216F10409F49CCF0CF08CCF812C912CE5
:1035D000A12CE0E4BE2E82E0E816F10469F060E080
:1035E00070E080E090E897010F2C000C440B550B25
:1035F0000E948B1C49015A0120E060E070E0CB0181
:1036000027010F2C000C66087708FE0150ED352EBF
:10361000310E39E0331570F43FEB310F49EC342EA5
:103620003A3138F03FE9310F3A3108F071CF39EAD9
:10363000332E310E3E141F040CF06ACF27FD15C047
:1036400086169706A806B90678F0A30192010E9493
:103650007B1C630D711D811D911D613071058105FC
:1036600020E8920708F452CF2FEF21961081CDCF9A
:10367000103309F41ECF2AE0E22EF12C9CEC892EA7
:10368000982CA82C9CE0B92EB7CF3F924F925F9216
:103690006F927F928F929F92AF92BF92CF92DF9262
:1036A000EF92FF920F931F93CF93DF935C016B0117
:1036B0007A016115710519F0FB0191838083E11492
:1036C000F10449F0C7010297839728F060E070E0A9
:1036D000CB019BC05E01E5012196F5011081812F90
:1036E00090E00E94481C892BA9F71D3209F05CC0AC
:1036F0002196F501118101E0E114F10409F4BBC048
:10370000F0E1EF16F10409F09BC0103341F4888119
:103710008F7D883509F08FC0198122960260E0E123
:10372000EE2EF12C88248A94982CA82CFFE0BF2E32
:1037300020E060E070E0CB0127010F2C000C660850
:103740007708FE0150ED352E310E39E0331568F45F
:103750003FEB310F49EC342E3A3130F03FE9310F75
:103760003A31B0F539EA332E310E3E141F0484F598
:103770002F3FB9F086169706A806B90638F1A301BF
:1037800092010E947B1C232D30E050E040E0620F4C
:10379000731F841F951F6217730784079507B0F086
:1037A00021E021961081CDCF1B3221F4E501229634
:1037B000F501118100E0A0CF78E0E72EF12C8824FC
:1037C0008A94982CA82C6FE1B62EB2CF2FEFE9CFB8
:1037D000C114D10431F0222351F12197F601D18394
:1037E000C08300FF07C090958095709561957F4FCD
:1037F0008F4F9F4F2F3F49F482E290E09093F8085B
:103800008093F7086FEF7FEFCB01DF91CF911F918E
:103810000F91FF90EF90DF90CF90BF90AF909F906F
:103820008F907F906F905F904F903F90089501FF31
:10383000D8CF2297D3CF10E3E114F10409F4BCCF21
:103840003AE0E316F104E9F080E1E816F10409F446
:1038500066CFE8E0EE16F10409F4B1CF6FEF7FEF29
:10386000CB0197010F2C000C440B550B0E948B1CB5
:1038700049015A015DCF103309F449CF9AE0E92E8E
:10388000F12C89E9882E982CA82C89E1B82E50CFEC
:1038900091110C94781C803219F089508550C8F72A
:1038A0000895FA01A191B081009719F41097E1F001
:1038B000CD01DC01CD010D90002011F4C00113C039
:1038C000FB012191222319F02015D9F7F3CFFB0139
:1038D0002191201519F41E92119606C02223C1F7DA
:1038E0000D900020A1F7D001FA01A193B0830895B3
:1038F000992788270895DB018F939F930E94AD1C21
:10390000BF91AF91A29F800D911DA39F900DB29F7B
:10391000900D11240895A1E21A2EAA1BBB1BFD01D4
:103920000DC0AA1FBB1FEE1FFF1FA217B307E4079E
:10393000F50720F0A21BB30BE40BF50B661F771FF6
:10394000881F991F1A9469F76095709580959095D6
:103950009B01AC01BD01CF0108950E94B81CA59F39
:10396000900DB49F900DA49F800D911D112408957A
:10397000A29FB001B39FC001A39F700D811D1124B0
:10398000911DB29F700D811D1124911D0895E89421
:1039900009C097FB3EF490958095709561957F4F97
:1039A0008F4F9F4F9923A9F0F92F96E9BB27939545
:1039B000F695879577956795B795F111F8CFFAF455
:1039C000BB0F11F460FF1BC06F5F7F4F8F4F9F4F86
:1039D00016C0882311F096E911C0772321F09EE8E4
:1039E000872F762F05C0662371F096E8862F70E04A
:1039F00060E02AF09A95660F771F881FDAF7880F24
:103A00009695879597F908950E94171D0C94881D27
:103A10000E947A1D38F00E94811D20F0952311F03C
:103A20000C94711D0C94771D11240C94BC1D0E94E4
:103A3000991D70F3959FC1F3950F50E0551F629F3C
:103A4000F001729FBB27F00DB11D639FAA27F00DF7
:103A5000B11DAA1F649F6627B00DA11D661F829F1E
:103A60002227B00DA11D621F739FB00DA11D621F03
:103A7000839FA00D611D221F749F3327A00D611D20
:103A8000231F849F600D211D822F762F6A2F112402
:103A90009F5750409AF0F1F088234AF0EE0FFF1F35
:103AA000BB1F661F771F881F91505040A9F79E3F8C
:103AB000510580F00C94711D0C94BC1D5F3FE4F324
:103AC000983ED4F3869577956795B795F795E795E2
:103AD0009F5FC1F7FE2B880F911D9695879597F9EB
:103AE000089597F99F6780E870E060E008959FEF80
:103AF00080EC089500240A94161617061806090685
:103B0000089500240A941216130614060506089553
:103B1000092E0394000C11F4882352F0BB0F40F4DB
:103B2000BF2B11F460FF04C06F5F7F4F8F4F9F4F1B
:103B3000089557FD9058440F551F59F05F3F71F09D
:103B40004795880F97FB991F61F09F3F79F0879504
:103B50000895121613061406551FF2CF4695F1DF8D
:103B600008C0161617061806991FF1CF869571051D
:103B7000610508940895E894BB2766277727CB0151
:103B800097F90895052E97FB1EF400940E94D91D05
:103B900057FD07D00E948B1C07FC03D04EF40C94F9
:103BA000D91D50954095309521953F4F4F4F5F4F10
:103BB000089590958095709561957F4F8F4F9F4F99
:103BC0000895EE0FFF1F881F8BBF0790F691E02D21
:103BD00019940E94B81CB7FF0895821B930B089597
:103BE000E894DF93CF93FC01DB010E94B81C7F9324
:103BF0006F93E9019A01AC01BF93AF933F932F9369
:103C0000DF010E94B81C26F46C1B7D0B820B930B0A
:103C10009E01EB01FC010E94381EAF91BF912F91D4
:103C20003F910E94381EBE01CF01F9012F913F91B3
:103C3000CF91DF91089597FD1094002E083098F0F1
:103C40000850232F342F452F562F672F782F892F79
:103C5000912DF4CF159497958795779567955795FE
:103C60004795379527950A95AAF71124002D0895B1
:103C70000E94B81C460F571FC81FD91F08F4319661
:103C80000895FB01DC018D91019080190110D9F399
:103C9000990B0895FB01DC014150504048F0019020
:103CA0000D920020C9F701C01D9241505040E0F72D
:103CB0000895F894FFCF6E6F5F73616D706C65004F
:103CC00000000000000000000000FFFFFFFF6E6F1B
:103CD0006E65000000000000000000000000000011
:103CE0000000000000000000000000000000CA0505
:103CF00081038403CF05D605CD0301010101000135
:103D000002031E1F202117191B1D16181A1C03025F
:103D10000001000000004503AF02DC0292030D0326
:103D2000EB02FF020000000099056C052007420528
:103D30006505520543050D0A00554E4B4E4F574E33
:103D400000455854454E4400524554524143540096
:103D500049444C4500494D555F53544154555320F7
:103D60006D6F64653D00206573746F703D00206663
:103D700061756C74733D00206661756C743D002044
:103D800041002C00207461726765743D00206170F1
:103D9000706C6965643D004641554C545F4C41541C
:103DA0004348454420726561736F6E3D004D454741
:103DB000415F4C414E4445525F494D555F5632205C
:103DC000424F4F542044495341524D454420414CA9
:103DD0004C5F4C4F57007463615F6E6F745F646536
:103DE000746563746564005741524E2053454E53C9
:103DF0004F525F494E49545F52455452595F5245A4
:103E0000434F56455245445F49465F414C4C5F52D3
:103E1000454144494E47535F56414C494400736500
:103E20006E736F725F696E69740052454144592028
:103E3000494D555F56322044495341524D45440047
:103E40006F6B0072616E67655F696E76616C696445
:103E5000006E6F5F6563686F0068656172746265AC
:103E600061745F74696D656F75740073656E736FEF
:103E7000725F696E76616C69645F6F725F72616EAA
:103E80006765004553544F50006573746F7000456B
:103E900053544F505F4C41544348454420414C4C8F
:103EA0005F4F5554505554535F4C4F572052455314
:103EB00045545F524551554952454400535441546D
:103EC0005553004745545F44495354414E434500C0
:103ED00053523034207365713D0020745F6D733D23
:103EE000002064697374616E63655F6D6D3D0020D1
:103EF00070756C73655F75733D00207374617475C4
:103F0000733D0050494E4700504F4E47204D4547A6
:103F1000415F4C414E4445525F494D555F5632001A
:103F2000455252204553544F505F4C4154434845ED
:103F30004400455252204641554C545F4C41544335
:103F40004845445F52455345545F52455155495287
:103F50004544006E6F6E65004F4B2053544F5050D8
:103F600045442044495341524D454420414C4C5F07
:103F70004C4F570041524D20494D5500455252205B
:103F800041524D5F53454E534F525F474154450098
:103F90004F4B2041524D45445F494D5520424153BE
:103FA000454C494E455F43415054555245440020CD
:103FB00000455252205345515F4D5553545F494E71
:103FC0004352454153455F4E4F4E5A45524F00456F
:103FD0005252204E4F545F41524D4544004552527B
:103FE000204845415254424541545F464F524D414D
:103FF00054004F4B204845415254424541540045DE
:104000005252205345545F44454C54415F464F52F1
:104010004D41545F4F525F52414E47450045525209
:10402000205345545F44454C54415F4558545241D8
:10403000004F4B205345545F44454C54410045527A
:1040400052205345545F44454C54415F4142534FC5
:104050004C5554455F52414E4745004552522055FC
:104060004E4B4E4F574E5F434F4D4D414E440063B4
:104070006F6D6D616E645F746F6F5F6C6F6E670004
:10408000424F4F5400414354495645004641554C18
:024090005400DA
:020000040003F7
:10E000000D9489F10D94B2F10D94B2F10D94B2F129
:10E010000D94B2F10D94B2F10D94B2F10D94B2F1F0
:10E020000D94B2F10D94B2F10D94B2F10D94B2F1E0
:10E030000D94B2F10D94B2F10D94B2F10D94B2F1D0
:10E040000D94B2F10D94B2F10D94B2F10D94B2F1C0
:10E050000D94B2F10D94B2F10D94B2F10D94B2F1B0
:10E060000D94B2F10D94B2F10D94B2F10D94B2F1A0
:10E070000D94B2F10D94B2F10D94B2F10D94B2F190
:10E080000D94B2F10D94B2F10D94B2F10D94B2F180
:10E090000D94B2F10D94B2F10D94B2F10D94B2F170
:10E0A0000D94B2F10D94B2F10D94B2F10D94B2F160
:10E0B0000D94B2F10D94B2F10D94B2F10D94B2F150
:10E0C0000D94B2F10D94B2F10D94B2F10D94B2F140
:10E0D0000D94B2F10D94B2F10D94B2F10D94B2F130
:10E0E0000D94B2F141546D656761323536300041AF
:10E0F000726475696E6F206578706C6F72657220DE
:10E1000073746B3530305632206279204D4C530099
:10E11000426F6F746C6F616465723E004875683F52
:10E1200000436F6D70696C6564206F6E203D200048
:10E130004350552054797065202020203D20005FF9
:10E140005F4156525F415243485F5F3D2000415658
:10E1500052204C696243205665723D20004743437C
:10E160002056657273696F6E203D20004350552024
:10E1700049442020202020203D20004C6F7720663D
:10E18000757365202020203D20004869676820665F
:10E190007573652020203D200045787420667573D6
:10E1A00065202020203D20004C6F636B2066757336
:10E1B000652020203D20004D617220203720323024
:10E1C000313300312E362E3800342E332E350056A2
:10E1D00023202020414444522020206F7020636F70
:10E1E00064652020202020696E73747275637469E1
:10E1F0006F6E2061646472202020496E74657272B3
:10E20000757074006E6F20766563746F7200726A49
:10E210006D702020006A6D70200057686174207056
:10E220006F72743A00506F7274206E6F7420737541
:10E2300070706F72746564004D7573742062652030
:10E2400061206C6574746572002000577269747483
:10E25000696E672045450052656164696E672045B7
:10E26000450045452065727220636E743D00504F35
:10E27000525400303D5A65726F2061646472003FF1
:10E280003D43505520737461747300403D454550C3
:10E29000524F4D207465737400423D426C696E6B41
:10E2A000204C454400453D44756D70204545505215
:10E2B0004F4D00463D44756D7020464C415348001B
:10E2C000483D48656C70004C3D4C69737420492F83
:10E2D0004F20506F72747300513D51756974005234
:10E2E0003D44756D702052414D00563D73686F7707
:10E2F00020696E7465727275707420566563746FF0
:10E30000727300593D506F727420626C696E6B00BD
:10E310002A0011241FBECFEFD1E2DEBFCDBF01E046
:10E320000CBF12E0A0E0B2E0EEE1FDEF03E00BBFB6
:10E3300002C007900D92A030B107D9F712E0A0E01B
:10E34000B2E001C01D92AE30B107E1F70F9460F367
:10E350000D948DFE01E20EBF0FEF0DBF11241FBE05
:10E360000D9460F30D9400F020E030E040ED57E0B4
:10E3700005C0FA013197F1F72F5F3F4F2817390792
:10E38000C0F308959C01260F311DC901A0E0B0E043
:10E390002F5F3F4FABBFFC018791882361F08093D3
:10E3A000C6008091C00086FFFCCF8091C0008064D1
:10E3B0008093C000EACF08958DE08093C6008091DD
:10E3C000C00086FFFCCF8091C00080648093C000B5
:10E3D0008AE08093C6008091C00086FFFCCF8091C8
:10E3E000C00080648093C00008950F94C2F10F9420
:10E3F000DCF10895FC019081992359F09093C600B7
:10E400008091C00086FFFCCF8091C0008064809323
:10E41000C0003196992379F70895282F982F929567
:10E420009F70892F805D8A3308F0895F8093C600D2
:10E430008091C00086FFFCCF8091C00080648093F3
:10E44000C000822F8F70982F905D9A3308F0995FEB
:10E450009093C6008091C00086FFFCCF8091C000E1
:10E4600080648093C00008959C01FB01853691056E
:10E470001CF46330710594F0C90164E670E00F94F8
:10E480002EFE605D7F4F6093C6008091C00086FFC6
:10E49000FCCF8091C00080648093C0002B30310598
:10E4A00014F43297B4F0C90164E670E00F942EFEC4
:10E4B0006AE070E00F942EFE605D7F4F6093C600AF
:10E4C0008091C00086FFFCCF8091C0008064809363
:10E4D000C000C9016AE070E00F942EFEC0968093E0
:10E4E000C6008091C00086FFFCCF8091C000806490
:10E4F0008093C00008951F93182F8EE692EE60E07F
:10E500000F94C2F11093C6008091C00086FFFCCF2B
:10E510008091C00080648093C0000F94DCF11F9153
:10E5200008952F923F924F925F926F927F928F92B7
:10E530009F92AF92BF92CF92DF92EF92FF920F9392
:10E540001F93DF93CF93CDB7DEB762970FB6F894E2
:10E55000DEBF0FBECDBF382E622ECA01DB015C01CB
:10E560006D01772420E2222E2E010894411C511CBB
:10E570008BC081E0A81680E0B80681E0C80680E084
:10E58000D80628F0C601AA27BB270F940DF2BB2797
:10E59000AD2D9C2D8B2D0F940DF28A2D0F940DF225
:10E5A0002092C6008091C00086FFFCCF8091C00001
:10E5B00080648093C0009DE29093C6008091C0006B
:10E5C00086FFFCCF8091C00080648093C0002092C1
:10E5D000C6008091C00086FFFCCF8091C00080649F
:10E5E0008093C00019828601750188249924A1E0D6
:10E5F0003A1651F03A1620F0B2E03B1661F409C029
:10E600000BBFF701779007C0C7010F9477FE782EF4
:10E6100002C0F7017080872D0F940DF22092C60082
:10E620008091C00086FFFCCF8091C0008064809301
:10E63000C000872D8052F401EF70F0708F3520F408
:10E64000E40DF51D708204C0E40DF51D8EE280839B
:10E650000894E11CF11C011D111D0894811C911CE2
:10E6600090E18916910409F0C2CF80E190E0A0E02A
:10E67000B0E0A80EB91ECA1EDB1E198AC2010F9493
:10E68000FAF10F94DCF16A94662009F072CF629679
:10E690000FB6F894DEBF0FBECDBFCF91DF911F91B3
:10E6A0000F91FF90EF90DF90CF90BF90AF909F9031
:10E6B0008F907F906F905F904F903F902F90089534
:10E6C0002F923F924F925F926F927F928F929F9282
:10E6D000AF92BF92CF92DF92EF92FF920F931F9370
:10E6E000DF93CF93CDB7DEB7CD53D1400FB6F894BB
:10E6F000DEBF0FBECDBF01E20EBF0FEF0DBF94B75F
:10E70000F894A89514BE80916000886180936000A1
:10E7100010926000789493FF05C0E0910002F091A0
:10E7200001021995279A2F9A8091C00082608093E8
:10E73000C00080E18093C40088E18093C1000000A4
:10E74000EE24FF24870144E0A42EB12CCC24DD2448
:10E7500024C0C5010197F1F70894E11CF11C011DCB
:10E76000111D21E2E2162EE4F20620E0020720E06D
:10E77000120718F031E0C32ED12CC801B70127ECE5
:10E780003BE140E050E00F9441FE611571058105C9
:10E79000910519F485B1805885B98091C00087FD35
:10E7A00003C0C114D104A9F2A6014F5F5F4FC25E3E
:10E7B000DE4F59834883CE51D140C25EDE4F8881FF
:10E7C0009981CE51D140019711F00D9410FEC05D9A
:10E7D000DE4F19821882C053D14060E0C15DDE4F28
:10E7E0001882CF52D14088249924C35DDE4F19820C
:10E7F0001882CD52D140C05EDE4F188219821A8233
:10E800001B82C052D140CE5CDE4F188219821A8220
:10E810001B82C253D140EE24FF2487010BBFF701B6
:10E8200007911691C45CDE4F19830883CC53D14005
:10E830000D940BFEC25EDE4F28813981CE51D1404E
:10E840002130310509F52091C600C25EDE4F1982E4
:10E850001882CE51D14022C02F5F3F4F4F4F5F4FA4
:10E86000213082E138078AE7480780E0580780F0C6
:10E87000C45CDE4FE881F981CC53D140EF5FFF4F9C
:10E8800019F0EE27FF27099420E030E040E050E047
:10E890008091C00087FFE0CF2091C600C35DDE4FAE
:10E8A00048815981CD52D1404F5F5F4FC35DDE4FEC
:10E8B00059834883CD52D140213209F063C64A3092
:10E8C000510508F05FC60894811C911C53E0851621
:10E8D000910409F059C600E010E018C081E280936D
:10E8E000C6008091C00086FFFCCF8091C00080648C
:10E8F0008093C0002F5F3F4F2931310579F70F9486
:10E90000DCF10F5F1F4F0530110519F020E030E0FA
:10E91000E5CF10920A0210920B0210920C02109294
:10E920000D02109206021092070210920802109235
:10E930000902109202021092030210920402109235
:10E9400005028FEE90EE60E00F94F5F180E191EE1C
:10E9500060E00F94C2F18091C00087FFFCCF9091DE
:10E96000C600903608F09F759032B8F09093C600BC
:10E970008091C00086FFFCCF8091C00080648093AE
:10E98000C000A0E2A093C6008091C00086FFFCCF2B
:10E990008091C00080648093C000983409F4D7C18E
:10E9A0009934B8F4923409F459C1933458F490333B
:10E9B00019F1903308F4E3C59F33A1F1903409F0C5
:10E9C000DEC5BDC0953409F470C1963409F0D7C5D1
:10E9D00098C1923509F42BC2933538F49C3409F46C
:10E9E000F5C1913509F0CBC518C2963509F445C279
:10E9F000993509F0C4C567C483E792EE62E00F94CD
:10EA0000F5F110920602109207021092080210927D
:10EA1000090210920A0210920B0210920C0210923C
:10EA20000D0213C18FE792EE62E00F94F5F18FEEC5
:10EA300090EE60E00F94F5F181E291EE60E00F94CA
:10EA4000C2F187EB91EE60E00F94F5F180E391EE77
:10EA500060E00F94C2F184EE90EE60E00F94F5F167
:10EA60008FE391EE60E00F94C2F186E090E061E008
:10EA700070E00F9434F20F94DCF18DE591EE60E0DC
:10EA80000F94C2F189EC91EE60E00F94F5F18EE401
:10EA900091EE60E00F94C2F183EC91EE60E00F9490
:10EAA000F5F18CE691EE60E00F94C2F18EE10F94E7
:10EAB0000DF288E90F940DF281E00F940DF20F949E
:10EAC000DCF18BE791EE60E00F94C2F119E0E0E039
:10EAD000F0E010935700E4918E2F0F940DF20F94F5
:10EAE000DCF18AE891EE60E00F94C2F1E3E0F0E03F
:10EAF00010935700E4918E2F0F940DF20F94DCF1D8
:10EB000089E991EE60E00F94C2F1E2E0F0E0109349
:10EB10005700E4918E2F0F940DF20F94DCF188EAE8
:10EB200091EE60E00F94C2F1E1E0F0E01093570045
:10EB30001491812F0F940DF20F94DCF107CF8BE825
:10EB400092EE62E00F94F5F18BE492EE60E00F94A8
:10EB5000F5F10F94DCF100E010E019C0C8016F2D51
:10EB60000F947FFEFF2031F489E492EE60E00F9471
:10EB7000C2F10BC0F092C6008091C00086FFFCCFAE
:10EB80008091C00080648093C0000F5F1F4FC80158
:10EB900081519F41A0E0B0E0ABBFFC01F790BAE229
:10EBA000FB1621F0E2E000301E07C1F60F94DCF105
:10EBB0000F94DCF187E592EE60E00F94F5F10F948D
:10EBC000DCF1CC24DD2400E010E01EC0C8010F946D
:10EBD00077FEF82E882331F489E492EE60E00F94FA
:10EBE000C2F10BC08093C6008091C00086FFFCCFAD
:10EBF0008091C00080648093C000FE1419F00894D6
:10EC0000C11CD11C0F5F1F4FC80181519F41A0E063
:10EC1000B0E0ABBFFC01E790FAE2EF1621F022E092
:10EC20000030120799F60F94DCF10F94DCF182E6C4
:10EC300092EE60E00F94C2F1C60161E070E00F94C3
:10EC400034F20F94DCF10F94DCF110920202109276
:10EC50000302109204021092050278CE89E992EE26
:10EC600062E00F94F5F1279A2F9A16C02F9880E052
:10EC700090E0E0EDF7E03197F1F7019684369105E9
:10EC8000C1F72F9A80E090E0E0EDF7E03197F1F7DF
:10EC9000019684369105C1F78091C00087FFE6CFC9
:10ECA0008091C00087FFFCCF64C485EA92EE62E0E9
:10ECB0000F94F5F140910202509103026091040219
:10ECC0007091050281E020E10F9491F2809102029F
:10ECD00090910302A0910402B091050280509F4FD1
:10ECE000AF4FBF4F8093020290930302A0930402A0
:10ECF000B093050280509041A040B04008F426CE69
:10ED0000A4CF83EB92EE62E00F94F5F140910602FE
:10ED100050910702609108027091090280E020E1A1
:10ED20000F9491F28091060290910702A09108023F
:10ED3000B091090280509F4FAF4FBF4F80930602A2
:10ED400090930702A0930802B0930902FFCD80ECD4
:10ED500092EE62E00F94F5F183E792EE60E00F949B
:10ED6000F5F18FE792EE60E00F94F5F18BE892EE0B
:10ED700060E00F94F5F189E992EE60E00F94F5F10F
:10ED800085EA92EE60E00F94F5F183EB92EE60E09D
:10ED90000F94F5F180EC92EE60E00F94F5F187ECC2
:10EDA00092EE60E00F94F5F188ED92EE60E00F9442
:10EDB000F5F18FED92EE60E00F94F5F18AEE92EEB0
:10EDC00060E00F94F5F183E093EEBDCD87EC92EE19
:10EDD00062E00F94F5F181E40F947BF282E40F94EA
:10EDE0007BF283E40F947BF284E40F947BF285E45E
:10EDF0000F947BF286E40F947BF287E40F947BF20E
:10EE000088E40F947BF28AE40F947BF28BE40F94F6
:10EE10007BF28CE40F947BF299CD88ED92EE62E068
:10EE20000F94F5F1772473948824992409C48FED05
:10EE300092EE62E00F94F5F140910A0250910B02BC
:10EE400060910C0270910D0282E020E10F9491F22A
:10EE500080910A0290910B02A0910C02B0910D02D8
:10EE600080509F4FAF4FBF4F80930A0290930B0289
:10EE7000A0930C02B0930D0269CD8AEE92EE62E08F
:10EE80000F94F5F184EE90EE60E00F94F5F18FECC5
:10EE900091EE60E00F94F5F1662477244301CC5D98
:10EEA000DE4F19821882C452D140D401C301B695F5
:10EEB000A79597958795CA5DDE4F88839983AA8326
:10EEC000BB83C652D140CC5DDE4FA881B981C4520C
:10EED000D1401196CC5DDE4FB983A883C452D14096
:10EEE000CD0162E070E00F9434F2B0E2B093C6005E
:10EEF0008091C00086FFFCCF8091C0008064809329
:10EF0000C000EDE2E093C6008091C00086FFFCCF18
:10EF10008091C00080648093C000F0E2F093C6004E
:10EF20008091C00086FFFCCF8091C00080648093F8
:10EF3000C000CA5DDE4FE880F9800A811B81C6529D
:10EF4000D140BB27A12F902F8F2D0F940DF2CA5DBA
:10EF5000DE4F8881C652D1400F940DF2B0E2FB2EF5
:10EF6000F092C6008091C00086FFFCCF8091C00067
:10EF700080648093C0000DE30093C6008091C000C0
:10EF800086FFFCCF8091C00080648093C00010E2B7
:10EF90001093C6008091C00086FFFCCF8091C00016
:10EFA00080648093C0008BBEF3012791C65DDE4F65
:10EFB0002883CA52D140A22EBB24CC24DD2408943D
:10EFC000611C711C811C911C8BBEF3018791282E42
:10EFD0003324442455240894611C711C811C911C09
:10EFE0008BBEF3013791C55DDE4F3883CB52D140E4
:10EFF0000894611C711C811C911C8BBEF30147910C
:10F00000C45DDE4F4883CC52D140ADEFEA2EAFEF66
:10F01000FA2EAFEF0A2FAFEF1A2F6E0C7F1C801E57
:10F02000911E142D032DF22CEE24EA0CFB1C0C1D5A
:10F030001D1D0F940DF220E22093C6008091C000A8
:10F0400086FFFCCF8091C00080648093C000C65DC5
:10F05000DE4F8881CA52D1400F940DF230E23093D6
:10F06000C6008091C00086FFFCCF8091C000806404
:10F070008093C000C45DDE4F8881CC52D1400F9494
:10F080000DF240E24093C6008091C00086FFFCCFA5
:10F090008091C00080648093C000C55DDE4F888190
:10F0A000CB52D1400F940DF250E25093C6008091A4
:10F0B000C00086FFFCCF8091C00080648093C000B8
:10F0C0008FEFE8168FEFF80680E0080780E018075A
:10F0D00031F484E092EE60E00F94C2F1DFC0D80119
:10F0E000C7018070907CA070B0708050904CA040A0
:10F0F000B040D1F52FEF3FE340E050E0E222F322B1
:10F1000004231523CA5DDE4FA880B980CA80DB8046
:10F11000C652D140AE0CBF1CC01ED11EAA0CBB1CD7
:10F12000CC1CDD1C8EE092EE60E00F94C2F1BB2798
:10F13000A12F902F8F2D0F940DF28E2D0F940DF285
:10F1400030E23093C6008091C00086FFFCCF8091F2
:10F15000C00080648093C0004EE34093C60080915D
:10F16000C00086FFFCCF87C08EE09EEFA0E0B0E03D
:10F17000E822F9220A231B239CE0E91694E9F90608
:10F1800090E0090790E0190709F088C0C45DDE4FE0
:10F19000A881CC52D140EA2EFF2400E010E0102FCD
:10F1A0000F2DFE2CEE24C55DDE4FB881CB52D14031
:10F1B000EB0EF11C011D111DD601C501817090706F
:10F1C000A070B070DC0199278827E80EF91E0A1F8D
:10F1D0001B1F20EF30E040E050E0A222B322C42207
:10F1E000D52241E1AA0CBB1CCC1CDD1C4A95D1F7F1
:10F1F000EA0CFB1C0C1D1D1D81E090E0A0E0B0E0BE
:10F20000282239224A225B2235E1220C331C441C7D
:10F21000551C3A95D1F7E20CF31C041D151D57013E
:10F220006801AA0CBB1CCC1CDD1C85E192EE60E0E1
:10F230000F94C2F1C801AA27BB270F940DF2BB2778
:10F24000A12F902F8F2D0F940DF28E2D0F940DF274
:10F2500090E29093C6008091C00086FFFCCF809121
:10F26000C00080648093C000AEE3A093C60080918C
:10F27000C00086FFFCCF8091C00080648093C000F6
:10F28000C601AA27BB270F940DF2BB27AD2D9C2DDD
:10F290008B2D0F940DF28A2D0F940DF20F94DCF14B
:10F2A000CC5DDE4FE881F981C452D140F99709F471
:10F2B0004DCBF4E0EF2EF12C012D112D6E0C7F1CA7
:10F2C000801E911EF2CD83E093EE62E00F94F5F183
:10F2D0008AE192EE60E00F94C2F18091C00087FF56
:10F2E000FCCF1091C6001F751093C6008091C0001E
:10F2F00086FFFCCF8091C00080648093C0000F9493
:10F30000DCF1812F81548A3108F036C1163409F4BA
:10F3100095C0173490F4133409F44EC0143430F40B
:10F320001134F1F0123409F01DC130C0143409F465
:10F3300059C0153409F016C16BC01A3409F4C4C0A1
:10F340001B3438F4173409F48FC0183409F00AC19B
:10F35000A1C01B3409F4D2C01C3409F003C1E8C0B9
:10F360008FEF81B90DC082B1809582B980E090E0C5
:10F37000E0EDF7E03197F1F70196883C9105C1F790
:10F380008091C00087FFEFCF12B8EFC08FEF84B934
:10F390000DC085B1809585B980E090E0E0EDF7E0A3
:10F3A0003197F1F70196883C9105C1F78091C00033
:10F3B00087FFEFCF15B8D9C08FEF87B90DC088B1DF
:10F3C000809588B980E090E0E0EDF7E03197F1F7C3
:10F3D0000196883C9105C1F78091C00087FFEFCF6F
:10F3E00018B8C3C08FEF8AB90DC08BB180958BB9A7
:10F3F00080E090E0E0EDF7E03197F1F70196883C8E
:10F400009105C1F78091C00087FFEFCF1BB8ADC059
:10F410008FEF8DB90DC08EB180958EB980E090E0F0
:10F42000E0EDF7E03197F1F70196883C9105C1F7DF
:10F430008091C00087FFEFCF1EB897C08FEF80BBD1
:10F440000DC081B3809581BB80E090E0E0EDF7E0F6
:10F450003197F1F70196883C9105C1F78091C00082
:10F4600087FFEFCF11BA81C08FEF83BB0DC084B38C
:10F47000809584BB80E090E0E0EDF7E03197F1F714
:10F480000196883C9105C1F78091C00087FFEFCFBE
:10F4900014BA6BC08FEF809301010FC080910201FD
:10F4A00080958093020180E090E0E0EDF7E03197F5
:10F4B000F1F70196883C9105C1F78091C00087FF64
:10F4C000EDCF1092020151C08FEF809304010FC065
:10F4D0008091050180958093050180E090E0E0ED4A
:10F4E000F7E03197F1F70196883C9105C1F78091DB
:10F4F000C00087FFEDCF1092050137C08FEF8093DA
:10F5000007010FC08091080180958093080180E079
:10F5100090E0E0EDF7E03197F1F70196883C910536
:10F52000C1F78091C00087FFEDCF109208011DC088
:10F530008FEF80930A010FC080910B01809580931B
:10F540000B0180E090E0E0EDF7E03197F1F70196F4
:10F55000883C9105C1F78091C00087FFEDCF1092E4
:10F560000B0103C085E292EEEEC98091C00087FFD7
:10F57000FCCF8091C600EAC988E392EEE4C98CE131
:10F5800091EEE1C988249924933011F1943028F444
:10F59000913089F09230B8F408C0953061F195301F
:10F5A000F0F0963009F048C043C02B3109F042C951
:10F5B00091E06BE13FC96227C15DDE4F2883CF52E6
:10F5C000D14092E037C9B22FA0E0622793E032C960
:10F5D000822F90E0A82BB92B622794E02BC92E3004
:10F5E00009F039C3622795E0C05DDE4F19821882A9
:10F5F000C053D1401FC9E1E0F0E0EC0FFD1FC05D3A
:10F60000DE4F08811981C053D140E00FF11F2083E4
:10F610000F5F1F4FC05DDE4F19830883C053D14079
:10F6200062270A171B0709F005C9D80196E002C92D
:10F63000261709F010C303C0973009F0FBC87724E0
:10F640009981933109F412C19431C8F4963009F4C8
:10F65000D8C0973050F4923009F406C1933009F4C1
:10F660006DC0913009F059C253C0913109F477C08F
:10F67000923108F0BBC0903109F04FC2F5C098310B
:10F6800009F487C0993150F4953109F4EFC09531F0
:10F6900008F4C6C1963109F040C2C2C19A3109F4DA
:10F6A0006CC09A3108F491C09B3109F45BC09D3164
:10F6B00009F033C29D81903359F48F81882311F46E
:10F6C0009EE11CC0813011F091E018C098E916C08D
:10F6D000892F807591F0903539F4E0E0F0E089E011
:10F6E0008093570094910AC0983539F4E3E0F0E034
:10F6F00089E080935700949101C090E01A821B82A8
:10F700008D818C831D829E831F8227E030E009C299
:10F710001A8288E08B8381E48C8386E58D8382E581
:10F720008E8389E48F8383E5888780E589878FE5E9
:10F730008A8782E38B872BE030E0F3C18A818139AD
:10F7400041F0823941F0803911F48FE005C080E04A
:10F7500003C082E001C08AE01A828B8344C0772410
:10F76000739482C08D81882311F48EE12CC0813086
:10F7700011F081E028C088E926C01A82E1E0F0E0BB
:10F7800089E08093570084918B831C8224E030E0D1
:10F79000C8C18B81803589F48C81883039F4E2E0EE
:10F7A000F0E089E08093570084910DC0E0E0F0E044
:10F7B00089E080935700849106C0E3E0F0E089E09F
:10F7C0008093570084911A82DFCF8D81836C99E0FA
:10F7D000E1E0F0E0082E90935700E89507B600FCB2
:10F7E000FDCF1A821B8223E030E09BC180EC8A832C
:10F7F000CE5CDE4F188219821A821B82C253D1401E
:10F800008EC18A8190E0A0E0B0E0582F44273327D2
:10F8100022278B8190E0A0E0B0E0DC0199278827C7
:10F82000282B392B4A2B5B2B8D8190E0A0E0B0E098
:10F83000282B392B4A2B5B2B8C8190E0A0E0B0E089
:10F84000BA2FA92F982F8827282B392B4A2B5B2BCF
:10F85000220F331F441F551FC05EDE4F288339839C
:10F860004A835B83C052D1401A8259C13A81C95C34
:10F87000DE4F3883C753D140CA5CDE4F1882C6536F
:10F88000D1408B81C82EDD24CA5CDE4F488159816E
:10F89000C653D140C42AD52A933109F082C0CE5C28
:10F8A000DE4F88819981AA81BB81C253D1408050AB
:10F8B000904CA340B04030F583E0CE5CDE4FE88052
:10F8C000F9800A811B81C253D140F70100935B008C
:10F8D00080935700E89507B600FCFDCFCE5CDE4F65
:10F8E000088119812A813B81C253D14000501F4FAA
:10F8F0002F4F3F4FCE5CDE4F088319832A833B8313
:10F90000C253D140C05EDE4F488159816A817B81FC
:10F91000C052D140DE011B9631E08C9111962C91A2
:10F9200011971296C75CDE4F2883C953D140C85C3B
:10F93000DE4F1882C853D14090E0C85CDE4FE881AA
:10F94000F981C853D1408E2B9F2B0C01FA01609393
:10F950005B0030935700E89511244E5F5F4F6F4F67
:10F960007F4F0EEFE02E0FEFF02ECE0CDF1CC114F8
:10F97000D10499F685E0C05EDE4F088119812A81A5
:10F980003B81C052D140F80120935B008093570027
:10F99000E89507B600FCFDCF81E180935700E8951C
:10F9A00035C0C05EDE4F88819981AA81BB81C0527B
:10F9B000D140B695A795979587957C018601ABE0D8
:10F9C000AA2EB12CAC0EBD1E0BC0D5016D915D01F0
:10F9D000C7010F947FFE0894E11CF11C01501040F8
:10F9E0000115110591F7A60160E070E0440F551F65
:10F9F000661F771FC05EDE4FE880F9800A811B8199
:10FA0000C052D1404E0D5F1D601F711F1A82C05E33
:10FA1000DE4F488359836A837B83C052D1407FC0C5
:10FA2000FA80C55CDE4FF882CB53D140C65CDE4F16
:10FA30001882CA53D1408B81C82EDD24C65CDE4FAC
