:100000000C9450010C9481010C9481010C94810199
:100010000C9481010C9481010C9481010C94810158
:100020000C9481010C9481010C9481010C94810148
:100030000C9481010C9481010C9481010C94810138
:100040000C9481010C9481010C9481010C94810128
:100050000C9481010C9481010C9481010C94D909B8
:100060000C9481010C944D0A0C94230A0C94810188
:100070000C9481010C9481010C9481010C948101F8
:100080000C9481010C9481010C9481010C948101E8
:100090000C9481010C9481010C9481010C94830ACD
:1000A0000C9481010C9481010C9481010C948101C8
:1000B0000C9481010C9481010C9481010C948101B8
:1000C0000C9481010C9481010C9481010C948101A8
:1000D0000C9481010C9481010C9481010C94810198
:1000E0000C9481010C94EA060C94ED010C94E3024B
:1000F0000C94B6060C9419070C946F140C94D70149
:100100000C9408020C94AB140C9429030C949406E0
:100110000C9491020C94B4140C94C0020C94BD067F
:100120000C9416020C9493020C94F1020C94E901C5
:100130000C94B1140C941E020C94A70B0C940202A4
:100140000C94A3140C94F8010C940C020C9410025F
:100150000C9428020C94A3060C9492020C9493061F
:100160000C94AD140C9424020C94B8140C94D20189
:100170000C94C6140C9476030C94F1010C941A029E
:100180000C94BB140C94F5010C94A6140C94CF029F
:100190000C94FE010C94BF1400000A0B02090C0D14
:1001A0000E0807030401000000000000000000002A
:1001B000000000000000000000000000000000003F
:1001C00000000000121110000000000000000000FC
:1001D000000000000000000000000000000000001F
:1001E0002200250028002B002E00310034000201DF
:1001F0000000050108010B01000021002400270078
:100200002A002D0030003300010100000401070125
:100210000A0105050505070508080808020202028B
:100220000A0A080804040404010101010101010192
:100230000303030303030303040707070C0C0C0C5D
:100240000C0C0C0C02020202060606060606060646
:100250000B0B0B0B0B0B0B0B0102102020080810D3
:100260002040102040800201020108040201010226
:1002700004081020408080402010080402018004FF
:10028000020180402010080402010804020101025A
:100290000408102040800102040810204080A70BB1
:1002A00011241FBECFEFD1E2DEBFCDBF00E00CBFF7
:1002B00027E0AEE0B5E001C01D92AD39B207E1F72D
:1002C00015E0A0E0B2E0ECEDF0E300E00BBF02C00F
:1002D00007900D92AE30B107D9F711E0C0E5D1E03B
:1002E00000E006C021970109802FFE010E94FC1743
:1002F000CF34D10780E00807A9F70E94130C0C94B3
:100300006C180C94000090E0FC01E85AFD4F249119
:100310008E5E9D4FFC018491882399F090E0880FB8
:10032000991FFC01E850FE4FA591B491FC01E252E7
:10033000FE4F859194918FB7F894EC91E22BEC935A
:100340008FBF0895282F30E0F901E856FE4F9491B1
:10035000F901E85AFD4F44912E5E3D4FF901249179
:10036000222309F435C0992311F191509231F8F408
:10037000E92FF0E08827E054FE4F8F4F0C94FC17D4
:10038000F101F501D201E901ED01D701F801FE010A
:10039000020208020C02100216021A02D7011E0203
:1003A00024022802809180008F7780938000E22FC2
:1003B000F0E0EE0FFF1FE252FE4FA591B4918FB710
:1003C000F894EC91611148C040954E234C938FBF37
:1003D0000895809180008F7DE8CF80918000877F95
:1003E000E4CF84B58F7784BDE2CF84B58F7DFBCF1A
:1003F0008091B0008F778093B000D9CF8091B0000A
:100400008F7DF9CF809190008F7780939000CFCF30
:10041000809190008F7DF9CF80919000877FF5CFFC
:100420008091A0008F778093A000C1CF8091A00021
:100430008F7DF9CF8091A000877FF5CF809120013B
:100440008F7780932001B3CF809120018F7DF9CFEA
:1004500080912001877FF5CF4E2BB8CF3FB7F8941E
:100460008091E0059091E105A091E205B091E3054E
:1004700026B5A89B05C02F3F19F00196A11DB11DFF
:100480003FBFBA2FA92F982F8827BC01CD01620F3B
:10049000711D811D911D42E0660F771F881F991FF6
:1004A0004A95D1F708958F929F92AF92BF92CF92C3
:1004B000DF92EF92FF924B015C010E942E026B01D2
:1004C0007C010E942E026C197D098E099F09683EED
:1004D000734081059105A8F321E0821A9108A108D3
:1004E000B10888EEC80E83E0D81EE11CF11C81140F
:1004F0009104A104B10429F7FF90EF90DF90CF9011
:10050000BF90AF909F908F9008952FB7F89460910F
:10051000DC057091DD058091DE059091DF052FBF30
:10052000089508950895AF92BF92CF92DF92EF920F
:10053000FF920F931F93CF93DF936C017B018B018D
:10054000040F151FEB015E01AE18BF08C017D107DD
:1005500059F06991D601ED91FC910190F081E02D67
:10056000C6011995892B79F7C501DF91CF911F91AC
:100570000F91FF90EF90DF90CF90BF90AF900895D4
:10058000FC01538D448D252F30E0842F90E0821B99
:10059000930B541710F0CF96089501970895FC011E
:1005A000918D828D981761F0A28DAE0FBF2FB11D76
:1005B0005D968C91928D9F5F9F73928F90E00895CE
:1005C0008FEF9FEF0895FC01918D828D981731F088
:1005D000828DE80FF11D858D90E008958FEF9FEFDC
:1005E0000895FC01918D228D892F90E0805C9F4FB2
:1005F000821B91098F739927089584E596E00E94E4
:10060000F10221E0892B09F420E0822F0895FC01FA
:10061000A48DA80FB92FB11DA35ABF4F2C91848D63
:1006200090E001968F739927848FA689B7892C93C0
:10063000A089B1898C91837080648C93938D848D13
:10064000981306C00288F389E02D80818F7D808316
:100650000895EF92FF920F931F93CF93DF93EC01D6
:1006600081E0888F9B8D8C8D98131AC0E889F98959
:10067000808185FF15C09FB7F894EE89FF8960835C
:10068000E889F98980818370806480839FBF81E0DD
:1006900090E0DF91CF911F910F91FF90EF9008951F
:1006A000F62E0B8D10E00F5F1F4F0F731127E02EFA
:1006B0008C8D8E110CC00FB607FCFACFE889F98932
:1006C000808185FFF5CFCE010E940703F1CFEB8D2E
:1006D000EC0FFD2FF11DE35AFF4FF0829FB7F89406
:1006E0000B8FEA89FB8980818062CFCFCF93DF9324
:1006F000EC01888D8823B9F0AA89BB89E889F9893A
:100700008C9185FD03C0808186FD0DC00FB607FC6E
:10071000F7CF8C9185FFF2CF808185FFEDCFCE01A1
:100720000E940703E9CFDF91CF91089580E090E028
:10073000892B29F00E94FD0281110E94000080E0B7
:1007400090E0892B49F080E090E0892B29F00E940D
:10075000000081110E94000080E090E0892B49F0A8
:1007600080E090E0892B29F00E94000081110E9416
:10077000000080E090E0892B49F080E090E0892B38
:1007800029F00E94000081110C9400000895CF927E
:10079000DF92EF92FF926115710581059105F1F0ED
:1007A000DC01CB010197A109B10930E020E06C0127
:1007B0007D01CC24CD28CE28CF2839F0B695A79539
:1007C000979587952F5F3F4FF2CF322F2227822BAD
:1007D000932BFF90EF90DF90CF90089590E080E012
:1007E000F8CF20912E05260F3327331F21323105F4
:1007F000ECF420912A06FC0190E080E0243069F0BE
:1008000082E00895A0912E052191AC01425F5A4FDC
:10081000A40FB52FB11D2C930196861798F38091E4
:100820002E05680F60932E0580E0089581E00895FD
:1008300010922A0681E0809329061092040661E056
:1008400084E10E94A20161E085E10E94A201E9EB3E
:10085000F0E080818E7F808380818D7F808388E43B
:100860008093B80085E48093BC000895CF93DF9314
:1008700091E0909355058823B9F0C091B800D091CC
:10088000BA008091BC008A7B8093BC0060E084E168
:100890000E94A20160E085E10E94A2010E9418046A
:1008A000D093BA00C093B800DF91CF9108958F9292
:1008B0009F92AF92BF92CF92DF92EF92FF920F93EF
:1008C0001F93CF93DF93D0915306D13208F0D7C056
:1008D000182FC09152060E942E026B017C0180915C
:1008E0002A0681116BC082E080932A0610932906A4
:1008F0008FEF8093280610922706D0932606A2E356
:10090000B6E0E6E0F6E080E0D81391C0109205066C
:1009100080910506CC0FC82BC09305068091040674
:10092000813009F088C0109204060E942E026B01EB
:100930007C01809105068093BB0080912C069091EC
:100940002D06A0912E06B0912F06892B8A2B8B2B7A
:10095000A1F00E942E0200912C0610912D062091EC
:100960002E0630912F066C197D098E099F090617F6
:1009700017072807390708F442C08091BC0083FD9F
:10098000D8CF85EC8093BC000E942E026B017C01C5
:1009900080912A06823009F450C0809128068F3F4A
:1009A00009F46FC080912806803209F46CC08091F0
:1009B0002806803309F469C084E026C080912C06A3
:1009C00090912D06A0912E06B0912F06892B8A2B8F
:1009D0008B2B09F484CF0E942E0280902C069090DD
:1009E0002D06A0902E06B0902F066C197D098E0959
:1009F0009F0986169706A806B90608F070CF809161
:100A00002B060E94360485E01092310610925306A0
:100A100010923006DF91CF911F910F91FF90EF90D0
:100A2000DF90CF90BF90AF909F908F9008959D9151
:100A300091938F5F69CF85EEA5CF80912C06909121
:100A40002D06A0912E06B0912F06892B8A2B8B2B79
:100A500009F49ECF0E942E0200912C0610912D06C3
:100A600020912E0630912F066C197D098E099F0961
:100A7000061717072807390708F08ACFC0CF81E08B
:100A8000C3CF80E0C1CF82E0BFCF83E0BDCFFF9274
:100A90000F931F93CF93DF93EC01F62E142F052FA6
:100AA0008E899F89288D31E030933006209352063D
:100AB0001092310610925306DC01ED91FC910190E9
:100AC000F081E02D60E019958E899F89DC01ED9120
:100AD000FC910190F081E02D6F2D19958E899F89F1
:100AE000DC01ED91FC910190F081E02D602F1995D2
:100AF0008E899F89DC01ED91FC910190F081E02DC0
:100B0000612F199581E00E9457048B87DF91CF9167
:100B10001F910F91FF9008950F931F93CF93DF9331
:100B2000EC01062F142F8E899F89288D31E0309398
:100B30003006209352061092310610925306DC01C3
:100B4000ED91FC910190F081E02D60E019958E8986
:100B50009F89DC01ED91FC910190F081E02D602FE7
:100B600019958E899F89DC01ED91FC910190F081AE
:100B7000E02D612F199581E00E9457048B87DF914A
:100B8000CF911F910F910895CF92DF92EF92FF9234
:100B90000F931F93CF93DF93D82FC62F613208F0A6
:100BA00098C00E942E026B017C0180912A0681115F
:100BB0006BC081E080932A06809329069FEF909373
:100BC0002806109227069C0F909326068093050610
:100BD00080910506DD0FD82BD09305068091040681
:100BE000813009F078C0109204060E942E026B0139
:100BF0007C01809105068093BB0080912C0690912A
:100C00002D06A0912E06B0912F06892B8A2B8B2BB7
:100C1000A1F00E942E0200912C0610912D06209129
:100C20002E0630912F066C197D098E099F09061733
:100C300017072807390708F448C08091BC0083FDD6
:100C4000D8CF85EC8093BC000E942E026B017C0102
:100C500080912A06813009F440C0809127068C17C4
:100C600010F4C0912706E6E0F6E0A4EEB5E080E0DF
:100C70008C1355C08C2FDF91CF911F910F91FF9056
:100C8000EF90DF90CF90089580912C0690912D06E3
:100C9000A0912E06B0912F06892B8A2B8B2B09F45D
:100CA00084CF0E942E0200912C0610912D062091D7
:100CB0002E0630912F066C197D098E099F090617A3
:100CC00017072807390708F070CF80912B060E947C
:100CD0003604C0E0CFCF85EEB5CF80912C06909141
:100CE0002D06A0912E06B0912F06892B8A2B8B2BD7
:100CF00009F4AECF0E942E0200912C0610912D0611
:100D000020912E0630912F066C197D098E099F09BE
:100D1000061717072807390708F09ACFD6CF919101
:100D20009D938F5FA5CF0895E091B9058091B80597
:100D3000E81730F4F0E0EC51FA4F808190E008952C
:100D40008FEF9FEF08959091B9058091B8052FEF2F
:100D50003FEF981748F4E92FF0E0EC51FA4F20816B
:100D600030E09F5F9093B905C90108958091B8055F
:100D70009091B905891B990B0895CF92DF92EF925C
:100D8000FF920F931F93CF93DF937C01CB018A01D6
:100D900020913006222389F0EB016B01C40ED51E91
:100DA000CC15DD0569F06991D701ED91FC910190B9
:100DB000F081E02DC7011995F3CF642F0E94F10354
:100DC000C801DF91CF911F910F91FF90EF90DF90BD
:100DD000CF900895CF93DF931F92CDB7DEB769838D
:100DE000209130062223F9F020915306203258F04A
:100DF00021E030E0FC013383228390E080E00F901B
:100E0000DF91CF91089580913106E82FF0E0EE5CFC
:100E1000F94F998190838F5F8093310680935306B9
:100E200081E090E0ECCF61E0CE0101960E94F103F9
:100E3000F7CF90E080E0089591E09093300690E73E
:100E400090935206109231061092530661E070E0C2
:100E500001C0660F8A95EAF781EF96E00E94EA06E4
:100E600081E00E945704811106C08BEA94E001974B
:100E7000F1F781E0089580E00895CF93DF93C82FC4
:100E8000D0E0FE01E85DFD4F60E080810E94A2019C
:100E9000CC5DDD4F60E08881DF91CF910C94A201A1
:100EA0000F931F93CF930CE212E0C0E08C2F0E94AF
:100EB0003D0760E0F80181918F010E94A201CF5FA0
:100EC000C430A1F7CF911F910F910895FC010190BB
:100ED0000020E9F73197AF01481B590BBC0184E5AD
:100EE00096E00C9493028F929F92AF92BF920F93D1
:100EF0001F93CF93DF93CDB7DEB7A1970FB6F894CA
:100F0000DEBF0FBECDBF19A2423008F44AE08E0109
:100F10000F5D1F4F842E912CB12CA12CA5019401A3
:100F20000E94C516E62FB901CA01EA30F4F4E05D6B
:100F3000D801EE938D01232B242B252B79F790E0FC
:100F400080E0109719F0CD010E946607A1960FB6B8
:100F5000F894DEBF0FBECDBFDF91CF911F910F91EF
:100F6000BF90AF909F908F900895E95CE1CFCF93B1
:100F7000DF930E946607EC0188E592E00E94660715
:100F80008C0F9D1FDF91CF910895009711F00C9465
:100F9000660790E080E00895CF93DF93EC010E9414
:100FA000500783E08093DA058BE592E00E94C50745
:100FB000CE01DF91CF910C94B707CF92DF92EF92E1
:100FC000FF92CF93DF936C01990FEE08FF08F7FEB5
:100FD00019C06DE284E596E00E942903EC016627C2
:100FE0007727CB016C197D098E099F094AE00E9481
:100FF00073078C0F9D1FDF91CF91FF90EF90DF90D3
:10100000CF9008954AE0C701B601DF91CF91FF90DC
:10101000EF90DF90CF900C9473070F931F93CF93B3
:10102000DF93EC01162F672F8E899F89288D31E081
:1010300030933006209352061092310610925306D8
:10104000DC01ED91FC910190F081E02D19958E89E4
:101050009F89DC01ED91FC910190F081E02D612FE1
:10106000199581E00E9457048B8762E0888D0E9469
:10107000C4051092B9058093B8058E899F89DC015B
:10108000ED91FC910284F385E02D199500E0182F75
:101090008E899F89DC01ED91FC910284F385E02D1E
:1010A0001995802B912BDF91CF911F910F9108956E
:1010B0001F93CF93DF93EC01162F8E899F89288D84
:1010C00031E0309330062093520610923106109290
:1010D0005306DC01ED91FC910190F081E02D60E080
:1010E00019958E899F89DC01ED91FC910190F08129
:1010F000E02D612F199581E00E9457048B8761E0F4
:10110000888D0E94C4051092B9058093B8058E8918
:101110009F89DC01ED91FC910284F385E02D199506
:10112000DF91CF911F9108954F925F926F927F92BE
:101130008F929F92AF92BF92CF92DF92EF92FF92E7
:10114000CF93DF936A017B0120EBC21A21E1D20A1F
:10115000E108F10821EEC21628ECD20620E1E206F1
:10116000F10408F0ECC0EC0160E670E00E94580861
:10117000B82E2E8D3F8D50E040E060E070E080E0C2
:1011800090E40E94C516A0E0B9E00E94E7169B011A
:10119000AC01A6E05695479537952795AA95D1F7C6
:1011A000B394BB0CAB2DB0E00E94E7162B013C01C1
:1011B000B6E07694679457944794BA95D1F74B016B
:1011C0005C0187E0B694A794979487948A95D1F7A9
:1011D000C501B4017058814C9F4FA30192010E9438
:1011E000C5162F3F31054105510529F020F02FEF9D
:1011F00030E040E050E0422F6BE470E0CE010E940E
:101200008C05C501B401705F8F4F9F4FA301920100
:101210000E94C516CA01B9010E94C703AC016AE564
:1012200070E0CE010E944705F694E794D794C794E6
:101230009CE0CC0CDD1CEE1CFF1C9A95D1F7C5017F
:10124000B4016C0D7D1D8E1D9F1DA30192010E9496
:10125000C516CA01B9010E94C703AC016EE570E072
:10126000CE010E94470563E670E0CE010E94580857
:10127000B82E2E8D3F8D50E040E060E070E080E0C1
:1012800090E40E94C516A0E0B9E00E94E7169B0119
:10129000AC0166E056954795379527956A95D1F745
:1012A000B394BB0CAB2DB0E00E94E7162B013C01C0
:1012B000E6E07694679457944794EA95D1F74B010A
:1012C0005C01F7E0B694A79497948794FA95D1F7C8
:1012D000C501B401705F8F4F9F4FA30192010E941F
:1012E000C516CA01B9010E94C703AC016CE570E0E4
:1012F000CE010E944705C701B601680D791D8A1D00
:101300009B1DA30192010E94C516CA01B9010E944A
:10131000C703AC0161E670E0CE010E94470581E0A1
:10132000DF91CF91FF90EF90DF90CF90BF90AF9083
:101330009F908F907F906F905F904F90089580E086
:10134000EFCF85ED8093BC0080912C0690912D0607
:10135000A0912E06B0912F060796A11DB11D23E086
:10136000B695A795979587952A95D1F72091BC00BA
:1013700024FD03C010922A06089540912C06509136
:101380002D0660912E0670912F06452B462B472B7C
:1013900069F30097A105B10541F02AE22A95F1F71A
:1013A00000C00197A109B109E1CF80912B060C94EF
:1013B00036041F920F920FB60F9211242F933F9372
:1013C0008F939F93AF93BF938091DC059091DD0540
:1013D000A091DE05B091DF053091DB0523E0230FFE
:1013E0002D3758F50196A11DB11D2093DB05809383
:1013F000DC059093DD05A093DE05B093DF058091B9
:10140000E0059091E105A091E205B091E305019618
:10141000A11DB11D8093E0059093E105A093E20525
:10142000B093E305BF91AF919F918F913F912F9121
:101430000F900FBE0F901F90189526E8230F02966D
:10144000A11DB11DD2CF1F920F920FB60F92112482
:101450000BB60F922F933F934F935F936F937F93AE
:101460008F939F93AF93BF93EF93FF9384E596E0A1
:101470000E940703FF91EF91BF91AF919F918F91D0
:101480007F916F915F914F913F912F910F900BBE84
:101490000F900FBE0F901F9018951F920F920FB6CE
:1014A0000F9211240BB60F922F938F939F93EF936C
:1014B000FF93E0916406F09165068081E0916A06F1
:1014C000F0916B0682FD1DC0908180916D068F5F4B
:1014D0008F7320916E06821741F0E0916D06F0E067
:1014E000EC5AF94F958F80936D06FF91EF919F9184
:1014F0008F912F910F900BBE0F900FBE0F901F90EA
:1015000018958081F2CF1F920F920FB60F9211247F
:101510000BB60F922F933F934F935F936F937F93ED
:101520008F939F93AF93BF93EF93FF938091B900F5
:10153000887F803609F44DC008F040C0883209F435
:10154000A9C028F5803109F49DC0C8F4882309F4A6
:10155000FBC0883009F496C0FF91EF91BF91AF9125
:101560009F918F917F916F915F914F913F912F91BB
:101570000F900BBE0F900FBE0F901F9018958831E3
:1015800009F488C0803241F78093280614C0803463
:1015900009F49DC040F48033B9F38833E9F68093B1
:1015A000280685ECB0C0803509F485C0883509F47B
:1015B00096C0883489F60E94A109CECF883909F4F3
:1015C0008CC038F5883729F050F4883611F0803710
:1015D00019F683E080932A061092500557C0883888
:1015E00009F47BC0803919F0803809F0B5CF8091BB
:1015F0005005803208F071C0E091500581E08E0FF7
:10160000809350058091BB00F0E0E05DFA4F80834D
:101610003DC0803B39F0E0F4803A09F479C0883A63
:1016200009F09ACF84E080932A0610922F05109239
:101630002E05E0915305F0915405199580912E05E2
:1016400081110FC081E080932E0510920E0509C014
:10165000803C09F4A6CF883C09F4A3CF883B09F06D
:101660007BCFE0912F0581E08E0F80932F05F0E076
:10167000E25FFA4F80818093BB0090912F058091AB
:101680002E0529C0809105068093BB0085EC8093D0
:10169000BC0062CF9091270680912606981758F5D6
:1016A000E091270681E08E0F80932706F0E0EA5F45
:1016B000F94F8081E9CFE091270681E08E0F80937A
:1016C00027068091BB00F0E0EA5FF94F808390919C
:1016D0002706809126069817C8F285E8D8CFE091B2
:1016E000270681E08E0F809327068091BB00F0E0F3
:1016F000EA5FF94F80838091290681115CCF81E0F8
:101700008093040684EA8093BC0010922A0624CFBA
:1017100085EC8093BC0010922A068091500580329F
:1017200030F4E0915005F0E0E05DFA4F10826091F6
:10173000500570E0E0915105F091520580E395E08D
:1017400019951092500508CF1092280634CF1092A8
:1017500057061092560688EE93E0A0E0B0E0809322
:10176000580690935906A0935A06B0935B0628E357
:1017700032E0309355062093540625EC30E0309348
:1017800061062093600624EC30E0309363062093DA
:10179000620620EC30E0309365062093640621EC6D
:1017A00030E0309367062093660622EC30E03093F9
:1017B00069062093680626EC30E030936B06209390
:1017C0006A0610926D0610926E0610926F061092C5
:1017D00070061092F4061092F3068093F50690932B
:1017E000F606A093F706B093F8068AE492E0909389
:1017F000F2068093F106EDEFF6E041EF56E029E2C4
:1018000083E090E0578B468B208F128E118E138EC3
:1018100012A213A214A296A385A3B79637E0E939C2
:10182000F30781F70895CF93DF93CDB7DEB76E97B7
:101830000FB6F894DEBF0FBECDBF789484B582603A
:1018400084BD84B5816084BD85B5826085BD85B564
:10185000816085BD80916E00816080936E001092E2
:10186000810080918100826080938100809181005D
:1018700081608093810080918000816080938000EE
:101880008091B10084608093B1008091B00081604C
:101890008093B0008091910082608093910080914C
:1018A000910081608093910080919000816080938D
:1018B00090008091A10082608093A1008091A1009E
:1018C00081608093A1008091A00081608093A0003E
:1018D00080912101826080932101809121018160AA
:1018E000809321018091200181608093200180916B
:1018F0007A00846080937A0080917A00826080937D
:101900007A0080917A00816080937A0080917A00D9
:10191000806880937A001092C100E0916406F09193
:10192000650682E08083E0916006F0916106108296
:10193000E0916206F091630680E1808310926C066C
:10194000E0916806F091690686E08083E091660682
:10195000F0916706808180618083E0916606F09156
:101960006706808188608083E0916606F091670653
:10197000808180688083E0916606F09167068081AF
:101980008F7D808360E273E080E090E00E945302EC
:10199000BCE2CB2EB2E0DB2E14E2A12E12E0B12E7F
:1019A00008E212E0D8018D918D010E948301F501BA
:1019B00081915F010E948301D601FD906D018F2D01
:1019C0000E94830160E08F2D0E94A201B2E00C32E0
:1019D0001B0741F70E9450071092B9051092B805F5
:1019E00010923106109253060E94180481E992E089
:1019F000909354058093530582E992E090935205A9
:101A00008093510588E48093B8001092550588EAC8
:101A100091E6A0E0B0E080932C0690932D06A09371
:101A20002E06B0932F0681E080932B06E0E2F2E0D1
:101A3000FA8FE98FAA24A394B12CF1E0FB8BA98D36
:101A4000BA8D8D91BA8FA98F883008F450C01B8A47
:101A5000FFEFAF1ABF0A25E0A216B10481F787E7AE
:101A600092E00E94C507CB8887ED94E0C11002C0C8
:101A700089E692E00E94C50787EA92E00E94C507C6
:101A800089E692E00E94B707DB88D11004C08BEB97
:101A900092E00E94CC072224239484E596E00E94E1
:101AA000F102181619060CF064C484E596E00E9451
:101AB000CF028D3091F32091B6053091B7058A3071
:101AC00009F03FC4F901EA5AFA4F1082232B09F4B6
:101AD0006FC368ED72E086E595E00E945518892B8A
:101AE00009F0DDC28DED92E00E94B70761C30E944C
:101AF0001C07882309F4ABCFB7E2BA9DC001BB9D98
:101B0000900D1124FC01EA52F94F7F019C012350F2
:101B1000394F690189010E501109E4EFF1E0D80154
:101B2000ED93FC936FE071E0C7010E940D088C3CBF
:101B30009A4E09F08CCF40E070E060E0C7010E944F
:101B40008C058BE891E00197F1F741E070E060E0EF
:101B5000C7010E948C0561E070E080E090E00E9487
:101B600053020E94850246012BE0821A9108D4019B
:101B70006D937C93F6017C97FC8FEB8F65EE70E0A4
:101B8000C7010E94580880FF05C0AB8DBC8D8C91A9
:101B90008823B9F0F80180819181892B79F30E9423
:101BA0008502D4012D913C91621B730BF801808159
:101BB00091818617970710F7F6013C9781E08083A3
:101BC00046CF6EE270E0C7010E945808482F41607E
:101BD0006EE270E0C7010E948C0566E070E0C7010C
:101BE0000E940D089601295031093E8B2D8BD90199
:101BF0008D939C936EED70E0C7010E940D08F60175
:101C00003797FE8FED8F9183808340E05AE064E246
:101C100070E0C7010E94470542E061E370E0C70140
:101C20000E948C0548E066E370E0C7010E948C05C5
:101C300040E167E370E0C7010E948C0541E069E381
:101C400070E0C7010E948C054FEF6EE370E0C701A2
:101C50000E948C0540E06FE370E0C7010E948C0594
:101C600042E060E470E0C7010E948C0550E040E073
:101C700060E570E0C7010E94470550E040E062E582
:101C800070E0C7010E94470548E367E570E0C701BF
:101C90000E948C0548E651E064E670E0C7010E94AE
:101CA000470540EC50E066E670E0C7010E9447053A
:101CB00041E061E770E0C7010E948C0541E06CE7FC
:101CC00070E0C7010E948C0542E06EE770E0C7013A
:101CD0000E948C0540E062E870E0C7010E948C051C
:101CE00041E067E770E0C7010E948C054BE861E8BE
:101CF00070E0C7010E948C0540E058EC64E570E09C
:101D0000C7010E94470542E06FE470E0C7010E94EE
:101D10008C0560E670E0C7010E945808182FAD8955
:101D2000BE892D913C9150E040E060E070E080E0A1
:101D300090E40E94C516A0E0B9E00E94E7169B015E
:101D4000AC0106E056954795379527950A95D1F74A
:101D50001F5F110FA12FB0E00E94E7162B013C017D
:101D60006EE570E0C7010E940D089C01BC01772759
:101D700090E080E004C0660F771F881F991F3A9596
:101D8000D2F76F5F7F4F8F4F9F4FA3019201E6E025
:101D90005695479537952795EA95D1F70E940418EF
:101DA000385F4F4F5F4F6F4F7F4F8F4F9F4F0CE00C
:101DB0000E9431183A012901B8ED4B0EB8E05B1EC4
:101DC000611C711C440C551C661C771C4FE060E6BE
:101DD00070E0C7010E948C054DE063E670E0C7012A
:101DE0000E948C0548EB69E670E0C7010E948C05F3
:101DF0004FE068E770E0C7010E948C054DE069E79D
:101E000070E0C7010E948C054EE06AE770E0C701F0
:101E10000E948C054EE06BE770E0C7010E948C05C4
:101E2000E1EB4E16E1E15E066104710428F0B301B6
:101E3000A201C7010E949408D601E2E0F0E0FE93FF
:101E4000EE93B88FAF8B40E553EC60E070E0C701D4
:101E50000E94940862E270E0C7010E940D08AC0184
:101E6000440F551F440F551F6EE170E0C7010E94DB
:101E7000470560E670E0C7010E945808182FAD8939
:101E8000BE892D913C9150E040E060E070E080E040
:101E900090E40E94C516A0E0B9E00E94E7169B01FD
:101EA000AC01A6E05695479537952795AA95D1F7A9
:101EB0001F5F110FA12FB0E00E94E7162B013C011C
:101EC0006EE570E0C7010E940D089C01BC017727F8
:101ED00090E080E004C0660F771F881F991F3A9535
:101EE000D2F76F5F7F4F8F4F9F4FA3019201B6E0F4
:101EF0005695479537952795BA95D1F70E940418BE
:101F0000385F4F4F5F4F6F4F7F4F8F4F9F4F0CE0AA
:101F10000E9431183A012901B8ED4B0EB8E05B1E62
:101F2000611C711C440C551C661C771C47E060E664
:101F300070E0C7010E948C0545E063E670E0C701D0
:101F40000E948C0548E369E670E0C7010E948C0599
:101F500047E068E770E0C7010E948C0545E069E74B
:101F600070E0C7010E948C0546E06AE770E0C70197
:101F70000E948C0546E06BE770E0C7010E948C056B
:101F8000E1EB4E16E1E15E066104710428F0B30155
:101F9000A201C7010E949408AF89B88D1D921C92BE
:101FA00040E553EC60E070E0C7010E94940888238C
:101FB00009F44DCDED8DFE8D20813181ACE3B0E093
:101FC0000E94F2162B013C01860101511109D80132
:101FD0008D919C91F6013F97208131E0309330063E
:101FE000209352061092310610925306DC01ED91B7
:101FF000FC910190F081E02D60E01995F80180815D
:102000009181DC01ED91FC910190F081E02D6CE675
:102010001995F80180819181DC01ED91FC9101908D
:10202000F081E02D60E01995F801A081B181B30144
:1020300088279927ED91FC9111970190F081E02D6F
:10204000CD011995F801A081B1819927872D762DB1
:10205000652DED91FC9111970190F081E02DCD015E
:102060001995D8018D919C91DC01ED91FC91019025
:10207000F081E02D642D199581E00E945704EB8DCD
:10208000FC8D808341E066E870E0C7010E948C050A
:1020900040E467E870E0C7010E948C05D9CC62EE8D
:1020A00072E086E595E00E945518892B09F088C0FA
:1020B00089EE92E00E94C507E091DA058FE692E092
:1020C000E43038F4F0E0EE0FFF1FE05FFD4F808159
:1020D00091810E94C50787EA92E00E94C50789E6C0
:1020E00092E00E94C50787EF92E00E94C5070E9418
:1020F00085020091D6051091D7052091D805309121
:10210000D905601B710B820B930B4AE00E94730789
:1021100008E012E03EEB832E35E0932E40E0A42E43
:1021200042E0B42E56ECC52E55E0D52E82EC93E05D
:102130000E94C507D801ED90FD908D01C7010E9456
:10214000C5078AE093E00E94C507F401819191914F
:102150004F010E94DD078FE093E00E94C507C70191
:102160000E94C5078AE093E00E94C507D5018D91C2
:102170009D915D010E94DD0788E193E00E94C50703
:10218000C7010E94C50789EB92E00E94C507F601CE
:1021900081916F01882389F087ED94E00E94C50743
:1021A000F2E000311F0711F688E592E00E94660711
:1021B0001092B7051092B60570CC89E692E0EECF8A
:1021C00060E273E086E595E00E945518892B29F4BA
:1021D00086E293E00E94CC07EBCF61E273E086E5F4
:1021E00095E00E945518892B59F40E945007809160
:1021F000DA05833011F02092DA0585E393E074CCA0
:102200006DE373E086E595E00E945518892B41F453
:102210008091DA05833009F08AC081E493E064CCD0
:1022200061E873E086E595E00E945518892BB1F4CA
:102230008091DA05882311F0833019F48BE893E05C
:1022400053CC0E9485026093D6057093D705809386
:10225000D8059093D9058BEA93E046CC4BE050E04B
:1022600068EB73E086E595E00E945E18892B09F023
:1022700061C08091DA05813019F084EC93E034CCB0
:102280008E010F5F1F4F6801B12C62EC73E081E695
:1022900095E0BB2011F090E080E00E9487167C0161
:1022A000009719F482EE93E01FCC1A8A198A4AE04B
:1022B00050E0BE016F5E7F4F0E945015D6016D93B6
:1022C0007D938D939D936D01F7012081222371F001
:1022D000E989FA892081211109C06A5F71098109A0
:1022E0009109693C71058105910518F086E094E03B
:1022F000FBCBB394F4E0BF12C8CF62EC73E090E084
:1023000080E00E948716892B19F08FE194E0ECCBD6
:10231000E0E0F2E0C8014096D8014D915D916D91E9
:102320007D918D01419351938A179B07A9F780E610
:1023300093E0DACB8BE494E00E94C50786E595E054
:10234000D3CB2F35310560F4A9014F5F5F4F509318
:10235000B7054093B6052A5A3A4FF90180839DCBC1
:102360001092B7051092B60580E694E00E94B70778
:1023700094CB8091DA058230D9F40E9485020091D5
:10238000D6051091D7052091D8053091D9056B015C
:102390007C01C01AD10AE20AF30A97018601053FBF
:1023A00011402105310538F085E794E00E94CC0703
:1023B0000E94960372CB0091D2051091D305209113
:1023C000D4053091D5056B017C01C01AD10AE20A0F
:1023D000F30A97018601013315472105310518F0ED
:1023E00087E894E0E3CF0091CE051091CF052091CE
:1023F000D0053091D1056B017C01C01AD10AE20AE7
:10240000F30A970186010C3311052105310580F28D
:102410006093CE057093CF058093D0059093D1053E
:1024200026EC35E0388F2F8B8AEC95E09E8B8D8BD8
:102430000DEF16E06C015901F0E28F2EF2E09F2EB5
:10244000F12CE12CA3E03A2EB9E04B2E87E0582E78
:1024500092E0692E2DE0722ED4018D914D018830CD
:1024600008F098C20E941C07882309F493C20E94B6
:102470008502F801758F648F61E370E0C8010E94E6
:102480005808D80180FF80C059968D919C91892B66
:1024900099F30E948502F801248D358D621B730B20
:1024A000818D928D8617970738F7238E30E020E0D4
:1024B000D8015B968C915B975B961C925B97811120
:1024C00069C212968C91811165C2C90144978D38F9
:1024D0009F4008F05FC2F701E85EFD4F8081918167
:1024E000092E000CAA0BBB0B820F931FA11DB11D5F
:1024F000AC01BD0150586F4F7F4F411551056140F0
:10250000710508F047C2F701E254FA4F91838083C6
:10251000D5012C92F6011082FFEFAF1ABF0A2FEF00
:10252000C21AD20A095D1F4F32E0E30EF11C48E0E7
:10253000E416F10409F090CF0AEB15E080E3E82EF1
:1025400082E0F82E90E0692E92E0792E8EEB95E0F5
:102550009C8B8B8B24E2C22E22E0D22E38E2A32E5B
:1025600032E0B32E4CE2842E42E0942E3324339496
:10257000412CAD89BE898D91BE8BAD8B853008F421
:1025800010C284E994E012CF56968D919C91579792
:1025900058962C91209230062093520610923106C4
:1025A00010925306DC01ED91FC910190F081E02D39
:1025B00060E01995F80186899789DC01ED91FC911D
:1025C0000190F081E02D69E8199581E00E9457049F
:1025D000F801838761E1808D0E94C4051092B905DE
:1025E0008093B805D80156968D919C91DC01ED91B0
:1025F000FC910284F385E02D1995F8018487868982
:102600009789DC01ED91FC910284F385E02D199509
:10261000F80186899789DC01ED91FC910284F385AC
:10262000E02D1995F801858786899789DC01ED9160
:10263000FC910284F385E02D1995F80116868787B1
:1026400086899789DC01ED91FC910284F385E02D68
:102650001995F80126853785822B932B97878687D6
:1026600086899789DC01ED91FC910284F385E02D48
:102670001995F80186899789DC01ED91FC91028416
:10268000F385E02D1995F80186899789DC01ED9194
:10269000FC910284F385E02D1995F801108A818B55
:1026A00086899789DC01ED91FC910284F385E02D08
:1026B0001995F80120893189822B932B918B808B7E
:1026C00086899789DC01ED91FC910284F385E02DE8
:1026D0001995F80186899789DC01ED91FC910284B6
:1026E000F385E02D1995F80186899789DC01ED9134
:1026F000FC910284F385E02D1995F801868997896C
:10270000DC01ED91FC910284F385E02D1995F8012F
:1027100086899789DC01ED91FC910284F385E02D97
:102720001995F801128A838B86899789DC01ED91CE
:10273000FC910284F385E02D1995F80122893389F3
:10274000822B932B938B828B86899789DC01ED9169
:10275000FC910284F385E02D1995F801148A858B8C
:1027600086899789DC01ED91FC910284F385E02D47
:102770001995F80124893589822B932B958B848BAD
:1027800082A1811133C06BE070E0C8010E9458083B
:10279000D80193968C9368E070E0C8010E945808B5
:1027A000F80184A343A14F776BE070E0C8010E9459
:1027B0008C05D80194964C914370445F68E070E0BA
:1027C000C8010E948C0541E06DE470E0C8010E94E0
:1027D0008C0568ED70E0C8010E945808482F67E436
:1027E00070E0C8010E948C05F80122A2D8011E9653
:1027F0002D913C911F972115310509F46DC0549618
:102800008D919C91559750964D915C9170E060E050
:10281000480F591F611D711D41155105B1E06B072E
:10282000710520F04FEF5FEF60E070E0CA0177279D
:10283000662750E040E00E94C5162115310541058C
:10284000510509F449C060E070E080E09AE00E9420
:10285000C51621153105E1E04E07510520F02FEF97
:102860003FEF40E050E0A90164E570E0C8010E943C
:102870004705D80152962D913C91ABEDB7E00E94EF
:10288000F2167C5F8F4F9F4F5BE09695879577950B
:1028900067955A95D1F7F80171836083E485E1501B
:1028A000E23108F073C0F0E08827E65AFB4E8F4F04
:1028B0000C94FC176F146F146F14AD14AB14B11497
:1028C000B414BB14BF14C614C614B814A314C6148D
:1028D000C614C6146F14A61440E050E8C5CF85E0B6
:1028E000D80112968C93D80154966D917C9190E00A
:1028F00080E00E94011720E030E040E05CE30E94AD
:102900003E17F80163837483858396836089718998
:1029100090E080E00E94011720E030E040E05CE3BE
:102920000E943E17D80117966D937D938D939C93CB
:102930001A9741E066E870E0C8010E948C05F80132
:1029400020813181B5CDF8017282CDCFEAE0D80186
:102950001296EC93C8CFE4E0FACFD80112966C92AD
:10296000C2CFF8012282BFCFD80112965C92BBCFB2
:10297000F8014282B8CFD80112963C92B4CFF80148
:10298000858526E0882321F01282ADCF2FEFF80154
:102990002283A9CFD5011C92F60180818F5F8083AD
:1029A000BBCDEF89F88D8191F88FEF8B811105C038
:1029B000842D0E943D07312C23C0AB89BC898D91A9
:1029C0009C919C012A5F3109293C310518F08CEA61
:1029D00094E0ECCCF30120813181AC01421B530B1C
:1029E0004D5F5F4F4730510588F5D8018C918F5F5F
:1029F0008C93842D0E943D07D8018C918330D8F2AE
:102A000043940F5F1F4FBFEF8B1A9B0AEFEFAE1A75
:102A1000BE0AFFEFCF1ADF0A2FEFE21AF20A32E006
:102A2000630E711C8B899C8902969C8B8B8B94E026
:102A300049129FCD332009F4BBCC0E94500720924D
:102A4000DA0582EC94E00E94B707B2CCF80110825C
:102A5000D7014C9155245394442329F082179307AE
:102A60002CF0512C03C082179307DCF3842D0E94B5
:102A70003D0765E070E080E090E00E94530261E075
:102A8000F40180810E94A201652DD5018C910E94E4
:102A9000A201652D6225F60180810E94A201ACCFC2
:102AA0003F924F925F926F927F928F929F92AF92DE
:102AB000BF92CF92DF92EF92FF920F931F93CF932B
:102AC000DF935C016B017A016115710519F0FB015F
:102AD00091838083E114F10451F0C7010297839739
:102AE00030F040E030E020E090E06BC05E01E501B6
:102AF0002196F5011081812F90E00E947E16892B8E
:102B0000A9F71D3201F52196F501118101E0E114CB
:102B1000F10409F4E6C0F0E1EF16F10409F088C011
:102B2000103359F488818F7D883509F07CC0198174
:102B300022960260F0E1EF2EF12C812C912CA12C39
:102B400088E0B82E92C01B3221F4E5012296F501EF
:102B5000118100E0DCCFEAE0EE16F10409F4C7C011
:102B6000F0E1EF16F10409F073C0E7CF78E0E72E4B
:102B7000F12C812C912CA12C60E1B62E76C021E0A5
:102B8000ADC0302F3170C114D10431F0222371F166
:102B90002197F601D183C08327FF2EC060E070E04B
:102BA00080E090E8311104C06FEF7FEF8FEF9FE777
:102BB00022E230E030939C0720939B07462F372F6B
:102BC000282F642F732F822FDF91CF911F910F91A8
:102BD000FF90EF90DF90CF90BF90AF909F908F903D
:102BE0007F906F905F904F903F90089501FF04C0D9
:102BF0002297F601D183C083332341F090958095CD
:102C0000709561957F4F8F4F9F4FD8CF97FFD6CF4D
:102C100082E290E090939C0780939B076FEF7FEF99
:102C20008FEF9FE7CBCF10E3E114F10409F49ECFBF
:102C300028E0E216F10409F49CCF0CF08CCF812C33
:102C4000912CA12CE0E4BE2E82E0E816F10469F09C
:102C500060E070E080E090E897010F2C000C440BDE
:102C6000550B0E94C51649015A0120E060E070E052
:102C7000CB0127010F2C000C66087708FE0150EDF0
:102C8000352E310E39E0331570F43FEB310F49EC3E
:102C9000342E3A3138F03FE9310F3A3108F071CF34
:102CA00039EA332E310E3E141F040CF06ACF27FD93
:102CB00015C086169706A806B90678F0A3019201FA
:102CC0000E94B516630D711D811D911D6130710546
:102CD000810520E8920708F452CF2FEF219610814A
:102CE000CDCF103309F41ECF2AE0E22EF12C9CEC5C
:102CF000892E982CA82C9CE0B92EB7CF91110C945A
:102D0000B216803219F089508550C8F7089549E904
:102D100057E00C948B16FA01A191B081009719F439
:102D20001097E1F0CD01DC01CD010D90002011F4F0
:102D3000C00113C0FB012191222319F02015D9F7FE
:102D4000F3CFFB012191201519F41E92119606C0B4
:102D50002223C1F70D900020A1F7D001FA01A19321
:102D6000B0830895992788270895DB018F939F9357
:102D70000E94E716BF91AF91A29F800D911DA39F66
:102D8000900DB29F900D11240895A1E21A2EAA1B56
:102D9000BB1BFD010DC0AA1FBB1FEE1FFF1FA2170B
:102DA000B307E407F50720F0A21BB30BE40BF50B08
:102DB000661F771F881F991F1A9469F76095709591
:102DC000809590959B01AC01BD01CF0108950E94B3
:102DD000F216A59F900DB49F900DA49F800D911D9C
:102DE00011240895A29FB001B39FC001A39F700D4D
:102DF000811D1124911DB29F700D811D1124911D03
:102E00000895E89409C097FB3EF4909580957095DD
:102E100061957F4F8F4F9F4F9923A9F0F92F96E926
:102E2000BB279395F695879577956795B795F1119B
:102E3000F8CFFAF4BB0F11F460FF1BC06F5F7F4F38
:102E40008F4F9F4F16C0882311F096E911C077234A
:102E500021F09EE8872F762F05C0662371F096E853
:102E6000862F70E060E02AF09A95660F771F881F22
:102E7000DAF7880F9695879597F908950E9451176C
:102E80000C94C2170E94B41738F00E94BB1720F0B0
:102E9000952311F00C94AB170C94B11711240C94DA
:102EA000F6170E94D31770F3959FC1F3950F50E06A
:102EB000551F629FF001729FBB27F00DB11D639FEC
:102EC000AA27F00DB11DAA1F649F6627B00DA11D92
:102ED000661F829F2227B00DA11D621F739FB00D38
:102EE000A11D621F839FA00D611D221F749F3327A8
:102EF000A00D611D231F849F600D211D822F762F41
:102F00006A2F11249F5750409AF0F1F088234AF01D
:102F1000EE0FFF1FBB1F661F771F881F9150504089
:102F2000A9F79E3F510580F00C94AB170C94F6174F
:102F30005F3FE4F3983ED4F3869577956795B79510
:102F4000F795E7959F5FC1F7FE2B880F911D96952A
:102F5000879597F9089597F99F6780E870E060E09A
:102F600008959FEF80EC089500240A941616170622
:102F700018060906089500240A941216130614066A
:102F800005060895092E0394000C11F4882352F0CD
:102F9000BB0F40F4BF2B11F460FF04C06F5F7F4F85
:102FA0008F4F9F4F089557FD9058440F551F59F06C
:102FB0005F3F71F04795880F97FB991F61F09F3F26
:102FC00079F087950895121613061406551FF2CF4F
:102FD0004695F1DF08C0161617061806991FF1CF9F
:102FE00086957105610508940895E894BB276627C6
:102FF0007727CB0197F90895EE0FFF1F881F8BBF2E
:103000000790F691E02D1994E894DF93CF93FC019B
:10301000DB010E94F2167F936F93E9019A01AC01E4
:10302000BF93AF933F932F93DF010E94F21626F4D4
:103030006C1B7D0B820B930B9E01EB01FC010E942C
:103040004C18AF91BF912F913F910E944C18BE0137
:10305000CF01F9012F913F91CF91DF91089597FD15
:103060001094002E083098F00850232F342F452F4D
:10307000562F672F782F892F912DF4CF1594979580
:1030800087957795679557954795379527950A952D
:10309000AAF71124002D08950E94F216460F571F1B
:1030A000C81FD91F08F431960895FB01DC018D91EA
:1030B000019080190110D9F3990B0895FB01DC01EF
:1030C0004150504030F08D910190801919F400204A
:0C30D000B9F7881B990B0895F894FFCF06
:1030DC00FA00FA00FA00FA00DC04DF04E20403044C
:1030EC00E504EE04F90400050000000000000000F7
:1030FC000001020317191B1D16181A1C1E1F202174
:10310C00010101010000000029039302C0027603B3
:10311C00F102CF02E30200000000EA06BD06190727
:10312C009306B606A30694060D0A004641554C5468
:10313C0020726561736F6E3D0066616C736500553E
:10314C004E4B4E4F574E004D4547415F4C414E4400
:10315C0045525F52454144592073746174653D4436
:10316C00495341524D45442073656E736F72735FC2
:10317C0072656164793D002063616C69627261748F
:10318C00696F6E5F76616C69643D0073656E736F19
:10319C00725F696E697469616C697A6174696F6E6A
:1031AC005F6661696C65640050494E4700504F4E34
:1031BC0047005354415455530053544154555320D4
:1031CC0073746174653D0020686561727462656139
:1031DC00745F6167655F6D733D005F6D6D3D0020D1
:1031EC007461726765745F002076616C69645F005E
:1031FC004553544F5000736F6674776172655F6509
:10320C0073746F700053544F505045440041524DED
:10321C00004552522072657365745F7265717569F1
:10322C007265645F61667465725F6661756C74006B
:10323C0045525220706F736974696F6E5F63616C75
:10324C006962726174696F6E5F696E76616C6964D4
:10325C000048454152544245415400455252206861
:10326C0065617274626561745F69676E6F726564C3
:10327C005F6E6F745F61726D6564004845415254B6
:10328C00424541545F4F4B005345545F54415247A4
:10329C004554200045525220636F6E74726F6C6CF3
:1032AC0065725F6E6F745F61726D65645F69646C8B
:1032BC006500455252207365745F74617267657462
:1032CC005F72657175697265735F464C5F46525FDC
:1032DC00524C5F52520045525220746172676574B1
:1032EC00735F6F75745F6F665F72616E67650045C3
:1032FC005252207365745F7461726765745F726596
:10330C007175697265735F65786163746C795F66FA
:10331C006F75725F76616C756573004552522075DE
:10332C006E6B6E6F776E5F636F6D6D616E643D007B
:10333C0045525220636F6D6D616E645F746F6F5F89
:10334C006C6F6E67006865617274626561745F743E
:10335C00696D656F7574006D6F76655F74696D6509
:10336C006F757400706F736974696F6E5F73656EDF
:10337C00736F725F6661696C757265006D65617300
:10338C00757265645F74726176656C5F6C696D698A
:10339C007400444F4E4520746172676574735F729C
:1033AC006561636865643D7472756500464C0046E2
:1033BC005200524C0044495341524D454400415235
:1033CC004D45445F49444C45004D4F56494E4700CE
:0E33DC004641554C545F4C4154434845440013
:00000001FF
