:100000000C9435010C9466010C9466010C94660105
:100010000C9466010C9466010C9466010C946601C4
:100020000C9466010C9466010C9466010C946601B4
:100030000C9466010C9466010C9466010C946601A4
:100040000C9466010C9466010C9466010C94660194
:100050000C9466010C9466010C9466010C94C10426
:100060000C9466010C9435050C940B050C946601F8
:100070000C9466010C9466010C9466010C94660164
:100080000C9466010C9466010C9466010C94660154
:100090000C9466010C9466010C9466010C94660144
:1000A0000C9466010C9466010C9466010C94660134
:1000B0000C9466010C9466010C9466010C94660124
:1000C0000C9466010C9466010C9466010C94660114
:1000D0000C9466010C9466010C9466010C94660104
:1000E0000C9466010C94C7010C9401030C94C60196
:1000F0000C94A5010C9498010C9490010C947C0232
:100100000C9492070C94B9010C941E020C94AF014C
:100110000C94CB010C94AB010C945A020C94B402D5
:100120000C949B010C944B020C94C1010C94B301F0
:100130000C946E020C948C010C9494010C94860126
:100140000C94A1010C94BD010000210024002700A3
:100150002A002D00300033000101000004010701D6
:100160000A01000020002300260029002C002F0097
:100170003200000100000301060109010000220015
:10018000250028002B002E00310034000201000061
:10019000050108010B010505050507050808080804
:1001A000020202020A0A080804040404010101010F
:1001B000010101010303030303030303040707070A
:1001C0000C0C0C0C0C0C0C0C0202020206060606AF
:1001D000060606060B0B0B0B0B0B0B0B010210207C
:1001E000200808102040102040800201020108046D
:1001F0000201010204081020408080402010080401
:100200000201800402018040201008040201080459
:10021000020101020408102040800102040810209D
:10022000408000000A0B02090C0D0E0807030401B0
:1002300000000000000000000000000000000000BE
:10024000000000000000000000000000000012118B
:10025000100000000000000000000000000000008E
:100260000000000000000000920711241FBECFEF25
:10027000D1E2DEBFCDBF00E00CBF24E0A8E4B3E0D4
:1002800001C01D92AE32B207E1F713E0A0E0B2E088
:10029000ECECF2E100E00BBF02C007900D92A83435
:1002A000B107D9F711E0C5E3D1E000E006C021971E
:1002B0000109802FFE010E944509C433D10780E067
:1002C0000807A9F70E94B0050C9464090C9400007B
:1002D0008150823108F05AC0E82FF0E08827EC58AE
:1002E000FE4F8F4F0C9445099401980186018C01B3
:1002F0009001C6019B01A101A501AB01AF01B301B2
:10030000B901BD01C601C101C701CB0180918000C7
:100310008F77809380000895809180008F7DF9CF42
:1003200080918000877FF5CF84B58F7784BD089555
:1003300084B58F7DFBCF8091B0008F778093B00024
:1003400008958091B0008F7DF9CF809190008F77D4
:10035000809390000895809190008F7DF9CF8091D7
:100360009000877FF5CF8091A0008F778093A000C9
:1003700008958091A0008F7DF9CF8091A000877FA4
:10038000F5CF809120018F7780932001089580918F
:1003900020018F7DF9CF80912001877FF5CF1F93BA
:1003A000CF93DF93E7E5F2E09491E1E1F2E0D491BD
:1003B000EBECF1E0C491CC23B9F0182F992319F09C
:1003C000892F0E946801EC2FF0E0EE0FFF1FE45828
:1003D000FE4FA591B4918FB7F894EC91111108C01C
:1003E000D095DE23DC938FBFDF91CF911F910895CD
:1003F000DE2BF8CFCF93DF93E6E5F2E08491E0E1E6
:10040000F2E0D491EAECF1E0C491CC23A1F08111A7
:100410000E946801EC2FF0E0EE0FFF1FEE59FE4F37
:10042000A591B491EC91ED2381E090E009F480E096
:10043000DF91CF91089580E090E0FACFAF92BF9224
:10044000CF92DF92EF92FF920F931F93CF93DF93A0
:100450006C017B018B01040F151FEB015E01AE18CF
:10046000BF08C017D10759F06991D601ED91FC91F1
:100470000190F081E02DC6011995892B79F7C5010E
:10048000DF91CF911F910F91FF90EF90DF90CF9070
:10049000BF90AF900895FC01538D448D252F30E01F
:1004A000842F90E0821B930B541710F0CF96089581
:1004B00001970895FC01918D828D981761F0A28DAE
:1004C000AE0FBF2FB11D5D968C91928D9F5F9F7374
:1004D000928F90E008958FEF9FEF0895FC01918D2A
:1004E000828D981731F0828DE80FF11D858D90E097
:1004F00008958FEF9FEF0895FC01918D228D892F34
:1005000090E0805C9F4F821B91098F73992708951B
:100510008FE893E00E947C0221E0892B09F420E01F
:10052000822F0895FC01A48DA80FB92FB11DA35AE5
:10053000BF4F2C91848D90E001968F739927848F03
:10054000A689B7892C93A089B1898C918370806426
:100550008C93938D848D981306C00288F389E02DC7
:1005600080818F7D80830895EF92FF920F931F9378
:10057000CF93DF93EC0181E0888F9B8D8C8D981356
:100580001AC0E889F989808185FF15C09FB7F89462
:10059000EE89FF896083E889F989808183708064AE
:1005A00080839FBF81E090E0DF91CF911F910F91F9
:1005B000FF90EF900895F62E0B8D10E00F5F1F4F08
:1005C0000F731127E02E8C8D8E110CC00FB607FC17
:1005D000FACFE889F989808185FFF5CFCE010E94A5
:1005E0009202F1CFEB8DEC0FFD2FF11DE35AFF4F7F
:1005F000F0829FB7F8940B8FEA89FB898081806233
:10060000CFCFCF93DF93EC01888D8823B9F0AA89EF
:10061000BB89E889F9898C9185FD03C0808186FDBD
:100620000DC00FB607FCF7CF8C9185FFF2CF80810C
:1006300085FFEDCFCE010E949202E9CFDF91CF91ED
:10064000089580E090E0892B29F00E9488028111B2
:100650000E94000080E090E0892B49F080E090E06B
:10066000892B29F00E94000081110E94000080E087
:1006700090E0892B49F080E090E0892B29F00E94DE
:10068000000081110E94000080E090E0892B49F079
:1006900080E090E0892B29F00E94000081110C94E9
:1006A00000000895FC0101900020E9F73197AF01A7
:1006B000481B590BBC018FE893E00C941E028F92EB
:1006C0009F92AF92BF920F931F93CF93DF93CDB7BB
:1006D000DEB7A1970FB6F894DEBF0FBECDBF19A24B
:1006E000423008F44AE08E010F5D1F4F842E912C9A
:1006F000B12CA12CA50194010E940909E62FB90192
:10070000CA01EA30F4F4E05DD801EE938D01232BA9
:10071000242B252B79F790E080E0109719F0CD017C
:100720000E945203A1960FB6F894DEBF0FBECDBF54
:10073000DF91CF911F910F91BF90AF909F908F90BD
:100740000895E95CE1CFCF92DF92EF92FF92CF93D1
:10075000DF936B017C016DE28FE893E00E94B402AD
:10076000EC0166277727CB016C197D098E099F095B
:100770004AE00E945F038C0F9D1FDF91CF91FF9095
:10078000EF90DF90CF900895CF93DF93D0E0C0E05B
:10079000009719F00E945203EC0182E192E00E945E
:1007A00052038C0F9D1FDF91CF9108958F929F92DE
:1007B000AF92BF92CF92DF92EF92FF920F931F936F
:1007C000CF93DF930E94FA01019709F43FC080E0C4
:1007D0000E94CF0183E090E00197F1F781E00E9451
:1007E000CF0183E290E00197F1F780E00E94CF0112
:1007F000E0E1F2E06491EAECF1E0E491F0E0EE0F88
:10080000FF1FEE59FE4F8591949100E61AEE20E00D
:1008100030E0462F0E946B05611571058105910539
:1008200079F06B017C012FEFC21AD20AE20AF20AB8
:100830006FE0F622C114D104E104F10409F06FC0A5
:100840000E94FA01C5E2D2E0019711F4C5E1D2E0BD
:10085000C12CD12C760188248A94982C5401809143
:10086000480390914903A0914A03B0914B0301962C
:10087000A11DB11D8093480390934903A0934A039F
:10088000B0934B0381E592E00E94520360914803CC
:100890007091490380914A0390914B034AE00E9472
:1008A0005F038BE592E00E9452032FB7F8946091AA
:1008B0008B0370918C0380918D0390918E032FBFD9
:1008C0004AE00E945F0382E692E00E9452038FEFAB
:1008D00088169806A806B80609F04DC06FEF7FEF9E
:1008E000CB010E94A30380E792E00E9452034AE0FA
:1008F000C701B6010E945F038BE792E00E9452039A
:10090000CE01DF91CF911F910F91FF90EF90DF907B
:10091000CF90BF90AF909F908F900C94C40381E3D1
:10092000C81685E7D806E104F10410F5A1E1B0E0AE
:10093000A70196010E942B096E5C7F4F8F4F9F4F3E
:1009400024E630E040E050E00E940909DA01C901E4
:100950004497A109B10949015A01C0E4D2E08D3898
:100960009F40A105B10508F47ACFC3E4D2E073CF6C
:10097000C2E3D2E070CF4AE0C501B4010E945F0338
:10098000B2CF1F920F920FB60F9211242F933F9365
:100990008F939F93AF93BF9380918B0390918C0320
:1009A000A0918D03B0918E0330918A0323E0230F31
:1009B0002D3758F50196A11DB11D20938A03809310
:1009C0008B0390938C03A0938D03B0938E0380913F
:1009D000860390918703A0918803B09189030196C3
:1009E000A11DB11D8093860390938703A093880374
:1009F000B0938903BF91AF919F918F913F912F91B8
:100A00000F900FBE0F901F90189526E8230F0296A7
:100A1000A11DB11DD2CF1F920F920FB60F921124BC
:100A20000BB60F922F933F934F935F936F937F93E8
:100A30008F939F93AF93BF93EF93FF938FE893E0D0
:100A40000E949202FF91EF91BF91AF919F918F9180
:100A50007F916F915F914F913F912F910F900BBEBE
:100A60000F900FBE0F901F9018951F920F920FB608
:100A70000F9211240BB60F922F938F939F93EF93A6
:100A8000FF93E0919F03F091A0038081E091A50383
:100A9000F091A60382FD1DC090818091A8038F5F15
:100AA0008F732091A903821741F0E091A803F0E031
:100AB000E157FC4F958F8093A803FF91EF919F9191
:100AC0008F912F910F900BBE0F900FBE0F901F9024
:100AD00018958081F2CFCF92DF92EF92FF920F9321
:100AE0001F93E82FF92F05C0015011092109310981
:100AF00061F1908196239417B9F305C00150110953
:100B00002109310911F1908196239413F7CFC12C5B
:100B1000D12CE12CF12C0AC08FEFC81AD80AE80AB0
:100B2000F80A0C151D052E053F0579F080818623F6
:100B3000841791F36C2D7D2D8E2D9F2D1F910F917C
:100B4000FF90EF90DF90CF90089560E070E080E03C
:100B500090E01F910F91FF90EF90DF90CF9008955C
:100B6000789484B5826084BD84B5816084BD85B588
:100B7000826085BD85B5816085BD80916E00816094
:100B800080936E001092810080918100826080933A
:100B9000810080918100816080938100809180003C
:100BA0008160809380008091B10084608093B10067
:100BB0008091B00081608093B0008091910082604C
:100BC0008093910080919100816080939100809149
:100BD00090008160809390008091A100826080935A
:100BE000A1008091A10081608093A1008091A0006C
:100BF00081608093A0008091210182608093210117
:100C00008091210181608093210180912001816088
:100C10008093200180917A00846080937A00809193
:100C20007A00826080937A0080917A00816080935C
:100C30007A0080917A00806880937A001092C100D7
:100C4000E1E1F2E02491EBECF1E08491882399F06A
:100C500090E0880F991FFC01E85BFE4FA591B491CD
:100C6000FC01E458FE4F859194918FB7F894EC9174
:100C7000E22BEC938FBFE0E1F2E02491EAECF1E0AB
:100C800084918823C1F090E0880F991FFC01E85BF4
:100C9000FE4FC591D491FC01E458FE4FA591B4914B
:100CA0009FB7F8948881E22FE0958E2388838C91FA
:100CB000E823EC939FBF80E00E94CF01E0919F0367
:100CC000F091A00382E08083E0919B03F0919C036C
:100CD0001082E0919D03F0919E0380E18083109249
:100CE000A703E091A303F091A40386E08083E09141
:100CF000A103F091A203808180618083E091A10330
:100D0000F091A203808188608083E091A103F0913B
:100D1000A203808180688083E091A103F091A20307
:100D200080818F7D808384E892E00E94C40388EEF6
:100D3000C82E83E0D82EE12CF12C8FE893E00E949E
:100D40007C02181619060CF0A5C08FE893E00E94EB
:100D50005A028D3091F320917C0330917D038A30CB
:100D600009F080C0F901E45BFC4F1082232BB9F03D
:100D700068EB72E08CE493E00E944D09892B29F422
:100D80008DEB92E00E94C4030AC062EC72E08CE436
:100D900093E00E944D09892B39F40E94D6031092EA
:100DA0007D0310927C03C9CF6FEC72E08CE493E07A
:100DB0000E944D09892B59F41092820310928303EB
:100DC00010928403109285038AED92E0DBCF47E016
:100DD00050E06AEE72E08CE493E00E945609892BA1
:100DE000D1F54AE050E070E060E083E593E00E94D6
:100DF000BF074B015C01DC01CB010197A109B109DF
:100E00000A97A105B10518F082EF92E0BBCFC701A8
:100E1000B601A50194010E94090920938203309331
:100E20008303409384035093850310927E031092B2
:100E30007F03109280031092810380E193E00E946F
:100E400052034AE0C501B4010E945F0382E192E0CF
:100E50000E945203A4CF80E293E00E9452038CE4EC
:100E600093E090CF2F32310560F4A9014F5F5F4FBF
:100E700050937D0340937C03245B3C4FF9018083B6
:100E80005CCF10927D0310927C0385E393E00E9477
:100E9000C40353CF8091820390918303A091840374
:100EA000B0918503892B8A2B8B2BC9F12FB7F8942E
:100EB00080918B0390918C03A0918D03B0918E0350
:100EC0002FBF40917E0350917F036091800370910A
:100ED0008103841B950BA60BB70B409182035091A5
:100EE0008303609184037091850384179507A60797
:100EF000B707A8F02FB7F89480918B0390918C03DB
:100F0000A0918D03B0918E032FBF80937E039093A9
:100F10007F03A0938003B09381030E94D6030E94B5
:100F200021030BCFEFE8F3E01382128288EE93E007
:100F3000A0E0B0E084839583A683B78384E092E049
:100F40009183808385EC90E09587848784EC90E0A2
:100F50009787868780EC90E0918B808B81EC90E086
:100F6000938B828B82EC90E0958B848B86EC90E067
:100F7000978B868B118E128E138E148E08953F924E
:100F80004F925F926F927F928F929F92AF92BF9299
:100F9000CF92DF92EF92FF920F931F93CF93DF9345
:100FA0005C016B017A016115710519F0FB019183F8
:100FB0008083E114F10451F0C7010297839730F068
:100FC00040E030E020E090E06BC05E01E50121965A
:100FD000F5011081812F90E00E94ED08892BA9F77F
:100FE0001D3201F52196F501118101E0E114F104B2
:100FF00009F4E6C0F0E1EF16F10409F088C01033FF
:1010000059F488818F7D883509F07CC0198122963A
:101010000260F0E1EF2EF12C812C912CA12C88E0C4
:10102000B82E92C01B3221F4E5012296F501118100
:1010300000E0DCCFEAE0EE16F10409F4C7C0F0E10D
:10104000EF16F10409F073C0E7CF78E0E72EF12C3A
:10105000812C912CA12C60E1B62E76C021E0ADC090
:10106000302F3170C114D10431F0222371F1219756
:10107000F601D183C08327FF2EC060E070E080E0DE
:1010800090E8311104C06FEF7FEF8FEF9FE722E20E
:1010900030E030932D0420932C04462F372F282F37
:1010A000642F732F822FDF91CF911F910F91FF90AB
:1010B000EF90DF90CF90BF90AF909F908F907F90F8
:1010C0006F905F904F903F90089501FF04C022976A
:1010D000F601D183C083332341F0909580957095BC
:1010E00061957F4F8F4F9F4FD8CF97FFD6CF82E22A
:1010F00090E090932D0480932C046FEF7FEF8FEF9F
:101100009FE7CBCF10E3E114F10409F49ECF28E070
:10111000E216F10409F49CCF0CF08CCF812C912CB9
:10112000A12CE0E4BE2E82E0E816F10469F060E054
:1011300070E080E090E897010F2C000C440B550BF9
:101140000E94090949015A0120E060E070E0CB01EA
:1011500027010F2C000C66087708FE0150ED352E94
:10116000310E39E0331570F43FEB310F49EC342E7A
:101170003A3138F03FE9310F3A3108F071CF39EAAE
:10118000332E310E3E141F040CF06ACF27FD15C01C
:1011900086169706A806B90678F0A30192010E9468
:1011A000F908630D711D811D911D61307105810567
:1011B00020E8920708F452CF2FEF21961081CDCF6F
:1011C000103309F41ECF2AE0E22EF12C9CEC892E7C
:1011D000982CA82C9CE0B92EB7CF91110C94F6084E
:1011E000803219F089508550C8F7089599278827CB
:1011F0000895DB018F939F930E942B09BF91AF91BC
:10120000A29F800D911DA39F900DB29F900D112460
:101210000895A1E21A2EAA1BBB1BFD010DC0AA1F37
:10122000BB1FEE1FFF1FA217B307E407F50720F04F
:10123000A21BB30BE40BF50B661F771F881F991FCA
:101240001A9469F760957095809590959B01AC0113
:10125000BD01CF0108950E943609A59F900DB49F4E
:10126000900DA49F800D911D11240895A29FB0019F
:10127000B39FC001A39F700D811D1124911DB29FCA
:10128000700D811D1124911D0895EE0FFF1F881F01
:101290008BBF0790F691E02D1994FB01DC018D9135
:1012A000019080190110D9F3990B0895FB01DC011D
:1012B0004150504030F08D910190801919F4002078
:0C12C000B9F7881B990B0895F894FFCF34
:1012CC0000000000B4021E024B0201037C025A0211
:1012DC006E020D0A006563686F5F737475636B5FF4
:1012EC0068696768006E6F5F6563686F5F726973CA
:1012FC0065006563686F5F746F6F5F6C6F6E67001E
:10130C006F6B0072616E67655F696E76616C6964A4
:10131C000053523034207365713D0020745F6D733F
:10132C003D002064697374616E63655F6D6D3D0093
:10133C002070756C73655F75733D002073746174F8
:10134C0075733D004D4547415F535230345F5245F4
:10135C0041445920747269673D4435332065636894
:10136C006F3D4435322072616E67655F6D6D3D3245
:10137C00302E2E343030300050494E4700504F4EF6
:10138C0047004745545F44495354414E434500532D
:10139C00545245414D204F46460053523034205351
:1013AC00545245414D3D4F46460053545245414DD4
:1013BC0020004552523A53545245414D5F485A5FB2
:1013CC004D5553545F42455F315F544F5F31300090
:1013DC00535230342053545245414D5F485A3D00CE
:1013EC004552523A554E4B4E4F574E5F434F4D4D13
:1013FC00414E443A004552523A4C494E455F544F87
:08140C004F5F4C4F4E470000FA
:00000001FF
