:020000040000FA
:100000000C9450010C9481010C9481010C94810199
:100010000C9481010C9481010C9481010C94810158
:100020000C9481010C9481010C9481010C94810148
:100030000C9481010C9481010C9481010C94810138
:100040000C9481010C9481010C9481010C94810128
:100050000C9481010C9481010C9481010C94070A89
:100060000C9481010C947B0A0C94510A0C9481012C
:100070000C9481010C9481010C9481010C948101F8
:100080000C9481010C9481010C9481010C948101E8
:100090000C9481010C9481010C9481010C94B10A9F
:1000A0000C9481010C9481010C9481010C948101C8
:1000B0000C9481010C9481010C9481010C948101B8
:1000C0000C9481010C9481010C9481010C948101A8
:1000D0000C9481010C9481010C9481010C94810198
:1000E0000C9481010C9453050C9402020C94C313DC
:1000F0000C9416020C94D9020C9431050C9408024D
:100100000C94D50B0C941A020C9412020C940A1441
:100110000C9432020C94BA130C9433030C944005E3
:100120000C9487050C94CC130C94FB010C949D0249
:100130000C94E1010C94F1130C94F3010C94D5137D
:100140000C94DE130C9430050C94FB130C942E02CB
:100150000C940C020C9424020C9480030C949B02CB
:100160000C940E070C9420020C94FB020C94CA020F
:100170000C9428020C94DC010C94FF010C94E713FE
:100180000C946C130C94ED020C94B1130C949C021F
:100190000C945A050C94F70100000A0B02090C0D8F
:1001A0000E0807030401000000000000000000002A
:1001B000000000000000000000000000000000003F
:1001C00000000000121110000000000000000000FC
:1001D000000000000000000000000000000000001F
:1001E0002200250028002B002E00310034000201DF
:1001F0000000050108010B01000021002400270078
:100200002A002D0030003300010100000401070125
:100210000A0105050505070508080808020202028B
:100220000A0A080804040404010101010101010192
:100230000303030303030303040707070C0C0C0C5D
:100240000C0C0C0C02020202060606060606060646
:100250000B0B0B0B0B0B0B0B0102102020080810D3
:100260002040102040800201020108040201010226
:1002700004081020408080402010080402018004FF
:10028000020180402010080402010804020101025A
:100290000408102040800102040810204080D50B83
:1002A00011241FBECFEFD1E2DEBFCDBF00E00CBFF7
:1002B00013E0A0E0B2E0E6EDFCE200E00BBF02C01C
:1002C00007900D92AC3FB107D9F726E0ACEFB3E051
:1002D00001C01D92AB39B207E1F711E0C0E5D1E0F2
:1002E00000E006C021970109802FFE010E94DF1562
:1002F000CF34D10780E00807A9F70E94410C0C9485
:1003000069160C94000091E0909355058093540574
:100310001092530510925205089590E0FC01E85A9E
:10032000FD4F24918E5E9D4FFC018491882399F0AE
:1003300090E0880F991FFC01E850FE4FA591B49101
:10034000FC01E252FE4F859194918FB7F894EC91A5
:10035000E22BEC938FBF0895282F30E0F901E85687
:10036000FE4F9491F901E85AFD4F44912E5E3D4FA6
:10037000F9012491222309F435C0992311F19150F8
:100380009231F8F4E92FF0E08827E653FE4F8F4FC3
:100390000C94DF15FB01FF01DC01F301F701E10122
:1003A000020208020C02120216021A0220022402A1
:1003B000E10128022E023202809180008F77809323
:1003C0008000E22FF0E0EE0FFF1FE252FE4FA591FA
:1003D000B4918FB7F894EC91611148C040954E23C9
:1003E0004C938FBF0895809180008F7DE8CF8091DE
:1003F0008000877FE4CF84B58F7784BDE2CF84B55A
:100400008F7DFBCF8091B0008F778093B000D9CFE4
:100410008091B0008F7DF9CF809190008F7780938D
:100420009000CFCF809190008F7DF9CF8091900088
:10043000877FF5CF8091A0008F778093A000C1CFF8
:100440008091A0008F7DF9CF8091A000877FF5CFAC
:10045000809120018F7780932001B3CF809120017C
:100460008F7DF9CF80912001877FF5CF4E2BB8CFBC
:100470003FB7F8948091020590910305A09104057F
:10048000B091050526B5A89B05C02F3F19F0019630
:10049000A11DB11D3FBFBA2FA92F982F8827BC01DE
:1004A000CD01620F711D811D911D42E0660F771F06
:1004B000881F991F4A95D1F708958F929F92AF9206
:1004C000BF92CF92DF92EF92FF924B015C010E94AC
:1004D00038026B017C010E9438026C197D098E097B
:1004E0009F09683E734081059105A8F321E0821AB7
:1004F0009108A108B10888EEC80E83E0D81EE11C5F
:10050000F11C81149104A104B10429F7FF90EF902C
:10051000DF90CF90BF90AF909F908F9008952FB7AE
:10052000F8946091FE047091FF0480910005909111
:1005300001052FBF089508950895AF92BF92CF92FD
:10054000DF92EF92FF920F931F93CF93DF936C0193
:100550007B018B01040F151FEB015E01AE18BF0874
:10056000C017D10759F06991D601ED91FC91019026
:10057000F081E02DC6011995892B79F7C501DF912E
:10058000CF911F910F91FF90EF90DF90CF90BF9090
:10059000AF900895FC01538D448D252F30E0842FBA
:1005A00090E0821B930B541710F0CF96089501979B
:1005B0000895FC01918D828D981761F0A28DAE0F88
:1005C000BF2FB11D5D968C91928D9F5F9F73928F0F
:1005D00090E008958FEF9FEF0895FC01918D828D3B
:1005E000981731F0828DE80FF11D858D90E0089508
:1005F0008FEF9FEF0895FC01918D228D892F90E060
:10060000805C9F4F821B91098F739927089586E51F
:1006100095E00E94FB0221E0892B09F420E0822F63
:100620000895FC01A48DA80FB92FB11DA35ABF4F87
:100630002C91848D90E001968F739927848FA689E1
:10064000B7892C93A089B1898C91837080648C9335
:10065000938D848D981306C00288F389E02D8081E4
:100660008F7D80830895EF92FF920F931F93CF9316
:10067000DF93EC0181E0888F9B8D8C8D98131AC0DD
:10068000E889F989808185FF15C09FB7F894EE89C4
:10069000FF896083E889F989808183708064808321
:1006A0009FBF81E090E0DF91CF911F910F91FF906C
:1006B000EF900895F62E0B8D10E00F5F1F4F0F7314
:1006C0001127E02E8C8D8E110CC00FB607FCFACFCF
:1006D000E889F989808185FFF5CFCE010E94110359
:1006E000F1CFEB8DEC0FFD2FF11DE35AFF4FF082A0
:1006F0009FB7F8940B8FEA89FB8980818062CFCF06
:10070000CF93DF93EC01888D8823B9F0AA89BB8948
:10071000E889F9898C9185FD03C0808186FD0DC033
:100720000FB607FCF7CF8C9185FFF2CF808185FF54
:10073000EDCFCE010E941103E9CFDF91CF91089553
:1007400080E090E0892B29F00E94070381110E942C
:10075000000080E090E0892B49F080E090E0892B58
:1007600029F00E94000081110E94000080E090E0CA
:10077000892B49F080E090E0892B29F00E9400004D
:1007800081110E94000080E090E0892B49F080E018
:1007900090E0892B29F00E94000081110C94000048
:1007A0000895CF92DF92EF92FF9261157105810556
:1007B0009105F1F0DC01CB010197A109B10930E00D
:1007C00020E06C017D01CC24CD28CE28CF2839F043
:1007D000B695A795979587952F5F3F4FF2CF322F0C
:1007E0002227822B932BFF90EF90DF90CF900895DC
:1007F00090E080E0F8CF20913C04260F3327331F90
:1008000021323105ECF420914C05FC0190E080E0B0
:10081000243069F082E00895A0913C042191AC015C
:10082000445E5B4FA40FB52FB11D2C930196861724
:1008300098F380913C04680F60933C0480E0089535
:1008400081E0089510924C0581E080932B05109271
:10085000260561E084E10E94AC0161E085E10E942F
:10086000AC01E9EBF0E080818E7F808380818D7F19
:10087000808388E48093B80085E48093BC00089569
:10088000CF93DF9391E0909363048823B9F0C091F4
:10089000B800D091BA008091BC008A7B8093BC00E4
:1008A00060E084E10E94AC0160E085E10E94AC015F
:1008B0000E942204D093BA00C093B800DF91CF9178
:1008C0000895CF92DF92EF92FF920F931F93CF93F1
:1008D000DF93D82FC62F613208F098C00E943802EB
:1008E0006B017C0180914C0581116BC081E080938C
:1008F0004C0580932B059FEF90932A0510922905B4
:100900009C0F909328058093270580912705DD0F84
:10091000D82BD093270580912605813009F078C027
:10092000109226050E9438026B017C0180912705F8
:100930008093BB0080914E0590914F05A09150058A
:10094000B0915105892B8A2B8B2BA1F00E94380284
:1009500000914E0510914F052091500530915105A1
:100960006C197D098E099F09061717072807390793
:1009700008F448C08091BC0083FDD8CF85EC8093FB
:10098000BC000E9438026B017C0180914C058130D3
:1009900009F440C0809129058C1710F4C0912905F5
:1009A000E6E0F5E0ACE2B5E080E08C1355C08C2FBA
:1009B000DF91CF911F910F91FF90EF90DF90CF903B
:1009C000089580914E0590914F05A0915005B091EA
:1009D0005105892B8A2B8B2B09F484CF0E94380276
:1009E00000914E0510914F05209150053091510511
:1009F0006C197D098E099F09061717072807390703
:100A000008F070CF80914D050E944004C0E0CFCF28
:100A100085EEB5CF80914E0590914F05A091500580
:100A2000B0915105892B8A2B8B2B09F4AECF0E94F4
:100A3000380200914E0510914F05209150053091DC
:100A400051056C197D098E099F090617170728079C
:100A5000390708F09ACFD6CF91919D938F5FA5CF9C
:100A60000895E091650480916404E81730F4F0E0A3
:100A7000E45DFA4F808190E008958FEF9FEF089535
:100A800090916504809164042FEF3FEF981748F42C
:100A9000E92FF0E0E45DFA4F208130E09F5F909312
:100AA0006504C90108958091640490916504891BCF
:100AB000990B0895CF92DF92EF92FF920F931F93BD
:100AC000CF93DF937C01CB018A012091550522232E
:100AD00089F0EB016B01C40ED51ECC15DD0569F064
:100AE0006991D701ED91FC910190F081E02DC70152
:100AF0001995F3CF642F0E94FB03C801DF91CF91BA
:100B00001F910F91FF90EF90DF90CF900895CF93BA
:100B1000DF931F92CDB7DEB769832091550522235D
:100B2000F9F020915205203258F021E030E0FC012C
:100B30003383228390E080E00F90DF91CF9108957E
:100B400080915305E82FF0E0E450FC4F99819083A9
:100B50008F5F809353058093520581E090E0ECCF46
:100B600061E0CE0101960E94FB03F7CFCF92DF92A6
:100B7000EF92FF920F931F93CF93DF93D091520583
:100B800081E0D13208F09CC0C09154050E94380227
:100B90006B017C0180914C0581116CC082E08093D7
:100BA0004C0581E080932B058FEF80932A051092EE
:100BB0002905D0932805ACEFB3E0E6E0F5E080E04E
:100BC000D8138DC01092270580912705CC0FC82B14
:100BD000C093270580912605813009F084C01092CA
:100BE00026050E9438026B017C01809127058093C5
:100BF000BB0080914E0590914F05A0915005B0919A
:100C00005105892B8A2B8B2BA1F00E943802009171
:100C10004E0510914F0520915005309151056C19EA
:100C20007D098E099F09061717072807390708F459
:100C300042C08091BC0083FDD8CF85EC8093BC007E
:100C40000E9438026B017C0180914C05823009F4CE
:100C50004CC080912A058F3F09F469C080912A0514
:100C6000803209F466C080912A05803309F463C09C
:100C700084E026C080914E0590914F05A0915005CB
:100C8000B0915105892B8A2B8B2B09F483CF0E94BD
:100C9000380200914E0510914F052091500530917A
:100CA00051056C197D098E099F090617170728073A
:100CB000390708F06FCF80914D050E94400485E010
:100CC000109253051092520510925505DF91CF9165
:100CD0001F910F91FF90EF90DF90CF9008959D911D
:100CE00091938F5F6DCF85EEA9CF80914E05909146
:100CF0004F05A0915005B0915105892B8A2B8B2B64
:100D000009F4A2CF0E94380200914E0510914F05C0
:100D100020915005309151056C197D098E099F096C
:100D2000061717072807390708F08ECFC4CF80E0D1
:100D3000C7CF82E0C5CF83E0C3CFFF920F931F934D
:100D4000CF93DF93EC01F62E142F052F888D0E9490
:100D500083018E899F89DC01ED91FC910190F081E6
:100D6000E02D60E019958E899F89DC01ED91FC9161
:100D70000190F081E02D6F2D19958E899F89DC01FE
:100D8000ED91FC910190F081E02D602F19958E89F5
:100D90009F89DC01ED91FC910190F081E02D612FA4
:100DA00019958E899F890E94B6058B87DF91CF9117
:100DB0001F910F91FF9008950F931F93CF93DF938F
:100DC000EC01062F142F888D0E9483018E899F8944
:100DD000DC01ED91FC910190F081E02D60E019952E
:100DE0008E899F89DC01ED91FC910190F081E02DCD
:100DF000602F19958E899F89DC01ED91FC910190FE
:100E0000F081E02D612F19958E899F890E94B6058A
:100E10008B87DF91CF911F910F91089590E080E033
:100E20000895CF93C82F80E70E94830161E070E0AE
:100E300001C0660FCA95EAF783EF95E00E94870527
:100E400083EF95E00E94B605811107C08BEA94E01C
:100E50000197F1F781E0CF91089580E0FCCFEF9208
:100E6000FF920F931F93CF93DF93C8E0D2E084E00B
:100E7000E82E82E0F82E00E012E060E089910E9406
:100E8000AC0160E0F70181917F010E94AC0160E05C
:100E9000F80181918F010E94AC01F2E0CC30DF07B4
:100EA00061F7DF91CF911F910F91FF90EF9008951F
:100EB000FC0101900020E9F73197AF01481B590B65
:100EC000BC0186E595E00C949D028F929F92AF92B3
:100ED000BF920F931F93CF93DF93CDB7DEB7A19748
:100EE0000FB6F894DEBF0FBECDBF19A2423008F492
:100EF0004AE08E010F5D1F4F842E912CB12CA12C46
:100F0000A50194010E94BD15E62FB901CA01EA307E
:100F1000F4F4E05DD801EE938D01232B242B252BD7
:100F200079F790E080E0109719F0CD010E94580702
:100F3000A1960FB6F894DEBF0FBECDBFDF91CF9163
:100F40001F910F91BF90AF909F908F900895E95C93
:100F5000E1CF0C945807CF93DF930E945807EC0120
:100F600084E392E00E9458078C0F9D1FDF91CF9180
:100F70000895CF93DF938F3F980791F46DE286E554
:100F800095E00E943303EC014AE061E070E080E00C
:100F900090E00E9465078C0F9D1FDF91CF9108950F
:100FA000BC01990F880B990B4AE0DF91CF910C940B
:100FB00065070F931F93CF93DF93EC01162F072F35
:100FC000888D0E9483018E899F89DC01ED91FC91BF
:100FD0000190F081E02D602F19958E899F89DC01A9
:100FE000ED91FC910190F081E02D612F19958E8992
:100FF0009F890E94B6058B8762E0888D0E946104FC
:1010000010926504809364048E899F89DC01ED91C0
:10101000FC910284F385E02D199500E0182F8E894C
:101020009F89DC01ED91FC910284F385E02D1995F7
:10103000802B912BDF91CF911F910F9108951F93DA
:10104000CF93DF93EC01162F888D0E9483018E8948
:101050009F89DC01ED91FC910190F081E02D60E031
:1010600019958E899F89DC01ED91FC910190F081A9
:10107000E02D612F19958E899F890E94B6058B8777
:1010800061E0888D0E94610410926504809364047D
:101090008E899F89DC01ED91FC910284F385E02D1E
:1010A0001995DF91CF911F9108954F925F926F92A2
:1010B0007F928F929F92AF92BF92CF92DF92EF92E8
:1010C000FF92CF93DF936A017B0120EBC21A21E1EB
:1010D000D20AE108F10821EEC21628ECD20620E17E
:1010E000E206F10408F0ECC0EC0160E670E00E945A
:1010F0001F08B82E2E8D3F8D50E040E060E070E07C
:1011000080E090E40E94BD15A0E0B9E00E94F615D1
:101110009B01AC01A6E05695479537952795AA9572
:10112000D1F7B394BB0CAB2DB0E00E94F6152B01A8
:101130003C01B6E07694679457944794BA95D1F7FA
:101140004B015C0187E0B694A794979487948A95A5
:10115000D1F7C501B4017058814C9F4FA301920192
:101160000E94BD152F3F31054105510529F020F0A2
:101170002FEF30E040E050E0422F6BE470E0CE0112
:101180000E94DC06C501B401705F8F4F9F4FA30121
:1011900092010E94BD15CA01B9010E94D103AC01A0
:1011A0006AE570E0CE010E949D06F694E794D7941C
:1011B000C7949CE0CC0CDD1CEE1CFF1C9A95D1F76B
:1011C000C501B4016C0D7D1D8E1D9F1DA3019201F3
:1011D0000E94BD15CA01B9010E94D103AC016EE5A0
:1011E00070E0CE010E949D0663E670E0CE010E9491
:1011F0001F08B82E2E8D3F8D50E040E060E070E07B
:1012000080E090E40E94BD15A0E0B9E00E94F615D0
:101210009B01AC0166E056954795379527956A95F1
:10122000D1F7B394BB0CAB2DB0E00E94F6152B01A7
:101230003C01E6E07694679457944794EA95D1F799
:101240004B015C01F7E0B694A79497948794FA95C4
:10125000D1F7C501B401705F8F4F9F4FA301920179
:101260000E94BD15CA01B9010E94D103AC016CE511
:1012700070E0CE010E949D06C701B601680D791D80
:101280008A1D9B1DA30192010E94BD15CA01B901CF
:101290000E94D103AC0161E670E0CE010E949D0680
:1012A00081E0DF91CF91FF90EF90DF90CF90BF90E2
:1012B000AF909F908F907F906F905F904F90089528
:1012C00080E0EFCFCF92DF92EF92FF920F931F93C8
:1012D000CF93DF9387E392E00E94A90786E8E82E88
:1012E00084E0F82E96E6C92E94E0D92E0AE814E0A0
:1012F000C1E0D0E081E093E00E94A907CE010E9406
:10130000B90783E692E00E94A907F701808188234C
:1013100009F440C0F8016081718190E080E04AE00A
:101320000E94650781E093E00E94A907CE010E9418
:10133000B90788E692E00E94A907F70181917F0131
:1013400090E00E94B90781E093E00E94A907CE01D6
:101350000E94B90780E792E00E94A907F601619117
:101360007191819191916F014AE00E9465072196E8
:101370000E5F1F4FC530D10509F0BCCF84E392E06A
:10138000DF91CF911F910F91FF90EF90DF90CF9061
:101390000C9458078FEF9FEF0E94B907C3CF85EDDC
:1013A0008093BC0080914E0590914F05A09150050F
:1013B000B09151050796A11DB11D23E0B695A795E3
:1013C000979587952A95D1F72091BC0024FD03C0FD
:1013D00010924C05089540914E0550914F05609133
:1013E000500570915105452B462B472B69F300970B
:1013F000A105B10541F02AE22A95F1F700C0019755
:10140000A109B109E1CF80914D050C9440041F92D0
:101410000F920FB60F9211242F933F938F939F93A8
:10142000AF93BF938091FE049091FF04A0910005BB
:10143000B09101053091FD0423E0230F2D3758F5BD
:101440000196A11DB11D2093FD048093FE0490938D
:10145000FF04A0930005B0930105809102059091CF
:101460000305A0910405B09105050196A11DB11DCC
:101470008093020590930305A0930405B09305059E
:10148000BF91AF919F918F913F912F910F900FBE80
:101490000F901F90189526E8230F0296A11DB11DED
:1014A000D2CF1F920F920FB60F9211240BB60F924C
:1014B0002F933F934F935F936F937F938F939F935C
:1014C000AF93BF93EF93FF9386E595E00E941103DE
:1014D000FF91EF91BF91AF919F918F917F916F910C
:1014E0005F914F913F912F910F900BBE0F900FBEC8
:1014F0000F901F9018951F920F920FB60F92112404
:101500000BB60F922F938F939F93EF93FF93E091DE
:101510006605F09167058081E0916C05F0916D059D
:1015200082FD1DC0908180916F058F5F8F73209128
:101530007005821741F0E0916F05F0E0EA5AFA4F2A
:10154000958F80936F05FF91EF919F918F912F91D0
:101550000F900BBE0F900FBE0F901F9018958081BB
:10156000F2CF1F920F920FB60F9211240BB60F926B
:101570002F933F934F935F936F937F938F939F939B
:10158000AF93BF93EF93FF938091B900887F80362C
:1015900009F44DC008F040C0883209F4A9C028F50C
:1015A000803109F49DC0C8F4882309F4FBC0883059
:1015B00009F496C0FF91EF91BF91AF919F918F91E8
:1015C0007F916F915F914F913F912F910F900BBE43
:1015D0000F900FBE0F901F901895883109F488C0A6
:1015E000803241F780932A0514C0803409F49DC0ED
:1015F00040F48033B9F38833E9F680932A0585EC0B
:10160000B0C0803509F485C0883509F496C08834A7
:1016100089F60E94CF09CECF883909F48CC038F5FD
:10162000883729F050F4883611F0803719F683E0B6
:1016300080934C0510925E0457C0883809F47BC033
:10164000803919F0803809F0B5CF80915E0480327E
:1016500008F071C0E0915E0481E08E0F80935E041B
:101660008091BB00F0E0E25CFB4F80833DC0803B9B
:1016700039F0E0F4803A09F479C0883A09F09ACF59
:1016800084E080934C0510923D0410923C04E0915C
:101690006104F0916204199580913C0481110FC09E
:1016A00081E080933C0410921C0409C0803C09F442
:1016B000A6CF883C09F4A3CF883B09F07BCFE0910B
:1016C0003D0481E08E0F80933D04F0E0E45EFB4F2B
:1016D00080818093BB0090913D0480913C0429C09F
:1016E000809127058093BB0085EC8093BC0062CF7E
:1016F0009091290580912805981758F5E0912905C2
:1017000081E08E0F80932905F0E0EA5FFA4F808137
:10171000E9CFE091290581E08E0F80932905809122
:10172000BB00F0E0EA5FFA4F808390912905809139
:1017300028059817C8F285E8D8CFE091290581E0FF
:101740008E0F809329058091BB00F0E0EA5FFA4F8D
:10175000808380912B0581115CCF81E080932605E9
:1017600084EA8093BC0010924C0524CF85EC8093D2
:10177000BC0010924C0580915E04803230F4E09100
:101780005E04F0E0E25CFB4F108260915E0470E06A
:10179000E0915F04F09160048EE394E0199510925B
:1017A0005E0408CF10922A0534CF1092590510928A
:1017B000580588EE93E0A0E0B0E080935A0590933E
:1017C0005B05A0935C05B0935D0524E132E03093A6
:1017D00057052093560525EC30E0309363052093A0
:1017E000620524EC30E0309365052093640520EC1D
:1017F00030E0309367052093660521EC30E03093AC
:1018000069052093680522EC30E030936B05209346
:101810006A0526EC30E030936D0520936C0510923C
:101820006F0510927005109271051092720510925A
:10183000F6051092F5058093F7059093F805A093AF
:10184000F905B093FA0586E292E09093F40580934F
:10185000F305EFEFF5E043EF55E029E283E090E098
:10186000578B468B208F128E118E138E12A213A2CD
:1018700014A296A385A3B79636E0EB39F30781F758
:101880000895CF93DF93CDB7DEB72C970FB6F894BA
:10189000DEBF0FBECDBF789484B5826084BD84B5B1
:1018A000816084BD85B5826085BD85B5816085BD5B
:1018B00080916E00816080936E0010928100809113
:1018C000810082608093810080918100816080939B
:1018D0008100809180008160809380008091B100C0
:1018E00084608093B1008091B00081608093B000EB
:1018F000809191008260809391008091910081603D
:1019000080939100809190008160809390008091FD
:10191000A10082608093A1008091A10081608093EA
:10192000A1008091A00081608093A000809121019E
:101930008260809321018091210181608093210147
:101940008091200181608093200180917A008460E1
:1019500080937A0080917A00826080937A008091EF
:101960007A00816080937A0080917A008068809309
:101970007A001092C100E0916605F091670582E05F
:101980008083E0916205F09163051082E091640527
:10199000F091650580E1808310926E05E0916A0503
:1019A000F0916B0586E08083E0916805F091690510
:1019B000808180618083E0916805F0916905808174
:1019C00088608083E0916805F09169058081806876
:1019D0008083E0916805F091690580818F7D808327
:1019E00088E092E09A83898324E0E22E22E0F22EBE
:1019F00000E012E03CE0C32E32E0D32EA981BA8190
:101A00008D91BA83A9830E948D01F70181917F0195
:101A10000E948D01D8018D918D010E948D01E98177
:101A2000FA81CE16DF0651F70E942F076CED75E0A4
:101A300080E090E00E945D0286E792E00E94AB07A2
:101A4000109265041092640410925305109252058E
:101A50000E9422048BE992E09093620480936104D7
:101A60008CE992E09093600480935F0488E4809313
:101A7000B8001092630488EA91E6A0E0B0E0809399
:101A80004E0590934F05A0935005B093510581E00A
:101A900080934D0580E70E94830160E083EF95E02D
:101AA0000E94870583EF95E00E94B605882309F41C
:101AB000E3C083EB92E00E94AB07F7E27F2E66243F
:101AC0006394A7E02A2EB2E03B2E812C912CA12C0E
:101AD0001AE0B12E0E942F070E948F0200919304FA
:101AE000109194042091950430919604601B710B21
:101AF000820B930B6A3071058105910508F492C041
:101B00000E948F02609393047093940480939504D1
:101B100090939604E09092040E2D10E0F801E45F9B
:101B2000FD4F8081883008F07FC60E94110788230E
:101B300009F47AC6E79C70011124C70181509A4FBD
:101B40007C010E948F02D7015D967C936E935C9717
:101B5000FA82E9826701F9E1CF0ED11C27012CE15D
:101B6000420E511C61E370E0C7010E941F0880FF14
:101B7000E4C3D6018D919C91892BA1F30E948F0221
:101B8000F20120813181AB01421B530BD6018D91B3
:101B90009C918417950730F7E981FA81638E90E074
:101BA00080E0709EF001719EF00D1124E150FA4F1B
:101BB000238D138E211138C62281211135C69C0137
:101BC00021503109203A3F4008F02EC6F801EE0FAF
:101BD000FF1FE657FB4F91838083F801EA57FB4FC5
:101BE00060820E948F02000F111F000F111FF80169
:101BF000EA58FB4F6083718382839383F801EA592B
:101C0000FB4F80819181A281B3810196A11DB11DFD
:101C100080839183A283B383809192048F5F8370CA
:101C20008093920486E595E00E94FB02181619063F
:101C30000CF086C686E595E00E94D9028D3091F3BE
:101C40002091F7043091F8048A3009F061C6F90157
:101C5000E956FB4F1082232B09F411C663E473E0AD
:101C600087E994E00E945216892B09F0FEC588E4AA
:101C700093E00E94AB0703C68CE092E09A878987C5
:101C8000AFEFB5E0BC87AB8722242394312C812CA5
:101C9000912CA12C90E4B92EE985FA851191FA874F
:101CA000E987183008F061C0812F0E94110788234E
:101CB00009F45BC062E370E080E090E00E945D02A6
:101CC000E4EFF1E0AB85BC855A96FC93EE9359970F
:101CD0006FE071E0CD010E94D9078C3C9A4E09F06B
:101CE00044C040E070E060E08B859C850E94DC068B
:101CF0008BE891E00197F1F741E070E060E08B85BF
:101D00009C850E94DC0661E070E080E090E00E942B
:101D10005D020E948F02AB85BC855D967C936E93BD
:101D20005C9765EE70E08B859C850E941F0880FFA4
:101D300005C0EB85FC858385882341F1AB85BC8597
:101D400059968D919C91892B61F30E948F02EB85AE
:101D5000FC85248D358DAB01421B530B818D928DFB
:101D600084179507F0F681E0838F85EF92E00E945B
:101D7000A907C1010E94B9078CEE92E00E94A90751
:101D8000612F70E090E080E04AE0C1C26EE270E056
:101D90008B859C850E941F08482F41606EE270E091
:101DA0008B859C850E94DC0666E070E08B859C85B7
:101DB0000E94D907AB85BC855F969C938E935E97F6
:101DC0006EED70E0CD010E94D907EB85FC8591A3F3
:101DD00080A340E05AE064E270E0CF010E949D06DB
:101DE00042E061E370E08B859C850E94DC0648E060
:101DF00066E370E08B859C850E94DC0640E167E32A
:101E000070E08B859C850E94DC0641E069E370E010
:101E10008B859C850E94DC064FEF6EE370E08B851E
:101E20009C850E94DC0640E06FE370E08B859C851A
:101E30000E94DC0642E060E470E08B859C850E9495
:101E4000DC0650E040E060E570E08B859C850E94F8
:101E50009D0650E040E062E570E08B859C850E9425
:101E60009D0648E367E570E08B859C850E94DC0653
:101E700048E651E064E670E08B859C850E949D06F3
:101E800040EC50E066E670E08B859C850E949D06E4
:101E900041E061E770E08B859C850E94DC0641E0B3
:101EA0006CE770E08B859C850E94DC0642E06EE763
:101EB00070E08B859C850E94DC0640E062E870E063
:101EC0008B859C850E94DC0641E067E770E08B858E
:101ED0009C850E94DC064BE861E870E08B859C8560
:101EE0000E94DC0640E058EC64E570E08B859C8540
:101EF0000E949D0642E06FE470E08B859C850E9405
:101F0000DC0660E670E08B859C850E941F08082F28
:101F1000AB85BC855E962D913C9150E040E0C501BB
:101F2000B4010E94BD15A0E0B9E00E94F6159B0126
:101F3000AC01A6E05695479537952795AA95D1F718
:101F40000F5F000FA02FB0E00E94F6156B017C011F
:101F50006EE570E08B859C850E94D907AC01552702
:101F600070E060E004C0440F551F661F771F9A950C
:101F7000D2F7CB01BA016F5F7F4F8F4F9F4FA70101
:101F80009601B6E05695479537952795BA95D1F7BE
:101F90000E940116385F4F4F5F4F6F4F7F4F8F4F3B
:101FA0009F4F0CE00E942E1629833A834B835C835B
:101FB0006D837E838F839887C980DA80EB80FC8075
:101FC000B8EDCB0EB8E0DB1EE11CF11CCC0CDD1C27
:101FD000EE1CFF1C4FE060E670E08B859C850E9444
:101FE000DC064DE063E670E08B859C850E94DC0694
:101FF00048EB69E670E08B859C850E94DC064FE02B
:1020000068E770E08B859C850E94DC064DE069E7FF
:1020100070E08B859C850E94DC064EE06AE770E0EC
:102020008B859C850E94DC064EE06BE770E08B851B
:102030009C850E94DC06E1EBCE16E1E1DE06E104C0
:10204000F10430F0B701A6018B859C850E945508EC
:10205000E2E0F0E0AB85BC859696FC93EE93959715
:1020600040E553EC60E070E0CD010E94550862E26B
:1020700070E08B859C850E94D907AC01440F551FE9
:10208000440F551F6EE170E08B859C850E949D0674
:1020900060E670E08B859C850E941F08082FAB8549
:1020A000BC855E962D913C9150E040E0C501B401A5
:1020B0000E94BD15A0E0B9E00E94F6159B01AC019D
:1020C00066E056954795379527956A95D1F70F5F46
:1020D000000FA02FB0E00E94F6156B017C016EE5A9
:1020E00070E08B859C850E94D907AC01552770E074
:1020F00060E004C0440F551F661F771F9A95D2F702
:10210000CB01BA016F5F7F4F8F4F9F4FA7019601A1
:10211000E6E05695479537952795EA95D1F70E94C1
:102120000116385F4F4F5F4F6F4F7F4F8F4F9F4F5D
:102130000CE00E942E1629833A834B835C836D83C7
:102140007E838F839887C980DA80EB80FC80B8ED2E
:10215000CB0EB8E0DB1EE11CF11CCC0CDD1CEE1C30
:10216000FF1C47E060E670E08B859C850E94DC06E2
:1021700045E063E670E08B859C850E94DC0648E3C1
:1021800069E670E08B859C850E94DC0647E068E785
:1021900070E08B859C850E94DC0645E069E770E075
:1021A0008B859C850E94DC0646E06AE770E08B85A3
:1021B0009C850E94DC0646E06BE770E08B859C8581
:1021C0000E94DC06E1EBCE16E1E1DE06E104F1045B
:1021D00030F0B701A6018B859C850E945508AB8520
:1021E000BC8596961C921E92959740E553EC60E054
:1021F00070E0CD010E945508412E512C712C612CAC
:10220000882309F4B2CDEB85FC8520A131A1ACE394
:10221000B0E00E94E7156B017C01808D0E94830174
:10222000AB85BC8556968D919C91DC01ED91FC911E
:102230000190F081E02D60E01995EB85FC858689A1
:102240009789DC01ED91FC910190F081E02D6CE625
:102250001995EB85FC8586899789DC01ED91FC91C8
:102260000190F081E02D60E01995EB85FC85A68951
:10227000B789B70188279927ED91FC9111970190B3
:10228000F081E02DCD011995EB85FC85A689B789F4
:1022900099278F2D7E2D6D2DED91FC911197019039
:1022A000F081E02DCD011995AB85BC8556968D91B9
:1022B0009C91DC01ED91FC910190F081E02D6C2D61
:1022C0001995EB85FC85868997890E94B605AB85B3
:1022D000BC851B968C931B9741E066E870E0CD01AE
:1022E0000E94DC0640E467E870E08B859C850E94D4
:1022F000DC068DED92E00E94A907C1010E94B9079A
:102300008CEE92E00E94A9074AE0C301B2010E944C
:10231000650784E392E00E945807BFEF2B1A3B0A3F
:10232000EB85FC85B796FC87EB87F5E02F1631042B
:1023300009F0B2CC84E093E0BECB709EC001719EE8
:10234000900D112481509A4F9A838983DC0158960D
:102350008C910E948301E981FA8186899789DC0149
:10236000ED91FC910190F081E02D60E01995E981FB
:10237000FA8186899789DC01ED91FC910190F081C9
:10238000E02D69E81995E981FA81868997890E948B
:10239000B605A981BA811B968C931B9761E158966B
:1023A0008C910E9461041092650480936404E98119
:1023B000FA8186899789DC01ED91FC910284F3858D
:1023C000E02D1995E981FA81848786899789DC0156
:1023D000ED91FC910284F385E02D1995E981FA8154
:1023E00086899789DC01ED91FC910284F385E02DCB
:1023F0001995E981FA81858786899789DC01ED91B4
:10240000FC910284F385E02D1995E981FA81168605
:10241000878786899789DC01ED91FC910284F38599
:10242000E02D1995E981FA8126853785822B932B3A
:102430009787868786899789DC01ED91FC910284D4
:10244000F385E02D1995E981FA8186899789DC0168
:10245000ED91FC910284F385E02D1995E981FA81D3
:1024600086899789DC01ED91FC910284F385E02D4A
:102470001995E981FA81108A818B86899789DC0117
:10248000ED91FC910284F385E02D1995E981FA81A3
:1024900020893189822B932B918B808B8689978918
:1024A000DC01ED91FC910284F385E02D1995E98121
:1024B000FA8186899789DC01ED91FC910284F3858C
:1024C000E02D1995E981FA8186899789DC01ED91E2
:1024D000FC910284F385E02D1995E981FA818689C2
:1024E0009789DC01ED91FC910284F385E02D19952B
:1024F000E981FA8186899789DC01ED91FC9102845A
:10250000F385E02D1995E981FA81128A838B8689FA
:102510009789DC01ED91FC910284F385E02D1995FA
:10252000E981FA8122893389822B932B938B828BC9
:1025300086899789DC01ED91FC910284F385E02D79
:102540001995E981FA81148A858B86899789DC013E
:10255000ED91FC910284F385E02D1995E981FA81D2
:1025600024893589822B932B958B848B82A18111B1
:1025700037C06BE070E0C7010E941F08A981BA81D3
:1025800093968C9368E070E0C7010E941F08E98170
:10259000FA8184A343A14F776BE070E0C7010E94EA
:1025A000DC06A981BA8194964C914370445F68E03F
:1025B00070E0C7010E94DC0641E06DE470E0C701F5
:1025C0000E94DC0668ED70E0C7010E941F08482FDA
:1025D00067E470E0C7010E94DC06E981FA8162A22B
:1025E000709EF001719EF00D1124E150FA4F268586
:1025F00037852115310509F46CC084899589408996
:10260000518970E060E0480F591F611D711D41152F
:102610005105F1E06F07710520F04FEF5FEF60E0CB
:1026200070E0CA017727662750E040E00E94BD15A0
:10263000211531054105510509F44BC0C501B4010F
:102640000E94BD152115310581E04807510520F094
:102650002FEF3FEF40E050E0A90164E570E0C701D3
:102660000E949D06709EF001719EF00D1124E150B4
:10267000FA4F22893389ABEDB7E00E94E7157C5F02
:102680008F4F9F4F4BE096958795779567954A9525
:10269000D1F771836083E485E150E23108F0BAC07C
:1026A000F0E08827E95AFC4E8F4F0C94DF156C132D
:1026B0006C136C13CC13C313D513DE13F113FB137C
:1026C0000A140A14E713B1130A140A140A146C1337
:1026D000BA1340E050E8C1CF709EF001719EF00D3A
:1026E0001124E150FA4F85E08283709EC001719EF3
:1026F000900D112481509A4F9A838983DC0154965E
:102700006D917C9190E080E00E94C21420E030E066
:1027100040E05CE30E94FF14E981FA8163837483E3
:10272000858396836089718990E080E00E94C2145D
:1027300020E030E040E05CE30E94FF14A981BA8110
:1027400017966D937D938D939C931A9741E066E85D
:1027500070E0C7010E94DC06E981FA8180819181E5
:1027600020CA709EF001719EF00D1124E150FA4FC5
:102770008DE0BACF709EF001719EF00D1124E150F2
:10278000FA4F8AE0B1CF709EF001719EF00D1124D6
:10279000E150FA4F84E0A8CF709EF001719EF00DD9
:1027A0001124E150FA4F3282A0CF709EF001719E49
:1027B000F00D1124E150FA4F628297CF709EF00124
:1027C000719EF00D1124E150FA4F22828ECF709E3F
:1027D000F001719EF00D1124E150FA4F99E09283BF
:1027E00084CF709EF001719EF00D1124E150FA4FDC
:1027F000A3E0A2837ACF709EF001719EF00D1124A8
:10280000E150FA4F8585811103C0B6E0B2836DCFE8
:1028100012826BCF709EF001719EF00D1124E15079
:10282000FA4F2FEF228361CFF801EE0FFF1FEE0F5B
:10283000FF1FEA58FB4FC080D180E280F380C114B3
:10284000D104E104F10429F4F801EA57FB4F1082A6
:10285000E3C90E948F026C197D098E099F09613BB3
:1028600074408105910580F7D7C967E673E087E971
:1028700094E00E945216892B39F40E94620910924A
:10288000F8041092F704CEC96FE673E087E994E08C
:102890000E945216892B41F06EE673E087E994E0BE
:1028A0000E945216892B29F40E942F0784E793E097
:1028B000E0C94AE050E065E973E087E994E00E94EE
:1028C0005B16892BA1F044E050E060EA73E087E9F1
:1028D00094E00E945B16892B51F043E050E065EADA
:1028E00073E087E994E00E945B16892B29F40E942B
:1028F0002F0789EA93E0BDC965EC73E087E994E0AE
:102900000E945216892B09F4B8CF82ED93E0B1C929
:102910002F35310560F4A9014F5F5F4F5093F804E4
:102920004093F70429563B4FD9018C937BC91092F1
:10293000F8041092F70486EE93E00E94AB0772C988
:102940000E948F020091F9041091FA042091FB0477
:102950003091FC04601B710B820B930B643F714040
:102960008105910560F00E948F026093F9047093D5
:10297000FA048093FB049093FC040E9462090E9475
:10298000A003A8C8E89409C097FB3EF490958095F1
:10299000709561957F4F8F4F9F4F9923A9F0F92F25
:1029A00096E9BB279395F695879577956795B795A3
:1029B000F111F8CFFAF4BB0F11F460FF1BC06F5F89
:1029C0007F4F8F4F9F4F16C0882311F096E911C09B
:1029D000772321F09EE8872F762F05C0662371F0BC
:1029E00096E8862F70E060E02AF09A95660F771FD0
:1029F000881FDAF7880F9695879597F908950E94B2
:102A000012150C9483150E94751538F00E947C15E0
:102A100020F0952311F00C946C150C947215112470
:102A20000C94B7150E94941570F3959FC1F3950F00
:102A300050E0551F629FF001729FBB27F00DB11D42
:102A4000639FAA27F00DB11DAA1F649F6627B00DD2
:102A5000A11D661F829F2227B00DA11D621F739FBB
:102A6000B00DA11D621F839FA00D611D221F749FC9
:102A70003327A00D611D231F849F600D211D822F10
:102A8000762F6A2F11249F5750409AF0F1F0882337
:102A90004AF0EE0FFF1FBB1F661F771F881F915064
:102AA0005040A9F79E3F510580F00C946C150C9492
:102AB000B7155F3FE4F3983ED4F386957795679515
:102AC000B795F795E7959F5FC1F7FE2B880F911D8E
:102AD0009695879597F9089597F99F6780E870E034
:102AE00060E008959FEF80EC089500240A94161684
:102AF000170618060906089500240A9412161306EC
:102B0000140605060895092E0394000C11F4882379
:102B100052F0BB0F40F4BF2B11F460FF04C06F5F95
:102B20007F4F8F4F9F4F089557FD9058440F551F6B
:102B300059F05F3F71F04795880F97FB991F61F03F
:102B40009F3F79F087950895121613061406551FB6
:102B5000F2CF4695F1DF08C0161617061806991F22
:102B6000F1CF86957105610508940895E894BB2717
:102B700066277727CB0197F90895A1E21A2EAA1BA1
:102B8000BB1BFD010DC0AA1FBB1FEE1FFF1FA2171D
:102B9000B307E407F50720F0A21BB30BE40BF50B1A
:102BA000661F771F881F991F1A9469F760957095A3
:102BB000809590959B01AC01BD01CF010895EE0F6A
:102BC000FF1F881F8BBF0790F691E02D1994A29FDD
:102BD000B001B39FC001A39F700D811D1124911DF1
:102BE000B29F700D811D1124911D08950E94E7155B
:102BF000A59F900DB49F900DA49F800D911D112451
:102C00000895E894DF93CF93FC01DB010E94E71560
:102C10007F936F93E9019A01AC01BF93AF933F9308
:102C20002F93DF010E94E71526F46C1B7D0B820BAE
:102C3000930B9E01EB01FC010E944916AF91BF91DD
:102C40002F913F910E944916BE01CF01F9012F91AA
:102C50003F91CF91DF91089597FD1094002E083099
:102C600098F00850232F342F452F562F672F782F99
:102C7000892F912DF4CF1594979587957795679522
:102C800057954795379527950A95AAF71124002D52
:102C900008950E94E715460F571FC81FD91F08F453
:102CA00031960895FB01DC018D910190801901108E
:102CB000D9F3990B0895FB01DC014150504030F0ED
:102CC0008D910190801919F40020B9F7881B990B98
:102CD0000895F894FFCF1E1F202117191B1D1618E9
:102CE0001A1C000102030000000033039D02CA0207
:102CF0008003FB02D902ED020000000087055A059F
:102D00000E0730055305400531050D0A004C414EB4
:102D10004445525F535441545553206D6F64653D93
:102D2000444941474E4F535449435F4D4F54494FD7
:102D30004E5F4C4F434B4544005F6D6D3D005F76E9
:102D4000616C69643D005F7665723D004D454741A9
:102D50005F4C414E4445525F444941474E4F5354A6
:102D600049435F563120424F4F54204D4F54494FF5
:102D70004E5F4C4F434B454420414C4C5F4F5554A4
:102D8000505554535F4C4F57004641554C542054B6
:102D9000434139353438415F4E4F545F44455445C3
:102DA00043544544204D4F54494F4E5F4C4F434B85
:102DB00045440053454E534F525F524541445920BC
:102DC0004100205443415F43483D0053454E534F1B
:102DD000525F4641554C54204100524541445920D0
:102DE000434F4D4D414E44533D50494E472C535453
:102DF000415455532C53544F502C4553544F50204D
:102E00004D4F54494F4E5F434F4D4D414E44533DFE
:102E100052454A45435445440050494E4700504F9F
:102E20004E47204D4547415F4C414E4445525F441B
:102E30004941474E4F535449435F56310053544123
:102E4000545553004553544F50004F4B204D4F5451
:102E5000494F4E5F4C4F434B454420414C4C5F4FD4
:102E60005554505554535F4C4F57005345545F547D
:102E70004152474554004D4F56450041524D004583
:102E80005252204D4F54494F4E5F44495341424C9A
:102E900045445F53544147455F41004745545F44B3
:102EA000495354414E43450045525220554E4B4ED6
:102EB0004F574E5F434F4D4D414E440045525220B7
:102EC000434F4D4D414E445F544F4F5F4C4F4E4723
:022ED000000000
:020000040003F7
:10E000000D9489F10D94B2F10D94B2F10D94B2F129
:10E010000D94B2F10D94B2F10D94B2F10D94B2F1F0
:10E020000D94B2F10D94B2F10D94B2F10D94B2F1E0
:10E030000D94B2F10D94B2F10D94B2F10D94B2F1D0
:10E040000D94B2F10D94B2F10D94B2F10D94B2F1C0
:10E050000D94B2F10D94B2F10D94B2F10D94B2F1B0
:10E060000D94B2F10D94B2F10D94B2F10D94B2F1A0
:10E070000D94B2F10D94B2F10D94B2F10D94B2F190
:10E080000D94B2F10D94B2F10D94B2F10D94B2F180
:10E090000D94B2F10D94B2F10D94B2F10D94B2F170
:10E0A0000D94B2F10D94B2F10D94B2F10D94B2F160
:10E0B0000D94B2F10D94B2F10D94B2F10D94B2F150
:10E0C0000D94B2F10D94B2F10D94B2F10D94B2F140
:10E0D0000D94B2F10D94B2F10D94B2F10D94B2F130
:10E0E0000D94B2F141546D656761323536300041AF
:10E0F000726475696E6F206578706C6F72657220DE
:10E1000073746B3530305632206279204D4C530099
:10E11000426F6F746C6F616465723E004875683F52
:10E1200000436F6D70696C6564206F6E203D200048
:10E130004350552054797065202020203D20005FF9
:10E140005F4156525F415243485F5F3D2000415658
:10E1500052204C696243205665723D20004743437C
:10E160002056657273696F6E203D20004350552024
:10E1700049442020202020203D20004C6F7720663D
:10E18000757365202020203D20004869676820665F
:10E190007573652020203D200045787420667573D6
:10E1A00065202020203D20004C6F636B2066757336
:10E1B000652020203D20004D617220203720323024
:10E1C000313300312E362E3800342E332E350056A2
:10E1D00023202020414444522020206F7020636F70
:10E1E00064652020202020696E73747275637469E1
:10E1F0006F6E2061646472202020496E74657272B3
:10E20000757074006E6F20766563746F7200726A49
:10E210006D702020006A6D70200057686174207056
:10E220006F72743A00506F7274206E6F7420737541
:10E2300070706F72746564004D7573742062652030
:10E2400061206C6574746572002000577269747483
:10E25000696E672045450052656164696E672045B7
:10E26000450045452065727220636E743D00504F35
:10E27000525400303D5A65726F2061646472003FF1
:10E280003D43505520737461747300403D454550C3
:10E29000524F4D207465737400423D426C696E6B41
:10E2A000204C454400453D44756D70204545505215
:10E2B0004F4D00463D44756D7020464C415348001B
:10E2C000483D48656C70004C3D4C69737420492F83
:10E2D0004F20506F72747300513D51756974005234
:10E2E0003D44756D702052414D00563D73686F7707
:10E2F00020696E7465727275707420566563746FF0
:10E30000727300593D506F727420626C696E6B00BD
:10E310002A0011241FBECFEFD1E2DEBFCDBF01E046
:10E320000CBF12E0A0E0B2E0EEE1FDEF03E00BBFB6
:10E3300002C007900D92A030B107D9F712E0A0E01B
:10E34000B2E001C01D92AE30B107E1F70F9460F367
:10E350000D948DFE01E20EBF0FEF0DBF11241FBE05
:10E360000D9460F30D9400F020E030E040ED57E0B4
:10E3700005C0FA013197F1F72F5F3F4F2817390792
:10E38000C0F308959C01260F311DC901A0E0B0E043
:10E390002F5F3F4FABBFFC018791882361F08093D3
:10E3A000C6008091C00086FFFCCF8091C0008064D1
:10E3B0008093C000EACF08958DE08093C6008091DD
:10E3C000C00086FFFCCF8091C00080648093C000B5
:10E3D0008AE08093C6008091C00086FFFCCF8091C8
:10E3E000C00080648093C00008950F94C2F10F9420
:10E3F000DCF10895FC019081992359F09093C600B7
:10E400008091C00086FFFCCF8091C0008064809323
:10E41000C0003196992379F70895282F982F929567
:10E420009F70892F805D8A3308F0895F8093C600D2
:10E430008091C00086FFFCCF8091C00080648093F3
:10E44000C000822F8F70982F905D9A3308F0995FEB
:10E450009093C6008091C00086FFFCCF8091C000E1
:10E4600080648093C00008959C01FB01853691056E
:10E470001CF46330710594F0C90164E670E00F94F8
:10E480002EFE605D7F4F6093C6008091C00086FFC6
:10E49000FCCF8091C00080648093C0002B30310598
:10E4A00014F43297B4F0C90164E670E00F942EFEC4
:10E4B0006AE070E00F942EFE605D7F4F6093C600AF
:10E4C0008091C00086FFFCCF8091C0008064809363
:10E4D000C000C9016AE070E00F942EFEC0968093E0
:10E4E000C6008091C00086FFFCCF8091C000806490
:10E4F0008093C00008951F93182F8EE692EE60E07F
:10E500000F94C2F11093C6008091C00086FFFCCF2B
:10E510008091C00080648093C0000F94DCF11F9153
:10E5200008952F923F924F925F926F927F928F92B7
:10E530009F92AF92BF92CF92DF92EF92FF920F9392
:10E540001F93DF93CF93CDB7DEB762970FB6F894E2
:10E55000DEBF0FBECDBF382E622ECA01DB015C01CB
:10E560006D01772420E2222E2E010894411C511CBB
:10E570008BC081E0A81680E0B80681E0C80680E084
:10E58000D80628F0C601AA27BB270F940DF2BB2797
:10E59000AD2D9C2D8B2D0F940DF28A2D0F940DF225
:10E5A0002092C6008091C00086FFFCCF8091C00001
:10E5B00080648093C0009DE29093C6008091C0006B
:10E5C00086FFFCCF8091C00080648093C0002092C1
:10E5D000C6008091C00086FFFCCF8091C00080649F
:10E5E0008093C00019828601750188249924A1E0D6
:10E5F0003A1651F03A1620F0B2E03B1661F409C029
:10E600000BBFF701779007C0C7010F9477FE782EF4
:10E6100002C0F7017080872D0F940DF22092C60082
:10E620008091C00086FFFCCF8091C0008064809301
:10E63000C000872D8052F401EF70F0708F3520F408
:10E64000E40DF51D708204C0E40DF51D8EE280839B
:10E650000894E11CF11C011D111D0894811C911CE2
:10E6600090E18916910409F0C2CF80E190E0A0E02A
:10E67000B0E0A80EB91ECA1EDB1E198AC2010F9493
:10E68000FAF10F94DCF16A94662009F072CF629679
:10E690000FB6F894DEBF0FBECDBFCF91DF911F91B3
:10E6A0000F91FF90EF90DF90CF90BF90AF909F9031
:10E6B0008F907F906F905F904F903F902F90089534
:10E6C0002F923F924F925F926F927F928F929F9282
:10E6D000AF92BF92CF92DF92EF92FF920F931F9370
:10E6E000DF93CF93CDB7DEB7CD53D1400FB6F894BB
:10E6F000DEBF0FBECDBF01E20EBF0FEF0DBF94B75F
:10E70000F894A89514BE80916000886180936000A1
:10E7100010926000789493FF05C0E0910002F091A0
:10E7200001021995279A2F9A8091C00082608093E8
:10E73000C00080E18093C40088E18093C1000000A4
:10E74000EE24FF24870144E0A42EB12CCC24DD2448
:10E7500024C0C5010197F1F70894E11CF11C011DCB
:10E76000111D21E2E2162EE4F20620E0020720E06D
:10E77000120718F031E0C32ED12CC801B70127ECE5
:10E780003BE140E050E00F9441FE611571058105C9
:10E79000910519F485B1805885B98091C00087FD35
:10E7A00003C0C114D104A9F2A6014F5F5F4FC25E3E
:10E7B000DE4F59834883CE51D140C25EDE4F8881FF
:10E7C0009981CE51D140019711F00D9410FEC05D9A
:10E7D000DE4F19821882C053D14060E0C15DDE4F28
:10E7E0001882CF52D14088249924C35DDE4F19820C
:10E7F0001882CD52D140C05EDE4F188219821A8233
:10E800001B82C052D140CE5CDE4F188219821A8220
:10E810001B82C253D140EE24FF2487010BBFF701B6
:10E8200007911691C45CDE4F19830883CC53D14005
:10E830000D940BFEC25EDE4F28813981CE51D1404E
:10E840002130310509F52091C600C25EDE4F1982E4
:10E850001882CE51D14022C02F5F3F4F4F4F5F4FA4
:10E86000213082E138078AE7480780E0580780F0C6
:10E87000C45CDE4FE881F981CC53D140EF5FFF4F9C
:10E8800019F0EE27FF27099420E030E040E050E047
:10E890008091C00087FFE0CF2091C600C35DDE4FAE
:10E8A00048815981CD52D1404F5F5F4FC35DDE4FEC
:10E8B00059834883CD52D140213209F063C64A3092
:10E8C000510508F05FC60894811C911C53E0851621
:10E8D000910409F059C600E010E018C081E280936D
:10E8E000C6008091C00086FFFCCF8091C00080648C
:10E8F0008093C0002F5F3F4F2931310579F70F9486
:10E90000DCF10F5F1F4F0530110519F020E030E0FA
:10E91000E5CF10920A0210920B0210920C02109294
:10E920000D02109206021092070210920802109235
:10E930000902109202021092030210920402109235
:10E9400005028FEE90EE60E00F94F5F180E191EE1C
:10E9500060E00F94C2F18091C00087FFFCCF9091DE
:10E96000C600903608F09F759032B8F09093C600BC
:10E970008091C00086FFFCCF8091C00080648093AE
:10E98000C000A0E2A093C6008091C00086FFFCCF2B
:10E990008091C00080648093C000983409F4D7C18E
:10E9A0009934B8F4923409F459C1933458F490333B
:10E9B00019F1903308F4E3C59F33A1F1903409F0C5
:10E9C000DEC5BDC0953409F470C1963409F0D7C5D1
:10E9D00098C1923509F42BC2933538F49C3409F46C
:10E9E000F5C1913509F0CBC518C2963509F445C279
:10E9F000993509F0C4C567C483E792EE62E00F94CD
:10EA0000F5F110920602109207021092080210927D
:10EA1000090210920A0210920B0210920C0210923C
:10EA20000D0213C18FE792EE62E00F94F5F18FEEC5
:10EA300090EE60E00F94F5F181E291EE60E00F94CA
:10EA4000C2F187EB91EE60E00F94F5F180E391EE77
:10EA500060E00F94C2F184EE90EE60E00F94F5F167
:10EA60008FE391EE60E00F94C2F186E090E061E008
:10EA700070E00F9434F20F94DCF18DE591EE60E0DC
:10EA80000F94C2F189EC91EE60E00F94F5F18EE401
:10EA900091EE60E00F94C2F183EC91EE60E00F9490
:10EAA000F5F18CE691EE60E00F94C2F18EE10F94E7
:10EAB0000DF288E90F940DF281E00F940DF20F949E
:10EAC000DCF18BE791EE60E00F94C2F119E0E0E039
:10EAD000F0E010935700E4918E2F0F940DF20F94F5
:10EAE000DCF18AE891EE60E00F94C2F1E3E0F0E03F
:10EAF00010935700E4918E2F0F940DF20F94DCF1D8
:10EB000089E991EE60E00F94C2F1E2E0F0E0109349
:10EB10005700E4918E2F0F940DF20F94DCF188EAE8
:10EB200091EE60E00F94C2F1E1E0F0E01093570045
:10EB30001491812F0F940DF20F94DCF107CF8BE825
:10EB400092EE62E00F94F5F18BE492EE60E00F94A8
:10EB5000F5F10F94DCF100E010E019C0C8016F2D51
:10EB60000F947FFEFF2031F489E492EE60E00F9471
:10EB7000C2F10BC0F092C6008091C00086FFFCCFAE
:10EB80008091C00080648093C0000F5F1F4FC80158
:10EB900081519F41A0E0B0E0ABBFFC01F790BAE229
:10EBA000FB1621F0E2E000301E07C1F60F94DCF105
:10EBB0000F94DCF187E592EE60E00F94F5F10F948D
:10EBC000DCF1CC24DD2400E010E01EC0C8010F946D
:10EBD00077FEF82E882331F489E492EE60E00F94FA
:10EBE000C2F10BC08093C6008091C00086FFFCCFAD
:10EBF0008091C00080648093C000FE1419F00894D6
:10EC0000C11CD11C0F5F1F4FC80181519F41A0E063
:10EC1000B0E0ABBFFC01E790FAE2EF1621F022E092
:10EC20000030120799F60F94DCF10F94DCF182E6C4
:10EC300092EE60E00F94C2F1C60161E070E00F94C3
:10EC400034F20F94DCF10F94DCF110920202109276
:10EC50000302109204021092050278CE89E992EE26
:10EC600062E00F94F5F1279A2F9A16C02F9880E052
:10EC700090E0E0EDF7E03197F1F7019684369105E9
:10EC8000C1F72F9A80E090E0E0EDF7E03197F1F7DF
:10EC9000019684369105C1F78091C00087FFE6CFC9
:10ECA0008091C00087FFFCCF64C485EA92EE62E0E9
:10ECB0000F94F5F140910202509103026091040219
:10ECC0007091050281E020E10F9491F2809102029F
:10ECD00090910302A0910402B091050280509F4FD1
:10ECE000AF4FBF4F8093020290930302A0930402A0
:10ECF000B093050280509041A040B04008F426CE69
:10ED0000A4CF83EB92EE62E00F94F5F140910602FE
:10ED100050910702609108027091090280E020E1A1
:10ED20000F9491F28091060290910702A09108023F
:10ED3000B091090280509F4FAF4FBF4F80930602A2
:10ED400090930702A0930802B0930902FFCD80ECD4
:10ED500092EE62E00F94F5F183E792EE60E00F949B
:10ED6000F5F18FE792EE60E00F94F5F18BE892EE0B
:10ED700060E00F94F5F189E992EE60E00F94F5F10F
:10ED800085EA92EE60E00F94F5F183EB92EE60E09D
:10ED90000F94F5F180EC92EE60E00F94F5F187ECC2
:10EDA00092EE60E00F94F5F188ED92EE60E00F9442
:10EDB000F5F18FED92EE60E00F94F5F18AEE92EEB0
:10EDC00060E00F94F5F183E093EEBDCD87EC92EE19
:10EDD00062E00F94F5F181E40F947BF282E40F94EA
:10EDE0007BF283E40F947BF284E40F947BF285E45E
:10EDF0000F947BF286E40F947BF287E40F947BF20E
:10EE000088E40F947BF28AE40F947BF28BE40F94F6
:10EE10007BF28CE40F947BF299CD88ED92EE62E068
:10EE20000F94F5F1772473948824992409C48FED05
:10EE300092EE62E00F94F5F140910A0250910B02BC
:10EE400060910C0270910D0282E020E10F9491F22A
:10EE500080910A0290910B02A0910C02B0910D02D8
:10EE600080509F4FAF4FBF4F80930A0290930B0289
:10EE7000A0930C02B0930D0269CD8AEE92EE62E08F
:10EE80000F94F5F184EE90EE60E00F94F5F18FECC5
:10EE900091EE60E00F94F5F1662477244301CC5D98
:10EEA000DE4F19821882C452D140D401C301B695F5
:10EEB000A79597958795CA5DDE4F88839983AA8326
:10EEC000BB83C652D140CC5DDE4FA881B981C4520C
:10EED000D1401196CC5DDE4FB983A883C452D14096
:10EEE000CD0162E070E00F9434F2B0E2B093C6005E
:10EEF0008091C00086FFFCCF8091C0008064809329
:10EF0000C000EDE2E093C6008091C00086FFFCCF18
:10EF10008091C00080648093C000F0E2F093C6004E
:10EF20008091C00086FFFCCF8091C00080648093F8
:10EF3000C000CA5DDE4FE880F9800A811B81C6529D
:10EF4000D140BB27A12F902F8F2D0F940DF2CA5DBA
:10EF5000DE4F8881C652D1400F940DF2B0E2FB2EF5
:10EF6000F092C6008091C00086FFFCCF8091C00067
:10EF700080648093C0000DE30093C6008091C000C0
:10EF800086FFFCCF8091C00080648093C00010E2B7
:10EF90001093C6008091C00086FFFCCF8091C00016
:10EFA00080648093C0008BBEF3012791C65DDE4F65
:10EFB0002883CA52D140A22EBB24CC24DD2408943D
:10EFC000611C711C811C911C8BBEF3018791282E42
:10EFD0003324442455240894611C711C811C911C09
:10EFE0008BBEF3013791C55DDE4F3883CB52D140E4
:10EFF0000894611C711C811C911C8BBEF30147910C
:10F00000C45DDE4F4883CC52D140ADEFEA2EAFEF66
:10F01000FA2EAFEF0A2FAFEF1A2F6E0C7F1C801E57
:10F02000911E142D032DF22CEE24EA0CFB1C0C1D5A
:10F030001D1D0F940DF220E22093C6008091C000A8
:10F0400086FFFCCF8091C00080648093C000C65DC5
:10F05000DE4F8881CA52D1400F940DF230E23093D6
:10F06000C6008091C00086FFFCCF8091C000806404
:10F070008093C000C45DDE4F8881CC52D1400F9494
:10F080000DF240E24093C6008091C00086FFFCCFA5
:10F090008091C00080648093C000C55DDE4F888190
:10F0A000CB52D1400F940DF250E25093C6008091A4
:10F0B000C00086FFFCCF8091C00080648093C000B8
:10F0C0008FEFE8168FEFF80680E0080780E018075A
:10F0D00031F484E092EE60E00F94C2F1DFC0D80119
:10F0E000C7018070907CA070B0708050904CA040A0
:10F0F000B040D1F52FEF3FE340E050E0E222F322B1
:10F1000004231523CA5DDE4FA880B980CA80DB8046
:10F11000C652D140AE0CBF1CC01ED11EAA0CBB1CD7
:10F12000CC1CDD1C8EE092EE60E00F94C2F1BB2798
:10F13000A12F902F8F2D0F940DF28E2D0F940DF285
:10F1400030E23093C6008091C00086FFFCCF8091F2
:10F15000C00080648093C0004EE34093C60080915D
:10F16000C00086FFFCCF87C08EE09EEFA0E0B0E03D
:10F17000E822F9220A231B239CE0E91694E9F90608
:10F1800090E0090790E0190709F088C0C45DDE4FE0
:10F19000A881CC52D140EA2EFF2400E010E0102FCD
:10F1A0000F2DFE2CEE24C55DDE4FB881CB52D14031
:10F1B000EB0EF11C011D111DD601C501817090706F
:10F1C000A070B070DC0199278827E80EF91E0A1F8D
:10F1D0001B1F20EF30E040E050E0A222B322C42207
:10F1E000D52241E1AA0CBB1CCC1CDD1C4A95D1F7F1
:10F1F000EA0CFB1C0C1D1D1D81E090E0A0E0B0E0BE
:10F20000282239224A225B2235E1220C331C441C7D
:10F21000551C3A95D1F7E20CF31C041D151D57013E
:10F220006801AA0CBB1CCC1CDD1C85E192EE60E0E1
:10F230000F94C2F1C801AA27BB270F940DF2BB2778
:10F24000A12F902F8F2D0F940DF28E2D0F940DF274
:10F2500090E29093C6008091C00086FFFCCF809121
:10F26000C00080648093C000AEE3A093C60080918C
:10F27000C00086FFFCCF8091C00080648093C000F6
:10F28000C601AA27BB270F940DF2BB27AD2D9C2DDD
:10F290008B2D0F940DF28A2D0F940DF20F94DCF14B
:10F2A000CC5DDE4FE881F981C452D140F99709F471
:10F2B0004DCBF4E0EF2EF12C012D112D6E0C7F1CA7
:10F2C000801E911EF2CD83E093EE62E00F94F5F183
:10F2D0008AE192EE60E00F94C2F18091C00087FF56
:10F2E000FCCF1091C6001F751093C6008091C0001E
:10F2F00086FFFCCF8091C00080648093C0000F9493
:10F30000DCF1812F81548A3108F036C1163409F4BA
:10F3100095C0173490F4133409F44EC0143430F40B
:10F320001134F1F0123409F01DC130C0143409F465
:10F3300059C0153409F016C16BC01A3409F4C4C0A1
:10F340001B3438F4173409F48FC0183409F00AC19B
:10F35000A1C01B3409F4D2C01C3409F003C1E8C0B9
:10F360008FEF81B90DC082B1809582B980E090E0C5
:10F37000E0EDF7E03197F1F70196883C9105C1F790
:10F380008091C00087FFEFCF12B8EFC08FEF84B934
:10F390000DC085B1809585B980E090E0E0EDF7E0A3
:10F3A0003197F1F70196883C9105C1F78091C00033
:10F3B00087FFEFCF15B8D9C08FEF87B90DC088B1DF
:10F3C000809588B980E090E0E0EDF7E03197F1F7C3
:10F3D0000196883C9105C1F78091C00087FFEFCF6F
:10F3E00018B8C3C08FEF8AB90DC08BB180958BB9A7
:10F3F00080E090E0E0EDF7E03197F1F70196883C8E
:10F400009105C1F78091C00087FFEFCF1BB8ADC059
:10F410008FEF8DB90DC08EB180958EB980E090E0F0
:10F42000E0EDF7E03197F1F70196883C9105C1F7DF
:10F430008091C00087FFEFCF1EB897C08FEF80BBD1
:10F440000DC081B3809581BB80E090E0E0EDF7E0F6
:10F450003197F1F70196883C9105C1F78091C00082
:10F4600087FFEFCF11BA81C08FEF83BB0DC084B38C
:10F47000809584BB80E090E0E0EDF7E03197F1F714
:10F480000196883C9105C1F78091C00087FFEFCFBE
:10F4900014BA6BC08FEF809301010FC080910201FD
:10F4A00080958093020180E090E0E0EDF7E03197F5
:10F4B000F1F70196883C9105C1F78091C00087FF64
:10F4C000EDCF1092020151C08FEF809304010FC065
:10F4D0008091050180958093050180E090E0E0ED4A
:10F4E000F7E03197F1F70196883C9105C1F78091DB
:10F4F000C00087FFEDCF1092050137C08FEF8093DA
:10F5000007010FC08091080180958093080180E079
:10F5100090E0E0EDF7E03197F1F70196883C910536
:10F52000C1F78091C00087FFEDCF109208011DC088
:10F530008FEF80930A010FC080910B01809580931B
:10F540000B0180E090E0E0EDF7E03197F1F70196F4
:10F55000883C9105C1F78091C00087FFEDCF1092E4
:10F560000B0103C085E292EEEEC98091C00087FFD7
:10F57000FCCF8091C600EAC988E392EEE4C98CE131
:10F5800091EEE1C988249924933011F1943028F444
:10F59000913089F09230B8F408C0953061F195301F
:10F5A000F0F0963009F048C043C02B3109F042C951
:10F5B00091E06BE13FC96227C15DDE4F2883CF52E6
:10F5C000D14092E037C9B22FA0E0622793E032C960
:10F5D000822F90E0A82BB92B622794E02BC92E3004
:10F5E00009F039C3622795E0C05DDE4F19821882A9
:10F5F000C053D1401FC9E1E0F0E0EC0FFD1FC05D3A
:10F60000DE4F08811981C053D140E00FF11F2083E4
:10F610000F5F1F4FC05DDE4F19830883C053D14079
:10F6200062270A171B0709F005C9D80196E002C92D
:10F63000261709F010C303C0973009F0FBC87724E0
:10F640009981933109F412C19431C8F4963009F4C8
:10F65000D8C0973050F4923009F406C1933009F4C1
:10F660006DC0913009F059C253C0913109F477C08F
:10F67000923108F0BBC0903109F04FC2F5C098310B
:10F6800009F487C0993150F4953109F4EFC09531F0
:10F6900008F4C6C1963109F040C2C2C19A3109F4DA
:10F6A0006CC09A3108F491C09B3109F45BC09D3164
:10F6B00009F033C29D81903359F48F81882311F46E
:10F6C0009EE11CC0813011F091E018C098E916C08D
:10F6D000892F807591F0903539F4E0E0F0E089E011
:10F6E0008093570094910AC0983539F4E3E0F0E034
:10F6F00089E080935700949101C090E01A821B82A8
:10F700008D818C831D829E831F8227E030E009C299
:10F710001A8288E08B8381E48C8386E58D8382E581
:10F720008E8389E48F8383E5888780E589878FE5E9
:10F730008A8782E38B872BE030E0F3C18A818139AD
:10F7400041F0823941F0803911F48FE005C080E04A
:10F7500003C082E001C08AE01A828B8344C0772410
:10F76000739482C08D81882311F48EE12CC0813086
:10F7700011F081E028C088E926C01A82E1E0F0E0BB
:10F7800089E08093570084918B831C8224E030E0D1
:10F79000C8C18B81803589F48C81883039F4E2E0EE
:10F7A000F0E089E08093570084910DC0E0E0F0E044
:10F7B00089E080935700849106C0E3E0F0E089E09F
:10F7C0008093570084911A82DFCF8D81836C99E0FA
:10F7D000E1E0F0E0082E90935700E89507B600FCB2
:10F7E000FDCF1A821B8223E030E09BC180EC8A832C
:10F7F000CE5CDE4F188219821A821B82C253D1401E
:10F800008EC18A8190E0A0E0B0E0582F44273327D2
:10F8100022278B8190E0A0E0B0E0DC0199278827C7
:10F82000282B392B4A2B5B2B8D8190E0A0E0B0E098
:10F83000282B392B4A2B5B2B8C8190E0A0E0B0E089
:10F84000BA2FA92F982F8827282B392B4A2B5B2BCF
:10F85000220F331F441F551FC05EDE4F288339839C
:10F860004A835B83C052D1401A8259C13A81C95C34
:10F87000DE4F3883C753D140CA5CDE4F1882C6536F
:10F88000D1408B81C82EDD24CA5CDE4F488159816E
:10F89000C653D140C42AD52A933109F082C0CE5C28
:10F8A000DE4F88819981AA81BB81C253D1408050AB
:10F8B000904CA340B04030F583E0CE5CDE4FE88052
:10F8C000F9800A811B81C253D140F70100935B008C
:10F8D00080935700E89507B600FCFDCFCE5CDE4F65
:10F8E000088119812A813B81C253D14000501F4FAA
:10F8F0002F4F3F4FCE5CDE4F088319832A833B8313
:10F90000C253D140C05EDE4F488159816A817B81FC
:10F91000C052D140DE011B9631E08C9111962C91A2
:10F9200011971296C75CDE4F2883C953D140C85C3B
:10F93000DE4F1882C853D14090E0C85CDE4FE881AA
:10F94000F981C853D1408E2B9F2B0C01FA01609393
:10F950005B0030935700E89511244E5F5F4F6F4F67
:10F960007F4F0EEFE02E0FEFF02ECE0CDF1CC114F8
:10F97000D10499F685E0C05EDE4F088119812A81A5
:10F980003B81C052D140F80120935B008093570027
:10F99000E89507B600FCFDCF81E180935700E8951C
:10F9A00035C0C05EDE4F88819981AA81BB81C0527B
:10F9B000D140B695A795979587957C018601ABE0D8
:10F9C000AA2EB12CAC0EBD1E0BC0D5016D915D01F0
:10F9D000C7010F947FFE0894E11CF11C01501040F8
:10F9E0000115110591F7A60160E070E0440F551F65
:10F9F000661F771FC05EDE4FE880F9800A811B8199
:10FA0000C052D1404E0D5F1D601F711F1A82C05E33
:10FA1000DE4F488359836A837B83C052D1407FC0C5
:10FA2000FA80C55CDE4FF882CB53D140C65CDE4F16
:10FA30001882CA53D1408B81C82EDD24C65CDE4FAC
:10FA400008811981CA53D140C02AD12A1A828981DA
:10FA5000BE016D5F7F4F843121F59601C05EDE4FA0
:10FA6000E880F9800A811B81C052D1400BBFF701A9
:10FA700087919691DB018C9311969C936E5F7F4FDB
:10FA8000D801C7010296A11DB11DC05EDE4F88835B
:10FA90009983AA83BB83C052D14022503040F1F6F3
:10FAA00036C0C05EDE4F288139814A815B81C052F9
:10FAB000D1400894C108D108760100E010E0089414
:10FAC000C11CD11C0894E11CF11C011D111DE20E8A
:10FAD000F31E041F151F21BDBB27A52F942F832FB5
:10FAE00082BD2F5F3F4F4F4F5F4FF89A80B5DB01CC
:10FAF0008D93BD012E153F054007510761F7C05E8C
:10FB0000DE4F288339834A835B83C052D1409601FC
:10FB10002D5F3F4FFB01108204C080EC8A8322E0FE
:10FB200030E08BE18093C6008091C00086FFFCCF5F
:10FB30008091C00080648093C000C15DDE4FF88179
:10FB4000CF52D140F093C6008091C00086FFFCCF19
:10FB50008091C00080648093C000432F3093C60022
:10FB60008091C00086FFFCCF8091C00080648093AC
:10FB7000C000922F2093C6008091C00086FFFCCF6A
:10FB80008091C00080648093C0008EE08093C600A6
:10FB90008091C00086FFFCCF8091C000806480937C
:10FBA000C00065E1C15DDE4FE880CF52D1406E25D7
:10FBB00069276427FE01319610C090819093C6009A
:10FBC0008091C00086FFFCCF31968091C000806498
:10FBD0008093C0006927215030402115310569F715
:10FBE0006093C6008091C00086FFFCCF8091C0006A
:10FBF00080648093C00085B1805885B9772081F4F6
:10FC0000C15DDE4F0881CF52D1400F5FC15DDE4F35
:10FC10000883CF52D14090E0A0E0B0E00D941AF4F8
:10FC200027982F9880E090E020ED37E0F901319798
:10FC3000F1F7019684369105C9F700008091C00064
:10FC40008D7F8093C00081E180935700E895EE2777
:10FC5000FF270994FFCF90E00D941AF497FB092E2B
:10FC600007260AD077FD04D02ED006D000201AF443
:10FC7000709561957F4F0895F6F7909581959F4F08
:10FC80000895A1E21A2EAA1BBB1BFD010DC0AA1FDD
:10FC9000BB1FEE1FFF1FA217B307E407F50720F0F5
:10FCA000A21BB30BE40BF50B661F771F881F991F70
:10FCB0001A9469F760957095809590959B01AC01B9
:10FCC000BD01CF010895AA1BBB1B51E107C0AA1FAC
:10FCD000BB1FA617B70710F0A61BB70B881F991FED
:10FCE0005A95A9F780959095BC01CD010895F99991
:10FCF000FECF92BD81BDF89A992780B50895262F31
:10FD0000F999FECF1FBA92BD81BD20BD0FB6F89400
:0EFD1000FA9AF99A0FBE01960895F894FFCF63
:00000001FF
