:100000000C9450010C9481010C9481010C94810199
:100010000C9481010C9481010C9481010C94810158
:100020000C9481010C9481010C9481010C94810148
:100030000C9481010C9481010C9481010C94810138
:100040000C9481010C9481010C9481010C94810128
:100050000C9481010C9481010C9481010C94070A89
:100060000C9481010C947B0A0C94510A0C9481012C
:100070000C9481010C9481010C9481010C948101F8
:100080000C9481010C9481010C9481010C948101E8
:100090000C9481010C9481010C9481010C94B10A9F
:1000A0000C9481010C9481010C9481010C948101C8
:1000B0000C9481010C9481010C9481010C948101B8
:1000C0000C9481010C9481010C9481010C948101A8
:1000D0000C9481010C9481010C9481010C94810198
:1000E0000C9481010C9453050C9402020C94C313DC
:1000F0000C9416020C94D9020C9431050C9408024D
:100100000C94D50B0C941A020C9412020C940A1441
:100110000C9432020C94BA130C9433030C944005E3
:100120000C9487050C94CC130C94FB010C949D0249
:100130000C94E1010C94F1130C94F3010C94D5137D
:100140000C94DE130C9430050C94FB130C942E02CB
:100150000C940C020C9424020C9480030C949B02CB
:100160000C940E070C9420020C94FB020C94CA020F
:100170000C9428020C94DC010C94FF010C94E713FE
:100180000C946C130C94ED020C94B1130C949C021F
:100190000C945A050C94F70100000A0B02090C0D8F
:1001A0000E0807030401000000000000000000002A
:1001B000000000000000000000000000000000003F
:1001C00000000000121110000000000000000000FC
:1001D000000000000000000000000000000000001F
:1001E0002200250028002B002E00310034000201DF
:1001F0000000050108010B01000021002400270078
:100200002A002D0030003300010100000401070125
:100210000A0105050505070508080808020202028B
:100220000A0A080804040404010101010101010192
:100230000303030303030303040707070C0C0C0C5D
:100240000C0C0C0C02020202060606060606060646
:100250000B0B0B0B0B0B0B0B0102102020080810D3
:100260002040102040800201020108040201010226
:1002700004081020408080402010080402018004FF
:10028000020180402010080402010804020101025A
:100290000408102040800102040810204080D50B83
:1002A00011241FBECFEFD1E2DEBFCDBF00E00CBFF7
:1002B00013E0A0E0B2E0E6EDFCE200E00BBF02C01C
:1002C00007900D92AC3FB107D9F726E0ACEFB3E051
:1002D00001C01D92AB39B207E1F711E0C0E5D1E0F2
:1002E00000E006C021970109802FFE010E94DF1562
:1002F000CF34D10780E00807A9F70E94410C0C9485
:1003000069160C94000091E0909355058093540574
:100310001092530510925205089590E0FC01E85A9E
:10032000FD4F24918E5E9D4FFC018491882399F0AE
:1003300090E0880F991FFC01E850FE4FA591B49101
:10034000FC01E252FE4F859194918FB7F894EC91A5
:10035000E22BEC938FBF0895282F30E0F901E85687
:10036000FE4F9491F901E85AFD4F44912E5E3D4FA6
:10037000F9012491222309F435C0992311F19150F8
:100380009231F8F4E92FF0E08827E653FE4F8F4FC3
:100390000C94DF15FB01FF01DC01F301F701E10122
:1003A000020208020C02120216021A0220022402A1
:1003B000E10128022E023202809180008F77809323
:1003C0008000E22FF0E0EE0FFF1FE252FE4FA591FA
:1003D000B4918FB7F894EC91611148C040954E23C9
:1003E0004C938FBF0895809180008F7DE8CF8091DE
:1003F0008000877FE4CF84B58F7784BDE2CF84B55A
:100400008F7DFBCF8091B0008F778093B000D9CFE4
:100410008091B0008F7DF9CF809190008F7780938D
:100420009000CFCF809190008F7DF9CF8091900088
:10043000877FF5CF8091A0008F778093A000C1CFF8
:100440008091A0008F7DF9CF8091A000877FF5CFAC
:10045000809120018F7780932001B3CF809120017C
:100460008F7DF9CF80912001877FF5CF4E2BB8CFBC
:100470003FB7F8948091020590910305A09104057F
:10048000B091050526B5A89B05C02F3F19F0019630
:10049000A11DB11D3FBFBA2FA92F982F8827BC01DE
:1004A000CD01620F711D811D911D42E0660F771F06
:1004B000881F991F4A95D1F708958F929F92AF9206
:1004C000BF92CF92DF92EF92FF924B015C010E94AC
:1004D00038026B017C010E9438026C197D098E097B
:1004E0009F09683E734081059105A8F321E0821AB7
:1004F0009108A108B10888EEC80E83E0D81EE11C5F
:10050000F11C81149104A104B10429F7FF90EF902C
:10051000DF90CF90BF90AF909F908F9008952FB7AE
:10052000F8946091FE047091FF0480910005909111
:1005300001052FBF089508950895AF92BF92CF92FD
:10054000DF92EF92FF920F931F93CF93DF936C0193
:100550007B018B01040F151FEB015E01AE18BF0874
:10056000C017D10759F06991D601ED91FC91019026
:10057000F081E02DC6011995892B79F7C501DF912E
:10058000CF911F910F91FF90EF90DF90CF90BF9090
:10059000AF900895FC01538D448D252F30E0842FBA
:1005A00090E0821B930B541710F0CF96089501979B
:1005B0000895FC01918D828D981761F0A28DAE0F88
:1005C000BF2FB11D5D968C91928D9F5F9F73928F0F
:1005D00090E008958FEF9FEF0895FC01918D828D3B
:1005E000981731F0828DE80FF11D858D90E0089508
:1005F0008FEF9FEF0895FC01918D228D892F90E060
:10060000805C9F4F821B91098F739927089586E51F
:1006100095E00E94FB0221E0892B09F420E0822F63
:100620000895FC01A48DA80FB92FB11DA35ABF4F87
:100630002C91848D90E001968F739927848FA689E1
:10064000B7892C93A089B1898C91837080648C9335
:10065000938D848D981306C00288F389E02D8081E4
:100660008F7D80830895EF92FF920F931F93CF9316
:10067000DF93EC0181E0888F9B8D8C8D98131AC0DD
:10068000E889F989808185FF15C09FB7F894EE89C4
:10069000FF896083E889F989808183708064808321
:1006A0009FBF81E090E0DF91CF911F910F91FF906C
:1006B000EF900895F62E0B8D10E00F5F1F4F0F7314
:1006C0001127E02E8C8D8E110CC00FB607FCFACFCF
:1006D000E889F989808185FFF5CFCE010E94110359
:1006E000F1CFEB8DEC0FFD2FF11DE35AFF4FF082A0
:1006F0009FB7F8940B8FEA89FB8980818062CFCF06
:10070000CF93DF93EC01888D8823B9F0AA89BB8948
:10071000E889F9898C9185FD03C0808186FD0DC033
:100720000FB607FCF7CF8C9185FFF2CF808185FF54
:10073000EDCFCE010E941103E9CFDF91CF91089553
:1007400080E090E0892B29F00E94070381110E942C
:10075000000080E090E0892B49F080E090E0892B58
:1007600029F00E94000081110E94000080E090E0CA
:10077000892B49F080E090E0892B29F00E9400004D
:1007800081110E94000080E090E0892B49F080E018
:1007900090E0892B29F00E94000081110C94000048
:1007A0000895CF92DF92EF92FF9261157105810556
:1007B0009105F1F0DC01CB010197A109B10930E00D
:1007C00020E06C017D01CC24CD28CE28CF2839F043
:1007D000B695A795979587952F5F3F4FF2CF322F0C
:1007E0002227822B932BFF90EF90DF90CF900895DC
:1007F00090E080E0F8CF20913C04260F3327331F90
:1008000021323105ECF420914C05FC0190E080E0B0
:10081000243069F082E00895A0913C042191AC015C
:10082000445E5B4FA40FB52FB11D2C930196861724
:1008300098F380913C04680F60933C0480E0089535
:1008400081E0089510924C0581E080932B05109271
:10085000260561E084E10E94AC0161E085E10E942F
:10086000AC01E9EBF0E080818E7F808380818D7F19
:10087000808388E48093B80085E48093BC00089569
:10088000CF93DF9391E0909363048823B9F0C091F4
:10089000B800D091BA008091BC008A7B8093BC00E4
:1008A00060E084E10E94AC0160E085E10E94AC015F
:1008B0000E942204D093BA00C093B800DF91CF9178
:1008C0000895CF92DF92EF92FF920F931F93CF93F1
:1008D000DF93D82FC62F613208F098C00E943802EB
:1008E0006B017C0180914C0581116BC081E080938C
:1008F0004C0580932B059FEF90932A0510922905B4
:100900009C0F909328058093270580912705DD0F84
:10091000D82BD093270580912605813009F078C027
:10092000109226050E9438026B017C0180912705F8
:100930008093BB0080914E0590914F05A09150058A
:10094000B0915105892B8A2B8B2BA1F00E94380284
:1009500000914E0510914F052091500530915105A1
:100960006C197D098E099F09061717072807390793
:1009700008F448C08091BC0083FDD8CF85EC8093FB
:10098000BC000E9438026B017C0180914C058130D3
:1009900009F440C0809129058C1710F4C0912905F5
:1009A000E6E0F5E0ACE2B5E080E08C1355C08C2FBA
:1009B000DF91CF911F910F91FF90EF90DF90CF903B
:1009C000089580914E0590914F05A0915005B091EA
:1009D0005105892B8A2B8B2B09F484CF0E94380276
:1009E00000914E0510914F05209150053091510511
:1009F0006C197D098E099F09061717072807390703
:100A000008F070CF80914D050E944004C0E0CFCF28
:100A100085EEB5CF80914E0590914F05A091500580
:100A2000B0915105892B8A2B8B2B09F4AECF0E94F4
:100A3000380200914E0510914F05209150053091DC
:100A400051056C197D098E099F090617170728079C
:100A5000390708F09ACFD6CF91919D938F5FA5CF9C
:100A60000895E091650480916404E81730F4F0E0A3
:100A7000E45DFA4F808190E008958FEF9FEF089535
:100A800090916504809164042FEF3FEF981748F42C
:100A9000E92FF0E0E45DFA4F208130E09F5F909312
:100AA0006504C90108958091640490916504891BCF
:100AB000990B0895CF92DF92EF92FF920F931F93BD
:100AC000CF93DF937C01CB018A012091550522232E
:100AD00089F0EB016B01C40ED51ECC15DD0569F064
:100AE0006991D701ED91FC910190F081E02DC70152
:100AF0001995F3CF642F0E94FB03C801DF91CF91BA
:100B00001F910F91FF90EF90DF90CF900895CF93BA
:100B1000DF931F92CDB7DEB769832091550522235D
:100B2000F9F020915205203258F021E030E0FC012C
:100B30003383228390E080E00F90DF91CF9108957E
:100B400080915305E82FF0E0E450FC4F99819083A9
:100B50008F5F809353058093520581E090E0ECCF46
:100B600061E0CE0101960E94FB03F7CFCF92DF92A6
:100B7000EF92FF920F931F93CF93DF93D091520583
:100B800081E0D13208F09CC0C09154050E94380227
:100B90006B017C0180914C0581116CC082E08093D7
:100BA0004C0581E080932B058FEF80932A051092EE
:100BB0002905D0932805ACEFB3E0E6E0F5E080E04E
:100BC000D8138DC01092270580912705CC0FC82B14
:100BD000C093270580912605813009F084C01092CA
:100BE00026050E9438026B017C01809127058093C5
:100BF000BB0080914E0590914F05A0915005B0919A
:100C00005105892B8A2B8B2BA1F00E943802009171
:100C10004E0510914F0520915005309151056C19EA
:100C20007D098E099F09061717072807390708F459
:100C300042C08091BC0083FDD8CF85EC8093BC007E
:100C40000E9438026B017C0180914C05823009F4CE
:100C50004CC080912A058F3F09F469C080912A0514
:100C6000803209F466C080912A05803309F463C09C
:100C700084E026C080914E0590914F05A0915005CB
:100C8000B0915105892B8A2B8B2B09F483CF0E94BD
:100C9000380200914E0510914F052091500530917A
:100CA00051056C197D098E099F090617170728073A
:100CB000390708F06FCF80914D050E94400485E010
:100CC000109253051092520510925505DF91CF9165
:100CD0001F910F91FF90EF90DF90CF9008959D911D
:100CE00091938F5F6DCF85EEA9CF80914E05909146
:100CF0004F05A0915005B0915105892B8A2B8B2B64
:100D000009F4A2CF0E94380200914E0510914F05C0
:100D100020915005309151056C197D098E099F096C
:100D2000061717072807390708F08ECFC4CF80E0D1
:100D3000C7CF82E0C5CF83E0C3CFFF920F931F934D
:100D4000CF93DF93EC01F62E142F052F888D0E9490
:100D500083018E899F89DC01ED91FC910190F081E6
:100D6000E02D60E019958E899F89DC01ED91FC9161
:100D70000190F081E02D6F2D19958E899F89DC01FE
:100D8000ED91FC910190F081E02D602F19958E89F5
:100D90009F89DC01ED91FC910190F081E02D612FA4
:100DA00019958E899F890E94B6058B87DF91CF9117
:100DB0001F910F91FF9008950F931F93CF93DF938F
:100DC000EC01062F142F888D0E9483018E899F8944
:100DD000DC01ED91FC910190F081E02D60E019952E
:100DE0008E899F89DC01ED91FC910190F081E02DCD
:100DF000602F19958E899F89DC01ED91FC910190FE
:100E0000F081E02D612F19958E899F890E94B6058A
:100E10008B87DF91CF911F910F91089590E080E033
:100E20000895CF93C82F80E70E94830161E070E0AE
:100E300001C0660FCA95EAF783EF95E00E94870527
:100E400083EF95E00E94B605811107C08BEA94E01C
:100E50000197F1F781E0CF91089580E0FCCFEF9208
:100E6000FF920F931F93CF93DF93C8E0D2E084E00B
:100E7000E82E82E0F82E00E012E060E089910E9406
:100E8000AC0160E0F70181917F010E94AC0160E05C
:100E9000F80181918F010E94AC01F2E0CC30DF07B4
:100EA00061F7DF91CF911F910F91FF90EF9008951F
:100EB000FC0101900020E9F73197AF01481B590B65
:100EC000BC0186E595E00C949D028F929F92AF92B3
:100ED000BF920F931F93CF93DF93CDB7DEB7A19748
:100EE0000FB6F894DEBF0FBECDBF19A2423008F492
:100EF0004AE08E010F5D1F4F842E912CB12CA12C46
:100F0000A50194010E94BD15E62FB901CA01EA307E
:100F1000F4F4E05DD801EE938D01232B242B252BD7
:100F200079F790E080E0109719F0CD010E94580702
:100F3000A1960FB6F894DEBF0FBECDBFDF91CF9163
:100F40001F910F91BF90AF909F908F900895E95C93
:100F5000E1CF0C945807CF93DF930E945807EC0120
:100F600084E392E00E9458078C0F9D1FDF91CF9180
:100F70000895CF93DF938F3F980791F46DE286E554
:100F800095E00E943303EC014AE061E070E080E00C
:100F900090E00E9465078C0F9D1FDF91CF9108950F
:100FA000BC01990F880B990B4AE0DF91CF910C940B
:100FB00065070F931F93CF93DF93EC01162F072F35
:100FC000888D0E9483018E899F89DC01ED91FC91BF
:100FD0000190F081E02D602F19958E899F89DC01A9
:100FE000ED91FC910190F081E02D612F19958E8992
:100FF0009F890E94B6058B8762E0888D0E946104FC
:1010000010926504809364048E899F89DC01ED91C0
:10101000FC910284F385E02D199500E0182F8E894C
:101020009F89DC01ED91FC910284F385E02D1995F7
:10103000802B912BDF91CF911F910F9108951F93DA
:10104000CF93DF93EC01162F888D0E9483018E8948
:101050009F89DC01ED91FC910190F081E02D60E031
:1010600019958E899F89DC01ED91FC910190F081A9
:10107000E02D612F19958E899F890E94B6058B8777
:1010800061E0888D0E94610410926504809364047D
:101090008E899F89DC01ED91FC910284F385E02D1E
:1010A0001995DF91CF911F9108954F925F926F92A2
:1010B0007F928F929F92AF92BF92CF92DF92EF92E8
:1010C000FF92CF93DF936A017B0120EBC21A21E1EB
:1010D000D20AE108F10821EEC21628ECD20620E17E
:1010E000E206F10408F0ECC0EC0160E670E00E945A
:1010F0001F08B82E2E8D3F8D50E040E060E070E07C
:1011000080E090E40E94BD15A0E0B9E00E94F615D1
:101110009B01AC01A6E05695479537952795AA9572
:10112000D1F7B394BB0CAB2DB0E00E94F6152B01A8
:101130003C01B6E07694679457944794BA95D1F7FA
:101140004B015C0187E0B694A794979487948A95A5
:10115000D1F7C501B4017058814C9F4FA301920192
:101160000E94BD152F3F31054105510529F020F0A2
:101170002FEF30E040E050E0422F6BE470E0CE0112
:101180000E94DC06C501B401705F8F4F9F4FA30121
:1011900092010E94BD15CA01B9010E94D103AC01A0
:1011A0006AE570E0CE010E949D06F694E794D7941C
:1011B000C7949CE0CC0CDD1CEE1CFF1C9A95D1F76B
:1011C000C501B4016C0D7D1D8E1D9F1DA3019201F3
:1011D0000E94BD15CA01B9010E94D103AC016EE5A0
:1011E00070E0CE010E949D0663E670E0CE010E9491
:1011F0001F08B82E2E8D3F8D50E040E060E070E07B
:1012000080E090E40E94BD15A0E0B9E00E94F615D0
:101210009B01AC0166E056954795379527956A95F1
:10122000D1F7B394BB0CAB2DB0E00E94F6152B01A7
:101230003C01E6E07694679457944794EA95D1F799
:101240004B015C01F7E0B694A79497948794FA95C4
:10125000D1F7C501B401705F8F4F9F4FA301920179
:101260000E94BD15CA01B9010E94D103AC016CE511
:1012700070E0CE010E949D06C701B601680D791D80
:101280008A1D9B1DA30192010E94BD15CA01B901CF
:101290000E94D103AC0161E670E0CE010E949D0680
:1012A00081E0DF91CF91FF90EF90DF90CF90BF90E2
:1012B000AF909F908F907F906F905F904F90089528
:1012C00080E0EFCFCF92DF92EF92FF920F931F93C8
:1012D000CF93DF9387E392E00E94A90786E8E82E88
:1012E00084E0F82E96E6C92E94E0D92E0AE814E0A0
:1012F000C1E0D0E081E093E00E94A907CE010E9406
:10130000B90783E692E00E94A907F701808188234C
:1013100009F440C0F8016081718190E080E04AE00A
:101320000E94650781E093E00E94A907CE010E9418
:10133000B90788E692E00E94A907F70181917F0131
:1013400090E00E94B90781E093E00E94A907CE01D6
:101350000E94B90780E792E00E94A907F601619117
:101360007191819191916F014AE00E9465072196E8
:101370000E5F1F4FC530D10509F0BCCF84E392E06A
:10138000DF91CF911F910F91FF90EF90DF90CF9061
:101390000C9458078FEF9FEF0E94B907C3CF85EDDC
:1013A0008093BC0080914E0590914F05A09150050F
:1013B000B09151050796A11DB11D23E0B695A795E3
:1013C000979587952A95D1F72091BC0024FD03C0FD
:1013D00010924C05089540914E0550914F05609133
:1013E000500570915105452B462B472B69F300970B
:1013F000A105B10541F02AE22A95F1F700C0019755
:10140000A109B109E1CF80914D050C9440041F92D0
:101410000F920FB60F9211242F933F938F939F93A8
:10142000AF93BF938091FE049091FF04A0910005BB
:10143000B09101053091FD0423E0230F2D3758F5BD
:101440000196A11DB11D2093FD048093FE0490938D
:10145000FF04A0930005B0930105809102059091CF
:101460000305A0910405B09105050196A11DB11DCC
:101470008093020590930305A0930405B09305059E
:10148000BF91AF919F918F913F912F910F900FBE80
:101490000F901F90189526E8230F0296A11DB11DED
:1014A000D2CF1F920F920FB60F9211240BB60F924C
:1014B0002F933F934F935F936F937F938F939F935C
:1014C000AF93BF93EF93FF9386E595E00E941103DE
:1014D000FF91EF91BF91AF919F918F917F916F910C
:1014E0005F914F913F912F910F900BBE0F900FBEC8
:1014F0000F901F9018951F920F920FB60F92112404
:101500000BB60F922F938F939F93EF93FF93E091DE
:101510006605F09167058081E0916C05F0916D059D
:1015200082FD1DC0908180916F058F5F8F73209128
:101530007005821741F0E0916F05F0E0EA5AFA4F2A
:10154000958F80936F05FF91EF919F918F912F91D0
:101550000F900BBE0F900FBE0F901F9018958081BB
:10156000F2CF1F920F920FB60F9211240BB60F926B
:101570002F933F934F935F936F937F938F939F939B
:10158000AF93BF93EF93FF938091B900887F80362C
:1015900009F44DC008F040C0883209F4A9C028F50C
:1015A000803109F49DC0C8F4882309F4FBC0883059
:1015B00009F496C0FF91EF91BF91AF919F918F91E8
:1015C0007F916F915F914F913F912F910F900BBE43
:1015D0000F900FBE0F901F901895883109F488C0A6
:1015E000803241F780932A0514C0803409F49DC0ED
:1015F00040F48033B9F38833E9F680932A0585EC0B
:10160000B0C0803509F485C0883509F496C08834A7
:1016100089F60E94CF09CECF883909F48CC038F5FD
:10162000883729F050F4883611F0803719F683E0B6
:1016300080934C0510925E0457C0883809F47BC033
:10164000803919F0803809F0B5CF80915E0480327E
:1016500008F071C0E0915E0481E08E0F80935E041B
:101660008091BB00F0E0E25CFB4F80833DC0803B9B
:1016700039F0E0F4803A09F479C0883A09F09ACF59
:1016800084E080934C0510923D0410923C04E0915C
:101690006104F0916204199580913C0481110FC09E
:1016A00081E080933C0410921C0409C0803C09F442
:1016B000A6CF883C09F4A3CF883B09F07BCFE0910B
:1016C0003D0481E08E0F80933D04F0E0E45EFB4F2B
:1016D00080818093BB0090913D0480913C0429C09F
:1016E000809127058093BB0085EC8093BC0062CF7E
:1016F0009091290580912805981758F5E0912905C2
:1017000081E08E0F80932905F0E0EA5FFA4F808137
:10171000E9CFE091290581E08E0F80932905809122
:10172000BB00F0E0EA5FFA4F808390912905809139
:1017300028059817C8F285E8D8CFE091290581E0FF
:101740008E0F809329058091BB00F0E0EA5FFA4F8D
:10175000808380912B0581115CCF81E080932605E9
:1017600084EA8093BC0010924C0524CF85EC8093D2
:10177000BC0010924C0580915E04803230F4E09100
:101780005E04F0E0E25CFB4F108260915E0470E06A
:10179000E0915F04F09160048EE394E0199510925B
:1017A0005E0408CF10922A0534CF1092590510928A
:1017B000580588EE93E0A0E0B0E080935A0590933E
:1017C0005B05A0935C05B0935D0524E132E03093A6
:1017D00057052093560525EC30E0309363052093A0
:1017E000620524EC30E0309365052093640520EC1D
:1017F00030E0309367052093660521EC30E03093AC
:1018000069052093680522EC30E030936B05209346
:101810006A0526EC30E030936D0520936C0510923C
:101820006F0510927005109271051092720510925A
:10183000F6051092F5058093F7059093F805A093AF
:10184000F905B093FA0586E292E09093F40580934F
:10185000F305EFEFF5E043EF55E029E283E090E098
:10186000578B468B208F128E118E138E12A213A2CD
:1018700014A296A385A3B79636E0EB39F30781F758
:101880000895CF93DF93CDB7DEB72C970FB6F894BA
:10189000DEBF0FBECDBF789484B5826084BD84B5B1
:1018A000816084BD85B5826085BD85B5816085BD5B
:1018B00080916E00816080936E0010928100809113
:1018C000810082608093810080918100816080939B
:1018D0008100809180008160809380008091B100C0
:1018E00084608093B1008091B00081608093B000EB
:1018F000809191008260809391008091910081603D
:1019000080939100809190008160809390008091FD
:10191000A10082608093A1008091A10081608093EA
:10192000A1008091A00081608093A000809121019E
:101930008260809321018091210181608093210147
:101940008091200181608093200180917A008460E1
:1019500080937A0080917A00826080937A008091EF
:101960007A00816080937A0080917A008068809309
:101970007A001092C100E0916605F091670582E05F
:101980008083E0916205F09163051082E091640527
:10199000F091650580E1808310926E05E0916A0503
:1019A000F0916B0586E08083E0916805F091690510
:1019B000808180618083E0916805F0916905808174
:1019C00088608083E0916805F09169058081806876
:1019D0008083E0916805F091690580818F7D808327
:1019E00088E092E09A83898324E0E22E22E0F22EBE
:1019F00000E012E03CE0C32E32E0D32EA981BA8190
:101A00008D91BA83A9830E948D01F70181917F0195
:101A10000E948D01D8018D918D010E948D01E98177
:101A2000FA81CE16DF0651F70E942F076CED75E0A4
:101A300080E090E00E945D0286E792E00E94AB07A2
:101A4000109265041092640410925305109252058E
:101A50000E9422048BE992E09093620480936104D7
:101A60008CE992E09093600480935F0488E4809313
:101A7000B8001092630488EA91E6A0E0B0E0809399
:101A80004E0590934F05A0935005B093510581E00A
:101A900080934D0580E70E94830160E083EF95E02D
:101AA0000E94870583EF95E00E94B605882309F41C
:101AB000E3C083EB92E00E94AB07F7E27F2E66243F
:101AC0006394A7E02A2EB2E03B2E812C912CA12C0E
:101AD0001AE0B12E0E942F070E948F0200919304FA
:101AE000109194042091950430919604601B710B21
:101AF000820B930B6A3071058105910508F492C041
:101B00000E948F02609393047093940480939504D1
:101B100090939604E09092040E2D10E0F801E45F9B
:101B2000FD4F8081883008F07FC60E94110788230E
:101B300009F47AC6E79C70011124C70181509A4FBD
:101B40007C010E948F02D7015D967C936E935C9717
:101B5000FA82E9826701F9E1CF0ED11C27012CE15D
:101B6000420E511C61E370E0C7010E941F0880FF14
:101B7000E4C3D6018D919C91892BA1F30E948F0221
:101B8000F20120813181AB01421B530BD6018D91B3
:101B90009C918417950730F7E981FA81638E90E074
:101BA00080E0709EF001719EF00D1124E150FA4F1B
:101BB000238D138E211138C62281211135C69C0137
:101BC00021503109203A3F4008F02EC6F801EE0FAF
:101BD000FF1FE657FB4F91838083F801EA57FB4FC5
:101BE00060820E948F02000F111F000F111FF80169
:101BF000EA58FB4F6083718382839383F801EA592B
:101C0000FB4F80819181A281B3810196A11DB11DFD
:101C100080839183A283B383809192048F5F8370CA
:101C20008093920486E595E00E94FB02181619063F
:101C30000CF086C686E595E00E94D9028D3091F3BE
:101C40002091F7043091F8048A3009F061C6F90157
:101C5000E956FB4F1082232B09F411C663E473E0AD
:101C600087E994E00E945216892B09F0FEC588E4AA
:101C700093E00E94AB0703C68CE092E09A878987C5
:101C8000AFEFB5E0BC87AB8722242394312C812CA5
:101C9000912CA12C90E4B92EE985FA851191FA874F
:101CA000E987183008F061C0812F0E94110788234E
:101CB00009F45BC062E370E080E090E00E945D02A6
:101CC000E4EFF1E0AB85BC855A96FC93EE9359970F
:101CD0006FE071E0CD010E94D9078C3C9A4E09F06B
:101CE00044C040E070E060E08B859C850E94DC068B
:101CF0008BE891E00197F1F741E070E060E08B85BF
:101D00009C850E94DC0661E070E080E090E00E942B
:101D10005D020E948F02AB85BC855D967C936E93BD
:101D20005C9765EE70E08B859C850E941F0880FFA4
:101D300005C0EB85FC858385882341F1AB85BC8597
:101D400059968D919C91892B61F30E948F02EB85AE
:101D5000FC85248D358DAB01421B530B818D928DFB
:101D600084179507F0F681E0838F85EF92E00E945B
:101D7000A907C1010E94B9078CEE92E00E94A90751
:101D8000612F70E090E080E04AE0C1C26EE270E056
:101D90008B859C850E941F08482F41606EE270E091
:101DA0008B859C850E94DC0666E070E08B859C85B7
:101DB0000E94D907AB85BC855F969C938E935E97F6
:101DC0006EED70E0CD010E94D907EB85FC8591A3F3
:101DD00080A340E05AE064E270E0CF010E949D06DB
:101DE00042E061E370E08B859C850E94DC0648E060
:101DF00066E370E08B859C850E94DC0640E167E32A
:101E000070E08B859C850E94DC0641E069E370E010
:101E10008B859C850E94DC064FEF6EE370E08B851E
:101E20009C850E94DC0640E06FE370E08B859C851A
:101E30000E94DC0642E060E470E08B859C850E9495
:101E4000DC0650E040E060E570E08B859C850E94F8
:101E50009D0650E040E062E570E08B859C850E9425
:101E60009D0648E367E570E08B859C850E94DC0653
:101E700048E651E064E670E08B859C850E949D06F3
:101E800040EC50E066E670E08B859C850E949D06E4
:101E900041E061E770E08B859C850E94DC0641E0B3
:101EA0006CE770E08B859C850E94DC0642E06EE763
:101EB00070E08B859C850E94DC0640E062E870E063
:101EC0008B859C850E94DC0641E067E770E08B858E
:101ED0009C850E94DC064BE861E870E08B859C8560
:101EE0000E94DC0640E058EC64E570E08B859C8540
:101EF0000E949D0642E06FE470E08B859C850E9405
:101F0000DC0660E670E08B859C850E941F08082F28
:101F1000AB85BC855E962D913C9150E040E0C501BB
:101F2000B4010E94BD15A0E0B9E00E94F6159B0126
:101F3000AC01A6E05695479537952795AA95D1F718
:101F40000F5F000FA02FB0E00E94F6156B017C011F
:101F50006EE570E08B859C850E94D907AC01552702
:101F600070E060E004C0440F551F661F771F9A950C
:101F7000D2F7CB01BA016F5F7F4F8F4F9F4FA70101
:101F80009601B6E05695479537952795BA95D1F7BE
:101F90000E940116385F4F4F5F4F6F4F7F4F8F4F3B
:101FA0009F4F0CE00E942E1629833A834B835C835B
:101FB0006D837E838F839887C980DA80EB80FC8075
:101FC000B8EDCB0EB8E0DB1EE11CF11CCC0CDD1C27
:101FD000EE1CFF1C4FE060E670E08B859C850E9444
:101FE000DC064DE063E670E08B859C850E94DC0694
:101FF00048EB69E670E08B859C850E94DC064FE02B
:1020000068E770E08B859C850E94DC064DE069E7FF
:1020100070E08B859C850E94DC064EE06AE770E0EC
:102020008B859C850E94DC064EE06BE770E08B851B
:102030009C850E94DC06E1EBCE16E1E1DE06E104C0
:10204000F10430F0B701A6018B859C850E945508EC
:10205000E2E0F0E0AB85BC859696FC93EE93959715
:1020600040E553EC60E070E0CD010E94550862E26B
:1020700070E08B859C850E94D907AC01440F551FE9
:10208000440F551F6EE170E08B859C850E949D0674
:1020900060E670E08B859C850E941F08082FAB8549
:1020A000BC855E962D913C9150E040E0C501B401A5
:1020B0000E94BD15A0E0B9E00E94F6159B01AC019D
:1020C00066E056954795379527956A95D1F70F5F46
:1020D000000FA02FB0E00E94F6156B017C016EE5A9
:1020E00070E08B859C850E94D907AC01552770E074
:1020F00060E004C0440F551F661F771F9A95D2F702
:10210000CB01BA016F5F7F4F8F4F9F4FA7019601A1
:10211000E6E05695479537952795EA95D1F70E94C1
:102120000116385F4F4F5F4F6F4F7F4F8F4F9F4F5D
:102130000CE00E942E1629833A834B835C836D83C7
:102140007E838F839887C980DA80EB80FC80B8ED2E
:10215000CB0EB8E0DB1EE11CF11CCC0CDD1CEE1C30
:10216000FF1C47E060E670E08B859C850E94DC06E2
:1021700045E063E670E08B859C850E94DC0648E3C1
:1021800069E670E08B859C850E94DC0647E068E785
:1021900070E08B859C850E94DC0645E069E770E075
:1021A0008B859C850E94DC0646E06AE770E08B85A3
:1021B0009C850E94DC0646E06BE770E08B859C8581
:1021C0000E94DC06E1EBCE16E1E1DE06E104F1045B
:1021D00030F0B701A6018B859C850E945508AB8520
:1021E000BC8596961C921E92959740E553EC60E054
:1021F00070E0CD010E945508412E512C712C612CAC
:10220000882309F4B2CDEB85FC8520A131A1ACE394
:10221000B0E00E94E7156B017C01808D0E94830174
:10222000AB85BC8556968D919C91DC01ED91FC911E
:102230000190F081E02D60E01995EB85FC858689A1
:102240009789DC01ED91FC910190F081E02D6CE625
:102250001995EB85FC8586899789DC01ED91FC91C8
:102260000190F081E02D60E01995EB85FC85A68951
:10227000B789B70188279927ED91FC9111970190B3
:10228000F081E02DCD011995EB85FC85A689B789F4
:1022900099278F2D7E2D6D2DED91FC911197019039
:1022A000F081E02DCD011995AB85BC8556968D91B9
:1022B0009C91DC01ED91FC910190F081E02D6C2D61
:1022C0001995EB85FC85868997890E94B605AB85B3
:1022D000BC851B968C931B9741E066E870E0CD01AE
:1022E0000E94DC0640E467E870E08B859C850E94D4
:1022F000DC068DED92E00E94A907C1010E94B9079A
:102300008CEE92E00E94A9074AE0C301B2010E944C
:10231000650784E392E00E945807BFEF2B1A3B0A3F
:10232000EB85FC85B796FC87EB87F5E02F1631042B
:1023300009F0B2CC84E093E0BECB709EC001719EE8
:10234000900D112481509A4F9A838983DC0158960D
:102350008C910E948301E981FA8186899789DC0149
:10236000ED91FC910190F081E02D60E01995E981FB
:10237000FA8186899789DC01ED91FC910190F081C9
:10238000E02D69E81995E981FA81868997890E948B
:10239000B605A981BA811B968C931B9761E158966B
:1023A0008C910E9461041092650480936404E98119
:1023B000FA8186899789DC01ED91FC910284F3858D
:1023C000E02D1995E981FA81848786899789DC0156
:1023D000ED91FC910284F385E02D1995E981FA8154
:1023E00086899789DC01ED91FC910284F385E02DCB
:1023F0001995E981FA81858786899789DC01ED91B4
:10240000FC910284F385E02D1995E981FA81168605
:10241000878786899789DC01ED91FC910284F38599
:10242000E02D1995E981FA8126853785822B932B3A
:102430009787868786899789DC01ED91FC910284D4
:10244000F385E02D1995E981FA8186899789DC0168
:10245000ED91FC910284F385E02D1995E981FA81D3
:1024600086899789DC01ED91FC910284F385E02D4A
:102470001995E981FA81108A818B86899789DC0117
:10248000ED91FC910284F385E02D1995E981FA81A3
:1024900020893189822B932B918B808B8689978918
:1024A000DC01ED91FC910284F385E02D1995E98121
:1024B000FA8186899789DC01ED91FC910284F3858C
:1024C000E02D1995E981FA8186899789DC01ED91E2
:1024D000FC910284F385E02D1995E981FA818689C2
:1024E0009789DC01ED91FC910284F385E02D19952B
:1024F000E981FA8186899789DC01ED91FC9102845A
:10250000F385E02D1995E981FA81128A838B8689FA
:102510009789DC01ED91FC910284F385E02D1995FA
:10252000E981FA8122893389822B932B938B828BC9
:1025300086899789DC01ED91FC910284F385E02D79
:102540001995E981FA81148A858B86899789DC013E
:10255000ED91FC910284F385E02D1995E981FA81D2
:1025600024893589822B932B958B848B82A18111B1
:1025700037C06BE070E0C7010E941F08A981BA81D3
:1025800093968C9368E070E0C7010E941F08E98170
:10259000FA8184A343A14F776BE070E0C7010E94EA
:1025A000DC06A981BA8194964C914370445F68E03F
:1025B00070E0C7010E94DC0641E06DE470E0C701F5
:1025C0000E94DC0668ED70E0C7010E941F08482FDA
:1025D00067E470E0C7010E94DC06E981FA8162A22B
:1025E000709EF001719EF00D1124E150FA4F268586
:1025F00037852115310509F46CC084899589408996
:10260000518970E060E0480F591F611D711D41152F
:102610005105F1E06F07710520F04FEF5FEF60E0CB
:1026200070E0CA017727662750E040E00E94BD15A0
:10263000211531054105510509F44BC0C501B4010F
:102640000E94BD152115310581E04807510520F094
:102650002FEF3FEF40E050E0A90164E570E0C701D3
:102660000E949D06709EF001719EF00D1124E150B4
:10267000FA4F22893389ABEDB7E00E94E7157C5F02
:102680008F4F9F4F4BE096958795779567954A9525
:10269000D1F771836083E485E150E23108F0BAC07C
:1026A000F0E08827E95AFC4E8F4F0C94DF156C132D
:1026B0006C136C13CC13C313D513DE13F113FB137C
:1026C0000A140A14E713B1130A140A140A146C1337
:1026D000BA1340E050E8C1CF709EF001719EF00D3A
:1026E0001124E150FA4F85E08283709EC001719EF3
:1026F000900D112481509A4F9A838983DC0154965E
:102700006D917C9190E080E00E94C21420E030E066
:1027100040E05CE30E94FF14E981FA8163837483E3
:10272000858396836089718990E080E00E94C2145D
:1027300020E030E040E05CE30E94FF14A981BA8110
:1027400017966D937D938D939C931A9741E066E85D
:1027500070E0C7010E94DC06E981FA8180819181E5
:1027600020CA709EF001719EF00D1124E150FA4FC5
:102770008DE0BACF709EF001719EF00D1124E150F2
:10278000FA4F8AE0B1CF709EF001719EF00D1124D6
:10279000E150FA4F84E0A8CF709EF001719EF00DD9
:1027A0001124E150FA4F3282A0CF709EF001719E49
:1027B000F00D1124E150FA4F628297CF709EF00124
:1027C000719EF00D1124E150FA4F22828ECF709E3F
:1027D000F001719EF00D1124E150FA4F99E09283BF
:1027E00084CF709EF001719EF00D1124E150FA4FDC
:1027F000A3E0A2837ACF709EF001719EF00D1124A8
:10280000E150FA4F8585811103C0B6E0B2836DCFE8
:1028100012826BCF709EF001719EF00D1124E15079
:10282000FA4F2FEF228361CFF801EE0FFF1FEE0F5B
:10283000FF1FEA58FB4FC080D180E280F380C114B3
:10284000D104E104F10429F4F801EA57FB4F1082A6
:10285000E3C90E948F026C197D098E099F09613BB3
:1028600074408105910580F7D7C967E673E087E971
:1028700094E00E945216892B39F40E94620910924A
:10288000F8041092F704CEC96FE673E087E994E08C
:102890000E945216892B41F06EE673E087E994E0BE
:1028A0000E945216892B29F40E942F0784E793E097
:1028B000E0C94AE050E065E973E087E994E00E94EE
:1028C0005B16892BA1F044E050E060EA73E087E9F1
:1028D00094E00E945B16892B51F043E050E065EADA
:1028E00073E087E994E00E945B16892B29F40E942B
:1028F0002F0789EA93E0BDC965EC73E087E994E0AE
:102900000E945216892B09F4B8CF82ED93E0B1C929
:102910002F35310560F4A9014F5F5F4F5093F804E4
:102920004093F70429563B4FD9018C937BC91092F1
:10293000F8041092F70486EE93E00E94AB0772C988
:102940000E948F020091F9041091FA042091FB0477
:102950003091FC04601B710B820B930B643F714040
:102960008105910560F00E948F026093F9047093D5
:10297000FA048093FB049093FC040E9462090E9475
:10298000A003A8C8E89409C097FB3EF490958095F1
:10299000709561957F4F8F4F9F4F9923A9F0F92F25
:1029A00096E9BB279395F695879577956795B795A3
:1029B000F111F8CFFAF4BB0F11F460FF1BC06F5F89
:1029C0007F4F8F4F9F4F16C0882311F096E911C09B
:1029D000772321F09EE8872F762F05C0662371F0BC
:1029E00096E8862F70E060E02AF09A95660F771FD0
:1029F000881FDAF7880F9695879597F908950E94B2
:102A000012150C9483150E94751538F00E947C15E0
:102A100020F0952311F00C946C150C947215112470
:102A20000C94B7150E94941570F3959FC1F3950F00
:102A300050E0551F629FF001729FBB27F00DB11D42
:102A4000639FAA27F00DB11DAA1F649F6627B00DD2
:102A5000A11D661F829F2227B00DA11D621F739FBB
:102A6000B00DA11D621F839FA00D611D221F749FC9
:102A70003327A00D611D231F849F600D211D822F10
:102A8000762F6A2F11249F5750409AF0F1F0882337
:102A90004AF0EE0FFF1FBB1F661F771F881F915064
:102AA0005040A9F79E3F510580F00C946C150C9492
:102AB000B7155F3FE4F3983ED4F386957795679515
:102AC000B795F795E7959F5FC1F7FE2B880F911D8E
:102AD0009695879597F9089597F99F6780E870E034
:102AE00060E008959FEF80EC089500240A94161684
:102AF000170618060906089500240A9412161306EC
:102B0000140605060895092E0394000C11F4882379
:102B100052F0BB0F40F4BF2B11F460FF04C06F5F95
:102B20007F4F8F4F9F4F089557FD9058440F551F6B
:102B300059F05F3F71F04795880F97FB991F61F03F
:102B40009F3F79F087950895121613061406551FB6
:102B5000F2CF4695F1DF08C0161617061806991F22
:102B6000F1CF86957105610508940895E894BB2717
:102B700066277727CB0197F90895A1E21A2EAA1BA1
:102B8000BB1BFD010DC0AA1FBB1FEE1FFF1FA2171D
:102B9000B307E407F50720F0A21BB30BE40BF50B1A
:102BA000661F771F881F991F1A9469F760957095A3
:102BB000809590959B01AC01BD01CF010895EE0F6A
:102BC000FF1F881F8BBF0790F691E02D1994A29FDD
:102BD000B001B39FC001A39F700D811D1124911DF1
:102BE000B29F700D811D1124911D08950E94E7155B
:102BF000A59F900DB49F900DA49F800D911D112451
:102C00000895E894DF93CF93FC01DB010E94E71560
:102C10007F936F93E9019A01AC01BF93AF933F9308
:102C20002F93DF010E94E71526F46C1B7D0B820BAE
:102C3000930B9E01EB01FC010E944916AF91BF91DD
:102C40002F913F910E944916BE01CF01F9012F91AA
:102C50003F91CF91DF91089597FD1094002E083099
:102C600098F00850232F342F452F562F672F782F99
:102C7000892F912DF4CF1594979587957795679522
:102C800057954795379527950A95AAF71124002D52
:102C900008950E94E715460F571FC81FD91F08F453
:102CA00031960895FB01DC018D910190801901108E
:102CB000D9F3990B0895FB01DC014150504030F0ED
:102CC0008D910190801919F40020B9F7881B990B98
:062CD0000895F894FFCF07
:102CD6001E1F202117191B1D16181A1C000102039E
:102CE6000000000033039D02CA028003FB02D902E2
:102CF600ED020000000087055A050E073005530552
:102D0600400531050D0A004C414E4445525F53546F
:102D160041545553206D6F64653D444941474E4FBC
:102D2600535449435F4D4F54494F4E5F4C4F434BAD
:102D36004544005F6D6D3D005F76616C69643D00E2
:102D46005F7665723D004D4547415F4C414E4445B7
:102D5600525F444941474E4F535449435F563120D1
:102D6600424F4F54204D4F54494F4E5F4C4F434BAB
:102D7600454420414C4C5F4F5554505554535F4C7D
:102D86004F57004641554C54205443413935343849
:102D9600415F4E4F545F4445544543544544204D8E
:102DA6004F54494F4E5F4C4F434B45440053454E9D
:102DB600534F525F524541445920410020544341EC
:102DC6005F43483D0053454E534F525F4641554C75
:102DD60054204100524541445920434F4D4D414EE8
:102DE60044533D50494E472C5354415455532C534C
:102DF600544F502C4553544F50204D4F54494F4E2D
:102E06005F434F4D4D414E44533D52454A45435411
:102E160045440050494E4700504F4E47204D4547C8
:102E2600415F4C414E4445525F444941474E4F53E2
:102E36005449435F5631005354415455530045534A
:102E4600544F50004F4B204D4F54494F4E5F4C4FFF
:102E5600434B454420414C4C5F4F555450555453B9
:102E66005F4C4F57005345545F54415247455400F9
:102E76004D4F56450041524D00455252204D4F543C
:102E8600494F4E5F44495341424C45445F53544178
:102E960047455F41004745545F44495354414E43BB
:102EA600450045525220554E4B4E4F574E5F434FAD
:102EB6004D4D414E440045525220434F4D4D414EDB
:0C2EC600445F544F4F5F4C4F4E470000DC
:00000001FF
