:020000040000FA
:100000000C946B010C949C010C949C010C949C012D
:100010000C949C010C949C010C949C010C949C01EC
:100020000C949C010C9478160C949C010C949C01EB
:100030000C949C010C949C010C949C010C949C01CC
:100040000C949C010C949C010C949C010C949C01BC
:100050000C949C010C949C010C949C010C94AA148B
:100060000C949C010C941E150C94F4140C949C019B
:100070000C949C010C949C010C949C010C949C018C
:100080000C949C010C949C010C949C010C949C017C
:100090000C949C010C949C010C949C010C945415A0
:1000A0000C949C010C949C010C949C010C949C015C
:1000B0000C949C010C949C010C949C010C949C014C
:1000C0000C949C010C949C010C949C010C949C013C
:1000D0000C949C010C949C010C949C010C949C012C
:1000E0000C949C010C9455100C944A050C94AB0292
:1000F0000C9430120C9419100C94E1040C942D10F3
:100100000C94B5020C9437100C9404100C94C30298
:100110000C9411170C94C9020C94B2040C945F1047
:100120000C94B4040C949C020C9427120C941205A9
:100130000C94BF020C94A0020C9497050C94A80296
:100140000C9441100C94BB020C94D7020C94F00454
:100150000C94B1020C9423100C9457070C94710763
:100160000C94DB020C942D120C949E070C94B30497
:100170000C9404050C9407110C94A4020C944707EA
:100180000C948A020C94D1020C9433120C940F102C
:100190000C9425090C9485020C944B100C942A1293
:1001A0000C9420120C9448070C949E100C94CD02D1
:1001B0000C946A07000020002300260029002C0070
:1001C0002F003200000100000301060109010000B8
:1001D0002100240027002A002D00300033000101F7
:1001E0000000040107010A01000022002500280088
:1001F0002B002E003100340002010000050108012F
:100200000B0105050505070508080808020202029A
:100210000A0A0808040404040101010101010101A2
:100220000303030303030303040707070C0C0C0C6D
:100230000C0C0C0C02020202060606060606060656
:100240000B0B0B0B0B0B0B0B0102102020080810E3
:100250002040102040800201020108040201010236
:10026000040810204080804020100804020180040F
:10027000020180402010080402010804020101026A
:100280000408102040800102040810204080000073
:100290000A0B02090C0D0E08070304010000000000
:1002A000000000000000000000000000000000004E
:1002B000000000000000000000001211100000000B
:1002C000000000000000000000000000000000002E
:1002D00000000000111711241FBECFEFD1E2DEBFD6
:1002E000CDBF00E00CBF1AE0A0E0B2E0E6E2FFE420
:1002F00000E00BBF02C007900D92A634B107D9F7FA
:100300002DE0A6E4BAE001C01D92A33CB207E1F7DC
:1003100011E0CBE6D1E000E006C021970109802F73
:10032000FE010E941927CA36D10780E00807A9F705
:100330000E947D170C9491270C9400009FB7F894AD
:10034000AEE4BCE09196ED91FC91929780819096FD
:100350002C91822B80839FBF08959FB7F894AEE4C1
:10036000BCE05E96ED91FC915F9780815D962C914B
:10037000822B80839FBF08959FB7F894AEE4BCE0C2
:100380005B96ED91FC915C9780815A962C91822B23
:1003900080839FBF08958F929F92AF92BF92CF921A
:1003A000DF92EF92FF920F931F93CF93DF93D0E0F2
:1003B000C0E0D12C082F880F110B8BE0E82EF12C18
:1003C000812C912C54018394CC2EC8010C2E02C098
:1003D000959587950A94E2F780FF3FC00E94AD0192
:1003E0008FB7F894E091690CF0916A0C208190919C
:1003F000680C9095922390838FBFC7010197F1F706
:10040000E091720CF091730C80819091710C8923B2
:1004100051F0D501C40104C0880F991FAA1FBB1F4A
:10042000CA94D2F7D82A0E94BC012196C830D105BF
:1004300059F60E94AD0187E090E00197F1F78D2D0C
:10044000DF91CF911F910F91FF90EF90DF90CF90B0
:10045000BF90AF909F908F9008959FB7F894E091D0
:100460006C0CF0916D0C208180916B0C8095822337
:1004700080839FBFB5CF9FB7F894AEE4BCE0919660
:10048000ED91FC919297208190968C91809582239A
:1004900080839FBF089591E090934D0C80934C0C06
:1004A00010924B0C10924A0C0895282F30E0F9015D
:1004B000E257FD4F9491F901E85BFD4F44912E5FA7
:1004C0003D4FF9012491222309F435C0992311F1FC
:1004D00091509231F8F4E92FF0E08827ED58FD4F64
:1004E0008F4F0C941927A402A80285029C02A00237
:1004F0008A02AB02B102B502BB02BF02C302C9024B
:10050000CD028A02D102D702DB02809180008F7770
:1005100080938000E22FF0E0EE0FFF1FE851FE4FC6
:10052000A591B4918FB7F894EC91611148C04095B2
:100530004E234C938FBF0895809180008F7DE8CF2C
:1005400080918000877FE4CF84B58F7784BDE2CF30
:1005500084B58F7DFBCF8091B0008F778093B00002
:10056000D9CF8091B0008F7DF9CF809190008F77A7
:1005700080939000CFCF809190008F7DF9CF8091B4
:100580009000877FF5CF8091A0008F778093A000A7
:10059000C1CF8091A0008F7DF9CF8091A000877F8F
:1005A000F5CF809120018F7780932001B3CF809188
:1005B00020018F7DF9CF80912001877FF5CF4E2BD1
:1005C000B8CFCF93DF9390E0FC01E85BFD4F24911F
:1005D0008E5F9D4FFC0184918823D1F090E0880FBD
:1005E000991FFC01E253FE4FA591B491FC01E85123
:1005F000FE4FC591D49161110EC09FB7F8948C91B4
:10060000E22FE0958E238C932881E223E8839FBF1D
:10061000DF91CF9108958FB7F894EC91E22BEC9392
:100620008FBFF6CF3FB7F8948091FA0B9091FB0BF8
:10063000A091FC0BB091FD0B26B5A89B05C02F3FE8
:1006400019F00196A11DB11D3FBFBA2FA92F982FF8
:100650008827BC01CD01620F711D811D911D42E0F3
:10066000660F771F881F991F4A95D1F708958F92BB
:100670009F92AF92BF92CF92DF92EF92FF926B0167
:100680007C010E9412034B015C01C114D104E104FE
:10069000F104B9F00E941203681979098A099B09CB
:1006A000683E73408105910580F321E0C21AD108AC
:1006B000E108F10888EE880E83E0981EA11CB11CA9
:1006C000E4CFFF90EF90DF90CF90BF90AF909F90DE
:1006D0008F900895EF92FF920F931F93CF93DF9324
:1006E0007C01062F0E943B0287E090E00197F1F722
:1006F000E70110E0CE018E199F098017910724F4BD
:1007000089910E94CB01F6CF0E949E016091780CE6
:1007100070E090E080E0DF91CF911F910F91FF900A
:10072000EF900C94370365E08AE592E00E946A033B
:1007300069E081E592E00E946A0380917A0C882347
:1007400029F065E08CE492E00E946A0380917B0CC2
:10075000882329F069E083E492E00E946A0369E05B
:100760008AE392E00C946A032FB7F8946091F60B39
:100770007091F70B8091F80B9091F90B2FBF0895B2
:100780006F927F928F929F92AF92BF92CF92DF92A1
:10079000EF92FF921F93CF93DF9300D000D000D051
:1007A000CDB7DEB7182F0E94B403C090740CD09060
:1007B000750CE090760CF090770C6C197D098E0921
:1007C0009F090E94F5256B017C0120E030E84BEB8E
:1007D00054E40E94A726181614F40E949303609113
:1007E000780C70E090E080E00E94F7254B015C01FE
:1007F000AC019B01C701B6010E94C12587FF0AC059
:10080000A7019601C501B4010E9454250E94C62586
:100810000E943703112371F0212F30E0AFEBB0E0DD
:100820000E9445252FEF30E040E050E00E941B255C
:1008300010E4120FFE01339687E0DF011D928A95C6
:10084000E9F781E0898382E48A831D8315E027E04C
:10085000C22ED12C7E01BAE0EB0EF11C33E6A32EA2
:100860003CE0B32E0E94AD010E94BC010E943B02FD
:10087000C6010197F1F7FE0131963F019EE4892EF2
:100880009CE0992ED3018D913D010E94CB01F40192
:1008900081934F016E147F04A9F780914F0C893723
:1008A00069F487E5882E8CE0982E80E00E94CB01C9
:1008B000D4018D934D01AA16BB06B9F70E949E0183
:1008C00080914F0C807F803761F00E94930360918C
:1008D000780C70E090E080E00E943703115009F03E
:1008E000C1CF80914F0C807F803739F08091780C98
:1008F0008A3018F48F5F8093780C8091660C909109
:10090000670C9093650C8093640C8091510C9091CE
:10091000520C9093670C8093660C0E94B403609312
:10092000740C7093750C8093760C9093770C909167
:100930004F0C907F81E0903709F080E029960FB648
:10094000F894DEBF0FBECDBFDF91CF911F91FF9016
:10095000EF90DF90CF90BF90AF909F908F907F905F
:100960006F90089508950895AF92BF92CF92DF924D
:10097000EF92FF920F931F93CF93DF936C017B0154
:100980008B01040F151FEB015E01AE18BF08C017E5
:10099000D10759F06991D601ED91FC910190F08158
:1009A000E02DC6011995892B79F7C501DF91CF910B
:1009B0001F910F91FF90EF90DF90CF90BF90AF907D
:1009C0000895FC01538D448D252F30E0842F90E055
:1009D000821B930B541710F0CF960895019708953A
:1009E000FC01918D828D981761F0A28DAE0FBF2F03
:1009F000B11D5D968C91928D9F5F9F73928F90E059
:100A000008958FEF9FEF0895FC01918D828D9817C7
:100A100031F0828DE80FF11D858D90E008958FEF04
:100A20009FEF0895FC01918D228D892F90E0805CCD
:100A30009F4F821B91098F73992708958CE79CE043
:100A40000E94120521E0892B09F420E0822F0895ED
:100A5000FC01A48DA80FB92FB11DA35ABF4F2C9133
:100A6000848D90E001968F739927848FA689B7892A
:100A70002C93A089B1898C91837080648C93938D21
:100A8000848D981306C00288F389E02D80818F7DC4
:100A900080830895EF92FF920F931F93CF93DF937C
:100AA000EC0181E0888F9B8D8C8D98131AC0E889AA
:100AB000F989808185FF15C09FB7F894EE89FF8979
:100AC0006083E889F98980818370806480839FBF17
:100AD00081E090E0DF91CF911F910F91FF90EF9017
:100AE0000895F62E0B8D10E00F5F1F4F0F73112727
:100AF000E02E8C8D8E110CC00FB607FCFACFE88962
:100B0000F989808185FFF5CFCE010E942805F1CFBC
:100B1000EB8DEC0FFD2FF11DE35AFF4FF0829FB7D5
:100B2000F8940B8FEA89FB8980818062CFCFCF93C5
:100B3000DF93EC01888D8823B9F0AA89BB89E88905
:100B4000F9898C9185FD03C0808186FD0DC00FB6AB
:100B500007FCF7CF8C9185FFF2CF808185FFEDCF29
:100B6000CE010E942805E9CFDF91CF91089580E062
:100B700090E0892B29F00E941E0581110E9400003F
:100B800080E090E0892B49F080E090E0892B29F00B
:100B90000E94000081110E94000080E090E0892BFB
:100BA00049F080E090E0892B29F00E94000081113B
:100BB0000E94000080E090E0892B49F080E090E006
:100BC000892B29F00E94000081110C9400000895E7
:100BD000CF92DF92EF92FF92611571058105910529
:100BE000F1F0DC01CB010197A109B10930E020E06F
:100BF0006C017D01CC24CD28CE28CF2839F0B695C4
:100C0000A795979587952F5F3F4FF2CF322F2227D9
:100C1000822B932BFF90EF90DF90CF90089590E080
:100C200080E0F8CF2091DF0A260F3327331F2132CF
:100C30003105ECF42091440CFC0190E080E024307C
:100C400069F082E00895A091DF0A2191AC0141543E
:100C5000554FA40FB52FB11D2C930196861798F30D
:100C60008091DF0A680F6093DF0A80E0089581E0D9
:100C700008951092440C81E08093230C10921E0C76
:100C800061E084E10E94550261E085E10E94550225
:100C9000E9EBF0E080818E7F808380818D7F80838F
:100CA00088E48093B80085E48093BC000895CF93D6
:100CB000DF9391E09093080B8823B9F0C091B800BE
:100CC000D091BA008091BC008A7B8093BC0060E028
:100CD00084E10E94550260E085E10E9455020E9475
:100CE0003906D093BA00C093B800DF91CF91089530
:100CF000CF92DF92EF92FF920F931F93CF93DF93E8
:100D0000D82FC62F613208F098C00E9412036B01E1
:100D10007C018091440C81116BC081E08093440C74
:100D20008093230C9FEF9093220C1092210C9C0F28
:100D30009093200C80931F0C80911F0CDD0FD82BFB
:100D4000D0931F0C80911E0C813009F078C0109256
:100D50001E0C0E9412036B017C0180911F0C80937A
:100D6000BB008091460C9091470CA091480CB0912B
:100D7000490C892B8A2B8B2BA1F00E941203009126
:100D8000460C1091470C2091480C3091490C6C197D
:100D90007D098E099F09061717072807390708F4E8
:100DA00048C08091BC0083FDD8CF85EC8093BC0007
:100DB0000E9412036B017C018091440C813009F484
:100DC00040C08091210C8C1710F4C091210CEEEFE3
:100DD000FBE0A4E2BCE080E08C1355C08C2FDF91D7
:100DE000CF911F910F91FF90EF90DF90CF900895DA
:100DF0008091460C9091470CA091480CB091490C01
:100E0000892B8A2B8B2B09F484CF0E94120300912B
:100E1000460C1091470C2091480C3091490C6C19EC
:100E20007D098E099F09061717072807390708F05B
:100E300070CF8091450C0E945706C0E0CFCF85EE61
:100E4000B5CF8091460C9091470CA091480CB09181
:100E5000490C892B8A2B8B2B09F4AECF0E941203ED
:100E60000091460C1091470C2091480C3091490C90
:100E70006C197D098E099F0906171707280739077E
:100E800008F09ACFD6CF91919D938F5FA5CF08950B
:100E9000E091070B8091060BE81730F4F0E0EC5D71
:100EA000F34F808190E008958FEF9FEF0895909128
:100EB000070B8091060B2FEF3FEF981748F4E92FAF
:100EC000F0E0EC5DF34F208130E09F5F9093070BE3
:100ED000C90108958091060B9091070B891B990B0E
:100EE0000895CF92DF92EF92FF920F931F93CF93CB
:100EF000DF937C01CB018A0120914D0C222389F0E4
:100F0000EB016B01C40ED51ECC15DD0569F06991AE
:100F1000D701ED91FC910190F081E02DC701199569
:100F2000F3CF642F0E941206C801DF91CF911F9169
:100F30000F91FF90EF90DF90CF900895CF93DF93C4
:100F40001F92CDB7DEB7698320914D0C2223F9F0B3
:100F500020914A0C203258F021E030E0FC0133832C
:100F6000228390E080E00F90DF91CF9108958091EF
:100F70004B0CE82FF0E0E156F54F998190838F5F9D
:100F800080934B0C80934A0C81E090E0ECCF61E0C1
:100F9000CE0101960E941206F7CFCF92DF92EF9218
:100FA000FF920F931F93CF93DF93D0914A0C81E070
:100FB000D13208F09CC0C0914C0C0E9412036B010E
:100FC0007C018091440C81116CC082E08093440CC0
:100FD00081E08093230C8FEF8093220C1092210CE0
:100FE000D093200CAFE9BAE0EEEFFBE080E0D8133D
:100FF0008DC010921F0C80911F0CCC0FC82BC0937A
:101000001F0C80911E0C813009F084C010921E0CC0
:101010000E9412036B017C0180911F0C8093BB0026
:101020008091460C9091470CA091480CB091490CCE
:10103000892B8A2B8B2BA1F00E9412030091460C66
:101040001091470C2091480C3091490C6C197D0986
:101050008E099F09061717072807390708F442C0A9
:101060008091BC0083FDD8CF85EC8093BC000E94AA
:1010700012036B017C018091440C823009F44CC056
:101080008091220C8F3F09F469C08091220C80323C
:1010900009F466C08091220C803309F463C084E0B7
:1010A00026C08091460C9091470CA091480CB091BD
:1010B000490C892B8A2B8B2B09F483CF0E941203B6
:1010C0000091460C1091470C2091480C3091490C2E
:1010D0006C197D098E099F0906171707280739071C
:1010E00008F06FCF8091450C0E94570685E0109262
:1010F0004B0C10924A0C10924D0CDF91CF911F9126
:101100000F91FF90EF90DF90CF9008959D91919374
:101110008F5F6DCF85EEA9CF8091460C9091470CE3
:10112000A091480CB091490C892B8A2B8B2B09F488
:10113000A2CF0E9412030091460C1091470C2091FF
:10114000480C3091490C6C197D098E099F090617CE
:1011500017072807390708F08ECFC4CF80E0C7CF24
:1011600082E0C5CF83E0C3CFFF920F931F93CF934D
:10117000DF93EC01F62E142F052F888D0E944B0271
:101180008E899F89DC01ED91FC910190F081E02D29
:1011900060E019958E899F89DC01ED91FC910190A9
:1011A000F081E02D6F2D19958E899F89DC01ED91DD
:1011B000FC910190F081E02D602F19958E899F8917
:1011C000DC01ED91FC910190F081E02D612F1995EA
:1011D0008E899F890E94CD078B87DF91CF911F91C8
:1011E0000F91FF9008950F931F93CF93DF93EC011E
:1011F000062F142F888D0E944B028E899F89DC0157
:10120000ED91FC910190F081E02D60E019958E89BF
:101210009F89DC01ED91FC910190F081E02D602F20
:1012200019958E899F89DC01ED91FC910190F081E7
:10123000E02D612F19958E899F890E94CD078B879C
:10124000DF91CF911F910F91089590E080E0089574
:10125000CF93C82F80E70E944B0261E070E001C08D
:10126000660FCA95EAF789E19DE00E949E0789E131
:101270009DE00E94CD07811107C08BEA94E00197A1
:10128000F1F781E0CF91089580E0FCCF8091F40BDD
:10129000833018F08550823088F41092DD0B109264
:1012A000DC0B1092DF0B1092DE0B1092E10B109210
:1012B000E00B1092E30B1092E20B08958091320B39
:1012C0009091330B20912A0B30912B0B821B930BA7
:1012D0009093DD0B8093DC0B8091300B9091310B60
:1012E0002091280B3091290B821B930B9093DF0BDD
:1012F0008093DE0B80912C0B90912D0B2091240B71
:101300003091250B821B930B9093E10B8093E00BA4
:1013100080912E0B90912F0B2091260B3091270B53
:10132000821B930B9093E30B8093E20B0895CF9273
:10133000DF92EF92FF920F931F93CF93DF930E9460
:10134000B403E7E9FAE0ACE2BBE0C6E5DAE04191DC
:101350004423D1F009911991299139916B017C01B4
:10136000C01AD10AE20AF30A97018601013B144030
:101370002105310598F42D913D912139314070F4CA
:101380002AE0EB39F20719F7842FDF91CF911F91F3
:101390000F91FF90EF90DF90CF90089540E0F4CF51
:1013A0001F93CF93DF93162FC82FD0E061E0113049
:1013B00009F060E0FE01E858FD4F80810E9455026F
:1013C00061E01F3F09F060E0FE01EC58FD4F8081B5
:1013D0000E945502FE01E059FD4F61E080810E94AC
:1013E0005502C852D44F1883DF91CF911F910895B1
:1013F000CF93DF93C82FD0E0FE01E858FD4F60E0A7
:1014000080810E945502FE01EC58FD4F60E0808112
:101410000E945502FE01E059FD4F60E080810E946C
:101420005502FE01E852F44F10820E94B403CC0F23
:10143000DD1FCC0FDD1FC853D44F688379838A83A7
:101440009B83DF91CF9108958F929F92AF92BF922D
:10145000CF92DF92EF92FF920F931F93CF93DF9380
:10146000082F162FC82FD0E0FE01E956F54F8081D6
:101470008823B9F00E94B4037E01EE0CFF1CEE0C31
:10148000FF1CF701EA5AF54F80809180A280B3805B
:10149000681979098A099B09613B744081059105A6
:1014A00078F0802FDF91CF911F910F91FF90EF90F7
:1014B000DF90CF90BF90AF909F908F900C94F809E1
:1014C0001F3F91F5FE01EE0FFF1FE45DF44F808199
:1014D0009181892B31F3C852D44F8881811789F1CA
:1014E0008111DFCF0E94B403F701E853F44FC080AD
:1014F000D180E280F3806C197D098E099F096837DD
:10150000710581059105E8F0612F802FDF91CF9162
:101510001F910F91FF90EF90DF90CF90BF90AF9011
:101520009F908F900C94D0091130A9F6FE01EE0F18
:10153000FF1FE45DF44F808191818039914058F222
:10154000B0CFDF91CF911F910F91FF90EF90DF907F
:10155000CF90BF90AF909F908F90089580E00E94B1
:10156000F80981E00E94F80982E00E94F80983E00E
:101570000C94F8090E94AE0A1092BC0B1092C70B93
:1015800008950E94BA0A0E94AE0A81E08093F40B8B
:101590001092200B1092210B1092220B1092230B11
:1015A000A4EEBBE011961C921E92ECEDFBE01182C2
:1015B000108213961C921E92129713821282159615
:1015C0001C921E9214971582148217961C921E92DA
:1015D0001697178216820895FC0101900020E9F702
:1015E0003197AF01481B590BBC018CE79CE00C9470
:1015F000B4048F929F92AF92BF920F931F93CF9399
:10160000DF93CDB7DEB7A1970FB6F894DEBF0FBE5C
:10161000CDBF19A2423008F44AE08E010F5D1F4F82
:10162000842E912CB12CA12CA50194010E94F924A7
:10163000E62FB901CA01EA30F4F4E05DD801EE9377
:101640008D01232B242B252B79F790E080E0109738
:1016500019F0CD010E94EC0AA1960FB6F894DEBFF6
:101660000FBECDBFDF91CF911F910F91BF90AF9073
:101670009F908F900895E95CE1CFCF92DF92EF9237
:10168000FF92CF93DF936B017C016DE28CE79CE0CE
:101690000E944A05EC0166277727CB016C197D096A
:1016A0008E099F094AE00E94F90A8C0F9D1FDF9165
:1016B000CF91FF90EF90DF90CF900895CF93DF937D
:1016C0000E94EC0AEC0184E293E00E94EC0A8C0F89
:1016D0009D1FDF91CF9108954F925F926F927F92FD
:1016E0008F929F92AF92BF92CF92DF92EF92FF9232
:1016F0000F931F93CF93DF938091BC0B811105C093
:101700008091C70B882309F496C00E94B40300910E
:101710007A0A10917B0A20917C0A30917D0A601B25
:10172000710B820B930B6033754781059105B0F007
:101730000E94BA0A87E293E0DF91CF911F910F9147
:10174000FF90EF90DF90CF90BF90AF909F908F90E1
:101750007F906F905F904F900C945E0B0E94970962
:10176000982E882309F462C08EE7A82E8AE0B82E4E
:101770009CE2C92E9BE0D92E27E8E22E2AE0F22E29
:10178000C6E6DAE00AE61AE0812CF5018191919132
:101790005F01F601219131916F01821B930BF701DB
:1017A00041905190619071907F019C0197FF04C01E
:1017B00022273327281B390B243031053CF5882D8F
:1017C0000E94F809F80180819181A281B38184157A
:1017D0009505A605B70549F088814082518262824D
:1017E00073828F3F29F08F5F888388818230E0F099
:1017F000839421960C5F1F4FF4E08F12C6CF99207F
:10180000D1F00E94BA0A82E493E096CF1882F801E0
:10181000408251826282738261E0181619060CF0D0
:101820006FEF882D0E94240A912CE2CF0E94BA0A01
:1018300083E693E081CFDF91CF911F910F91FF90CD
:10184000EF90DF90CF90BF90AF909F908F907F9060
:101850006F905F904F900895009711F00C94EC0AF0
:1018600090E080E00895BC01990F880B990B97FDDB
:101870000C943D0B4AE00C94F90A0F931F93CF93FD
:10188000DF93EC01162F072F888D0E944B028E8963
:101890009F89DC01ED91FC910190F081E02D602F9A
:1018A00019958E899F89DC01ED91FC910190F08161
:1018B000E02D612F19958E899F890E94CD078B8716
:1018C00062E0888D0E9478061092070B8093060BC9
:1018D0008E899F89DC01ED91FC910284F385E02DD6
:1018E000199500E0182F8E899F89DC01ED91FC91FC
:1018F0000284F385E02D1995802B912BDF91CF91F8
:101900001F910F9108951F93CF93DF93EC01162F32
:10191000888D0E944B028E899F89DC01ED91FC919C
:101920000190F081E02D60E019958E899F89DC019E
:10193000ED91FC910190F081E02D612F19958E8938
:101940009F890E94CD078B8761E0888D0E94780671
:101950001092070B8093060B8E899F89DC01ED9115
:10196000FC910284F385E02D1995DF91CF911F91B1
:1019700008954F925F926F927F928F929F92AF9253
:10198000BF92CF92DF92EF92FF92CF93DF936A01E3
:101990007B0120EBC21A21E1D20AE108F10821EE15
:1019A000C21628ECD20620E1E206F10408F0ECC0F1
:1019B000EC0160E670E00E94830CB82E2E8D3F8D06
:1019C00050E040E060E070E080E090E40E94F924A4
:1019D000A0E0B9E00E943A259B01AC01A6E0569533
:1019E000479537952795AA95D1F7B394BB0CAB2DA6
:1019F000B0E00E943A252B013C01B6E07694679452
:101A000057944794BA95D1F74B015C0187E0B6949F
:101A1000A794979487948A95D1F7C501B40170581B
:101A2000814C9F4FA30192010E94F9242F3F310561
:101A30004105510529F020F02FEF30E040E050E063
:101A4000422F6BE470E0CE010E94F308C501B4019F
:101A5000705F8F4F9F4FA30192010E94F924CA012A
:101A6000B9010E94E805AC016AE570E0CE010E9470
:101A7000B408F694E794D794C7949CE0CC0CDD1C92
:101A8000EE1CFF1C9A95D1F7C501B4016C0D7D1DAC
:101A90008E1D9F1DA30192010E94F924CA01B90164
:101AA0000E94E805AC016EE570E0CE010E94B4082A
:101AB00063E670E0CE010E94830CB82E2E8D3F8D20
:101AC00050E040E060E070E080E090E40E94F924A3
:101AD000A0E0B9E00E943A259B01AC0166E0569572
:101AE0004795379527956A95D1F7B394BB0CAB2DE5
:101AF000B0E00E943A252B013C01E6E07694679421
:101B000057944794EA95D1F74B015C01F7E0B694FE
:101B1000A79497948794FA95D1F7C501B401705FA3
:101B20008F4F9F4FA30192010E94F924CA01B9016E
:101B30000E94E805AC016CE570E0CE010E94B4089B
:101B4000C701B601680D791D8A1D9B1DA301920175
:101B50000E94F924CA01B9010E94E805AC0161E6BE
:101B600070E0CE010E94B40881E0DF91CF91FF9038
:101B7000EF90DF90CF90BF90AF909F908F907F902D
:101B80006F905F904F90089580E0EFCF8F929F927B
:101B9000AF92BF92DF92EF92FF920F931F93CF937A
:101BA000DF93E82E082F10E0F801E459FD4F808103
:101BB000883008F0E4C20E942809D82E882309F44E
:101BC000DEC2D7E2ED9E70011124C7018B5D924FFA
:101BD0007C010E94B403D7015D967C936E935C9761
:101BE000E7015701B9E1AB0EB11C4701ECE18E0EE4
:101BF000911C61E370E0C7010E94830C80FF6CC000
:101C0000D5018D919C91892BA1F30E94B403F4011D
:101C100020813181621B730BD5018D919C918617B8
:101C2000970738F781E08B8F50E040E087E2809F94
:101C3000F001819FF00D1124EB5DF24F838D138E27
:101C400081119DC2828181119AC2CA010197803A95
:101C50009F4008F094C2E801CC0FDD1FFE01E45D57
:101C6000F44F51834083F801EE5AF54F8081C65BF3
:101C7000D54F81116DC25983488381E08083F8017B
:101C8000E956F54F81E080830E94B403000F111FD5
:101C9000000F111FF801EA5AF54F608371838283A8
:101CA0009383F801E957F54F80819181A281B38137
:101CB0000196A11DB11D80839183A283B3838D2DD5
:101CC000DF91CF911F910F91FF90EF90DF90BF9028
:101CD000AF909F908F90089587E2809FE001819F51
:101CE000D00D1124CB5DD24F888D0E944B028E897E
:101CF0009F89DC01ED91FC910190F081E02D60E085
:101D000019958E899F89DC01ED91FC910190F081FC
:101D1000E02D69E819958E899F890E94CD078B87F0
:101D200061E1888D0E9478061092070B8093060B64
:101D30008E899F89DC01ED91FC910284F385E02D71
:101D400019958C878E899F89DC01ED91FC91028425
:101D5000F385E02D19958E899F89DC01ED91FC9129
:101D60000284F385E02D19958D878E899F89DC018A
:101D7000ED91FC910284F385E02D19951E868F87E5
:101D80008E899F89DC01ED91FC910284F385E02D21
:101D900019952E853F85822B932B9F878E878E8961
:101DA0009F89DC01ED91FC910284F385E02D19956A
:101DB0008E899F89DC01ED91FC910284F385E02DF1
:101DC00019958E899F89DC01ED91FC910284F38540
:101DD000E02D1995188A898B8E899F89DC01ED91F8
:101DE000FC910284F385E02D199528893989822B8D
:101DF000932B998B888B8E899F89DC01ED91FC91C7
:101E00000284F385E02D19958E899F89DC01ED917F
:101E1000FC910284F385E02D19958E899F89DC0160
:101E2000ED91FC910284F385E02D19958E899F89AF
:101E3000DC01ED91FC910284F385E02D19958E89EA
:101E40009F89DC01ED91FC910284F385E02D1995C9
:101E50001A8A8B8B8E899F89DC01ED91FC9102841B
:101E6000F385E02D19952A893B89822B932B9B8B37
:101E70008A8B8E899F89DC01ED91FC910284F38528
:101E8000E02D19951C8A8D8B8E899F89DC01ED913F
:101E9000FC910284F385E02D19952C893D89822BD4
:101EA000932B9D8B8C8B8AA181112EC06BE070E0EF
:101EB000C7010E94830C8BA368E070E0C7010E94F9
:101EC000830C8CA34BA14F776BE070E0C7010E949D
:101ED000F3084CA14370445F68E070E0C7010E94C2
:101EE000F30841E06DE470E0C7010E94F30868ED7B
:101EF00070E0C7010E94830C482F67E470E0C701BF
:101F00000E94F30881E08AA387E2809FF001819F0D
:101F1000F00D1124EB5DF24F268537852115310533
:101F200009F46FC0448955896089718990E080E027
:101F3000640F751F811D911D61157105B1E08B073F
:101F4000910520F06FEF7FEF80E090E0CB017727E5
:101F5000662750E040E00E94F92421153105410533
:101F6000510509F44EC060E070E080E09AE00E9404
:101F7000F92421153105E1E04E07510520F02FEF3E
:101F80003FEF40E050E0A90164E570E0C7010E9426
:101F9000B40887E2809FF001819FF00D1124EB5D72
:101FA000F24F22893389ABEDB7E00E9445257C5F73
:101FB0008F4F9F4F4BE096958795779567954A95FC
:101FC000D1F771836083E485E150E23108F0B6C057
:101FD000F0E08827E151F04F8F4F0C94192704103F
:101FE000041004102D1023103710411055105F10ED
:101FF0009E109E104B100F109E109E109E100410ED
:10200000191040E050E8C0CF87E2809FF001819F27
:10201000F00D1124EB5DF24F85E082835EC087E214
:10202000809FF001819FF00D1124EB5DF24F8DE058
:10203000F4CF87E2809FF001819FF00D1124EB5DCA
:10204000F24F8AE0EACF87E2809FF001819FF00D96
:102050001124EB5DF24F84E0E0CF87E2809FF00136
:10206000819FF00D1124EB5DF24F82E0D6CF87E225
:10207000809FF001819FF00D1124EB5DF24F81E014
:10208000CCCF87E2809FF001819FF00D1124EB5DA2
:10209000F24F87E0C2CF87E2809FF001819FF00D71
:1020A0001124EB5DF24F89E0B8CF87E2809FF00109
:1020B000819FF00D1124EB5DF24F83E0AECF87E2FC
:1020C000809FF001819FF00D1124EB5DF24F85851B
:1020D000811102C086E0A1CF128287E2809FE001D9
:1020E000819FD00D1124CB5DD24F6C897D8990E00A
:1020F00080E00E94F52520E030E040E05CE30E94B3
:10210000AC266B837C838D839E836889798990E07C
:1021100080E00E94F52520E030E040E05CE30E9492
:10212000AC266F83788789879A8741E066E870E0FC
:10213000C7010E94F3084881598178CD87E2809FCA
:10214000F001819FF00D1124EB5DF24F8FEF65CF11
:10215000A881B98123E030E00E942127640F751F18
:10216000811D911D6E5F7F4F8F4F9F4F24E030E0A8
:1021700040E050E00E941B253983288380CDF80180
:10218000EE0FFF1FEE0FFF1FEA5AF54F8080918080
:10219000A280B38081149104A104B10431F4F80148
:1021A000E956F54F1082D12C8ACD0E94B4036819EC
:1021B00079098A099B09613B74408105910578F78B
:1021C000F2CF8F929F92AF92BF92CF92DF92EF9217
:1021D000FF920F931F93CF93DF930E9446098DEEDA
:1021E00093E00E942C0CE091F40B8BEA93E0E73033
:1021F00080F4F0E08827E050FF4E8F4F0C941927B1
:1022000033120711201227122A122D12301283E3E3
:1022100098E00E942C0C8EEF93E00E942C0C809191
:10222000340B90E00E94330C86E094E00E942C0C6A
:1022300060919B0A70919C0A80919D0A90919E0AE0
:102240004AE00E94F90A8FE094E00E942C0C8AE197
:1022500092E00E942C0C8FE697E00E942C0C60917B
:10226000200B7091210B8091220B9091230B4AE05F
:102270000E94F90A8CE2A82E8BE0B82E97E9E92E8D
:102280009AE0F92E07E81AE028EDC22E2BE0D22EB4
:1022900038E6832E32E0932EC1E0D0E087E194E06F
:1022A0000E942C0CCE010E94330C85EF94E00E941A
:1022B0002C0CF501619171915F0190E080E04AE0A2
:1022C0000E94F90A8AE194E00E942C0CF7018191A6
:1022D0007F0190E00E94330C8AE194E00E942C0C74
:1022E000F80161917191819191918F014AE00E9471
:1022F000F90A8AE194E00E942C0CF60181916F01A9
:10230000813009F4B6C08F3F09F4B6C089EC93E080
:102310000E942C0C8AE194E00E942C0CF401819123
:102320004F0190E00E94330C2196C530D10509F091
:10233000B5CF8CE194E00E942C0C04EE1BE0C0E0D1
:10234000F801819191918F010E94330CCF5FC430CD
:1023500009F095C085E294E00E942C0C0CED1BE086
:10236000C0E0F801819191918F010E94330CCF5F01
:10237000C43009F089C08FE294E00E942C0C809157
:10238000BC0B811186C08091C70B90E00E94330C7A
:102390008FE394E00E942C0C8091C70B81117CC0CC
:1023A0008091BC0B81117BC08AED93E00E942C0CC4
:1023B0008FE494E00E942C0C8091BC0B882309F4DC
:1023C00071C08091860A90E00E94330C8FE594E002
:1023D0000E942C0C0EE71AE0C0E0F80161917191A7
:1023E0008F0190E080E04AE00E94F90ACF5FC4309C
:1023F00009F05BC08FE694E00E942C0C8091C60B24
:1024000090E00E94330C8FE794E00E942C0C8091A6
:10241000C50B882309F44EC086EE93E00E942C0C75
:1024200084E293E0DF91CF911F910F91FF90EF90A5
:10243000DF90CF90BF90AF909F908F900C94EC0A5C
:102440008091C50B882391F08AE893E0E2CE87EB78
:1024500098E0DFCE88E993E0DCCE8FE993E0D9CE37
:1024600085EA93E0D6CE85E893E0D3CE83EB93E084
:10247000D0CE88E795E04CCF81EC93E049CF8AE15C
:1024800094E00E942C0C5CCF8AE194E00E942C0C1A
:1024900068CF81E090E07ACF8EEC93E087CF86ED35
:1024A00093E084CF8FEF9FEF8FCF8AE194E00E947B
:1024B0002C0C93CF8FED93E0B1CFAF92BF92CF9220
:1024C000DF92EF92FF920F931F93CF93DF938C01D4
:1024D000D62EC42E0E949709811110C00E94BA0AFC
:1024E00088EB94E0DF91CF911F910F91FF90EF90D7
:1024F000DF90CF90BF90AF900C945E0BE801C801C5
:102500000896F801219131918F012139314028F04D
:102510000E94BA0A8FEC94E0E5CF0817190789F7F3
:102520000E94AE0A8EE7E82E8AE0F82E86E69AE050
:10253000A7E8BAE02AE6A22E2AE0B22E9701499136
:102540005991F901419351939F01FC011192CF01DF
:102550004D915D916D917D91F50141935193619301
:1025600071935F01C017D10751F7C092860A0E948C
:10257000B40360937A0A70937B0A80937C0A9093E9
:102580007D0AD092C70B81E08D258093BC0B83EA36
:1025900094E0DD2011F080E994E00E942C0C89EE9B
:1025A00094E00E942C0CC0E0F701619171917F01D1
:1025B00090E080E04AE00E94F90ACF5FC43071F4F5
:1025C00084E293E0DF91CF911F910F91FF90EF9004
:1025D000DF90CF90BF90AF900C94EC0A6CE28CE748
:1025E0009CE00E944A05E0CF7F928F929F92AF922B
:1025F000BF92CF92DF92EF92FF920F931F93CF93F0
:10260000DF9300D000D000D0CDB7DEB70E94BA0A69
:10261000E6E7F2E0E491E093680CE0E3F2E0E491B5
:10262000F0E0EE0FFF1FE851FE4F859194919093DB
:102630006A0C8093690CE7E7F2E0E491E0936B0C9D
:10264000E1E3F2E0E491F0E0EE0FFF1FE851FE4F0E
:102650008591949190936D0C80936C0CE8E7F2E077
:10266000E491E0936E0CE2E3F2E0E491F0E0EE0F2F
:10267000FF1FE851FE4F859194919093700C8093C9
:102680006F0CE9E7F2E0E491E093710CE3E3F2E030
:10269000E491F0E0EE0FFF1FEC54FE4F8591949112
:1026A0009093730C8093720C61E08EE20E94E102C1
:1026B00061E080E30E94E10261E08FE20E94E102BA
:1026C00060E081E30E94E10261E081E30E94550243
:1026D0000E94AD010E94BC0180E00E94C00380E026
:1026E0000E94C00380914F0C9FEB980F923028F00E
:1026F000833719F0893709F059C081E08093780C4D
:102700000BE010E097E0C92ED12C28E6A22E22E0A3
:10271000B22E7724739465E08AE592E00E946A0302
:10272000C6010197F1F70E94AD010E94BC010E9411
:102730003B02C6010197F1F78FE5E82E82E0F82E03
:10274000CE0101964C01F70181917F010E94CB01DE
:10275000F40181934F01AE14BF04A9F70E949E01BA
:102760008C818093790C69E081E592E00E946A0394
:1027700065E08CE492E00E946A0370927A0C69E052
:102780008AE392E00E946A0380E00E94C003809185
:102790004F0C833709F465C00150110909F463C077
:1027A0008091780C8F5F8093780CB5CF81E090E0BA
:1027B000909301028093000287EF94E00E942C0C1A
:1027C00080910002909101020E94330C84E293E018
:1027D0000E94EC0A8091000290910102892B09F07D
:1027E00044C081E08093C60B1092BD0B1092C50BC4
:1027F0001092B70B1092860A1092C40B1092C30B62
:102800001092C20B88E095E00E945E0B8FE295E08B
:102810000E945E0B86E595E00E945E0B8FE795E0D7
:102820000E945E0B8AEA95E00E945E0B84ED95E0C3
:102830000E945E0B8EEF95E029960FB6F894DEBFEE
:102840000FBECDBFDF91CF911F910F91FF90EF9001
:10285000DF90CF90BF90AF909F908F907F900C941F
:102860005E0B80E0A4CF82E0A2CF1092C60B109244
:10287000BD0B1092C50B1092C40B1092C30B10929B
:10288000C20B8AE296E0D8CFCF93DF93EC010E948F
:10289000AE0A85E08093F40B80919B0A90919C0A8C
:1028A000A0919D0AB0919E0A0196A11DB11D809331
:1028B0009B0A90939C0AA0939D0AB0939E0A4FE1B5
:1028C00050E0BE018AE192E00E9482271092390214
:1028D00081E496E00E942C0C8AE192E0DF91CF9196
:1028E0000C945E0B85ED8093BC008091460C90911A
:1028F000470CA091480CB091490C0796A11DB11D41
:1029000023E0B695A795979587952A95D1F72091BD
:10291000BC0024FD03C01092440C08954091460C65
:102920005091470C6091480C7091490C452B462BF7
:10293000472B69F30097A105B10541F02AE22A95DA
:10294000F1F700C00197A109B109E1CF8091450CD1
:102950000C9457061F920F920FB60F9211242F93CB
:102960003F938F939F93AF93BF938091F60B90917A
:10297000F70BA091F80BB091F90B3091F50B23E018
:10298000230F2D3758F50196A11DB11D2093F50B8E
:102990008093F60B9093F70BA093F80BB093F90B81
:1029A0008091FA0B9091FB0BA091FC0BB091FD0B69
:1029B0000196A11DB11D8093FA0B9093FB0BA09380
:1029C000FC0BB093FD0BBF91AF919F918F913F9105
:1029D0002F910F900FBE0F901F90189526E8230F90
:1029E0000296A11DB11DD2CF1F920F920FB60F926A
:1029F00011240BB60F922F933F934F935F936F93D6
:102A00007F938F939F93AF93BF93EF93FF938CE745
:102A10009CE00E942805FF91EF91BF91AF919F919B
:102A20008F917F916F915F914F913F912F910F9077
:102A30000BBE0F900FBE0F901F9018951F920F9214
:102A40000FB60F9211240BB60F922F938F939F9373
:102A5000EF93FF93E0918C0CF0918D0C8081E091CD
:102A6000920CF091930C82FD1DC090818091950C89
:102A70008F5F8F732091960C821741F0E091950C37
:102A8000F0E0E458F34F958F8093950CFF91EF9110
:102A90009F918F912F910F900BBE0F900FBE0F90B3
:102AA0001F9018958081F2CF1F920F920FB60F9250
:102AB00011240BB60F922F933F934F935F936F9315
:102AC0007F938F939F93AF93BF93EF93FF938091E7
:102AD000B900887F803609F44DC008F040C08832C4
:102AE00009F4A9C028F5803109F49DC0C8F48823F1
:102AF00009F4FBC0883009F496C0FF91EF91BF91B3
:102B0000AF919F918F917F916F915F914F913F9185
:102B10002F910F900BBE0F900FBE0F901F90189526
:102B2000883109F488C0803241F78093220C14C0A8
:102B3000803409F49DC040F48033B9F38833E9F65A
:102B40008093220C85ECB0C0803509F485C08835AF
:102B500009F496C0883489F60E947214CECF883961
:102B600009F48CC038F5883729F050F4883611F014
:102B7000803719F683E08093440C1092010B57C004
:102B8000883809F47BC0803919F0803809F0B5CF56
:102B90008091010B803208F071C0E091010B81E05F
:102BA0008E0F8093010B8091BB00F0E0EF51F54F49
:102BB00080833DC0803B39F0E0F4803A09F479C06D
:102BC000883A09F09ACF84E08093440C1092E00A8E
:102BD0001092DF0AE091040BF091050B199580919A
:102BE000DF0A81110FC081E08093DF0A1092BF0AD3
:102BF00009C0803C09F4A6CF883C09F4A3CF883BE8
:102C000009F07BCFE091E00A81E08E0F8093E00A2B
:102C1000F0E0E154F54F80818093BB009091E00A91
:102C20008091DF0A29C080911F0C8093BB0085EC46
:102C30008093BC0062CF9091210C8091200C98175A
:102C400058F5E091210C81E08E0F8093210CF0E08B
:102C5000E250F44F8081E9CFE091210C81E08E0FAA
:102C60008093210C8091BB00F0E0E250F44F808310
:102C70009091210C8091200C9817C8F285E8D8CF4C
:102C8000E091210C81E08E0F8093210C8091BB009C
:102C9000F0E0E250F44F80838091230C81115CCFEF
:102CA00081E080931E0C84EA8093BC001092440C57
:102CB00024CF85EC8093BC001092440C8091010BD2
:102CC000803230F4E091010BF0E0EF51F54F1082CB
:102CD0006091010B70E0E091020BF091030B81EE2B
:102CE0009AE019951092010B08CF1092220C34CF64
:102CF0001F920F920FB60F9211240BB60F920F93E3
:102D00001F932F933F934F935F936F937F938F9373
:102D10009F93AF93BF93EF93FF9313B10E9412035E
:102D200011FF20C06093460A7093470A8093480AB7
:102D30009093490A81E080930D0BFF91EF91BF9131
:102D4000AF919F918F917F916F915F914F913F9143
:102D50002F911F910F910F900BBE0F900FBE0F90F0
:102D60001F90189520910D0B222339F30091460AEC
:102D70001091470A2091480A3091490A601B710B53
:102D8000820B930B60931C0B70931D0B80931E0B97
:102D900090931F0B10920D0B81E08093120BCDCFFF
:102DA000CF92DF92EF92FF920F931F93CF93DF9317
:102DB0001F921F92CDB7DEB7009789F1FC012081E9
:102DC000222369F18B011A8219824AE050E0BE0188
:102DD0006F5F7F4F0E948522E981FA812081211156
:102DE0001EC06B017C01FEE5CF0EF1E0DF1EE11C91
:102DF000F11C2DEBC21622E0D206E104F10478F4B6
:102E0000F8017183608381E00F900F90DF91CF9183
:102E10001F910F91FF90EF90DF90CF90089580E089
:102E2000F3CF10927F0C10927E0C88EE93E0A0E01E
:102E3000B0E08093800C9093810CA093820CB093AF
:102E4000830C24E033E030937D0C20937C0C25EC44
:102E500030E03093890C2093880C24EC30E03093E0
:102E60008B0C20938A0C20EC30E030938D0C209357
:102E70008C0C21EC30E030938F0C20938E0C22ECE4
:102E800030E03093910C2093900C26EC30E030939E
:102E9000930C2093920C1092950C1092960C109219
:102EA000970C1092980C10921C0D10921B0D809391
:102EB0001D0D90931E0DA0931F0DB093200D86E164
:102EC00093E090931A0D8093190DE5E2FDE049E13E
:102ED0005DE029E283E090E0578B468B208F128ED5
:102EE000118E138E12A213A214A296A385A3B796D5
:102EF0003DE0E13CF30781F70895CF93DF93CDB731
:102F0000DEB76E970FB6F894DEBF0FBECDBF7894D4
:102F100084B5826084BD84B5816084BD85B58260DE
:102F200085BD85B5816085BD80916E00816080938F
:102F30006E001092810080918100826080938100F8
:102F40008091810081608093810080918000816008
:102F5000809380008091B10084608093B100809163
:102F6000B00081608093B000809191008260809376
:102F700091008091910081608093910080919000F8
:102F80008160809390008091A10082608093A10075
:102F90008091A10081608093A1008091A000816058
:102FA0008093A00080912101826080932101809113
:102FB00021018160809321018091200181608093B3
:102FC000200180917A00846080937A0080917A0059
:102FD000826080937A0080917A00816080937A0089
:102FE00080917A00806880937A001092C100E0910D
:102FF0008C0CF0918D0C82E08083E091880CF09134
:10300000890C1082E0918A0CF0918B0C80E1808316
:103010001092940CE091900CF091910C86E08083DA
:10302000E0918E0CF0918F0C808180618083E09123
:103030008E0CF0918F0C808188608083E0918E0CE3
:10304000F0918F0C808180688083E0918E0CF091EC
:103050008F0C80818F7D808361E085E30E94E10297
:1030600060E085E30E94550260E084E30E94E10293
:1030700008E712E044E7C42E42E0D42E50E7E52EE4
:1030800052E0F52E61E0D8018D918D010E94E102A0
:1030900061E0F60181916F010E94E10261E0D701D8
:1030A0008D917D010E94E102B2E00C371B0751F7C0
:1030B0000E94AE0A6CED75E080E090E00E9437035C
:1030C00087E596E00E945E0B1092070B1092060BAC
:1030D00010924B0C10924A0C0E94390682EB94E03D
:1030E0009093050B8093040B83EB94E09093030B78
:1030F0008093020B88E48093B8001092080B88EA52
:1031000091E6A0E0B0E08093460C9093470CA0932A
:10311000480CB093490C81E08093450C80E70E94F5
:103120004B0260E089E19DE00E949E0789E19DE0FD
:103130000E94CD07882309F415C181E896E00E941A
:1031400044147E0121E1E20EF11CAE01475F5F4FA6
:103150005C8B4B8BF8948091120B20911C0B30915F
:103160001D0B40911E0B50911F0B81111092120BE1
:103170007894882309F432C410920E0B10920F0B2E
:103180001092100B1092110BA7E5B1E00E943A25A6
:1031900068517C4F8F4F9F4F20ED37E040E050E06B
:1031A0000E94F9248091180B9091190BA0911A0B91
:1031B000B0911B0B0196A11DB11D8093180B90932C
:1031C000190BA0931A0BB0931B0BDA01C90144979A
:1031D000A109B1098D389F40A105B10508F0EEC3E2
:1031E000209316023093170240931802509319024D
:1031F00044E150E06BE077E082E092E00E948227B9
:103200000E94B4030091090B10910A0B20910B0B43
:1032100030910C0B5B016C01A01AB10AC20AD30AEF
:10322000960185010436110521053105B0F1209183
:103230000D0B211132C06093090B70930A0B809320
:103240000B0B90930C0BF8941092120B10921C0B1A
:1032500010921D0B10921E0B10921F0B789460E0C1
:1032600085E30E94550283E090E00197F1F761E069
:1032700085E30E94550283E290E00197F1F760E058
:1032800085E30E9455020E94120360930E0B709317
:103290000F0B8093100B9093110B0E94B4030091BD
:1032A000140B1091150B2091160B3091170B601B0E
:1032B000710B820B930B6A30710581059105B0F09B
:1032C0000E94B4036093140B7093150B8093160B3C
:1032D0009093170B8091130B0E94C60D8091130BD6
:1032E00090E00196837099278093130B62E0962EED
:1032F00076E0872E8CE79CE00E941205892B09F46A
:103300008DC68CE79CE00E94F0048D3099F32091EB
:10331000B50B3091B60B8A3009F068C6F901EB5C49
:10332000F44F1082232B09F4ABC365EA73E085E305
:103330009BE00E947927892B09F098C30E94AE0A6E
:1033400081E08093340B8092F40B40E250E064E221
:1033500077E08AE192E00E9482278AE297E00E9469
:103360005E0B8EC38CE6C82E82E0D82E95E2E92E45
:103370009DE0F92E11E0412C512C612C20E4722E9D
:1033800032E0232E312CF60181916F01883090F1CB
:1033900010E0B7E2EB0EF11CE0E7F2E0EC15FD0502
:1033A00091F70E94B4036B017C010E94B4036C1975
:1033B0007D098E099F09603A7F408105910508F0DB
:1033C000DDC20E9497098111D9C20E94AE0A80E035
:1033D0000E94C60D81E00E94C60D82E00E94C60DCB
:1033E00083E00E94C60D64E170E080E090E00E94FE
:1033F0003703DBCF0E942809882351F262E370E093
:1034000080E090E00E943703E4EFF1E0D7015A96A4
:10341000FC93EE9359976FE071E0C7010E943D0C59
:103420008C3C9A4E09F0B4CF40E070E060E0C701F8
:103430000E94F3088BE891E00197F1F741E070E01A
:1034400060E0C7010E94F30861E070E080E090E076
:103450000E9437030E94B403D7015D967C936E935C
:103460005C9765EE70E0C7010E94830C80FF04C08A
:10347000F70183858823A9F0D70159968D919C91F6
:10348000892B79F30E94B403F701248D358D621BDB
:10349000730B818D928D8617970718F781E0838FC4
:1034A00077CF6EE270E0C7010E94830C482F416025
:1034B0006EE270E0C7010E94F30866E070E0C701A9
:1034C0000E943D0CD7015F969C938E935E976EEDA4
:1034D00070E0C7010E943D0CF70191A380A340E07A
:1034E0005AE064E270E0C7010E94B40842E061E380
:1034F00070E0C7010E94F30848E066E370E0C7018E
:103500000E94F30840E167E370E0C7010E94F308FE
:1035100041E069E370E0C7010E94F3084FEF6EE3FA
:1035200070E0C7010E94F30840E06FE370E0C7015C
:103530000E94F30842E060E470E0C7010E94F308D3
:1035400050E040E060E570E0C7010E94B40850E040
:1035500040E062E570E0C7010E94B40848E367E517
:1035600070E0C7010E94F30848E651E064E670E0AD
:10357000C7010E94B40840EC50E066E670E0C70165
:103580000E94B40841E061E770E0C7010E94F308BF
:1035900041E06CE770E0C7010E94F30842E06EE78B
:1035A00070E0C7010E94F30840E062E870E0C701E4
:1035B0000E94F30841E067E770E0C7010E94F3084A
:1035C0004BE861E870E0C7010E94F30840E058EC66
:1035D00064E570E0C7010E94B40842E06FE470E067
:1035E000C7010E94F30860E670E0C7010E94830CE7
:1035F000082FD7015E962D913C9150E040E0C30129
:10360000B2010E94F924A0E0B9E00E943A259B0192
:10361000AC01A6E05695479537952795AA95D1F721
:103620000F5F000FA02FB0E00E943A254B015C0114
:103630006EE570E0C7010E943D0C9C01BC0177273C
:1036400090E080E004C0660F771F881F991F3A95AD
:10365000D2F76F5F7F4F8F4F9F4FA5019401B6E068
:103660005695479537952795BA95D1F70E94282703
:10367000385F4F4F5F4F6F4F7F4F8F4F9F4F0CE023
:103680000E9455272D8B3E8B4F8B588F698F7A8FD9
:103690008B8F9C8F8D889E88AF88B88CB8ED8B0EF1
:1036A000B8E09B1EA11CB11C880C991CAA1CBB1C59
:1036B0004FE060E670E0C7010E94F3084DE063E66A
:1036C00070E0C7010E94F30848EB69E670E0C701AB
:1036D0000E94F3084FE068E770E0C7010E94F3081A
:1036E0004DE069E770E0C7010E94F3084EE06AE729
:1036F00070E0C7010E94F3084EE06BE770E0C7017D
:103700000E94F308E1EB8E16E1E19E06A104B104EC
:1037100028F0B501A401C7010E94B90CD701969603
:103720003C922E92959740E553EC60E070E0C70123
:103730000E94B90C62E270E0C7010E943D0CAC012E
:10374000440F551F440F551F6EE170E0C7010E94E2
:10375000B40860E670E0C7010E94830C082FF701EF
:10376000268D378D50E040E0C301B2010E94F9245C
:10377000A0E0B9E00E943A259B01AC0196E0569585
:103780004795379527959A95D1F70F5F000FA02F92
:10379000B0E00E943A254B015C016EE570E0C70184
:1037A0000E943D0C9C01BC01772790E080E004C0A2
:1037B000660F771F881F991F3A95D2F76F5F7F4F6B
:1037C0008F4F9F4FA5019401E6E056954795379599
:1037D0002795EA95D1F70E942827385F4F4F5F4F12
:1037E0006F4F7F4F8F4F9F4F0CE00E9455272D8BBF
:1037F0003E8B4F8B588F698F7A8F8B8F9C8F8D88E4
:103800009E88AF88B88CF8ED8F0EF8E09F1EA11C43
:10381000B11C880C991CAA1CBB1C47E060E670E038
:10382000C7010E94F30845E063E670E0C7010E940B
:10383000F30848E369E670E0C7010E94F30847E037
:1038400068E770E0C7010E94F30845E069E770E0AF
:10385000C7010E94F30846E06AE770E0C7010E94D2
:10386000F30846E06BE770E0C7010E94F30821EB24
:10387000821621E19206A104B10428F0B501A40149
:10388000C7010E94B90CD70196961C921E9295977B
:1038900040E553EC60E070E0C7010E94B90C88235A
:1038A00009F476CDF70120A131A1ACE3B0E00E948C
:1038B00045254B015C01808D0E944B02D701569635
:1038C0008D919C91DC01ED91FC910190F081E02DB6
:1038D00060E01995F70186899789DC01ED91FC91EB
:1038E0000190F081E02D6CE61995F70186899789A2
:1038F000DC01ED91FC910190F081E02D60E01995E3
:10390000F701A689B789B50188279927ED91FC9120
:1039100011970190F081E02DCD011995F701A6894D
:10392000B78999278B2D7A2D692DED91FC911197EF
:103930000190F081E02DCD011995D70156968D911A
:103940009C91DC01ED91FC910190F081E02D682DBE
:103950001995F701868997890E94CD07D7011B9693
:103960008C9341E066E870E0C7010E94F30840E4F0
:1039700067E870E0C7010E94F3080BCD111104C085
:1039800082E996E00E945E0B0E949709811103C0B4
:1039900089EC96E0D4CB80916800816080936800C8
:1039A00080916B00826080936B000E94C10A85ED5C
:1039B00096E00E945E0B0E94F412C3CB8FEF9FEF44
:1039C000DC018093160290931702A0931802B09323
:1039D000190244E150E06EE077E00ECC80900E0BCF
:1039E00090900F0BA090100BB090110B81149104CC
:1039F000A104B10409F404CC0E94120368197909E6
:103A00008A099B09613375478105910508F4F8CB54
:103A100010920E0B10920F0B1092100B1092110BB4
:103A200010920D0B8091180B9091190BA0911A0B0D
:103A3000B0911B0B0196A11DB11D8093180B9093A3
:103A4000190BA0931A0BB0931B0B22242A94322C2F
:103A500021012092160230921702409218025092D1
:103A6000190244E150E06CE177E0C6CB67E577E00E
:103A700085E39BE00E947927892B39F40E94E110AD
:103A80001092B60B1092B50B35CC6EE577E085E35E
:103A90009BE00E947927892B09F046C0F89440905A
:103AA0001C0B50901D0B60901E0B70901F0B789498
:103AB0008BE697E00E942C0C6091180B7091190B0B
:103AC00080911A0B90911B0B4AE00E94F90A85E73E
:103AD00097E00E942C0C0E94B4034AE00E94F90A6D
:103AE0008CE797E00E942C0C6091160270911702EF
:103AF000809118029091190297FF12C00E943D0B0D
:103B00008AE897E00E942C0C4AE0C301B2010E94AF
:103B1000F90A85E997E00E942C0C82E092E01FCC24
:103B20004AE00E94F90AECCF6EE977E085E39BE07A
:103B30000E947927892B19F483EA97E010CC8091B1
:103B4000340B811104C01091F40B163019F48BEB77
:103B500097E005CC66EA73E085E39BE00E94792755
:103B6000892BD1F46DEC77E08AE192E00E9479270D
:103B7000153029F4892B19F08FED97E0F0CB40E256
:103B800050E06AED73E08AE192E00E9482270E9491
:103B9000C10A80E098E0E3CB153071F36AE178E088
:103BA00085E39BE00E947927892B09F04DC01130F5
:103BB00019F085E298E0D3CB0E949709811103C0E8
:103BC0008AE398E0CCCB0E94BA0A0E94AE0A909297
:103BD000F40B1092200B1092210B1092220B1092DA
:103BE000230B1092C50B1092C40B1092C30B1092B2
:103BF000E50B1092E40B1092DD0B1092DC0B10928F
:103C0000E70B1092E60B1092DF0B1092DE0B109276
:103C1000E90B1092E80B1092E10B1092E00B10925E
:103C2000EB0B1092EA0B1092E30B1092E20B0E9446
:103C3000B4036093EC0B7093ED0B8093EE0B9093B9
:103C4000EF0B8EE498E08BCB6AE678E085E39BE0AF
:103C50000E947927892B09F063C0113009F0A9CFA0
:103C60000E949709882309F4ABCF0E94AE0A809185
:103C70002C0B90912D0B9093250B8093240B80910E
:103C80002E0B90912F0B9093270B8093260B8091F6
:103C9000300B9091310B9093290B8093280B8091DE
:103CA000320B9091330B90932B0B80932A0B109235
:103CB000E50B1092E40B1092DD0B1092DC0B1092CE
:103CC000E70B1092E60B1092DF0B1092DE0B1092B6
:103CD000E90B1092E80B1092E10B1092E00B10929E
:103CE000EB0B1092EA0B1092E30B1092E20B53E0F5
:103CF000B52EB092F40B0E94B4036093EC0B70935A
:103D0000ED0B8093EE0B9093EF0B1092200B109223
:103D1000210B1092220B1092230B82E798E01FCB0D
:103D20001A8A198AA70166E075E085E39BE00E9484
:103D3000BF248C01A70166E075E090E080E00E945E
:103D4000BF24009789F1DC012C91222369F12D32E7
:103D500059F11A8219824AE050E0BE016F5F7F4F2D
:103D60000E94B3232B013C01E981FA8180818111FA
:103D70001BC04114510461047104B1F08091200B07
:103D80009091210BA091220BB091230B84159505E6
:103D9000A605B70548F4D090F40B8EEF8D0D833057
:103DA00030F08FEA98E0DBCA81E998E0D8CA65ED87
:103DB00078E0C8010E947927892B09F5A70166E000
:103DC00075E090E080E00E94BF24892B19F08DEB14
:103DD00098E0C5CA4092200B5092210B6092220BB2
:103DE0007092230B0E94B4036093EC0B7093ED0B65
:103DF0008093EE0B9093EF0B82ED98E0B0CA66E1F2
:103E000079E0C8010E947927892B09F060C0B2E0EF
:103E10008FED98E0DB12A3CA8E01075F1F4F1A8255
:103E20001982A70166E075E090E080E00E94BF245F
:103E3000BE016F5F7F4F0E94D016882309F441C0F6
:103E400089819A818139E1E09E07D8F5D8018D9367
:103E50009D938D01AE15BF0511F7A70166E075E0D2
:103E600090E080E00E94BF24892B71F589859A85B6
:103E700098878F838B859C859E838D838D859E857A
:103E80009A8389838F8598899C838B834092200BAA
:103E90005092210B6092220B7092230B0E94B4036C
:103EA0006093EC0B7093ED0B8093EE0B9093EF0B04
:103EB00040E061E0CE0101960E945D1283E199E04D
:103EC0004ECA84EF98E04BCA81E299E048CA6DE798
:103ED00079E0C8010E947927892B09F084C08DEF11
:103EE0008D0D823018F086E399E039CAFE013196D3
:103EF0005F016F01A70166E075E090E080E00E943D
:103F0000BF24B6010E94D016811103C088E499E055
:103F100026CA32E0C30ED11C2B883C882C143D04E9
:103F200049F7A70166E075E090E080E00E94BF24B9
:103F3000892B19F086E699E012CA2CEF32E0D901FC
:103F4000ED919D01D5018D919D915D01F0E0EE0F08
:103F5000FF1FEC5DF44F40815181052E000C660B74
:103F6000770B092E000CAA0BBB0B480F591F6A1FB9
:103F70007B1F413951406105710518F087E899E0D0
:103F8000EEC9E0E0F3E0E217F307C9F689819A8110
:103F90009093E50B8093E40B8B819C819093E70BCE
:103FA0008093E60B8D819E819093E90B8093E80BC3
:103FB0008F8198859093EB0B8093EA0B4092200BB6
:103FC0005092210B6092220B7092230B0E94B4033B
:103FD0006093EC0B7093ED0B8093EE0B9093EF0BD3
:103FE0008AE799E0BCC984EA99E0B9C92F3731055D
:103FF00060F4A9014F5F5F4F5093B60B4093B50B30
:104000002B5C344FD9018C9375C91092B60B10926A
:10401000B50B88EB99E00E9444146CC98091F40BB5
:10402000823059F50E94B4030091EC0B1091ED0B16
:104030002091EE0B3091EF0B601B710B820B930BF9
:10404000613D77408105910588F00E94BA0A0E947F
:10405000C10A40E250E06AED73E08AE192E00E941A
:10406000822789EC99E00E945E0B07C08091C70B04
:10407000882309F450C00E946C0B8091F40B83508C
:104080008230F0F40E94B4034B015C018091EC0B90
:104090009091ED0BA091EE0BB091EF0B1401250167
:1040A000281A390A4A0A5B0AD201C101813D9740A8
:1040B000A105B10508F4B2C18DEC97E00E9444144B
:1040C0008091F40B813019F08550823010F40E94F9
:1040D000AE0A0E94B4030091F00B1091F10B2091F5
:1040E000F20B3091F30B601B710B820B930B683C4E
:1040F00071058105910560F00E94B4036093F00B97
:104100007093F10B8093F20B9093F30B0E94E110EC
:104110000E94B7051FC88091C60B81112BC00E9459
:10412000BA0A1092C50B1092C40B1092C30B1092D6
:10413000C20B0E94B4030091BE0B1091BF0B2091E3
:10414000C00B3091C10B601B710B820B930B603D58
:1041500077408105910508F4B3CF0E94B4036093C2
:10416000BE0B7093BF0B8093C00B9093C10B0E944A
:10417000F41283CF8091C20B8823A9F00E94B4036C
:104180000091B80B1091B90B2091BA0B3091BB0B79
:10419000601B710B820B930B623C71408105910592
:1041A00060F11092C20B80E00E94C003811127C011
:1041B0008091BD0B8F3F19F08F5F8093BD0B809175
:1041C000BD0B833008F47CCF0E94BA0A1092C60B54
:1041D0001092C50B1092C40B1092C30B1092C20B1D
:1041E0000E94B4036093BE0B7093BF0B8093C00B0F
:1041F0009093C10B81EF99E036CF8FEFD5CF10921E
:10420000BD0B8091660C9091670C8095909521E094
:10421000AC014870552783FF20E0A091C50B309179
:10422000C40B311159C02093C30B452B29F421E055
:104230002093C40B1092C30BBC0160787727FC015C
:10424000E071FF279C0120723327AC014074552791
:10425000A1116EC01092BC0B1092C70B96FBAA273F
:10426000A0F9A98795FB882780F98A8794FB88277E
:1042700080F98B87892F881F8827881F8C8781E08A
:10428000452B09F480E0898381E0232B09F480E049
:104290008A8381E0EF2B09F480E08B8381E0672B38
:1042A00009F480E08C838E01075F1F4F9E012F5F12
:1042B0003F4F6901B12CD8019D918D01F60181918B
:1042C0006F01992309F415C161E0882309F415C130
:1042D0008B2D0E94F80914C1452B91F03091C30B2E
:1042E00031110EC011E01093C30BAA2361F00E949C
:1042F000BA0A1092C50B1092C20B80E29AE0B3CEBC
:104300002093C30B99CF0E94BA0A1093C50B109348
:10431000C20B0E94B4036093B80B7093B90B8093E7
:10432000BA0B9093BB0B1092B70B8BE09AE09BCE2D
:10433000C090550CD090530CDC01AA27B1708C01B1
:10434000007F1570012B79F41AEB1C0D143758F40B
:104350001AEB1D0D143738F497FD05C08C010027AA
:104360001A77012BD1F11091B70B111184CE11E006
:104370001093B70BAB2BA1F592FD34C0EF2BA1F539
:10438000672BA1F5452BA1F5232BA1F52C2D30E0B2
:10439000263431058CF12A3B310584F52D2D30E092
:1043A000263431056CF12A3B310564F597FD2CC0AC
:1043B00096FD2CC095FD2CC094FD2CC093FD2CC007
:1043C0004FE091FF58CE28E0429FC001112460E0E9
:1043D00084589D4F0E945D124ECE1092B70B4BCE6B
:1043E00040E0F1CF41E0EFCF42E0EDCF43E0EBCF53
:1043F00044E0E9CF45E0E7CF46E0E5CF47E0E3CF53
:1044000048E0E1CF49E0DFCF4AE0DDCF4BE0DBCF52
:104410004CE0D9CF4DE0D7CF4EE0D5CF0E949709E1
:10442000682E811103C08EE29AE048CE0E944609B0
:104430000CEF12E044EE5BE05E8F4D8F2CEDC22E50
:104440002BE0D22E712CD8018D918D01ED8DFE8D3A
:1044500041915191FE8FED8F282F30E0411551058C
:1044600059F0D6016D917C91461B570BBA016F5FD5
:104470007F4F63307105B0F42852344FF9019081B9
:1044800091110E94F80932E0C30ED11C40E053E0C4
:1044900040175107C1F684E0711001C083E080939A
:1044A000F40B0ECE61E0141615060CF06FEFF90157
:1044B000E852F44F90819617D1F09111E2CF220F7C
:1044C000331F220F331FF901E853F44F208031804E
:1044D00042805380A50194012219330944095509EA
:1044E000283731054105510570F20E94D009762C1C
:1044F000CACF882309F4ECCE6FEF8B2D0E94240ADB
:10450000B394F4E0BF12D7CEB8CD3F924F925F92F2
:104510006F927F928F929F92AF92BF92CF92DF92D3
:10452000EF92FF920F931F93CF93DF935C016B0188
:104530007A016115710519F0FB0191838083E11403
:10454000F10451F0C7010297839730F040E030E06A
:1045500020E090E06BC05E01E5012196F50110813D
:10456000812F90E00E94B624892BA9F71D3201F516
:104570002196F501118101E0E114F10409F4E6C08E
:10458000F0E1EF16F10409F088C0103359F4888186
:104590008F7D883509F07CC0198122960260F0E198
:1045A000EF2EF12C812C912CA12C88E0B82E92C0FA
:1045B0001B3221F4E5012296F501118100E0DCCFE8
:1045C000EAE0EE16F10409F4C7C0F0E1EF16F104D9
:1045D00009F073C0E7CF78E0E72EF12C812C912C05
:1045E000A12C60E1B62E76C021E0ADC0302F317035
:1045F000C114D10431F0222371F12197F601D18346
:10460000C08327FF2EC060E070E080E090E83111A9
:1046100004C06FEF7FEF8FEF9FE722E230E030932F
:10462000C20D2093C10D462F372F282F642F732FD3
:10463000822FDF91CF911F910F91FF90EF90DF902C
:10464000CF90BF90AF909F908F907F906F905F9032
:104650004F903F90089501FF04C02297F601D18347
:10466000C083332341F090958095709561957F4F7D
:104670008F4F9F4FD8CF97FFD6CF82E290E0909395
:10468000C20D8093C10D6FEF7FEF8FEF9FE7CBCF10
:1046900010E3E114F10409F49ECF28E0E216F104DE
:1046A00009F49CCF0CF08CCF812C912CA12CE0E450
:1046B000BE2E82E0E816F10469F060E070E080E070
:1046C00090E897010F2C000C440B550B0E94F92425
:1046D00049015A0120E060E070E0CB0127010F2C76
:1046E000000C66087708FE0150ED352E310E39E0DA
:1046F000331570F43FEB310F49EC342E3A3138F07A
:104700003FE9310F3A3108F071CF39EA332E310EDB
:104710003E141F040CF06ACF27FD15C086169706BD
:10472000A806B90678F0A30192010E94E924630D5E
:10473000711D811D911D61307105810520E8920771
:1047400008F452CF2FEF21961081CDCF103309F40A
:104750001ECF2AE0E22EF12C9CEC892E982CA82C5E
:104760009CE0B92EB7CF3F924F925F926F927F92AB
:104770008F929F92AF92BF92CF92DF92EF92FF9271
:104780000F931F93CF93DF935C016B017A01611547
:10479000710519F0FB0191838083E114F10449F064
:1047A000C7010297839728F060E070E0CB019BC0BF
:1047B0005E01E5012196F5011081812F90E00E94B4
:1047C000B624892BA9F71D3209F05CC02196F501AA
:1047D000118101E0E114F10409F4BBC0F0E1EF162E
:1047E000F10409F09BC0103341F488818F7D883536
:1047F00009F08FC0198122960260E0E1EE2EF12CC3
:1048000088248A94982CA82CFFE0BF2E20E060E03A
:1048100070E0CB0127010F2C000C66087708FE0121
:1048200050ED352E310E39E0331568F43FEB310F82
:1048300049EC342E3A3130F03FE9310F3A31B0F5DE
:1048400039EA332E310E3E141F0484F52F3FB9F0A0
:1048500086169706A806B90638F1A30192010E94B0
:10486000E924232D30E050E040E0620F731F841FE5
:10487000951F6217730784079507B0F021E0219612
:104880001081CDCF1B3221F4E5012296F501118173
:1048900000E0A0CF78E0E72EF12C88248A94982CB1
:1048A000A82C6FE1B62EB2CF2FEFE9CFC114D104FF
:1048B00031F0222351F12197F601D183C08300FF0B
:1048C00007C090958095709561957F4F8F4F9F4F52
:1048D0002F3F49F482E290E09093C20D8093C10D86
:1048E0006FEF7FEFCB01DF91CF911F910F91FF9081
:1048F000EF90DF90CF90BF90AF909F908F907F9080
:104900006F905F904F903F90089501FFD8CF22970E
:10491000D3CF10E3E114F10409F4BCCF3AE0E3167D
:10492000F104E9F080E1E816F10409F466CFE8E06B
:10493000EE16F10409F4B1CF6FEF7FEFCB019701D1
:104940000F2C000C440B550B0E94F92449015A010D
:104950005DCF103309F449CF9AE0E92EF12C89E9B3
:10496000882E982CA82C89E1B82E50CF91110C9448
:10497000E624803219F089508550C8F70895FA016D
:10498000A191B081009719F41097E1F0CD01DC01FD
:10499000CD010D90002011F4C00113C0FB01219145
:1049A000222319F02015D9F7F3CFFB01219120150F
:1049B00019F41E92119606C02223C1F70D90002013
:1049C000A1F7D001FA01A193B08308959927882710
:1049D0000895DB018F939F930E943A25BF91AF9179
:1049E000A29F800D911DA39F900DB29F900D112449
:1049F0000895A1E21A2EAA1BBB1BFD010DC0AA1F20
:104A0000BB1FEE1FFF1FA217B307E407F50720F037
:104A1000A21BB30BE40BF50B661F771F881F991FB2
:104A20001A9469F760957095809590959B01AC01FB
:104A3000BD01CF010895052E97FB1EF400940E943E
:104A4000322557FD07D00E94F92407FC03D04EF40D
:104A50000C94322550954095309521953F4F4F4FFE
:104A60005F4F089590958095709561957F4F8F4F1A
:104A70009F4F08950E944525A59F900DB49F900DCE
:104A8000A49F800D911D11240895A29FB001B39F92
:104A9000C001A39F700D811D1124911DB29F700D47
:104AA000811D1124911D08955058BB27AA270E94EB
:104AB0006C250C946D260E945F2638F00E946626B5
:104AC00020F039F49F3F19F426F40C945C260EF480
:104AD000E095E7FB0C945626E92F0E947E2658F3BA
:104AE000BA17620773078407950720F079F4A6F5D3
:104AF0000C94A0260EF4E0950B2EBA2FA02D0B01DE
:104B0000B90190010C01CA01A0011124FF27591B12
:104B100099F0593F50F4503E68F11A16F040A22F18
:104B2000232F342F4427585FF3CF46953795279589
:104B3000A795F0405395C9F77EF41F16BA0B620B88
:104B4000730B840BBAF09150A1F0FF0FBB1F661FCF
:104B5000771F881FC2F70EC0BA0F621F731F841F12
:104B600048F4879577956795B795F7959E3F08F038
:104B7000B0CF9395880F08F09927EE0F97958795FA
:104B800008950E94322608F481E008950E94862646
:104B900088F09F5798F0B92F9927B751B0F0E1F0FE
:104BA000660F771F881F991F1AF0BA95C9F714C0AE
:104BB000B13091F00E94A026B1E008950C94A02697
:104BC000672F782F8827B85F39F0B93FCCF38695E7
:104BD00077956795B395D9F73EF490958095709544
:104BE00061957F4F8F4F9F4F0895E89409C097FBC1
:104BF0003EF490958095709561957F4F8F4F9F4FB4
:104C00009923A9F0F92F96E9BB279395F6958795F7
:104C100077956795B795F111F8CFFAF4BB0F11F4BA
:104C200060FF1BC06F5F7F4F8F4F9F4F16C0882361
:104C300011F096E911C0772321F09EE8872F762F97
:104C400005C0662371F096E8862F70E060E02AF0D8
:104C50009A95660F771F881FDAF7880F96958795C4
:104C600097F90895990F0008550FAA0BE0E8FEEF99
:104C700016161706E807F907C0F012161306E40720
:104C8000F50798F0621B730B840B950B39F40A2619
:104C900061F0232B242B252B21F408950A2609F4F7
:104CA000A140A6958FEF811D811D089597F99F67FB
:104CB00080E870E060E008959FEF80EC08950024A4
:104CC0000A941616170618060906089500240A9471
:104CD00012161306140605060895092E0394000CF7
:104CE00011F4882352F0BB0F40F4BF2B11F460FF86
:104CF00004C06F5F7F4F8F4F9F4F089557FD9058AF
:104D0000440F551F59F05F3F71F04795880F97FB8F
:104D1000991F61F09F3F79F0879508951216130649
:104D20001406551FF2CF4695F1DF08C01616170678
:104D30001806991FF1CF86957105610508940895AD
:104D4000E894BB2766277727CB0197F908950E943F
:104D5000322608F48FEF08950E94BF260C946D262A
:104D60000E945F2638F00E94662620F0952311F0FD
:104D70000C9456260C945C2611240C94A1260E94B7
:104D80007E2670F3959FC1F3950F50E0551F629FEB
:104D9000F001729FBB27F00DB11D639FAA27F00D94
:104DA000B11DAA1F649F6627B00DA11D661F829FBB
:104DB0002227B00DA11D621F739FB00DA11D621FA0
:104DC000839FA00D611D221F749F3327A00D611DBD
:104DD000231F849F600D211D822F762F6A2F11249F
:104DE0009F5750409AF0F1F088234AF0EE0FFF1FD2
:104DF000BB1F661F771F881F91505040A9F79E3F29
:104E0000510580F00C9456260C94A1265F3FE4F3E4
:104E1000983ED4F3869577956795B795F795E7957E
:104E20009F5FC1F7FE2B880F911D9695879597F987
:104E30000895EE0FFF1F881F8BBF0790F691E02D9E
:104E400019940E944525B7FF0895821B930B08957E
:104E5000E894DF93CF93FC01DB010E9445257F930B
:104E60006F93E9019A01AC01BF93AF933F932F93E6
:104E7000DF010E94452526F46C1B7D0B820B930BF2
:104E80009E01EB01FC010E947027AF91BF912F9111
:104E90003F910E947027BE01CF01F9012F913F91F0
:104EA000CF91DF91089597FD1094002E083098F06F
:104EB0000850232F342F452F562F672F782F892FF7
:104EC000912DF4CF1594979587957795679557957C
:104ED0004795379527950A95AAF71124002D08952F
:104EE0000E944525460F571FC81FD91F08F4319649
:104EF0000895FB01DC018D91019080190110D9F317
:104F0000990B0895FB01DC014150504048F001909D
:104F10000D920020C9F701C01D9241505040E0F7AA
:104F20000895F894FFCF01006E6F5F73616D706C30
:104F3000650000000000000000000000FFFFFFFF10
:104F40006E6F6E65000000000000000000000000B1
:104F50000000000000000000000000000000000051
:104F6000014300005A5A5A5A5A014F00FFFF0300EA
:104F70000000014D00000101440001030000000099
:104F800001430001000145005A5A5A5A5A5A010178
:104F90000101000102031E1F202117191B1D1618F5
:104FA0001A1CA400650093008A0059006600920054
:104FB0008A00C8005000B000B1009E005400B70045
:104FC000AE00A100600057008C0063006400520036
:104FD0008B00DE005D009300BE009F00570087003D
:104FE000B900A8006B009300530062006A009800AB
:104FF0005200E5005C00CC008600A6005E00D500F3
:105000008F00A10060005C0052006E006C00600028
:105010006600E500600098008600A2005E0088003F
:105020007D0003020001000000004A05B404E10411
:1050300097051205F0040405000000009E077107A3
:10504000250947076A07570748070D0A00455252C6
:105050002052454D4F54455F54494D454F555420BE
:10506000414C4C5F4C4F57004F4B2052454D4F54D5
:10507000455F5441524745545F524541434845447A
:1050800020414C4C5F4C4F57004552522052454DE9
:105090004F54455F53454E534F525F494E56414C16
:1050A000494420414C4C5F4C4F5700424F4F5400F5
:1050B00052454D4F54455F5052455345540041436E
:1050C00054495645004641554C54004553544F50A1
:1050D00000554E4B4E4F574E0052454D4F54455F75
:1050E0004D414E55414C00524554524143540049A4
:1050F000444C4500636F6E736F6C650070733200D3
:105100006E6F6E65006D616E75616C0070726573B7
:10511000657400494D555F535441545553206D6F8C
:1051200064653D00206573746F703D002066617595
:105130006C74733D00206661756C743D0020410005
:105140002C00207461726765743D00206170706C82
:105150006965643D002072656D6F74655F6163749D
:105160006976653D002072656D6F74655F736F755C
:105170007263653D002072656D6F74655F70726566
:105180007365743D002072656D6F74655F74617244
:105190006765743D00207073325F636F6E6E656388
:1051A0007465643D002072656D6F74655F73756230
:1051B0006D6F64653D0052454D4F544520484F5337
:1051C00054205441524745540052454D4F544520B8
:1051D000505245534554205441524745540045527E
:1051E000522052454D4F54455F53454E534F525FE9
:1051F00047415445004552522052454D4F54455F5A
:105200004142534F4C5554455F52414E4745002053
:1052100041312F41322F41332F41343D0050533221
:10522000206572726F7220636F64653A200050537C
:105230003220636F6E74726F6C6C657220636F6E78
:105240006E656374656420737563636573736675F7
:105250006C6C792E0044656661756C74206D6F64AA
:105260006520616674657220636F6E6E6563746934
:105270006F6E3A204D414E55414C2E004C454654E0
:105280002050414420444F574E2F43524F535320F8
:105290002D3E20413120524554524143542F455810
:1052A00054454E44004C45465420504144205249F8
:1052B0004748542F434952434C45202D3E2041320C
:1052C00020524554524143542F455854454E4400B2
:1052D0004C454654205041442055502F545249418A
:1052E0004E474C45202D3E204133205245545241DB
:1052F00043542F455854454E44004C454654205085
:105300004144204C4546542F535155415245202D80
:105310003E20413420524554524143542F45585465
:10532000454E44005354415254202D3E20546F6743
:10533000676C65204D414E55414C202F2050524501
:105340005345542053454C454354206D6F646500CC
:1053500050533220636F6E6E656374696F6E2066A2
:1053600061696C65642E004641554C545F4C415454
:105370004348454420726561736F6E3D004D45475B
:10538000415F4C414E4445525F4859425249445F47
:10539000563120424F4F54204C4F434B45442041FF
:1053A0004C4C5F4C4F57007463615F6E6F745F6469
:1053B00065746563746564005741524E2053454ED1
:1053C000534F525F494E49545F52455452595F52B0
:1053D00045434F56455245445F49465F414C4C5FFB
:1053E00052454144494E47535F56414C494400732E
:1053F000656E736F725F696E6974005245414459FE
:10540000204859425249445F5631204C4F434B4546
:1054100044205053325F415641494C41424C455F14
:1054200041465445525F41524D5F52454D4F5445A0
:10543000006F6B0072616E67655F696E76616C69A3
:1054400064006E6F5F6563686F006573746F7000F2
:105450004553544F505F4C41544348454420414CC0
:105460004C5F4F5554505554535F4C4F5720524545
:105470005345545F52455155495245440053544198
:10548000545553004745545F44495354414E434596
:105490000053523034207365713D0020745F6D738A
:1054A0003D002064697374616E63655F6D6D3D00DE
:1054B0002070756C73655F75733D00207374617443
:1054C00075733D0050494E4700504F4E47204D45A3
:1054D00047415F4C414E4445525F494D555F5632FE
:1054E00000455252204553544F505F4C415443485D
:1054F0004544006865617274626561745F74696DCA
:10550000656F757400455252204641554C545F4CAE
:105510004154434845445F52455345545F524551B9
:105520005549524544004F4B2053544F5050454429
:10553000204C4F434B454420414C4C5F4C4F57004F
:1055400041524D2052454D4F544500455252204F37
:10555000574E45525F4E4F545F4C4F434B454400AE
:105560004552522041524D5F53454E534F525F4773
:10557000415445004F4B2041524D45445F52454DEB
:105580004F5445205053325F454E41424C454400F4
:1055900041524D20494D55004F4B2041524D4544FD
:1055A0005F494D5520424153454C494E455F43416B
:1055B00050545552454400455252205345515F4D79
:1055C0005553545F494E4352454153455F4E4F4EEC
:1055D0005A45524F00455252204E4F545F41524D52
:1055E0004544004552522048454152544245415499
:1055F0005F464F524D4154004F4B20484541525455
:105600004245415400455252204F574E45525F4E3D
:105610004F545F52454D4F5445004552522053451B
:10562000545F52454D4F54455F464F524D41545F74
:105630004F525F52414E4745004F4B205345545FF8
:1056400052454D4F544500455252205345545F52E8
:10565000454D4F54455F45585452410045525220E4
:105660004F574E45525F4E4F545F494D550045527E
:1056700052205345545F44454C54415F464F524D70
:1056800041545F4F525F52414E47450045525220B0
:105690005345545F44454C54415F45585452410072
:1056A0004F4B205345545F44454C544100455252A2
:1056B000205345545F44454C54415F4142534F4C45
:1056C0005554455F52414E47450045525220554E74
:1056D0004B4E4F574E5F434F4D4D414E4400636F0D
:1056E0006D6D616E645F746F6F5F6C6F6E6700529B
:1056F000454D4F5445204845415254424541542060
:1057000054494D454F5554204C4F434B454420413F
:105710004C4C5F4C4F570050533220646973636F99
:105720006E6E65637465643B20414C4C5F4C4F5713
:105730000052454D4F544520505245534554205337
:10574000454C4543540052454D4F5445204D414E24
:1057500055414C0073656E736F725F696E76616C54
:0C57600069645F6F725F72616E676500C4
:020000040003F7
:10E000000D9489F10D94B2F10D94B2F10D94B2F129
:10E010000D94B2F10D94B2F10D94B2F10D94B2F1F0
:10E020000D94B2F10D94B2F10D94B2F10D94B2F1E0
:10E030000D94B2F10D94B2F10D94B2F10D94B2F1D0
:10E040000D94B2F10D94B2F10D94B2F10D94B2F1C0
:10E050000D94B2F10D94B2F10D94B2F10D94B2F1B0
:10E060000D94B2F10D94B2F10D94B2F10D94B2F1A0
:10E070000D94B2F10D94B2F10D94B2F10D94B2F190
:10E080000D94B2F10D94B2F10D94B2F10D94B2F180
:10E090000D94B2F10D94B2F10D94B2F10D94B2F170
:10E0A0000D94B2F10D94B2F10D94B2F10D94B2F160
:10E0B0000D94B2F10D94B2F10D94B2F10D94B2F150
:10E0C0000D94B2F10D94B2F10D94B2F10D94B2F140
:10E0D0000D94B2F10D94B2F10D94B2F10D94B2F130
:10E0E0000D94B2F141546D656761323536300041AF
:10E0F000726475696E6F206578706C6F72657220DE
:10E1000073746B3530305632206279204D4C530099
:10E11000426F6F746C6F616465723E004875683F52
:10E1200000436F6D70696C6564206F6E203D200048
:10E130004350552054797065202020203D20005FF9
:10E140005F4156525F415243485F5F3D2000415658
:10E1500052204C696243205665723D20004743437C
:10E160002056657273696F6E203D20004350552024
:10E1700049442020202020203D20004C6F7720663D
:10E18000757365202020203D20004869676820665F
:10E190007573652020203D200045787420667573D6
:10E1A00065202020203D20004C6F636B2066757336
:10E1B000652020203D20004D617220203720323024
:10E1C000313300312E362E3800342E332E350056A2
:10E1D00023202020414444522020206F7020636F70
:10E1E00064652020202020696E73747275637469E1
:10E1F0006F6E2061646472202020496E74657272B3
:10E20000757074006E6F20766563746F7200726A49
:10E210006D702020006A6D70200057686174207056
:10E220006F72743A00506F7274206E6F7420737541
:10E2300070706F72746564004D7573742062652030
:10E2400061206C6574746572002000577269747483
:10E25000696E672045450052656164696E672045B7
:10E26000450045452065727220636E743D00504F35
:10E27000525400303D5A65726F2061646472003FF1
:10E280003D43505520737461747300403D454550C3
:10E29000524F4D207465737400423D426C696E6B41
:10E2A000204C454400453D44756D70204545505215
:10E2B0004F4D00463D44756D7020464C415348001B
:10E2C000483D48656C70004C3D4C69737420492F83
:10E2D0004F20506F72747300513D51756974005234
:10E2E0003D44756D702052414D00563D73686F7707
:10E2F00020696E7465727275707420566563746FF0
:10E30000727300593D506F727420626C696E6B00BD
:10E310002A0011241FBECFEFD1E2DEBFCDBF01E046
:10E320000CBF12E0A0E0B2E0EEE1FDEF03E00BBFB6
:10E3300002C007900D92A030B107D9F712E0A0E01B
:10E34000B2E001C01D92AE30B107E1F70F9460F367
:10E350000D948DFE01E20EBF0FEF0DBF11241FBE05
:10E360000D9460F30D9400F020E030E040ED57E0B4
