:020000040000FA
:100000000C9450010C9481010C9481010C94810199
:100010000C9481010C9481010C9481010C94810158
:100020000C9481010C9481010C9481010C94810148
:100030000C9481010C9481010C9481010C94810138
:100040000C9481010C9481010C9481010C94810128
:100050000C9481010C9481010C9481010C94220D6B
:100060000C9481010C94960D0C946C0D0C948101F0
:100070000C9481010C9481010C9481010C948101F8
:100080000C9481010C9481010C9481010C948101E8
:100090000C9481010C9481010C9481010C94CC0D81
:1000A0000C9481010C9481010C9481010C948101C8
:1000B0000C9481010C9481010C9481010C948101B8
:1000C0000C9481010C9481010C9481010C948101A8
:1000D0000C9481010C9481010C9481010C94810198
:1000E0000C9481010C94F7010C94BE0B0C94FA0B48
:1000F0000C94DC010C941A020C9420020C94FB0169
:100100000C9487050C94E1010C94ED020C945305BA
:100110000C94FF010C94F00E0C94B40B0C949B0205
:100120000C94C80B0C94DC0B0C94040C0C94800302
:100130000C9402020C9431050C9424020C94D90204
:100140000C9428020C9432020C940C020C94F00BC8
:100150000C9416020C94F3010C94D20B0C940E0721
:100160000C94CA020C9440050C9408020C941202E0
:100170000C945A050C949D020C9430050C942E029C
:100180000C94E60B0C949C020C94A90B0C94430C5D
:100190000C94FB020C94330300000A0B02090C0DB3
:1001A0000E0807030401000000000000000000002A
:1001B000000000000000000000000000000000003F
:1001C00000000000121110000000000000000000FC
:1001D000000000000000000000000000000000001F
:1001E0002200250028002B002E00310034000201DF
:1001F0000000050108010B01000021002400270078
:100200002A002D0030003300010100000401070125
:100210000A0105050505070508080808020202028B
:100220000A0A080804040404010101010101010192
:100230000303030303030303040707070C0C0C0C5D
:100240000C0C0C0C02020202060606060606060646
:100250000B0B0B0B0B0B0B0B0102102020080810D3
:100260002040102040800201020108040201010226
:1002700004081020408080402010080402018004FF
:10028000020180402010080402010804020101025A
:100290000408102040800102040810204080F00E65
:1002A00011241FBECFEFD1E2DEBFCDBF00E00CBFF7
:1002B00015E0A0E0B2E0EEEBFFE200E00BBF02C011
:1002C00007900D92A43EB107D9F728E0A4EEB5E05F
:1002D00001C01D92A938B207E1F711E0C0E5D1E0F5
:1002E00000E006C021970109802FFE010E945317EC
:1002F000CF34D10780E00807A9F70E945C0F0C9467
:10030000DD170C94000091E090934307809342071F
:100310001092410710924007089590E0FC01E85ABE
:10032000FD4F24918E5E9D4FFC018491882399F0AE
:1003300090E0880F991FFC01E850FE4FA591B49101
:10034000FC01E252FE4F859194918FB7F894EC91A5
:10035000E22BEC938FBF0895282F30E0F901E85687
:10036000FE4F9491F901E85AFD4F44912E5E3D4FA6
:10037000F9012491222309F435C0992311F19150F8
:100380009231F8F4E92FF0E08827E653FE4F8F4FC3
:100390000C945317FB01FF01DC01F301F701E101AC
:1003A000020208020C02120216021A0220022402A1
:1003B000E10128022E023202809180008F77809323
:1003C0008000E22FF0E0EE0FFF1FE252FE4FA591FA
:1003D000B4918FB7F894EC91611148C040954E23C9
:1003E0004C938FBF0895809180008F7DE8CF8091DE
:1003F0008000877FE4CF84B58F7784BDE2CF84B55A
:100400008F7DFBCF8091B0008F778093B000D9CFE4
:100410008091B0008F7DF9CF809190008F7780938D
:100420009000CFCF809190008F7DF9CF8091900088
:10043000877FF5CF8091A0008F778093A000C1CFF8
:100440008091A0008F7DF9CF8091A000877FF5CFAC
:10045000809120018F7780932001B3CF809120017C
:100460008F7DF9CF80912001877FF5CF4E2BB8CFBC
:100470003FB7F8948091F0069091F106A091F206B2
:10048000B091F30626B5A89B05C02F3F19F0019641
:10049000A11DB11D3FBFBA2FA92F982F8827BC01DE
:1004A000CD01620F711D811D911D42E0660F771F06
:1004B000881F991F4A95D1F708958F929F92AF9206
:1004C000BF92CF92DF92EF92FF924B015C010E94AC
:1004D00038026B017C010E9438026C197D098E097B
:1004E0009F09683E734081059105A8F321E0821AB7
:1004F0009108A108B10888EEC80E83E0D81EE11C5F
:10050000F11C81149104A104B10429F7FF90EF902C
:10051000DF90CF90BF90AF909F908F9008952FB7AE
:10052000F8946091EC067091ED068091EE06909142
:10053000EF062FBF089508950895AF92BF92CF920E
:10054000DF92EF92FF920F931F93CF93DF936C0193
:100550007B018B01040F151FEB015E01AE18BF0874
:10056000C017D10759F06991D601ED91FC91019026
:10057000F081E02DC6011995892B79F7C501DF912E
:10058000CF911F910F91FF90EF90DF90CF90BF9090
:10059000AF900895FC01538D448D252F30E0842FBA
:1005A00090E0821B930B541710F0CF96089501979B
:1005B0000895FC01918D828D981761F0A28DAE0F88
:1005C000BF2FB11D5D968C91928D9F5F9F73928F0F
:1005D00090E008958FEF9FEF0895FC01918D828D3B
:1005E000981731F0828DE80FF11D858D90E0089508
:1005F0008FEF9FEF0895FC01918D228D892F90E060
:10060000805C9F4F821B91098F739927089584E422
:1006100097E00E94FB0221E0892B09F420E0822F61
:100620000895FC01A48DA80FB92FB11DA35ABF4F87
:100630002C91848D90E001968F739927848FA689E1
:10064000B7892C93A089B1898C91837080648C9335
:10065000938D848D981306C00288F389E02D8081E4
:100660008F7D80830895EF92FF920F931F93CF9316
:10067000DF93EC0181E0888F9B8D8C8D98131AC0DD
:10068000E889F989808185FF15C09FB7F894EE89C4
:10069000FF896083E889F989808183708064808321
:1006A0009FBF81E090E0DF91CF911F910F91FF906C
:1006B000EF900895F62E0B8D10E00F5F1F4F0F7314
:1006C0001127E02E8C8D8E110CC00FB607FCFACFCF
:1006D000E889F989808185FFF5CFCE010E94110359
:1006E000F1CFEB8DEC0FFD2FF11DE35AFF4FF082A0
:1006F0009FB7F8940B8FEA89FB8980818062CFCF06
:10070000CF93DF93EC01888D8823B9F0AA89BB8948
:10071000E889F9898C9185FD03C0808186FD0DC033
:100720000FB607FCF7CF8C9185FFF2CF808185FF54
:10073000EDCFCE010E941103E9CFDF91CF91089553
:1007400080E090E0892B29F00E94070381110E942C
:10075000000080E090E0892B49F080E090E0892B58
:1007600029F00E94000081110E94000080E090E0CA
:10077000892B49F080E090E0892B29F00E9400004D
:1007800081110E94000080E090E0892B49F080E018
:1007900090E0892B29F00E94000081110C94000048
:1007A0000895CF92DF92EF92FF9261157105810556
:1007B0009105F1F0DC01CB010197A109B10930E00D
:1007C00020E06C017D01CC24CD28CE28CF2839F043
:1007D000B695A795979587952F5F3F4FF2CF322F0C
:1007E0002227822B932BFF90EF90DF90CF900895DC
:1007F00090E080E0F8CF20914406260F3327331F86
:1008000021323105ECF420913A07FC0190E080E0C0
:10081000243069F082E00895A09144062191AC0152
:100820004C5D594FA40FB52FB11D2C93019686171F
:1008300098F380914406680F6093440680E0089521
:1008400081E0089510923A0781E080931907109291
:10085000140761E084E10E94AC0161E085E10E943F
:10086000AC01E9EBF0E080818E7F808380818D7F19
:10087000808388E48093B80085E48093BC00089569
:10088000CF93DF9391E090936D068823B9F0C091E8
:10089000B800D091BA008091BC008A7B8093BC00E4
:1008A00060E084E10E94AC0160E085E10E94AC015F
:1008B0000E942204D093BA00C093B800DF91CF9178
:1008C0000895CF92DF92EF92FF920F931F93CF93F1
:1008D000DF93D82FC62F613208F098C00E943802EB
:1008E0006B017C0180913A0781116BC081E080939C
:1008F0003A07809319079FEF9093180710921707F4
:100900009C0F909316078093150780911507DD0FB4
:10091000D82BD093150780911407813009F078C047
:10092000109214070E9438026B017C018091150718
:100930008093BB0080913C0790913D07A0913E07BA
:10094000B0913F07892B8A2B8B2BA1F00E94380294
:1009500000913C0710913D0720913E0730913F07E1
:100960006C197D098E099F09061717072807390793
:1009700008F448C08091BC0083FDD8CF85EC8093FB
:10098000BC000E9438026B017C0180913A078130E3
:1009900009F440C0809117078C1710F4C091170715
:1009A000E4EFF6E0AAE1B7E080E08C1355C08C2FAD
:1009B000DF91CF911F910F91FF90EF90DF90CF903B
:1009C000089580913C0790913D07A0913E07B0911A
:1009D0003F07892B8A2B8B2B09F484CF0E94380286
:1009E00000913C0710913D0720913E0730913F0751
:1009F0006C197D098E099F09061717072807390703
:100A000008F070CF80913B070E944004C0E0CFCF38
:100A100085EEB5CF80913C0790913D07A0913E07B0
:100A2000B0913F07892B8A2B8B2B09F4AECF0E9404
:100A3000380200913C0710913D0720913E0730910C
:100A40003F076C197D098E099F09061717072807AC
:100A5000390708F09ACFD6CF91919D938F5FA5CF9C
:100A60000895E0916C0680916B06E81730F4F0E091
:100A7000E65EF84F808190E008958FEF9FEF089534
:100A800090916C0680916B062FEF3FEF981748F41A
:100A9000E92FF0E0E65EF84F208130E09F5F909311
:100AA0006C06C901089580916B0690916C06891BB4
:100AB000990B0895CF92DF92EF92FF920F931F93BD
:100AC000CF93DF937C01CB018A012091430722233E
:100AD00089F0EB016B01C40ED51ECC15DD0569F064
:100AE0006991D701ED91FC910190F081E02DC70152
:100AF0001995F3CF642F0E94FB03C801DF91CF91BA
:100B00001F910F91FF90EF90DF90CF900895CF93BA
:100B1000DF931F92CDB7DEB769832091430722236D
:100B2000F9F020914007203258F021E030E0FC013C
:100B30003383228390E080E00F90DF91CF9108957E
:100B400080914107E82FF0E0EC5FF94F99819083A5
:100B50008F5F809341078093400781E090E0ECCF66
:100B600061E0CE0101960E94FB03F7CFCF92DF92A6
:100B7000EF92FF920F931F93CF93DF93D091400793
:100B800081E0D13208F09CC0C09142070E94380237
:100B90006B017C0180913A0781116CC082E08093E7
:100BA0003A0781E0809319078FEF8093180710921E
:100BB0001707D0931607A4E0B6E0E4EFF6E080E074
:100BC000D8138DC01092150780911507CC0FC82B34
:100BD000C093150780911407813009F084C01092EA
:100BE00014070E9438026B017C01809115078093E5
:100BF000BB0080913C0790913D07A0913E07B091CA
:100C00003F07892B8A2B8B2BA1F00E943802009181
:100C10003C0710913D0720913E0730913F076C192A
:100C20007D098E099F09061717072807390708F459
:100C300042C08091BC0083FDD8CF85EC8093BC007E
:100C40000E9438026B017C0180913A07823009F4DE
:100C50004CC0809118078F3F09F469C08091180734
:100C6000803209F466C080911807803309F463C0AC
:100C700084E026C080913C0790913D07A0913E07FB
:100C8000B0913F07892B8A2B8B2B09F483CF0E94CD
:100C9000380200913C0710913D0720913E073091AA
:100CA0003F076C197D098E099F090617170728074A
:100CB000390708F06FCF80913B070E94400485E020
:100CC000109241071092400710924307DF91CF9195
:100CD0001F910F91FF90EF90DF90CF9008959D911D
:100CE00091938F5F6DCF85EEA9CF80913C07909156
:100CF0003D07A0913E07B0913F07892B8A2B8B2B94
:100D000009F4A2CF0E94380200913C0710913D07E0
:100D100020913E0730913F076C197D098E099F098C
:100D2000061717072807390708F08ECFC4CF80E0D1
:100D3000C7CF82E0C5CF83E0C3CFFF920F931F934D
:100D4000CF93DF93EC01F62E142F052F888D0E9490
:100D500083018E899F89DC01ED91FC910190F081E6
:100D6000E02D60E019958E899F89DC01ED91FC9161
:100D70000190F081E02D6F2D19958E899F89DC01FE
:100D8000ED91FC910190F081E02D602F19958E89F5
:100D90009F89DC01ED91FC910190F081E02D612FA4
:100DA00019958E899F890E94B6058B87DF91CF9117
:100DB0001F910F91FF9008950F931F93CF93DF938F
:100DC000EC01062F142F888D0E9483018E899F8944
:100DD000DC01ED91FC910190F081E02D60E019952E
:100DE0008E899F89DC01ED91FC910190F081E02DCD
:100DF000602F19958E899F89DC01ED91FC910190FE
:100E0000F081E02D612F19958E899F890E94B6058A
:100E10008B87DF91CF911F910F91089590E080E033
:100E20000895CF93C82F80E70E94830161E070E0AE
:100E300001C0660FCA95EAF781EE97E00E94870528
:100E400081EE97E00E94B605811107C08BEA94E01D
:100E50000197F1F781E0CF91089580E0FCCFEF9208
:100E6000FF920F931F93CF93DF93CCE0D2E088E003
:100E7000E82E82E0F82E04E012E060E089910E9402
:100E8000AC0160E0F70181917F010E94AC0160E05C
:100E9000F80181918F010E94AC01F2E0C031DF07BF
:100EA00061F7DF91CF911F910F91FF90EF9008951F
:100EB000FC0101900020E9F73197AF01481B590B65
:100EC000BC0184E497E00C949D028F929F92AF92B4
:100ED000BF920F931F93CF93DF93CDB7DEB7A19748
:100EE0000FB6F894DEBF0FBECDBF19A2423008F492
:100EF0004AE08E010F5D1F4F842E912CB12CA12C46
:100F0000A50194010E943117E62FB901CA01EA3008
:100F1000F4F4E05DD801EE938D01232B242B252BD7
:100F200079F790E080E0109719F0CD010E94580702
:100F3000A1960FB6F894DEBF0FBECDBFDF91CF9163
:100F40001F910F91BF90AF909F908F900895E95C93
:100F5000E1CF009711F00C94580790E080E00895DD
:100F6000CF93DF930E945807EC0184E392E00E9444
:100F700058078C0F9D1FDF91CF910895CF92DF927C
:100F8000EF92FF92CF93DF936C01990FEE08FF0869
:100F9000F7FE19C06DE284E497E00E943303EC0190
:100FA00066277727CB016C197D098E099F094AE0D6
:100FB0000E9465078C0F9D1FDF91CF91FF90EF90EE
:100FC000DF90CF9008954AE0C701B601DF91CF913D
:100FD000FF90EF90DF90CF900C9465070F931F93D5
:100FE000CF93DF93EC01162F072F888D0E9483018A
:100FF0008E899F89DC01ED91FC910190F081E02DBB
:10100000602F19958E899F89DC01ED91FC910190EB
:10101000F081E02D612F19958E899F890E94B60578
:101020008B8762E0888D0E94610410926C06809329
:101030006B068E899F89DC01ED91FC910284F3851A
:10104000E02D199500E0182F8E899F89DC01ED9124
:10105000FC910284F385E02D1995802B912BDF9173
:10106000CF911F910F9108951F93CF93DF93EC01C0
:10107000162F888D0E9483018E899F89DC01ED9156
:10108000FC910190F081E02D60E019958E899F8997
:10109000DC01ED91FC910190F081E02D612F19951B
:1010A0008E899F890E94B6058B8761E0888D0E949A
:1010B000610410926C0680936B068E899F89DC0117
:1010C000ED91FC910284F385E02D1995DF91CF918C
:1010D0001F9108954F925F926F927F928F929F928D
:1010E000AF92BF92CF92DF92EF92FF92CF93DF93B6
:1010F0006A017B0120EBC21A21E1D20AE108F10862
:1011000021EEC21628ECD20620E1E206F10408F036
:10111000ECC0EC0160E670E00E943408B82E2E8D21
:101120003F8D50E040E060E070E080E090E40E949D
:101130003117A0E0B9E00E946A179B01AC01A6E05C
:101140005695479537952795AA95D1F7B394BB0C3B
:10115000AB2DB0E00E946A172B013C01B6E07694FB
:10116000679457944794BA95D1F74B015C0187E097
:10117000B694A794979487948A95D1F7C501B40142
:101180007058814C9F4FA30192010E9431172F3F4D
:1011900031054105510529F020F02FEF30E040E006
:1011A00050E0422F6BE470E0CE010E94DC06C501E6
:1011B000B401705F8F4F9F4FA30192010E943117BE
:1011C000CA01B9010E94D103AC016AE570E0CE0109
:1011D0000E949D06F694E794D794C7949CE0CC0CAB
:1011E000DD1CEE1CFF1C9A95D1F7C501B4016C0DF6
:1011F0007D1D8E1D9F1DA30192010E943117CA0102
:10120000B9010E94D103AC016EE570E0CE010E94ED
:101210009D0663E670E0CE010E943408B82E2E8D44
:101220003F8D50E040E060E070E080E090E40E949C
:101230003117A0E0B9E00E946A179B01AC0166E09B
:1012400056954795379527956A95D1F7B394BB0C7A
:10125000AB2DB0E00E946A172B013C01E6E07694CA
:10126000679457944794EA95D1F74B015C01F7E0F6
:10127000B694A79497948794FA95D1F7C501B401D1
:10128000705F8F4F9F4FA30192010E943117CA01D7
:10129000B9010E94D103AC016CE570E0CE010E945F
:1012A0009D06C701B601680D791D8A1D9B1DA3010E
:1012B00092010E943117CA01B9010E94D103AC0109
:1012C00061E670E0CE010E949D0681E0DF91CF9142
:1012D000FF90EF90DF90CF90BF90AF909F908F9056
:1012E0007F906F905F904F90089580E0EFCF8F9246
:1012F0009F92AF92BF92DF92EF92FF920F931F9354
:10130000CF93DF93E82E082F10E0F801E050FE4F56
:101310008081883008F0C1C20E941107D82E88232E
:1013200009F4BBC2D7E2ED9E70011124C7018351BD
:10133000984F7C010E948F02D7015D967C936E933B
:101340005C97E7015701B9E1AB0EB11C4701ECE135
:101350008E0E911C61E370E0C7010E94340880FF8B
:1013600060C0D5018D919C91892BA1F30E948F02C1
:10137000F40120813181621B730BD5018D919C9109
:101380008617970738F781E08B8F90E080E027E29F
:10139000209FF001219FF00D1124E351F84F238D80
:1013A000138E21117AC22281211177C29C01215012
:1013B0003109203A3F4008F070C2F801EE0FFF1FDC
:1013C000E958F94F91838083F801ED58F94F81E096
:1013D00080830E948F02000F111F000F111FF80160
:1013E000EC51FA4F6083718382839383F801EC5050
:1013F000FA4F80819181A281B3810196A11DB11D17
:1014000080839183A283B3838D2DDF91CF911F9130
:101410000F91FF90EF90DF90BF90AF909F908F90D3
:10142000089587E2809FE001819FD00D1124C35170
:10143000D84F888D0E9483018E899F89DC01ED91B0
:10144000FC910190F081E02D60E019958E899F89D3
:10145000DC01ED91FC910190F081E02D69E8199596
:101460008E899F890E94B6058B8761E1888D0E94D5
:10147000610410926C0680936B068E899F89DC0153
:10148000ED91FC910284F385E02D19958C878E896E
:101490009F89DC01ED91FC910284F385E02D199583
:1014A0008E899F89DC01ED91FC910284F385E02D0A
:1014B00019958D878E899F89DC01ED91FC910284BD
:1014C000F385E02D19951E868F878E899F89DC0113
:1014D000ED91FC910284F385E02D19952E853F85D1
:1014E000822B932B9F878E878E899F89DC01ED91BC
:1014F000FC910284F385E02D19958E899F89DC018A
:10150000ED91FC910284F385E02D19958E899F89D8
:10151000DC01ED91FC910284F385E02D1995188A88
:10152000898B8E899F89DC01ED91FC910284F38582
:10153000E02D199528893989822B932B998B888BDB
:101540008E899F89DC01ED91FC910284F385E02D69
:1015500019958E899F89DC01ED91FC910284F385B8
:10156000E02D19958E899F89DC01ED91FC91028413
:10157000F385E02D19958E899F89DC01ED91FC9111
:101580000284F385E02D19958E899F89DC01ED9108
:10159000FC910284F385E02D19951A8A8B8B8E8934
:1015A0009F89DC01ED91FC910284F385E02D199572
:1015B0002A893B89822B932B9B8B8A8B8E899F89CF
:1015C000DC01ED91FC910284F385E02D19951C8AD4
:1015D0008D8B8E899F89DC01ED91FC910284F385CE
:1015E000E02D19952C893D89822B932B9D8B8C8B1B
:1015F0008AA181112EC06BE070E0C7010E943408FF
:101600008BA368E070E0C7010E9434088CA34BA153
:101610004F776BE070E0C7010E94DC064CA143707D
:10162000445F68E070E0C7010E94DC0641E06DE4C1
:1016300070E0C7010E94DC0668ED70E0C7010E94FF
:101640003408482F67E470E0C7010E94DC0681E09F
:101650008AA387E2809FF001819FF00D1124E3515E
:10166000F84F268537852115310509F46FC0448967
:1016700055896089718990E080E0640F751F811D34
:10168000911D61157105B1E08B07910520F06FEF99
:101690007FEF80E090E0CB017727662750E040E0C5
:1016A0000E943117211531054105510509F44EC03D
:1016B00060E070E080E09AE00E943117211531056A
:1016C000E1E04E07510520F02FEF3FEF40E050E002
:1016D000A90164E570E0C7010E949D0687E2809F32
:1016E000F001819FF00D1124E351F84F22893389D5
:1016F000ABEDB7E00E945B177C5F8F4F9F4F4BE0D5
:1017000096958795779567954A95D1F7718360830C
:10171000E485E150E23108F0B6C0F0E08827EC56ED
:10172000F44F8F4F0C945317A90BA90BA90BD20B95
:10173000C80BDC0BE60BFA0B040C430C430CF00B50
:10174000B40B430C430C430CA90BBE0B40E050E818
:10175000C0CF87E2809FF001819FF00D1124E351FB
:10176000F84F85E082835EC087E2809FF001819F11
:10177000F00D1124E351F84F8DE0F4CF87E2809F04
:10178000F001819FF00D1124E351F84F8AE0EACF78
:1017900087E2809FF001819FF00D1124E351F84F03
:1017A00084E0E0CF87E2809FF001819FF00D11245B
:1017B000E351F84F82E0D6CF87E2809FF001819F0E
:1017C000F00D1124E351F84F81E0CCCF87E2809FE8
:1017D000F001819FF00D1124E351F84F87E0C2CF53
:1017E00087E2809FF001819FF00D1124E351F84FB3
:1017F00089E0B8CF87E2809FF001819FF00D11242E
:10180000E351F84F83E0AECF87E2809FF001819FE4
:10181000F00D1124E351F84F8585811102C086E057
:10182000A1CF128287E2809FE001819FD00D112419
:10183000C351D84F6C897D8990E080E00E943616B4
:1018400020E030E040E05CE30E9473166B837C8311
:101850008D839E836889798990E080E00E943616A6
:1018600020E030E040E05CE30E9473166F837887ED
:1018700089879A8741E066E870E0C7010E94DC062C
:101880008881998184CD87E2809FF001819FF00D4E
:101890001124E351F84F8FEF65CFF801EE0FFF1FD2
:1018A000EE0FFF1FEC51FA4F80809180A280B38031
:1018B00081149104A104B10431F4F801ED58F94FF9
:1018C0001082D12CA1CD0E948F02681979098A0952
:1018D0009B09613B74408105910578F7F2CFCF9267
:1018E000DF92EF92FF920F931F93CF93DF9387E3E3
:1018F00092E00E94A9078091EA0690E00E94BE074C
:1019000089E692E00E94A90780917F0690E00E94FC
:10191000BE0783E7E82E86E0F82E94EFC92E95E007
:10192000D92E07E716E0C1E0D0E08AE992E00E94F4
:10193000A907CE010E94BE0780EC94E00E94A9078F
:10194000F7018081882309F440C0F801608171812A
:1019500090E080E04AE00E9465078AE992E00E94F8
:10196000A907CE010E94BE0781E792E00E94A90765
:10197000F70181917F0190E00E94BE078AE992E021
:101980000E94A907CE010E94BE0789E792E00E944B
:10199000A907F60161917191819191916F014AE0DE
:1019A0000E94650721960E5F1F4FC530D10509F0D3
:1019B000BCCF84E392E0DF91CF911F910F91FF9014
:1019C000EF90DF90CF900C9458078FEF9FEF0E941D
:1019D000BE07C3CF85ED8093BC0080913C079091FA
:1019E0003D07A0913E07B0913F070796A11DB11D8D
:1019F00023E0B695A795979587952A95D1F72091DD
:101A0000BC0024FD03C010923A07089540913C07A2
:101A100050913D0760913E0770913F07452B462B43
:101A2000472B69F30097A105B10541F02AE22A95F9
:101A3000F1F700C00197A109B109E1CF80913B07FF
:101A40000C9440041F920F920FB60F9211242F9303
:101A50003F938F939F93AF93BF938091EC069091A8
:101A6000ED06A091EE06B091EF063091EB0623E073
:101A7000230F2D3758F50196A11DB11D2093EB06BC
:101A80008093EC069093ED06A093EE06B093EF06DC
:101A90008091F0069091F106A091F206B091F306C4
:101AA0000196A11DB11D8093F0069093F106A093BD
:101AB000F206B093F306BF91AF919F918F913F9142
:101AC0002F910F900FBE0F901F90189526E8230FAF
:101AD0000296A11DB11DD2CF1F920F920FB60F9289
:101AE00011240BB60F922F933F934F935F936F93F5
:101AF0007F938F939F93AF93BF93EF93FF9384E470
:101B000097E00E941103FF91EF91BF91AF919F91D8
:101B10008F917F916F915F914F913F912F910F9096
:101B20000BBE0F900FBE0F901F9018951F920F9233
:101B30000FB60F9211240BB60F922F938F939F9392
:101B4000EF93FF93E0915407F09155078081E09166
:101B50005A07F0915B0782FD1DC0908180915D075F
:101B60008F5F8F7320915E07821741F0E0915D07D0
:101B7000F0E0EC5BF84F958F80935D07FF91EF915C
:101B80009F918F912F910F900BBE0F900FBE0F90D2
:101B90001F9018958081F2CF1F920F920FB60F926F
:101BA00011240BB60F922F933F934F935F936F9334
:101BB0007F938F939F93AF93BF93EF93FF93809106
:101BC000B900887F803609F44DC008F040C08832E3
:101BD00009F4A9C028F5803109F49DC0C8F4882310
:101BE00009F4FBC0883009F496C0FF91EF91BF91D2
:101BF000AF919F918F917F916F915F914F913F91A5
:101C00002F910F900BBE0F900FBE0F901F90189545
:101C1000883109F488C0803241F78093180714C0D6
:101C2000803409F49DC040F48033B9F38833E9F679
:101C30008093180785ECB0C0803509F485C08835DD
:101C400009F496C0883489F60E94EA0CCECF883910
:101C500009F48CC038F5883729F050F4883611F033
:101C6000803719F683E080933A071092660657C0D2
:101C7000883809F47BC0803919F0803809F0B5CF75
:101C800080916606803208F071C0E091660681E0BE
:101C90008E0F809366068091BB00F0E0EA5BF94FFF
:101CA00080833DC0803B39F0E0F4803A09F479C08C
:101CB000883A09F09ACF84E080933A07109245065B
:101CC00010924406E0916906F0916A061995809198
:101CD000440681110FC081E08093440610922406CF
:101CE00009C0803C09F4A6CF883C09F4A3CF883B07
:101CF00009F07BCFE091450681E08E0F8093450689
:101D0000F0E0EC5DF94F80818093BB009091450637
:101D10008091440629C0809115078093BB0085EC13
:101D20008093BC0062CF9091170780911607981797
:101D300058F5E091170781E08E0F80931707F0E0C8
:101D4000EC50F94F8081E9CFE091170781E08E0FC9
:101D5000809317078091BB00F0E0EC50F94F80832F
:101D600090911707809116079817C8F285E8D8CF89
:101D7000E091170781E08E0F809317078091BB00D9
:101D8000F0E0EC50F94F80838091190781115CCF0E
:101D900081E08093140784EA8093BC0010923A0794
:101DA00024CF85EC8093BC0010923A0780916606A0
:101DB000803230F4E0916606F0E0EA5BF94F108281
:101DC0006091660670E0E0916706F091680686E42F
:101DD00096E019951092660608CF1092180734CF36
:101DE000109247071092460788EE93E0A0E0B0E01B
:101DF0008093480790934907A0934A07B0934B07F5
:101E000024E132E0309345072093440725EC30E08D
:101E1000309351072093500724EC30E03093530760
:101E20002093520720EC30E030935507209354075D
:101E300021EC30E0309357072093560722EC30E036
:101E4000309359072093580726EC30E030935B0716
:101E500020935A0710925D0710925E0710925F0759
:101E6000109260071092E4071092E3078093E50751
:101E70009093E607A093E707B093E80786E292E025
:101E80009093E2078093E107EDEEF7E041EE57E033
:101E900029E283E090E0578B468B208F128E118EC3
:101EA000138E12A213A214A296A385A3B79638E0AC
:101EB000E938F30781F70895CF93DF93CDB7DEB705
:101EC0002E970FB6F894DEBF0FBECDBF789484B5C1
:101ED000826084BD84B5816084BD85B5826085BD26
:101EE00085B5816085BD80916E00816080936E00B4
:101EF00010928100809181008260809381008091A6
:101F00008100816080938100809180008160809356
:101F100080008091B10084608093B1008091B00016
:101F200081608093B00080919100826080939100E5
:101F300080919100816080939100809190008160F8
:101F4000809390008091A10082608093A100809195
:101F5000A10081608093A1008091A00081608093A6
:101F6000A000809121018260809321018091210154
:101F70008160809321018091200181608093200104
:101F800080917A00846080937A0080917A008260E8
:101F900080937A0080917A00816080937A008091AA
:101FA0007A00806880937A001092C100E091540713
:101FB000F091550782E08083E0915007F09151073E
:101FC0001082E0915207F091530780E180831092D4
:101FD0005C07E0915807F091590786E08083E09113
:101FE0005607F0915707808180618083E091560702
:101FF000F0915707808188608083E0915607F091C7
:102000005707808180688083E0915607F0915707D9
:1020100080818F7D80830CE012E048E0C42E42E096
:10202000D42E54E0E52E52E0F52ED8018D918D018D
:102030000E948D01F60181916F010E948D01D701EF
:102040008D917D010E948D01B2E000311B0769F77F
:102050000E942F076CED75E080E090E00E945D0229
:102060008CEA92E00E94B00710926C0610926B0608
:1020700010924107109240070E9422048BE992E0DF
:1020800090936A06809369068CE992E090936806C3
:102090008093670688E48093B80010926D0688EA02
:1020A00091E6A0E0B0E080933C0790933D07A093B9
:1020B0003E07B0933F0781E080933B0780E70E9493
:1020C000830160E081EE97E00E94870581EE97E052
:1020D0000E94B605882309F474C084EE92E00E9441
:1020E000B0070E942F078091EA068823C9F00E945A
:1020F0008F020091E6061091E7062091E8063091E4
:10210000E906601B710B820B930B613177428105ED
:10211000910530F01092EA068EE593E00E94B00738
:102120000E948F0200916F06109170062091710637
:1021300030917206601B710B820B930B6A30710534
:1021400081059105A0F00E948F0260936F06709345
:102150007006809371069093720680916E060E94BD
:10216000770980916E068F5F837080936E0684E49A
:1021700097E00E94FB02181619060CF02BC584E4A8
:1021800097E00E94D9028D3091F32091E0063091C2
:10219000E1068A3009F002C5F901E058F94F1082D2
:1021A000232B09F42EC36EE673E080E896E00E94CC
:1021B000C617892B09F01BC383E793E00E94B00781
:1021C00020C3E0E0F2E0FC87EB878DEEE82E87E0AD
:1021D000F82ECC24C394D12C412C512C612C20E41A
:1021E000722E32E0232E312CAB85BC851D91BC872D
:1021F000AB871830A8F18EE892E00E94A907C601CB
:102200000E94BE078EE093E00E94A907612F70E054
:1022100090E080E04AE00E94650784E392E00E943B
:102220005807BFEFCB1ADB0AE7E2EE0EF11CF5E030
:10223000CF16D104C9F664EF71E080E090E00E940F
:102240005D0280E00E94770981E00E94770982E0C8
:102250000E94770983E00E94770987E193E03FCFEE
:10226000812F0E941107882331F262E370E080E041
:1022700090E00E945D0284EF91E0F701928F818FE0
:102280006FE071E0C7010E94EE078C3C9A4E09F0A6
:10229000B2CF40E070E060E0C7010E94DC068BE84E
:1022A00091E00197F1F741E070E060E0C7010E9422
:1022B000DC0661E070E080E090E00E945D020E9438
:1022C0008F02F701758F648F65EE70E0C7010E9481
:1022D000340880FF05C0D7011B968C918823C9F074
:1022E000F701818D928D892B79F30E948F02D7019E
:1022F0005C962D913C915D97621B730B59968D9165
:102300009C915A9786179707F8F681E05B968C9315
:1023100072CF6EE270E0C7010E943408482F41601E
:102320006EE270E0C7010E94DC0666E070E0C70163
:102330000E94EE07F701978F868F6EED70E0C70160
:102340000E94EE07D70191969C938E93909740E060
:102350005AE064E270E0C7010E949D0642E061E33A
:1023600070E0C7010E94DC0648E066E370E0C70148
:102370000E94DC0640E167E370E0C7010E94DC06D2
:1023800041E069E370E0C7010E94DC064FEF6EE3B5
:1023900070E0C7010E94DC0640E06FE370E0C70117
:1023A0000E94DC0642E060E470E0C7010E94DC06A7
:1023B00050E040E060E570E0C7010E949D0650E0FB
:1023C00040E062E570E0C7010E949D0648E367E5D2
:1023D00070E0C7010E94DC0648E651E064E670E068
:1023E000C7010E949D0640EC50E066E670E0C70120
:1023F0000E949D0641E061E770E0C7010E94DC0693
:1024000041E06CE770E0C7010E94DC0642E06EE745
:1024100070E0C7010E94DC0640E062E870E0C7019E
:102420000E94DC0641E067E770E0C7010E94DC061D
:102430004BE861E870E0C7010E94DC0640E058EC20
:1024400064E570E0C7010E949D0642E06FE470E021
:10245000C7010E94DC0660E670E0C7010E943408F4
:10246000082FF701268D378D50E040E0C301B201FF
:102470000E943117A0E0B9E00E946A179B01AC01ED
:10248000A6E05695479537952795AA95D1F70F5F02
:10249000000FA02FB0E00E946A174B015C016EE5AF
:1024A00070E0C7010E94EE079C01BC01772790E015
:1024B00080E004C0660F771F881F991F3A95D2F7F6
:1024C0006F5F7F4F8F4F9F4FA5019401B6E05695E8
:1024D000479537952795BA95D1F70E947517385FBC
:1024E0004F4F5F4F6F4F7F4F8F4F9F4F0CE00E94BA
:1024F000A2172B833C834D835E836F837887898704
:102500009A878B809C80AD80BE80F8ED8F0EF8E0BE
:102510009F1EA11CB11C880C991CAA1CBB1C4FE05F
:1025200060E670E0C7010E94DC064DE063E670E003
:10253000C7010E94DC0648EB69E670E0C7010E9413
:10254000DC064FE068E770E0C7010E94DC064DE062
:1025500069E770E0C7010E94DC064EE06AE770E0C0
:10256000C7010E94DC064EE06BE770E0C7010E94E5
:10257000DC0621EB821621E19206A104B10428F0C9
:10258000B501A401C7010E946A08D70196963C9242
:102590002E92959740E553EC60E070E0C7010E94F1
:1025A0006A0862E270E0C7010E94EE07AC01440FC6
:1025B000551F440F551F6EE170E0C7010E949D0634
:1025C00060E670E0C7010E943408082FF701268DED
:1025D000378D50E040E0C301B2010E943117A0E006
:1025E000B9E00E946A179B01AC0176E056954795C9
:1025F000379527957A95D1F70F5F000FA02FB0E0A0
:102600000E946A174B015C016EE570E0C7010E94F1
:10261000EE079C01BC01772790E080E004C0660FC4
:10262000771F881F991F3A95D2F76F5F7F4F8F4FA3
:102630009F4FA5019401E6E056954795379527955C
:10264000EA95D1F70E947517385F4F4F5F4F6F4F74
:102650007F4F8F4F9F4F0CE00E94A2172B833C832C
:102660004D835E836F83788789879A878B809C8070
:10267000AD80BE80F8ED8F0EF8E09F1EA11CB11C4E
:10268000880C991CAA1CBB1C47E060E670E0C701DF
:102690000E94DC0645E063E670E0C7010E94DC06AC
:1026A00048E369E670E0C7010E94DC0647E068E79E
:1026B00070E0C7010E94DC0645E069E770E0C701F1
:1026C0000E94DC0646E06AE770E0C7010E94DC0673
:1026D00046E06BE770E0C7010E94DC0621EB821642
:1026E00021E19206A104B10428F0B501A401C701BB
:1026F0000E946A08D70196961C921E92959740E513
:1027000053EC60E070E0C7010E946A08882309F476
:1027100072CDF70120A131A1ACE3B0E00E945B17BC
:102720004B015C01808D0E948301D70156968D91EB
:102730009C91DC01ED91FC910190F081E02D60E035
:102740001995F70186899789DC01ED91FC9101903B
:10275000F081E02D6CE61995F70186899789DC01F7
:10276000ED91FC910190F081E02D60E01995F70169
:10277000A689B789B50188279927ED91FC91119712
:102780000190F081E02DCD011995F701A689B78957
:1027900099278B2D7A2D692DED91FC911197019040
:1027A000F081E02DCD011995D70156968D919C9120
:1027B000DC01ED91FC910190F081E02D682D1995DF
:1027C000F701868997890E94B605D7011B968C93DD
:1027D00041E066E870E0C7010E94DC0640E467E87B
:1027E00070E0C7010E94DC068FE792E006CD64E945
:1027F00073E080E896E00E94C617892B39F40E94A6
:102800006F0C1092E1061092E006B1CC64EC73E01C
:1028100080E896E00E94C617892B39F40E942F07A2
:102820001092EA068BE993E0C9CC63EC73E080E890
:1028300096E00E94C617892B51F40E942F07109230
:10284000EA0681E080937F0689EC93E0B7CC69EFDC
:1028500073E080E896E00E94C617892B19F50E9464
:102860002F0780917F06E3E7F6E0882319F08AE0DE
:1028700094E0A4CC8191882309F4CEC196E0E73797
:10288000F907C1F721E02093EA060E948F026093C6
:10289000E6067093E7068093E8069093E9068CEBD2
:1028A00095E08CCC44E050E06BE274E080E896E088
:1028B0000E94CF176C01892B09F04AC11A82198234
:1028C000AE014F5F5F4F6EE274E084E896E00E94D5
:1028D0000F165C01AE014F5F5F4F6EE274E090E057
:1028E00080E00E940F168C01AE014F5F5F4F6EE2D9
:1028F00074E090E080E00E940F167C018091EA066F
:10290000811105C01092EA0680E394E057CC0E9442
:102910008F024090E6065090E7066090E8067090BF
:10292000E9066419750986099709613177428105BD
:10293000910540F7A114B10409F405C1F5018081A6
:10294000813409F000C182818111FDC081818153F0
:102950008B87843008F0F7C00115110509F4F3C026
:10296000EF2809F0F0C06DE972E0C8010E94C617B7
:102970007C01892B41F065EA72E0C8010E94C6170C
:10298000892B09F0E0C01092EA060E942F0780917F
:102990007F06E3E7F6E081116ACF8191882309F48D
:1029A0003BC187E796E08E179F07B9F78B85082F05
:1029B00010E0F801EE0FFF1FE958F94F2080318039
:1029C000E114F10409F46EC0A0E92A16A1E03A0668
:1029D00008F06DC08FE594E00E94A907F8013196D8
:1029E000FE87ED87CF010E94BE0784E794E00E9436
:1029F000A907E114F10409F05DC08DE992E09C8320
:102A00008B838B819C810E94A9078FE794E00E94B1
:102A1000A9074101B12CA12C4AE0C501B1010E94D6
:102A200065078BE894E00E94A9074AE068E770E038
:102A300080E090E00E94650784E392E00E945807DE
:102A400061E0E114F10409F460E0F801E45FFD4F96
:102A500080810E94AC0161E0EF2809F060E0F8019C
:102A6000E85FFD4F80810E94AC0161E0F801EC5FFE
:102A7000FD4F80810E94AC010E948F022B013C011E
:102A80000E948F02641975098609970968377105D4
:102A900081059105A0F461E070E080E090E00E9483
:102AA0005D02EECF92E42916310408F093CF82E460
:102AB00094E084CBA5EAB2E0BC83AB83A2CF0E94B2
:102AC0002F0764EB70E080E090E00E945D028B8550
:102AD0000E9477098823A1F1000F111FF801E9581E
:102AE000F94F008111816801C218D30889E994E087
:102AF0000E94A9078D859E850E94BE0784E794E009
:102B00000E94A9078B819C810E94A9078FE794E00E
:102B10000E94A9074AE0C501B4010E9465078FEA37
:102B200094E00E94A907C8010E94BE078AEB94E0C6
:102B30000E94A907C6010E94BE0785EC94E03ECB27
:102B40000FEF1FEFD3CF1092EA0685EE94E036CB5D
:102B50004AE050E06CE175E080E896E00E94CF1713
:102B6000892B91F044E050E067E275E080E896E060
:102B70000E94CF17892B41F06CE275E080E896E067
:102B80000E94C617892B39F40E942F071092EA067B
:102B900080E395E013CB83E695E010CB2F3531052C
:102BA00060F4A9014F5F5F4F5093E1064093E00648
:102BB0002058394FF9018083DACA1092E106109249
:102BC000E0060E942F071092EA0687E795E00E9430
:102BD000B007CDCA0E948F020091E2061091E30671
:102BE0002091E4063091E506601B710B820B930B7C
:102BF000643F71408105910560F00E948F026093EF
:102C0000E2067093E3068093E4069093E5060E9443
:102C10006F0C0E94A00365CA89E995E0CFCAFA014A
:102C2000A191B081009719F41097E1F0CD01DC017A
:102C3000CD010D90002011F4C00113C0FB012191C2
:102C4000222319F02015D9F7F3CFFB01219120158C
:102C500019F41E92119606C02223C1F70D90002090
:102C6000A1F7D001FA01A193B0830895E89409C0B7
:102C700097FB3EF490958095709561957F4F8F4FAF
:102C80009F4F9923A9F0F92F96E9BB279395F695C5
:102C9000879577956795B795F111F8CFFAF4BB0F43
:102CA00011F460FF1BC06F5F7F4F8F4F9F4F16C0A7
:102CB000882311F096E911C0772321F09EE8872F31
:102CC000762F05C0662371F096E8862F70E060E0ED
:102CD0002AF09A95660F771F881FDAF7880F969566
:102CE000879597F908950E9486160C94F7160E940E
:102CF000E91638F00E94F01620F0952311F00C949C
:102D0000E0160C94E61611240C942B170E94081759
:102D100070F3959FC1F3950F50E0551F629FF0012E
:102D2000729FBB27F00DB11D639FAA27F00DB11D47
:102D3000AA1F649F6627B00DA11D661F829F2227D0
:102D4000B00DA11D621F739FB00DA11D621F839F57
:102D5000A00D611D221F749F3327A00D611D231F2D
:102D6000849F600D211D822F762F6A2F11249F577B
:102D700050409AF0F1F088234AF0EE0FFF1FBB1F7E
:102D8000661F771F881F91505040A9F79E3F51053D
:102D900080F00C94E0160C942B175F3FE4F3983E00
:102DA000D4F3869577956795B795F795E7959F5FE7
:102DB000C1F7FE2B880F911D9695879597F9089579
:102DC00097F99F6780E870E060E008959FEF80ECDE
:102DD000089500240A941616170618060906089581
:102DE00000240A9412161306140605060895092EE7
:102DF0000394000C11F4882352F0BB0F40F4BF2B56
:102E000011F460FF04C06F5F7F4F8F4F9F4F089595
:102E100057FD9058440F551F59F05F3F71F047958B
:102E2000880F97FB991F61F09F3F79F08795089570
:102E3000121613061406551FF2CF4695F1DF08C08F
:102E4000161617061806991FF1CF869571056105AC
:102E500008940895E894BB2766277727CB0197F954
:102E60000895A1E21A2EAA1BBB1BFD010DC0AA1FCB
:102E7000BB1FEE1FFF1FA217B307E407F50720F0E3
:102E8000A21BB30BE40BF50B661F771F881F991F5E
:102E90001A9469F760957095809590959B01AC01A7
:102EA000BD01CF010895EE0FFF1F881F8BBF079054
:102EB000F691E02D1994A29FB001B39FC001A39F8A
:102EC000700D811D1124911DB29F700D811D112463
:102ED000911D08950E945B17A59F900DB49F900DC2
:102EE000A49F800D911D11240895E894DF93CF9342
:102EF000FC01DB010E945B177F936F93E9019A014C
:102F0000AC01BF93AF933F932F93DF010E945B17F8
:102F100026F46C1B7D0B820B930B9E01EB01FC01D5
:102F20000E94BD17AF91BF912F913F910E94BD1795
:102F3000BE01CF01F9012F913F91CF91DF9108950B
:102F400097FD1094002E083098F00850232F342F4E
:102F5000452F562F672F782F892F912DF4CF159459
:102F600097958795779567955795479537952795C1
:102F70000A95AAF71124002D08950E945B17460FA9
:102F8000571FC81FD91F08F431960895FB01DC01B3
:102F90008D91019080190110D9F3990B0895FB01CF
:102FA000DC014150504030F08D910190801919F4AE
:102FB0000020B9F7881B990B0895F894FFCF000102
:102FC00002031E1F202117191B1D16181A1C0000B2
:102FD000000033039D02CA028003FB02D902ED0206
:102FE0000000000087055A050E073005530540050F
:102FF00031050D0A004C414E4445525F5354415433
:103000005553206D6F64653D4A4F475F4944454EB7
:10301000544946595F4C4F434B4544206A6F675FA4
:1030200061726D65643D00206573746F703D005F73
:1030300076616C69643D005F7665723D0053454E74
:10304000534F525F524541445920410053454E531E
:103050004F525F4641554C54204100524554524115
:10306000435400455854454E44004D4547415F4C3C
:10307000414E4445525F4A4F475F4944454E54498B
:1030800046595F563120424F4F54204C4F434B45D9
:103090004420414C4C5F4F5554505554535F4C4F56
:1030A00057004641554C542054434139353438413A
:1030B0005F4E4F545F4445544543544544204D4F63
:1030C00054494F4E5F4C4F434B45440020544341BD
:1030D0005F43483D005245414459204F4E455F53A0
:1030E000484F545F4A4F475F5245515549524553E7
:1030F0005F41524D5F4A4F475F4944454E544946F0
:103100005920414C4C5F4F544845525F4D4F5449F4
:103110004F4E5F52454A4543544544004A4F475F2E
:1031200041524D5F455850495245440050494E4721
:1031300000504F4E47204D4547415F4C414E44455E
:10314000525F4A4F475F4944454E544946595F567E
:103150003100535441545553004F4B2053544F505A
:1031600050454420414C4C5F4F5554505554535F8B
:103170004C4F57204A4F475F44495341524D4544B5
:10318000004553544F50004F4B204553544F505F10
:103190004C41544348454420414C4C5F4F5554509A
:1031A0005554535F4C4F572052455345545F524539
:1031B0005155495245440041524D5F4A4F472049BD
:1031C00044454E5449465900455252204553544FA8
:1031D000505F4C4154434845445F52455345545F0A
:1031E0005245515549524544004A4F4720004552E7
:1031F00052204A4F475F4E4F545F41524D45440065
:1032000045525220444952454354494F4E414C5F28
:1032100053454E534F525F4C494D4954004A4F4716
:103220005F5354415254206163747561746F723DF1
:10323000410020706F6C61726974793D0020626595
:10324000666F72655F6D6D3D0020647572617469B3
:103250006F6E5F6D733D004A4F475F524553554C4B
:1032600054206163747561746F723D410020616622
:103270007465725F6D6D3D002064656C74615F6D97
:103280006D3D00206F7574707574733D414C4C5FDB
:103290004C4F572061726D5F636F6E73756D65641F
:1032A0003D310045525220464F524D41545F4A4FE6
:1032B000475F41315F544F5F41345F524554524143
:1032C00043545F4F525F455854454E442041524D40
:1032D0005F434F4E53554D4544005345545F544151
:1032E00052474554004D4F56450041524D004552FE
:1032F0005220434F4E54494E554F55535F4D4F54F6
:10330000494F4E5F44495341424C45445F4944450F
:103310004E54494649434154494F4E5F4F4E4C59D4
:103320000045525220554E4B4E4F574E5F434F4D26
:103330004D414E440045525220434F4D4D414E4465
:103340005F544F4F5F4C4F4E47204A4F475F4449B1
:103350005341524D4544004552522053454E534F20
:10336000525F474154455F52455155495245535F5D
:10337000414C4C5F56414C4944004F4B204A4F470B
:103380005F41524D45445F4F4E455F53484F545F38
:10339000455850495245535F4D533D3130303030E0
:0233A00000002B
:020000040003F7
:10E000000D9489F10D94B2F10D94B2F10D94B2F129
:10E010000D94B2F10D94B2F10D94B2F10D94B2F1F0
:10E020000D94B2F10D94B2F10D94B2F10D94B2F1E0
:10E030000D94B2F10D94B2F10D94B2F10D94B2F1D0
:10E040000D94B2F10D94B2F10D94B2F10D94B2F1C0
:10E050000D94B2F10D94B2F10D94B2F10D94B2F1B0
:10E060000D94B2F10D94B2F10D94B2F10D94B2F1A0
:10E070000D94B2F10D94B2F10D94B2F10D94B2F190
:10E080000D94B2F10D94B2F10D94B2F10D94B2F180
:10E090000D94B2F10D94B2F10D94B2F10D94B2F170
:10E0A0000D94B2F10D94B2F10D94B2F10D94B2F160
:10E0B0000D94B2F10D94B2F10D94B2F10D94B2F150
:10E0C0000D94B2F10D94B2F10D94B2F10D94B2F140
:10E0D0000D94B2F10D94B2F10D94B2F10D94B2F130
:10E0E0000D94B2F141546D656761323536300041AF
:10E0F000726475696E6F206578706C6F72657220DE
:10E1000073746B3530305632206279204D4C530099
:10E11000426F6F746C6F616465723E004875683F52
:10E1200000436F6D70696C6564206F6E203D200048
:10E130004350552054797065202020203D20005FF9
:10E140005F4156525F415243485F5F3D2000415658
:10E1500052204C696243205665723D20004743437C
:10E160002056657273696F6E203D20004350552024
:10E1700049442020202020203D20004C6F7720663D
:10E18000757365202020203D20004869676820665F
:10E190007573652020203D200045787420667573D6
:10E1A00065202020203D20004C6F636B2066757336
:10E1B000652020203D20004D617220203720323024
:10E1C000313300312E362E3800342E332E350056A2
:10E1D00023202020414444522020206F7020636F70
:10E1E00064652020202020696E73747275637469E1
:10E1F0006F6E2061646472202020496E74657272B3
:10E20000757074006E6F20766563746F7200726A49
:10E210006D702020006A6D70200057686174207056
:10E220006F72743A00506F7274206E6F7420737541
:10E2300070706F72746564004D7573742062652030
:10E2400061206C6574746572002000577269747483
:10E25000696E672045450052656164696E672045B7
:10E26000450045452065727220636E743D00504F35
:10E27000525400303D5A65726F2061646472003FF1
:10E280003D43505520737461747300403D454550C3
:10E29000524F4D207465737400423D426C696E6B41
:10E2A000204C454400453D44756D70204545505215
:10E2B0004F4D00463D44756D7020464C415348001B
:10E2C000483D48656C70004C3D4C69737420492F83
:10E2D0004F20506F72747300513D51756974005234
:10E2E0003D44756D702052414D00563D73686F7707
:10E2F00020696E7465727275707420566563746FF0
:10E30000727300593D506F727420626C696E6B00BD
:10E310002A0011241FBECFEFD1E2DEBFCDBF01E046
:10E320000CBF12E0A0E0B2E0EEE1FDEF03E00BBFB6
:10E3300002C007900D92A030B107D9F712E0A0E01B
:10E34000B2E001C01D92AE30B107E1F70F9460F367
:10E350000D948DFE01E20EBF0FEF0DBF11241FBE05
:10E360000D9460F30D9400F020E030E040ED57E0B4
:10E3700005C0FA013197F1F72F5F3F4F2817390792
:10E38000C0F308959C01260F311DC901A0E0B0E043
:10E390002F5F3F4FABBFFC018791882361F08093D3
:10E3A000C6008091C00086FFFCCF8091C0008064D1
:10E3B0008093C000EACF08958DE08093C6008091DD
:10E3C000C00086FFFCCF8091C00080648093C000B5
:10E3D0008AE08093C6008091C00086FFFCCF8091C8
:10E3E000C00080648093C00008950F94C2F10F9420
:10E3F000DCF10895FC019081992359F09093C600B7
:10E400008091C00086FFFCCF8091C0008064809323
:10E41000C0003196992379F70895282F982F929567
:10E420009F70892F805D8A3308F0895F8093C600D2
:10E430008091C00086FFFCCF8091C00080648093F3
:10E44000C000822F8F70982F905D9A3308F0995FEB
:10E450009093C6008091C00086FFFCCF8091C000E1
:10E4600080648093C00008959C01FB01853691056E
:10E470001CF46330710594F0C90164E670E00F94F8
:10E480002EFE605D7F4F6093C6008091C00086FFC6
:10E49000FCCF8091C00080648093C0002B30310598
:10E4A00014F43297B4F0C90164E670E00F942EFEC4
:10E4B0006AE070E00F942EFE605D7F4F6093C600AF
:10E4C0008091C00086FFFCCF8091C0008064809363
:10E4D000C000C9016AE070E00F942EFEC0968093E0
:10E4E000C6008091C00086FFFCCF8091C000806490
:10E4F0008093C00008951F93182F8EE692EE60E07F
:10E500000F94C2F11093C6008091C00086FFFCCF2B
:10E510008091C00080648093C0000F94DCF11F9153
:10E5200008952F923F924F925F926F927F928F92B7
:10E530009F92AF92BF92CF92DF92EF92FF920F9392
:10E540001F93DF93CF93CDB7DEB762970FB6F894E2
:10E55000DEBF0FBECDBF382E622ECA01DB015C01CB
:10E560006D01772420E2222E2E010894411C511CBB
:10E570008BC081E0A81680E0B80681E0C80680E084
:10E58000D80628F0C601AA27BB270F940DF2BB2797
:10E59000AD2D9C2D8B2D0F940DF28A2D0F940DF225
:10E5A0002092C6008091C00086FFFCCF8091C00001
:10E5B00080648093C0009DE29093C6008091C0006B
:10E5C00086FFFCCF8091C00080648093C0002092C1
:10E5D000C6008091C00086FFFCCF8091C00080649F
:10E5E0008093C00019828601750188249924A1E0D6
:10E5F0003A1651F03A1620F0B2E03B1661F409C029
:10E600000BBFF701779007C0C7010F9477FE782EF4
:10E6100002C0F7017080872D0F940DF22092C60082
:10E620008091C00086FFFCCF8091C0008064809301
:10E63000C000872D8052F401EF70F0708F3520F408
:10E64000E40DF51D708204C0E40DF51D8EE280839B
:10E650000894E11CF11C011D111D0894811C911CE2
:10E6600090E18916910409F0C2CF80E190E0A0E02A
:10E67000B0E0A80EB91ECA1EDB1E198AC2010F9493
:10E68000FAF10F94DCF16A94662009F072CF629679
:10E690000FB6F894DEBF0FBECDBFCF91DF911F91B3
:10E6A0000F91FF90EF90DF90CF90BF90AF909F9031
:10E6B0008F907F906F905F904F903F902F90089534
:10E6C0002F923F924F925F926F927F928F929F9282
:10E6D000AF92BF92CF92DF92EF92FF920F931F9370
:10E6E000DF93CF93CDB7DEB7CD53D1400FB6F894BB
:10E6F000DEBF0FBECDBF01E20EBF0FEF0DBF94B75F
:10E70000F894A89514BE80916000886180936000A1
:10E7100010926000789493FF05C0E0910002F091A0
:10E7200001021995279A2F9A8091C00082608093E8
:10E73000C00080E18093C40088E18093C1000000A4
:10E74000EE24FF24870144E0A42EB12CCC24DD2448
:10E7500024C0C5010197F1F70894E11CF11C011DCB
:10E76000111D21E2E2162EE4F20620E0020720E06D
:10E77000120718F031E0C32ED12CC801B70127ECE5
:10E780003BE140E050E00F9441FE611571058105C9
:10E79000910519F485B1805885B98091C00087FD35
:10E7A00003C0C114D104A9F2A6014F5F5F4FC25E3E
:10E7B000DE4F59834883CE51D140C25EDE4F8881FF
:10E7C0009981CE51D140019711F00D9410FEC05D9A
:10E7D000DE4F19821882C053D14060E0C15DDE4F28
:10E7E0001882CF52D14088249924C35DDE4F19820C
:10E7F0001882CD52D140C05EDE4F188219821A8233
:10E800001B82C052D140CE5CDE4F188219821A8220
:10E810001B82C253D140EE24FF2487010BBFF701B6
:10E8200007911691C45CDE4F19830883CC53D14005
:10E830000D940BFEC25EDE4F28813981CE51D1404E
:10E840002130310509F52091C600C25EDE4F1982E4
:10E850001882CE51D14022C02F5F3F4F4F4F5F4FA4
:10E86000213082E138078AE7480780E0580780F0C6
:10E87000C45CDE4FE881F981CC53D140EF5FFF4F9C
:10E8800019F0EE27FF27099420E030E040E050E047
:10E890008091C00087FFE0CF2091C600C35DDE4FAE
:10E8A00048815981CD52D1404F5F5F4FC35DDE4FEC
:10E8B00059834883CD52D140213209F063C64A3092
:10E8C000510508F05FC60894811C911C53E0851621
:10E8D000910409F059C600E010E018C081E280936D
:10E8E000C6008091C00086FFFCCF8091C00080648C
:10E8F0008093C0002F5F3F4F2931310579F70F9486
:10E90000DCF10F5F1F4F0530110519F020E030E0FA
:10E91000E5CF10920A0210920B0210920C02109294
:10E920000D02109206021092070210920802109235
:10E930000902109202021092030210920402109235
:10E9400005028FEE90EE60E00F94F5F180E191EE1C
:10E9500060E00F94C2F18091C00087FFFCCF9091DE
:10E96000C600903608F09F759032B8F09093C600BC
:10E970008091C00086FFFCCF8091C00080648093AE
:10E98000C000A0E2A093C6008091C00086FFFCCF2B
:10E990008091C00080648093C000983409F4D7C18E
:10E9A0009934B8F4923409F459C1933458F490333B
:10E9B00019F1903308F4E3C59F33A1F1903409F0C5
:10E9C000DEC5BDC0953409F470C1963409F0D7C5D1
:10E9D00098C1923509F42BC2933538F49C3409F46C
:10E9E000F5C1913509F0CBC518C2963509F445C279
:10E9F000993509F0C4C567C483E792EE62E00F94CD
:10EA0000F5F110920602109207021092080210927D
:10EA1000090210920A0210920B0210920C0210923C
:10EA20000D0213C18FE792EE62E00F94F5F18FEEC5
:10EA300090EE60E00F94F5F181E291EE60E00F94CA
:10EA4000C2F187EB91EE60E00F94F5F180E391EE77
:10EA500060E00F94C2F184EE90EE60E00F94F5F167
:10EA60008FE391EE60E00F94C2F186E090E061E008
:10EA700070E00F9434F20F94DCF18DE591EE60E0DC
:10EA80000F94C2F189EC91EE60E00F94F5F18EE401
:10EA900091EE60E00F94C2F183EC91EE60E00F9490
:10EAA000F5F18CE691EE60E00F94C2F18EE10F94E7
:10EAB0000DF288E90F940DF281E00F940DF20F949E
:10EAC000DCF18BE791EE60E00F94C2F119E0E0E039
:10EAD000F0E010935700E4918E2F0F940DF20F94F5
:10EAE000DCF18AE891EE60E00F94C2F1E3E0F0E03F
:10EAF00010935700E4918E2F0F940DF20F94DCF1D8
:10EB000089E991EE60E00F94C2F1E2E0F0E0109349
:10EB10005700E4918E2F0F940DF20F94DCF188EAE8
:10EB200091EE60E00F94C2F1E1E0F0E01093570045
:10EB30001491812F0F940DF20F94DCF107CF8BE825
:10EB400092EE62E00F94F5F18BE492EE60E00F94A8
:10EB5000F5F10F94DCF100E010E019C0C8016F2D51
:10EB60000F947FFEFF2031F489E492EE60E00F9471
:10EB7000C2F10BC0F092C6008091C00086FFFCCFAE
:10EB80008091C00080648093C0000F5F1F4FC80158
:10EB900081519F41A0E0B0E0ABBFFC01F790BAE229
:10EBA000FB1621F0E2E000301E07C1F60F94DCF105
:10EBB0000F94DCF187E592EE60E00F94F5F10F948D
:10EBC000DCF1CC24DD2400E010E01EC0C8010F946D
:10EBD00077FEF82E882331F489E492EE60E00F94FA
:10EBE000C2F10BC08093C6008091C00086FFFCCFAD
:10EBF0008091C00080648093C000FE1419F00894D6
:10EC0000C11CD11C0F5F1F4FC80181519F41A0E063
:10EC1000B0E0ABBFFC01E790FAE2EF1621F022E092
:10EC20000030120799F60F94DCF10F94DCF182E6C4
:10EC300092EE60E00F94C2F1C60161E070E00F94C3
:10EC400034F20F94DCF10F94DCF110920202109276
:10EC50000302109204021092050278CE89E992EE26
:10EC600062E00F94F5F1279A2F9A16C02F9880E052
:10EC700090E0E0EDF7E03197F1F7019684369105E9
:10EC8000C1F72F9A80E090E0E0EDF7E03197F1F7DF
:10EC9000019684369105C1F78091C00087FFE6CFC9
:10ECA0008091C00087FFFCCF64C485EA92EE62E0E9
:10ECB0000F94F5F140910202509103026091040219
:10ECC0007091050281E020E10F9491F2809102029F
:10ECD00090910302A0910402B091050280509F4FD1
:10ECE000AF4FBF4F8093020290930302A0930402A0
:10ECF000B093050280509041A040B04008F426CE69
:10ED0000A4CF83EB92EE62E00F94F5F140910602FE
:10ED100050910702609108027091090280E020E1A1
:10ED20000F9491F28091060290910702A09108023F
:10ED3000B091090280509F4FAF4FBF4F80930602A2
:10ED400090930702A0930802B0930902FFCD80ECD4
:10ED500092EE62E00F94F5F183E792EE60E00F949B
:10ED6000F5F18FE792EE60E00F94F5F18BE892EE0B
:10ED700060E00F94F5F189E992EE60E00F94F5F10F
:10ED800085EA92EE60E00F94F5F183EB92EE60E09D
:10ED90000F94F5F180EC92EE60E00F94F5F187ECC2
:10EDA00092EE60E00F94F5F188ED92EE60E00F9442
:10EDB000F5F18FED92EE60E00F94F5F18AEE92EEB0
:10EDC00060E00F94F5F183E093EEBDCD87EC92EE19
:10EDD00062E00F94F5F181E40F947BF282E40F94EA
:10EDE0007BF283E40F947BF284E40F947BF285E45E
:10EDF0000F947BF286E40F947BF287E40F947BF20E
:10EE000088E40F947BF28AE40F947BF28BE40F94F6
:10EE10007BF28CE40F947BF299CD88ED92EE62E068
:10EE20000F94F5F1772473948824992409C48FED05
:10EE300092EE62E00F94F5F140910A0250910B02BC
:10EE400060910C0270910D0282E020E10F9491F22A
:10EE500080910A0290910B02A0910C02B0910D02D8
:10EE600080509F4FAF4FBF4F80930A0290930B0289
:10EE7000A0930C02B0930D0269CD8AEE92EE62E08F
:10EE80000F94F5F184EE90EE60E00F94F5F18FECC5
:10EE900091EE60E00F94F5F1662477244301CC5D98
:10EEA000DE4F19821882C452D140D401C301B695F5
:10EEB000A79597958795CA5DDE4F88839983AA8326
:10EEC000BB83C652D140CC5DDE4FA881B981C4520C
:10EED000D1401196CC5DDE4FB983A883C452D14096
:10EEE000CD0162E070E00F9434F2B0E2B093C6005E
:10EEF0008091C00086FFFCCF8091C0008064809329
:10EF0000C000EDE2E093C6008091C00086FFFCCF18
:10EF10008091C00080648093C000F0E2F093C6004E
:10EF20008091C00086FFFCCF8091C00080648093F8
:10EF3000C000CA5DDE4FE880F9800A811B81C6529D
:10EF4000D140BB27A12F902F8F2D0F940DF2CA5DBA
:10EF5000DE4F8881C652D1400F940DF2B0E2FB2EF5
:10EF6000F092C6008091C00086FFFCCF8091C00067
:10EF700080648093C0000DE30093C6008091C000C0
:10EF800086FFFCCF8091C00080648093C00010E2B7
:10EF90001093C6008091C00086FFFCCF8091C00016
:10EFA00080648093C0008BBEF3012791C65DDE4F65
:10EFB0002883CA52D140A22EBB24CC24DD2408943D
:10EFC000611C711C811C911C8BBEF3018791282E42
:10EFD0003324442455240894611C711C811C911C09
:10EFE0008BBEF3013791C55DDE4F3883CB52D140E4
:10EFF0000894611C711C811C911C8BBEF30147910C
:10F00000C45DDE4F4883CC52D140ADEFEA2EAFEF66
:10F01000FA2EAFEF0A2FAFEF1A2F6E0C7F1C801E57
:10F02000911E142D032DF22CEE24EA0CFB1C0C1D5A
:10F030001D1D0F940DF220E22093C6008091C000A8
:10F0400086FFFCCF8091C00080648093C000C65DC5
:10F05000DE4F8881CA52D1400F940DF230E23093D6
:10F06000C6008091C00086FFFCCF8091C000806404
:10F070008093C000C45DDE4F8881CC52D1400F9494
:10F080000DF240E24093C6008091C00086FFFCCFA5
:10F090008091C00080648093C000C55DDE4F888190
:10F0A000CB52D1400F940DF250E25093C6008091A4
:10F0B000C00086FFFCCF8091C00080648093C000B8
:10F0C0008FEFE8168FEFF80680E0080780E018075A
:10F0D00031F484E092EE60E00F94C2F1DFC0D80119
:10F0E000C7018070907CA070B0708050904CA040A0
:10F0F000B040D1F52FEF3FE340E050E0E222F322B1
:10F1000004231523CA5DDE4FA880B980CA80DB8046
:10F11000C652D140AE0CBF1CC01ED11EAA0CBB1CD7
:10F12000CC1CDD1C8EE092EE60E00F94C2F1BB2798
:10F13000A12F902F8F2D0F940DF28E2D0F940DF285
:10F1400030E23093C6008091C00086FFFCCF8091F2
:10F15000C00080648093C0004EE34093C60080915D
:10F16000C00086FFFCCF87C08EE09EEFA0E0B0E03D
:10F17000E822F9220A231B239CE0E91694E9F90608
:10F1800090E0090790E0190709F088C0C45DDE4FE0
:10F19000A881CC52D140EA2EFF2400E010E0102FCD
:10F1A0000F2DFE2CEE24C55DDE4FB881CB52D14031
:10F1B000EB0EF11C011D111DD601C501817090706F
:10F1C000A070B070DC0199278827E80EF91E0A1F8D
:10F1D0001B1F20EF30E040E050E0A222B322C42207
:10F1E000D52241E1AA0CBB1CCC1CDD1C4A95D1F7F1
:10F1F000EA0CFB1C0C1D1D1D81E090E0A0E0B0E0BE
:10F20000282239224A225B2235E1220C331C441C7D
:10F21000551C3A95D1F7E20CF31C041D151D57013E
:10F220006801AA0CBB1CCC1CDD1C85E192EE60E0E1
:10F230000F94C2F1C801AA27BB270F940DF2BB2778
:10F24000A12F902F8F2D0F940DF28E2D0F940DF274
:10F2500090E29093C6008091C00086FFFCCF809121
:10F26000C00080648093C000AEE3A093C60080918C
:10F27000C00086FFFCCF8091C00080648093C000F6
:10F28000C601AA27BB270F940DF2BB27AD2D9C2DDD
:10F290008B2D0F940DF28A2D0F940DF20F94DCF14B
:10F2A000CC5DDE4FE881F981C452D140F99709F471
:10F2B0004DCBF4E0EF2EF12C012D112D6E0C7F1CA7
:10F2C000801E911EF2CD83E093EE62E00F94F5F183
:10F2D0008AE192EE60E00F94C2F18091C00087FF56
:10F2E000FCCF1091C6001F751093C6008091C0001E
:10F2F00086FFFCCF8091C00080648093C0000F9493
:10F30000DCF1812F81548A3108F036C1163409F4BA
:10F3100095C0173490F4133409F44EC0143430F40B
:10F320001134F1F0123409F01DC130C0143409F465
:10F3300059C0153409F016C16BC01A3409F4C4C0A1
:10F340001B3438F4173409F48FC0183409F00AC19B
:10F35000A1C01B3409F4D2C01C3409F003C1E8C0B9
:10F360008FEF81B90DC082B1809582B980E090E0C5
:10F37000E0EDF7E03197F1F70196883C9105C1F790
:10F380008091C00087FFEFCF12B8EFC08FEF84B934
:10F390000DC085B1809585B980E090E0E0EDF7E0A3
:10F3A0003197F1F70196883C9105C1F78091C00033
:10F3B00087FFEFCF15B8D9C08FEF87B90DC088B1DF
:10F3C000809588B980E090E0E0EDF7E03197F1F7C3
:10F3D0000196883C9105C1F78091C00087FFEFCF6F
:10F3E00018B8C3C08FEF8AB90DC08BB180958BB9A7
:10F3F00080E090E0E0EDF7E03197F1F70196883C8E
:10F400009105C1F78091C00087FFEFCF1BB8ADC059
:10F410008FEF8DB90DC08EB180958EB980E090E0F0
:10F42000E0EDF7E03197F1F70196883C9105C1F7DF
:10F430008091C00087FFEFCF1EB897C08FEF80BBD1
:10F440000DC081B3809581BB80E090E0E0EDF7E0F6
:10F450003197F1F70196883C9105C1F78091C00082
:10F4600087FFEFCF11BA81C08FEF83BB0DC084B38C
:10F47000809584BB80E090E0E0EDF7E03197F1F714
:10F480000196883C9105C1F78091C00087FFEFCFBE
:10F4900014BA6BC08FEF809301010FC080910201FD
:10F4A00080958093020180E090E0E0EDF7E03197F5
:10F4B000F1F70196883C9105C1F78091C00087FF64
:10F4C000EDCF1092020151C08FEF809304010FC065
:10F4D0008091050180958093050180E090E0E0ED4A
:10F4E000F7E03197F1F70196883C9105C1F78091DB
:10F4F000C00087FFEDCF1092050137C08FEF8093DA
:10F5000007010FC08091080180958093080180E079
:10F5100090E0E0EDF7E03197F1F70196883C910536
:10F52000C1F78091C00087FFEDCF109208011DC088
:10F530008FEF80930A010FC080910B01809580931B
:10F540000B0180E090E0E0EDF7E03197F1F70196F4
:10F55000883C9105C1F78091C00087FFEDCF1092E4
:10F560000B0103C085E292EEEEC98091C00087FFD7
:10F57000FCCF8091C600EAC988E392EEE4C98CE131
:10F5800091EEE1C988249924933011F1943028F444
:10F59000913089F09230B8F408C0953061F195301F
:10F5A000F0F0963009F048C043C02B3109F042C951
:10F5B00091E06BE13FC96227C15DDE4F2883CF52E6
:10F5C000D14092E037C9B22FA0E0622793E032C960
:10F5D000822F90E0A82BB92B622794E02BC92E3004
:10F5E00009F039C3622795E0C05DDE4F19821882A9
:10F5F000C053D1401FC9E1E0F0E0EC0FFD1FC05D3A
:10F60000DE4F08811981C053D140E00FF11F2083E4
:10F610000F5F1F4FC05DDE4F19830883C053D14079
:10F6200062270A171B0709F005C9D80196E002C92D
:10F63000261709F010C303C0973009F0FBC87724E0
:10F640009981933109F412C19431C8F4963009F4C8
:10F65000D8C0973050F4923009F406C1933009F4C1
:10F660006DC0913009F059C253C0913109F477C08F
:10F67000923108F0BBC0903109F04FC2F5C098310B
:10F6800009F487C0993150F4953109F4EFC09531F0
:10F6900008F4C6C1963109F040C2C2C19A3109F4DA
:10F6A0006CC09A3108F491C09B3109F45BC09D3164
:10F6B00009F033C29D81903359F48F81882311F46E
:10F6C0009EE11CC0813011F091E018C098E916C08D
:10F6D000892F807591F0903539F4E0E0F0E089E011
:10F6E0008093570094910AC0983539F4E3E0F0E034
:10F6F00089E080935700949101C090E01A821B82A8
:10F700008D818C831D829E831F8227E030E009C299
:10F710001A8288E08B8381E48C8386E58D8382E581
:10F720008E8389E48F8383E5888780E589878FE5E9
:10F730008A8782E38B872BE030E0F3C18A818139AD
:10F7400041F0823941F0803911F48FE005C080E04A
:10F7500003C082E001C08AE01A828B8344C0772410
:10F76000739482C08D81882311F48EE12CC0813086
:10F7700011F081E028C088E926C01A82E1E0F0E0BB
:10F7800089E08093570084918B831C8224E030E0D1
:10F79000C8C18B81803589F48C81883039F4E2E0EE
:10F7A000F0E089E08093570084910DC0E0E0F0E044
:10F7B00089E080935700849106C0E3E0F0E089E09F
:10F7C0008093570084911A82DFCF8D81836C99E0FA
:10F7D000E1E0F0E0082E90935700E89507B600FCB2
:10F7E000FDCF1A821B8223E030E09BC180EC8A832C
:10F7F000CE5CDE4F188219821A821B82C253D1401E
:10F800008EC18A8190E0A0E0B0E0582F44273327D2
:10F8100022278B8190E0A0E0B0E0DC0199278827C7
:10F82000282B392B4A2B5B2B8D8190E0A0E0B0E098
:10F83000282B392B4A2B5B2B8C8190E0A0E0B0E089
:10F84000BA2FA92F982F8827282B392B4A2B5B2BCF
:10F85000220F331F441F551FC05EDE4F288339839C
:10F860004A835B83C052D1401A8259C13A81C95C34
:10F87000DE4F3883C753D140CA5CDE4F1882C6536F
:10F88000D1408B81C82EDD24CA5CDE4F488159816E
:10F89000C653D140C42AD52A933109F082C0CE5C28
:10F8A000DE4F88819981AA81BB81C253D1408050AB
:10F8B000904CA340B04030F583E0CE5CDE4FE88052
:10F8C000F9800A811B81C253D140F70100935B008C
:10F8D00080935700E89507B600FCFDCFCE5CDE4F65
:10F8E000088119812A813B81C253D14000501F4FAA
:10F8F0002F4F3F4FCE5CDE4F088319832A833B8313
:10F90000C253D140C05EDE4F488159816A817B81FC
:10F91000C052D140DE011B9631E08C9111962C91A2
:10F9200011971296C75CDE4F2883C953D140C85C3B
:10F93000DE4F1882C853D14090E0C85CDE4FE881AA
:10F94000F981C853D1408E2B9F2B0C01FA01609393
:10F950005B0030935700E89511244E5F5F4F6F4F67
:10F960007F4F0EEFE02E0FEFF02ECE0CDF1CC114F8
:10F97000D10499F685E0C05EDE4F088119812A81A5
:10F980003B81C052D140F80120935B008093570027
:10F99000E89507B600FCFDCF81E180935700E8951C
:10F9A00035C0C05EDE4F88819981AA81BB81C0527B
:10F9B000D140B695A795979587957C018601ABE0D8
:10F9C000AA2EB12CAC0EBD1E0BC0D5016D915D01F0
:10F9D000C7010F947FFE0894E11CF11C01501040F8
:10F9E0000115110591F7A60160E070E0440F551F65
:10F9F000661F771FC05EDE4FE880F9800A811B8199
:10FA0000C052D1404E0D5F1D601F711F1A82C05E33
:10FA1000DE4F488359836A837B83C052D1407FC0C5
:10FA2000FA80C55CDE4FF882CB53D140C65CDE4F16
:10FA30001882CA53D1408B81C82EDD24C65CDE4FAC
:10FA400008811981CA53D140C02AD12A1A828981DA
:10FA5000BE016D5F7F4F843121F59601C05EDE4FA0
:10FA6000E880F9800A811B81C052D1400BBFF701A9
:10FA700087919691DB018C9311969C936E5F7F4FDB
:10FA8000D801C7010296A11DB11DC05EDE4F88835B
:10FA90009983AA83BB83C052D14022503040F1F6F3
:10FAA00036C0C05EDE4F288139814A815B81C052F9
:10FAB000D1400894C108D108760100E010E0089414
:10FAC000C11CD11C0894E11CF11C011D111DE20E8A
:10FAD000F31E041F151F21BDBB27A52F942F832FB5
:10FAE00082BD2F5F3F4F4F4F5F4FF89A80B5DB01CC
:10FAF0008D93BD012E153F054007510761F7C05E8C
:10FB0000DE4F288339834A835B83C052D1409601FC
:10FB10002D5F3F4FFB01108204C080EC8A8322E0FE
:10FB200030E08BE18093C6008091C00086FFFCCF5F
:10FB30008091C00080648093C000C15DDE4FF88179
:10FB4000CF52D140F093C6008091C00086FFFCCF19
:10FB50008091C00080648093C000432F3093C60022
:10FB60008091C00086FFFCCF8091C00080648093AC
:10FB7000C000922F2093C6008091C00086FFFCCF6A
:10FB80008091C00080648093C0008EE08093C600A6
:10FB90008091C00086FFFCCF8091C000806480937C
:10FBA000C00065E1C15DDE4FE880CF52D1406E25D7
:10FBB00069276427FE01319610C090819093C6009A
:10FBC0008091C00086FFFCCF31968091C000806498
:10FBD0008093C0006927215030402115310569F715
:10FBE0006093C6008091C00086FFFCCF8091C0006A
:10FBF00080648093C00085B1805885B9772081F4F6
:10FC0000C15DDE4F0881CF52D1400F5FC15DDE4F35
:10FC10000883CF52D14090E0A0E0B0E00D941AF4F8
:10FC200027982F9880E090E020ED37E0F901319798
:10FC3000F1F7019684369105C9F700008091C00064
:10FC40008D7F8093C00081E180935700E895EE2777
:10FC5000FF270994FFCF90E00D941AF497FB092E2B
:10FC600007260AD077FD04D02ED006D000201AF443
:10FC7000709561957F4F0895F6F7909581959F4F08
:10FC80000895A1E21A2EAA1BBB1BFD010DC0AA1FDD
:10FC9000BB1FEE1FFF1FA217B307E407F50720F0F5
:10FCA000A21BB30BE40BF50B661F771F881F991F70
:10FCB0001A9469F760957095809590959B01AC01B9
:10FCC000BD01CF010895AA1BBB1B51E107C0AA1FAC
:10FCD000BB1FA617B70710F0A61BB70B881F991FED
:10FCE0005A95A9F780959095BC01CD010895F99991
:10FCF000FECF92BD81BDF89A992780B50895262F31
:10FD0000F999FECF1FBA92BD81BD20BD0FB6F89400
:0EFD1000FA9AF99A0FBE01960895F894FFCF63
:00000001FF
