:100000000C9450010C9481010C9481010C94810199
:100010000C9481010C9481010C9481010C94810158
:100020000C9481010C9481010C9481010C94810148
:100030000C9481010C9481010C9481010C94810138
:100040000C9481010C9481010C9481010C94810128
:100050000C9481010C9481010C9481010C94220D6B
:100060000C9481010C94960D0C946C0D0C948101F0
:100070000C9481010C9481010C9481010C948101F8
:100080000C9481010C9481010C9481010C948101E8
:100090000C9481010C9481010C9481010C94CC0D81
:1000A0000C9481010C9481010C9481010C948101C8
:1000B0000C9481010C9481010C9481010C948101B8
:1000C0000C9481010C9481010C9481010C948101A8
:1000D0000C9481010C9481010C9481010C94810198
:1000E0000C9481010C94F7010C94BE0B0C94FA0B48
:1000F0000C94DC010C941A020C9420020C94FB0169
:100100000C9487050C94E1010C94ED020C945305BA
:100110000C94FF010C94F00E0C94B40B0C949B0205
:100120000C94C80B0C94DC0B0C94040C0C94800302
:100130000C9402020C9431050C9424020C94D90204
:100140000C9428020C9432020C940C020C94F00BC8
:100150000C9416020C94F3010C94D20B0C940E0721
:100160000C94CA020C9440050C9408020C941202E0
:100170000C945A050C949D020C9430050C942E029C
:100180000C94E60B0C949C020C94A90B0C94430C5D
:100190000C94FB020C94330300000A0B02090C0DB3
:1001A0000E0807030401000000000000000000002A
:1001B000000000000000000000000000000000003F
:1001C00000000000121110000000000000000000FC
:1001D000000000000000000000000000000000001F
:1001E0002200250028002B002E00310034000201DF
:1001F0000000050108010B01000021002400270078
:100200002A002D0030003300010100000401070125
:100210000A0105050505070508080808020202028B
:100220000A0A080804040404010101010101010192
:100230000303030303030303040707070C0C0C0C5D
:100240000C0C0C0C02020202060606060606060646
:100250000B0B0B0B0B0B0B0B0102102020080810D3
:100260002040102040800201020108040201010226
:1002700004081020408080402010080402018004FF
:10028000020180402010080402010804020101025A
:100290000408102040800102040810204080F00E65
:1002A00011241FBECFEFD1E2DEBFCDBF00E00CBFF7
:1002B00015E0A0E0B2E0EEEBFFE200E00BBF02C011
:1002C00007900D92A43EB107D9F728E0A4EEB5E05F
:1002D00001C01D92A938B207E1F711E0C0E5D1E0F5
:1002E00000E006C021970109802FFE010E945317EC
:1002F000CF34D10780E00807A9F70E945C0F0C9467
:10030000DD170C94000091E090934307809342071F
:100310001092410710924007089590E0FC01E85ABE
:10032000FD4F24918E5E9D4FFC018491882399F0AE
:1003300090E0880F991FFC01E850FE4FA591B49101
:10034000FC01E252FE4F859194918FB7F894EC91A5
:10035000E22BEC938FBF0895282F30E0F901E85687
:10036000FE4F9491F901E85AFD4F44912E5E3D4FA6
:10037000F9012491222309F435C0992311F19150F8
:100380009231F8F4E92FF0E08827E653FE4F8F4FC3
:100390000C945317FB01FF01DC01F301F701E101AC
:1003A000020208020C02120216021A0220022402A1
:1003B000E10128022E023202809180008F77809323
:1003C0008000E22FF0E0EE0FFF1FE252FE4FA591FA
:1003D000B4918FB7F894EC91611148C040954E23C9
:1003E0004C938FBF0895809180008F7DE8CF8091DE
:1003F0008000877FE4CF84B58F7784BDE2CF84B55A
:100400008F7DFBCF8091B0008F778093B000D9CFE4
:100410008091B0008F7DF9CF809190008F7780938D
:100420009000CFCF809190008F7DF9CF8091900088
:10043000877FF5CF8091A0008F778093A000C1CFF8
:100440008091A0008F7DF9CF8091A000877FF5CFAC
:10045000809120018F7780932001B3CF809120017C
:100460008F7DF9CF80912001877FF5CF4E2BB8CFBC
:100470003FB7F8948091F0069091F106A091F206B2
:10048000B091F30626B5A89B05C02F3F19F0019641
:10049000A11DB11D3FBFBA2FA92F982F8827BC01DE
:1004A000CD01620F711D811D911D42E0660F771F06
:1004B000881F991F4A95D1F708958F929F92AF9206
:1004C000BF92CF92DF92EF92FF924B015C010E94AC
:1004D00038026B017C010E9438026C197D098E097B
:1004E0009F09683E734081059105A8F321E0821AB7
:1004F0009108A108B10888EEC80E83E0D81EE11C5F
:10050000F11C81149104A104B10429F7FF90EF902C
:10051000DF90CF90BF90AF909F908F9008952FB7AE
:10052000F8946091EC067091ED068091EE06909142
:10053000EF062FBF089508950895AF92BF92CF920E
:10054000DF92EF92FF920F931F93CF93DF936C0193
:100550007B018B01040F151FEB015E01AE18BF0874
:10056000C017D10759F06991D601ED91FC91019026
:10057000F081E02DC6011995892B79F7C501DF912E
:10058000CF911F910F91FF90EF90DF90CF90BF9090
:10059000AF900895FC01538D448D252F30E0842FBA
:1005A00090E0821B930B541710F0CF96089501979B
:1005B0000895FC01918D828D981761F0A28DAE0F88
:1005C000BF2FB11D5D968C91928D9F5F9F73928F0F
:1005D00090E008958FEF9FEF0895FC01918D828D3B
:1005E000981731F0828DE80FF11D858D90E0089508
:1005F0008FEF9FEF0895FC01918D228D892F90E060
:10060000805C9F4F821B91098F739927089584E422
:1006100097E00E94FB0221E0892B09F420E0822F61
:100620000895FC01A48DA80FB92FB11DA35ABF4F87
:100630002C91848D90E001968F739927848FA689E1
:10064000B7892C93A089B1898C91837080648C9335
:10065000938D848D981306C00288F389E02D8081E4
:100660008F7D80830895EF92FF920F931F93CF9316
:10067000DF93EC0181E0888F9B8D8C8D98131AC0DD
:10068000E889F989808185FF15C09FB7F894EE89C4
:10069000FF896083E889F989808183708064808321
:1006A0009FBF81E090E0DF91CF911F910F91FF906C
:1006B000EF900895F62E0B8D10E00F5F1F4F0F7314
:1006C0001127E02E8C8D8E110CC00FB607FCFACFCF
:1006D000E889F989808185FFF5CFCE010E94110359
:1006E000F1CFEB8DEC0FFD2FF11DE35AFF4FF082A0
:1006F0009FB7F8940B8FEA89FB8980818062CFCF06
:10070000CF93DF93EC01888D8823B9F0AA89BB8948
:10071000E889F9898C9185FD03C0808186FD0DC033
:100720000FB607FCF7CF8C9185FFF2CF808185FF54
:10073000EDCFCE010E941103E9CFDF91CF91089553
:1007400080E090E0892B29F00E94070381110E942C
:10075000000080E090E0892B49F080E090E0892B58
:1007600029F00E94000081110E94000080E090E0CA
:10077000892B49F080E090E0892B29F00E9400004D
:1007800081110E94000080E090E0892B49F080E018
:1007900090E0892B29F00E94000081110C94000048
:1007A0000895CF92DF92EF92FF9261157105810556
:1007B0009105F1F0DC01CB010197A109B10930E00D
:1007C00020E06C017D01CC24CD28CE28CF2839F043
:1007D000B695A795979587952F5F3F4FF2CF322F0C
:1007E0002227822B932BFF90EF90DF90CF900895DC
:1007F00090E080E0F8CF20914406260F3327331F86
:1008000021323105ECF420913A07FC0190E080E0C0
:10081000243069F082E00895A09144062191AC0152
:100820004C5D594FA40FB52FB11D2C93019686171F
:1008300098F380914406680F6093440680E0089521
:1008400081E0089510923A0781E080931907109291
:10085000140761E084E10E94AC0161E085E10E943F
:10086000AC01E9EBF0E080818E7F808380818D7F19
:10087000808388E48093B80085E48093BC00089569
:10088000CF93DF9391E090936D068823B9F0C091E8
:10089000B800D091BA008091BC008A7B8093BC00E4
:1008A00060E084E10E94AC0160E085E10E94AC015F
:1008B0000E942204D093BA00C093B800DF91CF9178
:1008C0000895CF92DF92EF92FF920F931F93CF93F1
:1008D000DF93D82FC62F613208F098C00E943802EB
:1008E0006B017C0180913A0781116BC081E080939C
:1008F0003A07809319079FEF9093180710921707F4
:100900009C0F909316078093150780911507DD0FB4
:10091000D82BD093150780911407813009F078C047
:10092000109214070E9438026B017C018091150718
:100930008093BB0080913C0790913D07A0913E07BA
:10094000B0913F07892B8A2B8B2BA1F00E94380294
:1009500000913C0710913D0720913E0730913F07E1
:100960006C197D098E099F09061717072807390793
:1009700008F448C08091BC0083FDD8CF85EC8093FB
:10098000BC000E9438026B017C0180913A078130E3
:1009900009F440C0809117078C1710F4C091170715
:1009A000E4EFF6E0AAE1B7E080E08C1355C08C2FAD
:1009B000DF91CF911F910F91FF90EF90DF90CF903B
:1009C000089580913C0790913D07A0913E07B0911A
:1009D0003F07892B8A2B8B2B09F484CF0E94380286
:1009E00000913C0710913D0720913E0730913F0751
:1009F0006C197D098E099F09061717072807390703
:100A000008F070CF80913B070E944004C0E0CFCF38
:100A100085EEB5CF80913C0790913D07A0913E07B0
:100A2000B0913F07892B8A2B8B2B09F4AECF0E9404
:100A3000380200913C0710913D0720913E0730910C
:100A40003F076C197D098E099F09061717072807AC
:100A5000390708F09ACFD6CF91919D938F5FA5CF9C
:100A60000895E0916C0680916B06E81730F4F0E091
:100A7000E65EF84F808190E008958FEF9FEF089534
:100A800090916C0680916B062FEF3FEF981748F41A
:100A9000E92FF0E0E65EF84F208130E09F5F909311
:100AA0006C06C901089580916B0690916C06891BB4
:100AB000990B0895CF92DF92EF92FF920F931F93BD
:100AC000CF93DF937C01CB018A012091430722233E
:100AD00089F0EB016B01C40ED51ECC15DD0569F064
:100AE0006991D701ED91FC910190F081E02DC70152
:100AF0001995F3CF642F0E94FB03C801DF91CF91BA
:100B00001F910F91FF90EF90DF90CF900895CF93BA
:100B1000DF931F92CDB7DEB769832091430722236D
:100B2000F9F020914007203258F021E030E0FC013C
:100B30003383228390E080E00F90DF91CF9108957E
:100B400080914107E82FF0E0EC5FF94F99819083A5
:100B50008F5F809341078093400781E090E0ECCF66
:100B600061E0CE0101960E94FB03F7CFCF92DF92A6
:100B7000EF92FF920F931F93CF93DF93D091400793
:100B800081E0D13208F09CC0C09142070E94380237
:100B90006B017C0180913A0781116CC082E08093E7
:100BA0003A0781E0809319078FEF8093180710921E
:100BB0001707D0931607A4E0B6E0E4EFF6E080E074
:100BC000D8138DC01092150780911507CC0FC82B34
:100BD000C093150780911407813009F084C01092EA
:100BE00014070E9438026B017C01809115078093E5
:100BF000BB0080913C0790913D07A0913E07B091CA
:100C00003F07892B8A2B8B2BA1F00E943802009181
:100C10003C0710913D0720913E0730913F076C192A
:100C20007D098E099F09061717072807390708F459
:100C300042C08091BC0083FDD8CF85EC8093BC007E
:100C40000E9438026B017C0180913A07823009F4DE
:100C50004CC0809118078F3F09F469C08091180734
:100C6000803209F466C080911807803309F463C0AC
:100C700084E026C080913C0790913D07A0913E07FB
:100C8000B0913F07892B8A2B8B2B09F483CF0E94CD
:100C9000380200913C0710913D0720913E073091AA
:100CA0003F076C197D098E099F090617170728074A
:100CB000390708F06FCF80913B070E94400485E020
:100CC000109241071092400710924307DF91CF9195
:100CD0001F910F91FF90EF90DF90CF9008959D911D
:100CE00091938F5F6DCF85EEA9CF80913C07909156
:100CF0003D07A0913E07B0913F07892B8A2B8B2B94
:100D000009F4A2CF0E94380200913C0710913D07E0
:100D100020913E0730913F076C197D098E099F098C
:100D2000061717072807390708F08ECFC4CF80E0D1
:100D3000C7CF82E0C5CF83E0C3CFFF920F931F934D
:100D4000CF93DF93EC01F62E142F052F888D0E9490
:100D500083018E899F89DC01ED91FC910190F081E6
:100D6000E02D60E019958E899F89DC01ED91FC9161
:100D70000190F081E02D6F2D19958E899F89DC01FE
:100D8000ED91FC910190F081E02D602F19958E89F5
:100D90009F89DC01ED91FC910190F081E02D612FA4
:100DA00019958E899F890E94B6058B87DF91CF9117
:100DB0001F910F91FF9008950F931F93CF93DF938F
:100DC000EC01062F142F888D0E9483018E899F8944
:100DD000DC01ED91FC910190F081E02D60E019952E
:100DE0008E899F89DC01ED91FC910190F081E02DCD
:100DF000602F19958E899F89DC01ED91FC910190FE
:100E0000F081E02D612F19958E899F890E94B6058A
:100E10008B87DF91CF911F910F91089590E080E033
:100E20000895CF93C82F80E70E94830161E070E0AE
:100E300001C0660FCA95EAF781EE97E00E94870528
:100E400081EE97E00E94B605811107C08BEA94E01D
:100E50000197F1F781E0CF91089580E0FCCFEF9208
:100E6000FF920F931F93CF93DF93CCE0D2E088E003
:100E7000E82E82E0F82E04E012E060E089910E9402
:100E8000AC0160E0F70181917F010E94AC0160E05C
:100E9000F80181918F010E94AC01F2E0C031DF07BF
:100EA00061F7DF91CF911F910F91FF90EF9008951F
:100EB000FC0101900020E9F73197AF01481B590B65
:100EC000BC0184E497E00C949D028F929F92AF92B4
:100ED000BF920F931F93CF93DF93CDB7DEB7A19748
:100EE0000FB6F894DEBF0FBECDBF19A2423008F492
:100EF0004AE08E010F5D1F4F842E912CB12CA12C46
:100F0000A50194010E943117E62FB901CA01EA3008
:100F1000F4F4E05DD801EE938D01232B242B252BD7
:100F200079F790E080E0109719F0CD010E94580702
:100F3000A1960FB6F894DEBF0FBECDBFDF91CF9163
:100F40001F910F91BF90AF909F908F900895E95C93
:100F5000E1CF009711F00C94580790E080E00895DD
:100F6000CF93DF930E945807EC0184E392E00E9444
:100F700058078C0F9D1FDF91CF910895CF92DF927C
:100F8000EF92FF92CF93DF936C01990FEE08FF0869
:100F9000F7FE19C06DE284E497E00E943303EC0190
:100FA00066277727CB016C197D098E099F094AE0D6
:100FB0000E9465078C0F9D1FDF91CF91FF90EF90EE
:100FC000DF90CF9008954AE0C701B601DF91CF913D
:100FD000FF90EF90DF90CF900C9465070F931F93D5
:100FE000CF93DF93EC01162F072F888D0E9483018A
:100FF0008E899F89DC01ED91FC910190F081E02DBB
:10100000602F19958E899F89DC01ED91FC910190EB
:10101000F081E02D612F19958E899F890E94B60578
:101020008B8762E0888D0E94610410926C06809329
:101030006B068E899F89DC01ED91FC910284F3851A
:10104000E02D199500E0182F8E899F89DC01ED9124
:10105000FC910284F385E02D1995802B912BDF9173
:10106000CF911F910F9108951F93CF93DF93EC01C0
:10107000162F888D0E9483018E899F89DC01ED9156
:10108000FC910190F081E02D60E019958E899F8997
:10109000DC01ED91FC910190F081E02D612F19951B
:1010A0008E899F890E94B6058B8761E0888D0E949A
:1010B000610410926C0680936B068E899F89DC0117
:1010C000ED91FC910284F385E02D1995DF91CF918C
:1010D0001F9108954F925F926F927F928F929F928D
:1010E000AF92BF92CF92DF92EF92FF92CF93DF93B6
:1010F0006A017B0120EBC21A21E1D20AE108F10862
:1011000021EEC21628ECD20620E1E206F10408F036
:10111000ECC0EC0160E670E00E943408B82E2E8D21
:101120003F8D50E040E060E070E080E090E40E949D
:101130003117A0E0B9E00E946A179B01AC01A6E05C
:101140005695479537952795AA95D1F7B394BB0C3B
:10115000AB2DB0E00E946A172B013C01B6E07694FB
:10116000679457944794BA95D1F74B015C0187E097
:10117000B694A794979487948A95D1F7C501B40142
:101180007058814C9F4FA30192010E9431172F3F4D
:1011900031054105510529F020F02FEF30E040E006
:1011A00050E0422F6BE470E0CE010E94DC06C501E6
:1011B000B401705F8F4F9F4FA30192010E943117BE
:1011C000CA01B9010E94D103AC016AE570E0CE0109
:1011D0000E949D06F694E794D794C7949CE0CC0CAB
:1011E000DD1CEE1CFF1C9A95D1F7C501B4016C0DF6
:1011F0007D1D8E1D9F1DA30192010E943117CA0102
:10120000B9010E94D103AC016EE570E0CE010E94ED
:101210009D0663E670E0CE010E943408B82E2E8D44
:101220003F8D50E040E060E070E080E090E40E949C
:101230003117A0E0B9E00E946A179B01AC0166E09B
:1012400056954795379527956A95D1F7B394BB0C7A
:10125000AB2DB0E00E946A172B013C01E6E07694CA
:10126000679457944794EA95D1F74B015C01F7E0F6
:10127000B694A79497948794FA95D1F7C501B401D1
:10128000705F8F4F9F4FA30192010E943117CA01D7
:10129000B9010E94D103AC016CE570E0CE010E945F
:1012A0009D06C701B601680D791D8A1D9B1DA3010E
:1012B00092010E943117CA01B9010E94D103AC0109
:1012C00061E670E0CE010E949D0681E0DF91CF9142
:1012D000FF90EF90DF90CF90BF90AF909F908F9056
:1012E0007F906F905F904F90089580E0EFCF8F9246
:1012F0009F92AF92BF92DF92EF92FF920F931F9354
:10130000CF93DF93E82E082F10E0F801E050FE4F56
:101310008081883008F0C1C20E941107D82E88232E
:1013200009F4BBC2D7E2ED9E70011124C7018351BD
:10133000984F7C010E948F02D7015D967C936E933B
:101340005C97E7015701B9E1AB0EB11C4701ECE135
:101350008E0E911C61E370E0C7010E94340880FF8B
:1013600060C0D5018D919C91892BA1F30E948F02C1
:10137000F40120813181621B730BD5018D919C9109
:101380008617970738F781E08B8F90E080E027E29F
:10139000209FF001219FF00D1124E351F84F238D80
:1013A000138E21117AC22281211177C29C01215012
:1013B0003109203A3F4008F070C2F801EE0FFF1FDC
:1013C000E958F94F91838083F801ED58F94F81E096
:1013D00080830E948F02000F111F000F111FF80160
:1013E000EC51FA4F6083718382839383F801EC5050
:1013F000FA4F80819181A281B3810196A11DB11D17
:1014000080839183A283B3838D2DDF91CF911F9130
:101410000F91FF90EF90DF90BF90AF909F908F90D3
:10142000089587E2809FE001819FD00D1124C35170
:10143000D84F888D0E9483018E899F89DC01ED91B0
:10144000FC910190F081E02D60E019958E899F89D3
:10145000DC01ED91FC910190F081E02D69E8199596
:101460008E899F890E94B6058B8761E1888D0E94D5
:10147000610410926C0680936B068E899F89DC0153
:10148000ED91FC910284F385E02D19958C878E896E
:101490009F89DC01ED91FC910284F385E02D199583
:1014A0008E899F89DC01ED91FC910284F385E02D0A
:1014B00019958D878E899F89DC01ED91FC910284BD
:1014C000F385E02D19951E868F878E899F89DC0113
:1014D000ED91FC910284F385E02D19952E853F85D1
:1014E000822B932B9F878E878E899F89DC01ED91BC
:1014F000FC910284F385E02D19958E899F89DC018A
:10150000ED91FC910284F385E02D19958E899F89D8
:10151000DC01ED91FC910284F385E02D1995188A88
:10152000898B8E899F89DC01ED91FC910284F38582
:10153000E02D199528893989822B932B998B888BDB
:101540008E899F89DC01ED91FC910284F385E02D69
:1015500019958E899F89DC01ED91FC910284F385B8
:10156000E02D19958E899F89DC01ED91FC91028413
:10157000F385E02D19958E899F89DC01ED91FC9111
:101580000284F385E02D19958E899F89DC01ED9108
:10159000FC910284F385E02D19951A8A8B8B8E8934
:1015A0009F89DC01ED91FC910284F385E02D199572
:1015B0002A893B89822B932B9B8B8A8B8E899F89CF
:1015C000DC01ED91FC910284F385E02D19951C8AD4
:1015D0008D8B8E899F89DC01ED91FC910284F385CE
:1015E000E02D19952C893D89822B932B9D8B8C8B1B
:1015F0008AA181112EC06BE070E0C7010E943408FF
:101600008BA368E070E0C7010E9434088CA34BA153
:101610004F776BE070E0C7010E94DC064CA143707D
:10162000445F68E070E0C7010E94DC0641E06DE4C1
:1016300070E0C7010E94DC0668ED70E0C7010E94FF
:101640003408482F67E470E0C7010E94DC0681E09F
:101650008AA387E2809FF001819FF00D1124E3515E
:10166000F84F268537852115310509F46FC0448967
:1016700055896089718990E080E0640F751F811D34
:10168000911D61157105B1E08B07910520F06FEF99
:101690007FEF80E090E0CB017727662750E040E0C5
:1016A0000E943117211531054105510509F44EC03D
:1016B00060E070E080E09AE00E943117211531056A
:1016C000E1E04E07510520F02FEF3FEF40E050E002
:1016D000A90164E570E0C7010E949D0687E2809F32
:1016E000F001819FF00D1124E351F84F22893389D5
:1016F000ABEDB7E00E945B177C5F8F4F9F4F4BE0D5
:1017000096958795779567954A95D1F7718360830C
:10171000E485E150E23108F0B6C0F0E08827EC56ED
:10172000F44F8F4F0C945317A90BA90BA90BD20B95
:10173000C80BDC0BE60BFA0B040C430C430CF00B50
:10174000B40B430C430C430CA90BBE0B40E050E818
:10175000C0CF87E2809FF001819FF00D1124E351FB
:10176000F84F85E082835EC087E2809FF001819F11
:10177000F00D1124E351F84F8DE0F4CF87E2809F04
:10178000F001819FF00D1124E351F84F8AE0EACF78
:1017900087E2809FF001819FF00D1124E351F84F03
:1017A00084E0E0CF87E2809FF001819FF00D11245B
:1017B000E351F84F82E0D6CF87E2809FF001819F0E
:1017C000F00D1124E351F84F81E0CCCF87E2809FE8
:1017D000F001819FF00D1124E351F84F87E0C2CF53
:1017E00087E2809FF001819FF00D1124E351F84FB3
:1017F00089E0B8CF87E2809FF001819FF00D11242E
:10180000E351F84F83E0AECF87E2809FF001819FE4
:10181000F00D1124E351F84F8585811102C086E057
:10182000A1CF128287E2809FE001819FD00D112419
:10183000C351D84F6C897D8990E080E00E943616B4
:1018400020E030E040E05CE30E9473166B837C8311
:101850008D839E836889798990E080E00E943616A6
:1018600020E030E040E05CE30E9473166F837887ED
:1018700089879A8741E066E870E0C7010E94DC062C
:101880008881998184CD87E2809FF001819FF00D4E
:101890001124E351F84F8FEF65CFF801EE0FFF1FD2
:1018A000EE0FFF1FEC51FA4F80809180A280B38031
:1018B00081149104A104B10431F4F801ED58F94FF9
:1018C0001082D12CA1CD0E948F02681979098A0952
:1018D0009B09613B74408105910578F7F2CFCF9267
:1018E000DF92EF92FF920F931F93CF93DF9387E3E3
:1018F00092E00E94A9078091EA0690E00E94BE074C
:1019000089E692E00E94A90780917F0690E00E94FC
:10191000BE0783E7E82E86E0F82E94EFC92E95E007
:10192000D92E07E716E0C1E0D0E08AE992E00E94F4
:10193000A907CE010E94BE0780EC94E00E94A9078F
:10194000F7018081882309F440C0F801608171812A
:1019500090E080E04AE00E9465078AE992E00E94F8
:10196000A907CE010E94BE0781E792E00E94A90765
:10197000F70181917F0190E00E94BE078AE992E021
:101980000E94A907CE010E94BE0789E792E00E944B
:10199000A907F60161917191819191916F014AE0DE
:1019A0000E94650721960E5F1F4FC530D10509F0D3
:1019B000BCCF84E392E0DF91CF911F910F91FF9014
:1019C000EF90DF90CF900C9458078FEF9FEF0E941D
:1019D000BE07C3CF85ED8093BC0080913C079091FA
:1019E0003D07A0913E07B0913F070796A11DB11D8D
:1019F00023E0B695A795979587952A95D1F72091DD
:101A0000BC0024FD03C010923A07089540913C07A2
:101A100050913D0760913E0770913F07452B462B43
:101A2000472B69F30097A105B10541F02AE22A95F9
:101A3000F1F700C00197A109B109E1CF80913B07FF
:101A40000C9440041F920F920FB60F9211242F9303
:101A50003F938F939F93AF93BF938091EC069091A8
:101A6000ED06A091EE06B091EF063091EB0623E073
:101A7000230F2D3758F50196A11DB11D2093EB06BC
:101A80008093EC069093ED06A093EE06B093EF06DC
:101A90008091F0069091F106A091F206B091F306C4
:101AA0000196A11DB11D8093F0069093F106A093BD
:101AB000F206B093F306BF91AF919F918F913F9142
:101AC0002F910F900FBE0F901F90189526E8230FAF
:101AD0000296A11DB11DD2CF1F920F920FB60F9289
:101AE00011240BB60F922F933F934F935F936F93F5
:101AF0007F938F939F93AF93BF93EF93FF9384E470
:101B000097E00E941103FF91EF91BF91AF919F91D8
:101B10008F917F916F915F914F913F912F910F9096
:101B20000BBE0F900FBE0F901F9018951F920F9233
:101B30000FB60F9211240BB60F922F938F939F9392
:101B4000EF93FF93E0915407F09155078081E09166
:101B50005A07F0915B0782FD1DC0908180915D075F
:101B60008F5F8F7320915E07821741F0E0915D07D0
:101B7000F0E0EC5BF84F958F80935D07FF91EF915C
:101B80009F918F912F910F900BBE0F900FBE0F90D2
:101B90001F9018958081F2CF1F920F920FB60F926F
:101BA00011240BB60F922F933F934F935F936F9334
:101BB0007F938F939F93AF93BF93EF93FF93809106
:101BC000B900887F803609F44DC008F040C08832E3
:101BD00009F4A9C028F5803109F49DC0C8F4882310
:101BE00009F4FBC0883009F496C0FF91EF91BF91D2
:101BF000AF919F918F917F916F915F914F913F91A5
:101C00002F910F900BBE0F900FBE0F901F90189545
:101C1000883109F488C0803241F78093180714C0D6
:101C2000803409F49DC040F48033B9F38833E9F679
:101C30008093180785ECB0C0803509F485C08835DD
:101C400009F496C0883489F60E94EA0CCECF883910
:101C500009F48CC038F5883729F050F4883611F033
:101C6000803719F683E080933A071092660657C0D2
:101C7000883809F47BC0803919F0803809F0B5CF75
:101C800080916606803208F071C0E091660681E0BE
:101C90008E0F809366068091BB00F0E0EA5BF94FFF
:101CA00080833DC0803B39F0E0F4803A09F479C08C
:101CB000883A09F09ACF84E080933A07109245065B
:101CC00010924406E0916906F0916A061995809198
:101CD000440681110FC081E08093440610922406CF
:101CE00009C0803C09F4A6CF883C09F4A3CF883B07
:101CF00009F07BCFE091450681E08E0F8093450689
:101D0000F0E0EC5DF94F80818093BB009091450637
:101D10008091440629C0809115078093BB0085EC13
:101D20008093BC0062CF9091170780911607981797
:101D300058F5E091170781E08E0F80931707F0E0C8
:101D4000EC50F94F8081E9CFE091170781E08E0FC9
:101D5000809317078091BB00F0E0EC50F94F80832F
:101D600090911707809116079817C8F285E8D8CF89
:101D7000E091170781E08E0F809317078091BB00D9
:101D8000F0E0EC50F94F80838091190781115CCF0E
:101D900081E08093140784EA8093BC0010923A0794
:101DA00024CF85EC8093BC0010923A0780916606A0
:101DB000803230F4E0916606F0E0EA5BF94F108281
:101DC0006091660670E0E0916706F091680686E42F
:101DD00096E019951092660608CF1092180734CF36
:101DE000109247071092460788EE93E0A0E0B0E01B
:101DF0008093480790934907A0934A07B0934B07F5
:101E000024E132E0309345072093440725EC30E08D
:101E1000309351072093500724EC30E03093530760
:101E20002093520720EC30E030935507209354075D
:101E300021EC30E0309357072093560722EC30E036
:101E4000309359072093580726EC30E030935B0716
:101E500020935A0710925D0710925E0710925F0759
:101E6000109260071092E4071092E3078093E50751
:101E70009093E607A093E707B093E80786E292E025
:101E80009093E2078093E107EDEEF7E041EE57E033
:101E900029E283E090E0578B468B208F128E118EC3
:101EA000138E12A213A214A296A385A3B79638E0AC
:101EB000E938F30781F70895CF93DF93CDB7DEB705
:101EC0002E970FB6F894DEBF0FBECDBF789484B5C1
:101ED000826084BD84B5816084BD85B5826085BD26
:101EE00085B5816085BD80916E00816080936E00B4
:101EF00010928100809181008260809381008091A6
:101F00008100816080938100809180008160809356
:101F100080008091B10084608093B1008091B00016
:101F200081608093B00080919100826080939100E5
:101F300080919100816080939100809190008160F8
:101F4000809390008091A10082608093A100809195
:101F5000A10081608093A1008091A00081608093A6
:101F6000A000809121018260809321018091210154
:101F70008160809321018091200181608093200104
:101F800080917A00846080937A0080917A008260E8
:101F900080937A0080917A00816080937A008091AA
:101FA0007A00806880937A001092C100E091540713
:101FB000F091550782E08083E0915007F09151073E
:101FC0001082E0915207F091530780E180831092D4
:101FD0005C07E0915807F091590786E08083E09113
:101FE0005607F0915707808180618083E091560702
:101FF000F0915707808188608083E0915607F091C7
:102000005707808180688083E0915607F0915707D9
:1020100080818F7D80830CE012E048E0C42E42E096
:10202000D42E54E0E52E52E0F52ED8018D918D018D
:102030000E948D01F60181916F010E948D01D701EF
:102040008D917D010E948D01B2E000311B0769F77F
:102050000E942F076CED75E080E090E00E945D0229
:102060008CEA92E00E94B00710926C0610926B0608
:1020700010924107109240070E9422048BE992E0DF
:1020800090936A06809369068CE992E090936806C3
:102090008093670688E48093B80010926D0688EA02
:1020A00091E6A0E0B0E080933C0790933D07A093B9
:1020B0003E07B0933F0781E080933B0780E70E9493
:1020C000830160E081EE97E00E94870581EE97E052
:1020D0000E94B605882309F474C084EE92E00E9441
:1020E000B0070E942F078091EA068823C9F00E945A
:1020F0008F020091E6061091E7062091E8063091E4
:10210000E906601B710B820B930B613177428105ED
:10211000910530F01092EA068EE593E00E94B00738
:102120000E948F0200916F06109170062091710637
:1021300030917206601B710B820B930B6A30710534
:1021400081059105A0F00E948F0260936F06709345
:102150007006809371069093720680916E060E94BD
:10216000770980916E068F5F837080936E0684E49A
:1021700097E00E94FB02181619060CF02BC584E4A8
:1021800097E00E94D9028D3091F32091E0063091C2
:10219000E1068A3009F002C5F901E058F94F1082D2
:1021A000232B09F42EC36EE673E080E896E00E94CC
:1021B000C617892B09F01BC383E793E00E94B00781
:1021C00020C3E0E0F2E0FC87EB878DEEE82E87E0AD
:1021D000F82ECC24C394D12C412C512C612C20E41A
:1021E000722E32E0232E312CAB85BC851D91BC872D
:1021F000AB871830A8F18EE892E00E94A907C601CB
:102200000E94BE078EE093E00E94A907612F70E054
:1022100090E080E04AE00E94650784E392E00E943B
:102220005807BFEFCB1ADB0AE7E2EE0EF11CF5E030
:10223000CF16D104C9F664EF71E080E090E00E940F
:102240005D0280E00E94770981E00E94770982E0C8
:102250000E94770983E00E94770987E193E03FCFEE
:10226000812F0E941107882331F262E370E080E041
:1022700090E00E945D0284EF91E0F701928F818FE0
:102280006FE071E0C7010E94EE078C3C9A4E09F0A6
:10229000B2CF40E070E060E0C7010E94DC068BE84E
:1022A00091E00197F1F741E070E060E0C7010E9422
:1022B000DC0661E070E080E090E00E945D020E9438
:1022C0008F02F701758F648F65EE70E0C7010E9481
:1022D000340880FF05C0D7011B968C918823C9F074
:1022E000F701818D928D892B79F30E948F02D7019E
:1022F0005C962D913C915D97621B730B59968D9165
:102300009C915A9786179707F8F681E05B968C9315
:1023100072CF6EE270E0C7010E943408482F41601E
:102320006EE270E0C7010E94DC0666E070E0C70163
:102330000E94EE07F701978F868F6EED70E0C70160
:102340000E94EE07D70191969C938E93909740E060
:102350005AE064E270E0C7010E949D0642E061E33A
:1023600070E0C7010E94DC0648E066E370E0C70148
:102370000E94DC0640E167E370E0C7010E94DC06D2
:1023800041E069E370E0C7010E94DC064FEF6EE3B5
:1023900070E0C7010E94DC0640E06FE370E0C70117
:1023A0000E94DC0642E060E470E0C7010E94DC06A7
:1023B00050E040E060E570E0C7010E949D0650E0FB
:1023C00040E062E570E0C7010E949D0648E367E5D2
:1023D00070E0C7010E94DC0648E651E064E670E068
:1023E000C7010E949D0640EC50E066E670E0C70120
:1023F0000E949D0641E061E770E0C7010E94DC0693
:1024000041E06CE770E0C7010E94DC0642E06EE745
:1024100070E0C7010E94DC0640E062E870E0C7019E
:102420000E94DC0641E067E770E0C7010E94DC061D
:102430004BE861E870E0C7010E94DC0640E058EC20
:1024400064E570E0C7010E949D0642E06FE470E021
:10245000C7010E94DC0660E670E0C7010E943408F4
:10246000082FF701268D378D50E040E0C301B201FF
:102470000E943117A0E0B9E00E946A179B01AC01ED
:10248000A6E05695479537952795AA95D1F70F5F02
:10249000000FA02FB0E00E946A174B015C016EE5AF
:1024A00070E0C7010E94EE079C01BC01772790E015
:1024B00080E004C0660F771F881F991F3A95D2F7F6
:1024C0006F5F7F4F8F4F9F4FA5019401B6E05695E8
:1024D000479537952795BA95D1F70E947517385FBC
:1024E0004F4F5F4F6F4F7F4F8F4F9F4F0CE00E94BA
:1024F000A2172B833C834D835E836F837887898704
:102500009A878B809C80AD80BE80F8ED8F0EF8E0BE
:102510009F1EA11CB11C880C991CAA1CBB1C4FE05F
:1025200060E670E0C7010E94DC064DE063E670E003
:10253000C7010E94DC0648EB69E670E0C7010E9413
:10254000DC064FE068E770E0C7010E94DC064DE062
:1025500069E770E0C7010E94DC064EE06AE770E0C0
:10256000C7010E94DC064EE06BE770E0C7010E94E5
:10257000DC0621EB821621E19206A104B10428F0C9
:10258000B501A401C7010E946A08D70196963C9242
:102590002E92959740E553EC60E070E0C7010E94F1
:1025A0006A0862E270E0C7010E94EE07AC01440FC6
:1025B000551F440F551F6EE170E0C7010E949D0634
:1025C00060E670E0C7010E943408082FF701268DED
:1025D000378D50E040E0C301B2010E943117A0E006
:1025E000B9E00E946A179B01AC0176E056954795C9
:1025F000379527957A95D1F70F5F000FA02FB0E0A0
:102600000E946A174B015C016EE570E0C7010E94F1
:10261000EE079C01BC01772790E080E004C0660FC4
:10262000771F881F991F3A95D2F76F5F7F4F8F4FA3
:102630009F4FA5019401E6E056954795379527955C
:10264000EA95D1F70E947517385F4F4F5F4F6F4F74
:102650007F4F8F4F9F4F0CE00E94A2172B833C832C
:102660004D835E836F83788789879A878B809C8070
:10267000AD80BE80F8ED8F0EF8E09F1EA11CB11C4E
:10268000880C991CAA1CBB1C47E060E670E0C701DF
:102690000E94DC0645E063E670E0C7010E94DC06AC
:1026A00048E369E670E0C7010E94DC0647E068E79E
:1026B00070E0C7010E94DC0645E069E770E0C701F1
:1026C0000E94DC0646E06AE770E0C7010E94DC0673
:1026D00046E06BE770E0C7010E94DC0621EB821642
:1026E00021E19206A104B10428F0B501A401C701BB
:1026F0000E946A08D70196961C921E92959740E513
:1027000053EC60E070E0C7010E946A08882309F476
:1027100072CDF70120A131A1ACE3B0E00E945B17BC
:102720004B015C01808D0E948301D70156968D91EB
:102730009C91DC01ED91FC910190F081E02D60E035
:102740001995F70186899789DC01ED91FC9101903B
:10275000F081E02D6CE61995F70186899789DC01F7
:10276000ED91FC910190F081E02D60E01995F70169
:10277000A689B789B50188279927ED91FC91119712
:102780000190F081E02DCD011995F701A689B78957
:1027900099278B2D7A2D692DED91FC911197019040
:1027A000F081E02DCD011995D70156968D919C9120
:1027B000DC01ED91FC910190F081E02D682D1995DF
:1027C000F701868997890E94B605D7011B968C93DD
:1027D00041E066E870E0C7010E94DC0640E467E87B
:1027E00070E0C7010E94DC068FE792E006CD64E945
:1027F00073E080E896E00E94C617892B39F40E94A6
:102800006F0C1092E1061092E006B1CC64EC73E01C
:1028100080E896E00E94C617892B39F40E942F07A2
:102820001092EA068BE993E0C9CC63EC73E080E890
:1028300096E00E94C617892B51F40E942F07109230
:10284000EA0681E080937F0689EC93E0B7CC69EFDC
:1028500073E080E896E00E94C617892B19F50E9464
:102860002F0780917F06E3E7F6E0882319F08AE0DE
:1028700094E0A4CC8191882309F4CEC196E0E73797
:10288000F907C1F721E02093EA060E948F026093C6
:10289000E6067093E7068093E8069093E9068CEBD2
:1028A00095E08CCC44E050E06BE274E080E896E088
:1028B0000E94CF176C01892B09F04AC11A82198234
:1028C000AE014F5F5F4F6EE274E084E896E00E94D5
:1028D0000F165C01AE014F5F5F4F6EE274E090E057
:1028E00080E00E940F168C01AE014F5F5F4F6EE2D9
:1028F00074E090E080E00E940F167C018091EA066F
:10290000811105C01092EA0680E394E057CC0E9442
:102910008F024090E6065090E7066090E8067090BF
:10292000E9066419750986099709613177428105BD
:10293000910540F7A114B10409F405C1F5018081A6
:10294000813409F000C182818111FDC081818153F0
:102950008B87843008F0F7C00115110509F4F3C026
:10296000EF2809F0F0C06DE972E0C8010E94C617B7
:102970007C01892B41F065EA72E0C8010E94C6170C
:10298000892B09F0E0C01092EA060E942F0780917F
:102990007F06E3E7F6E081116ACF8191882309F48D
:1029A0003BC187E796E08E179F07B9F78B85082F05
:1029B00010E0F801EE0FFF1FE958F94F2080318039
:1029C000E114F10409F46EC0A0E92A16A1E03A0668
:1029D00008F06DC08FE594E00E94A907F8013196D8
:1029E000FE87ED87CF010E94BE0784E794E00E9436
:1029F000A907E114F10409F05DC08DE992E09C8320
:102A00008B838B819C810E94A9078FE794E00E94B1
:102A1000A9074101B12CA12C4AE0C501B1010E94D6
:102A200065078BE894E00E94A9074AE068E770E038
:102A300080E090E00E94650784E392E00E945807DE
:102A400061E0E114F10409F460E0F801E45FFD4F96
:102A500080810E94AC0161E0EF2809F060E0F8019C
:102A6000E85FFD4F80810E94AC0161E0F801EC5FFE
:102A7000FD4F80810E94AC010E948F022B013C011E
:102A80000E948F02641975098609970968377105D4
:102A900081059105A0F461E070E080E090E00E9483
:102AA0005D02EECF92E42916310408F093CF82E460
:102AB00094E084CBA5EAB2E0BC83AB83A2CF0E94B2
:102AC0002F0764EB70E080E090E00E945D028B8550
:102AD0000E9477098823A1F1000F111FF801E9581E
:102AE000F94F008111816801C218D30889E994E087
:102AF0000E94A9078D859E850E94BE0784E794E009
:102B00000E94A9078B819C810E94A9078FE794E00E
:102B10000E94A9074AE0C501B4010E9465078FEA37
:102B200094E00E94A907C8010E94BE078AEB94E0C6
:102B30000E94A907C6010E94BE0785EC94E03ECB27
:102B40000FEF1FEFD3CF1092EA0685EE94E036CB5D
:102B50004AE050E06CE175E080E896E00E94CF1713
:102B6000892B91F044E050E067E275E080E896E060
:102B70000E94CF17892B41F06CE275E080E896E067
:102B80000E94C617892B39F40E942F071092EA067B
:102B900080E395E013CB83E695E010CB2F3531052C
:102BA00060F4A9014F5F5F4F5093E1064093E00648
:102BB0002058394FF9018083DACA1092E106109249
:102BC000E0060E942F071092EA0687E795E00E9430
:102BD000B007CDCA0E948F020091E2061091E30671
:102BE0002091E4063091E506601B710B820B930B7C
:102BF000643F71408105910560F00E948F026093EF
:102C0000E2067093E3068093E4069093E5060E9443
:102C10006F0C0E94A00365CA89E995E0CFCAFA014A
:102C2000A191B081009719F41097E1F0CD01DC017A
:102C3000CD010D90002011F4C00113C0FB012191C2
:102C4000222319F02015D9F7F3CFFB01219120158C
:102C500019F41E92119606C02223C1F70D90002090
:102C6000A1F7D001FA01A193B0830895E89409C0B7
:102C700097FB3EF490958095709561957F4F8F4FAF
:102C80009F4F9923A9F0F92F96E9BB279395F695C5
:102C9000879577956795B795F111F8CFFAF4BB0F43
:102CA00011F460FF1BC06F5F7F4F8F4F9F4F16C0A7
:102CB000882311F096E911C0772321F09EE8872F31
:102CC000762F05C0662371F096E8862F70E060E0ED
:102CD0002AF09A95660F771F881FDAF7880F969566
:102CE000879597F908950E9486160C94F7160E940E
:102CF000E91638F00E94F01620F0952311F00C949C
:102D0000E0160C94E61611240C942B170E94081759
:102D100070F3959FC1F3950F50E0551F629FF0012E
:102D2000729FBB27F00DB11D639FAA27F00DB11D47
:102D3000AA1F649F6627B00DA11D661F829F2227D0
:102D4000B00DA11D621F739FB00DA11D621F839F57
:102D5000A00D611D221F749F3327A00D611D231F2D
:102D6000849F600D211D822F762F6A2F11249F577B
:102D700050409AF0F1F088234AF0EE0FFF1FBB1F7E
:102D8000661F771F881F91505040A9F79E3F51053D
:102D900080F00C94E0160C942B175F3FE4F3983E00
:102DA000D4F3869577956795B795F795E7959F5FE7
:102DB000C1F7FE2B880F911D9695879597F9089579
:102DC00097F99F6780E870E060E008959FEF80ECDE
:102DD000089500240A941616170618060906089581
:102DE00000240A9412161306140605060895092EE7
:102DF0000394000C11F4882352F0BB0F40F4BF2B56
:102E000011F460FF04C06F5F7F4F8F4F9F4F089595
:102E100057FD9058440F551F59F05F3F71F047958B
:102E2000880F97FB991F61F09F3F79F08795089570
:102E3000121613061406551FF2CF4695F1DF08C08F
:102E4000161617061806991FF1CF869571056105AC
:102E500008940895E894BB2766277727CB0197F954
:102E60000895A1E21A2EAA1BBB1BFD010DC0AA1FCB
:102E7000BB1FEE1FFF1FA217B307E407F50720F0E3
:102E8000A21BB30BE40BF50B661F771F881F991F5E
:102E90001A9469F760957095809590959B01AC01A7
:102EA000BD01CF010895EE0FFF1F881F8BBF079054
:102EB000F691E02D1994A29FB001B39FC001A39F8A
:102EC000700D811D1124911DB29F700D811D112463
:102ED000911D08950E945B17A59F900DB49F900DC2
:102EE000A49F800D911D11240895E894DF93CF9342
:102EF000FC01DB010E945B177F936F93E9019A014C
:102F0000AC01BF93AF933F932F93DF010E945B17F8
:102F100026F46C1B7D0B820B930B9E01EB01FC01D5
:102F20000E94BD17AF91BF912F913F910E94BD1795
:102F3000BE01CF01F9012F913F91CF91DF9108950B
:102F400097FD1094002E083098F00850232F342F4E
:102F5000452F562F672F782F892F912DF4CF159459
:102F600097958795779567955795479537952795C1
:102F70000A95AAF71124002D08950E945B17460FA9
:102F8000571FC81FD91F08F431960895FB01DC01B3
:102F90008D91019080190110D9F3990B0895FB01CF
:102FA000DC014150504030F08D910190801919F4AE
:0E2FB0000020B9F7881B990B0895F894FFCF05
:102FBE00000102031E1F202117191B1D16181A1CB3
:102FCE000000000033039D02CA028003FB02D902F7
:102FDE00ED020000000087055A050E073005530567
:102FEE00400531050D0A004C414E4445525F535485
:102FFE0041545553206D6F64653D4A4F475F4944B8
:10300E00454E544946595F4C4F434B4544206A6FD9
:10301E00675F61726D65643D00206573746F703D0E
:10302E00005F76616C69643D005F7665723D0053AA
:10303E00454E534F525F524541445920410053452E
:10304E004E534F525F4641554C5420410052455409
:10305E005241435400455854454E44004D45474156
:10306E005F4C414E4445525F4A4F475F4944454E7F
:10307E00544946595F563120424F4F54204C4F43CE
:10308E004B454420414C4C5F4F5554505554535F63
:10309E004C4F57004641554C54205443413935341A
:1030AE0038415F4E4F545F44455445435445442088
:1030BE004D4F54494F4E5F4C4F434B4544002054A7
:1030CE0043415F43483D005245414459204F4E45D0
:1030DE005F53484F545F4A4F475F524551554952CF
:1030EE0045535F41524D5F4A4F475F4944454E54E9
:1030FE0049465920414C4C5F4F544845525F4D4F05
:10310E0054494F4E5F52454A4543544544004A4F39
:10311E00475F41524D5F4558504952454400504912
:10312E004E4700504F4E47204D4547415F4C414E54
:10313E004445525F4A4F475F4944454E54494659AC
:10314E005F563100535441545553004F4B20535446
:10315E004F5050454420414C4C5F4F5554505554A0
:10316E00535F4C4F57204A4F475F44495341524D8E
:10317E004544004553544F50004F4B204553544F38
:10318E00505F4C41544348454420414C4C5F4F5591
:10319E0054505554535F4C4F572052455345545F2E
:1031AE0052455155495245440041524D5F4A4F4791
:1031BE00204944454E5449465900455252204553E4
:1031CE00544F505F4C4154434845445F524553451C
:1031DE00545F5245515549524544004A4F472000CD
:1031EE00455252204A4F475F4E4F545F41524D4514
:1031FE00440045525220444952454354494F4E4192
:10320E004C5F53454E534F525F4C494D4954004A03
:10321E004F475F5354415254206163747561746F0C
:10322E00723D410020706F6C61726974793D0020AF
:10323E006265666F72655F6D6D3D002064757261CB
:10324E0074696F6E5F6D733D004A4F475F52455311
:10325E00554C54206163747561746F723D4100204A
:10326E0061667465725F6D6D3D002064656C74619E
:10327E005F6D6D3D00206F7574707574733D414CBC
:10328E004C5F4C4F572061726D5F636F6E73756D3F
:10329E0065643D310045525220464F524D41545FB8
:1032AE004A4F475F41315F544F5F41345F5245543F
:1032BE00524143545F4F525F455854454E4420414E
:1032CE00524D5F434F4E53554D4544005345545F49
:1032DE00544152474554004D4F56450041524D0002
:1032EE0045525220434F4E54494E554F55535F4D04
:1032FE004F54494F4E5F44495341424C45445F49F8
:10330E0044454E54494649434154494F4E5F4F4EF2
:10331E004C590045525220554E4B4E4F574E5F431F
:10332E004F4D4D414E440045525220434F4D4D415D
:10333E004E445F544F4F5F4C4F4E47204A4F475FAE
:10334E0044495341524D4544004552522053454E37
:10335E00534F525F474154455F524551554952456F
:10336E00535F414C4C5F56414C4944004F4B204AF1
:10337E004F475F41524D45445F4F4E455F53484F57
:10338E00545F455850495245535F4D533D3130308F
:04339E0030300000CB
:00000001FF
